{
  "contractName": "FlightSuretyApp",
  "abi": [
    {
      "inputs": [
        {
          "internalType": "address",
          "name": "dataContract",
          "type": "address"
        },
        {
          "internalType": "address",
          "name": "firstAirline",
          "type": "address"
        },
        {
          "internalType": "string",
          "name": "name",
          "type": "string"
        }
      ],
      "stateMutability": "nonpayable",
      "type": "constructor"
    },
    {
      "anonymous": false,
      "inputs": [
        {
          "indexed": false,
          "internalType": "address",
          "name": "airline",
          "type": "address"
        },
        {
          "indexed": false,
          "internalType": "bytes32",
          "name": "flight",
          "type": "bytes32"
        },
        {
          "indexed": false,
          "internalType": "uint256",
          "name": "timestamp",
          "type": "uint256"
        },
        {
          "indexed": false,
          "internalType": "uint8",
          "name": "status",
          "type": "uint8"
        }
      ],
      "name": "FlightStatusInfo",
      "type": "event"
    },
    {
      "anonymous": false,
      "inputs": [
        {
          "indexed": false,
          "internalType": "address",
          "name": "airline",
          "type": "address"
        },
        {
          "indexed": false,
          "internalType": "bytes32",
          "name": "flight",
          "type": "bytes32"
        },
        {
          "indexed": false,
          "internalType": "uint256",
          "name": "timestamp",
          "type": "uint256"
        },
        {
          "indexed": false,
          "internalType": "uint8",
          "name": "status",
          "type": "uint8"
        }
      ],
      "name": "OracleReport",
      "type": "event"
    },
    {
      "anonymous": false,
      "inputs": [
        {
          "indexed": false,
          "internalType": "uint8",
          "name": "index",
          "type": "uint8"
        },
        {
          "indexed": false,
          "internalType": "address",
          "name": "airline",
          "type": "address"
        },
        {
          "indexed": false,
          "internalType": "bytes32",
          "name": "flight",
          "type": "bytes32"
        },
        {
          "indexed": false,
          "internalType": "uint256",
          "name": "timestamp",
          "type": "uint256"
        }
      ],
      "name": "OracleRequest",
      "type": "event"
    },
    {
      "inputs": [],
      "name": "REGISTRATION_FEE",
      "outputs": [
        {
          "internalType": "uint256",
          "name": "",
          "type": "uint256"
        }
      ],
      "stateMutability": "view",
      "type": "function"
    },
    {
      "inputs": [],
      "name": "isOperational",
      "outputs": [
        {
          "internalType": "bool",
          "name": "",
          "type": "bool"
        }
      ],
      "stateMutability": "view",
      "type": "function"
    },
    {
      "inputs": [],
      "name": "getNumOracles",
      "outputs": [
        {
          "internalType": "uint8",
          "name": "",
          "type": "uint8"
        }
      ],
      "stateMutability": "view",
      "type": "function"
    },
    {
      "inputs": [
        {
          "internalType": "uint8",
          "name": "index",
          "type": "uint8"
        },
        {
          "internalType": "address",
          "name": "airline",
          "type": "address"
        },
        {
          "internalType": "bytes32",
          "name": "flight",
          "type": "bytes32"
        },
        {
          "internalType": "uint256",
          "name": "timestamp",
          "type": "uint256"
        },
        {
          "internalType": "uint8",
          "name": "status",
          "type": "uint8"
        }
      ],
      "name": "getOracleResponses",
      "outputs": [
        {
          "internalType": "address",
          "name": "requester",
          "type": "address"
        },
        {
          "internalType": "bool",
          "name": "isOpen",
          "type": "bool"
        },
        {
          "internalType": "address[]",
          "name": "responses",
          "type": "address[]"
        }
      ],
      "stateMutability": "view",
      "type": "function"
    },
    {
      "inputs": [
        {
          "internalType": "address",
          "name": "account",
          "type": "address"
        },
        {
          "internalType": "string",
          "name": "name",
          "type": "string"
        }
      ],
      "name": "registerAirline",
      "outputs": [
        {
          "internalType": "bool",
          "name": "success",
          "type": "bool"
        },
        {
          "internalType": "uint256",
          "name": "votes",
          "type": "uint256"
        }
      ],
      "stateMutability": "nonpayable",
      "type": "function"
    },
    {
      "inputs": [
        {
          "internalType": "address",
          "name": "account",
          "type": "address"
        }
      ],
      "name": "voteAirline",
      "outputs": [],
      "stateMutability": "nonpayable",
      "type": "function"
    },
    {
      "inputs": [
        {
          "internalType": "string",
          "name": "flight",
          "type": "string"
        },
        {
          "internalType": "uint256",
          "name": "timestamp",
          "type": "uint256"
        }
      ],
      "name": "registerFlight",
      "outputs": [],
      "stateMutability": "nonpayable",
      "type": "function"
    },
    {
      "inputs": [
        {
          "internalType": "address",
          "name": "airline",
          "type": "address"
        },
        {
          "internalType": "bytes32",
          "name": "flight",
          "type": "bytes32"
        },
        {
          "internalType": "uint256",
          "name": "timestamp",
          "type": "uint256"
        }
      ],
      "name": "fetchFlightStatus",
      "outputs": [],
      "stateMutability": "nonpayable",
      "type": "function"
    },
    {
      "inputs": [],
      "name": "registerOracle",
      "outputs": [],
      "stateMutability": "payable",
      "type": "function"
    },
    {
      "inputs": [],
      "name": "getMyIndexes",
      "outputs": [
        {
          "internalType": "uint8[3]",
          "name": "",
          "type": "uint8[3]"
        }
      ],
      "stateMutability": "view",
      "type": "function"
    },
    {
      "inputs": [
        {
          "internalType": "uint8",
          "name": "index",
          "type": "uint8"
        },
        {
          "internalType": "address",
          "name": "airline",
          "type": "address"
        },
        {
          "internalType": "bytes32",
          "name": "flight",
          "type": "bytes32"
        },
        {
          "internalType": "uint256",
          "name": "timestamp",
          "type": "uint256"
        },
        {
          "internalType": "uint8",
          "name": "statusCode",
          "type": "uint8"
        }
      ],
      "name": "submitOracleResponse",
      "outputs": [],
      "stateMutability": "nonpayable",
      "type": "function"
    }
  ],
  "bytecode": "0x60806040526000600360006101000a81548160ff021916908360ff1602179055506000600560006101000a81548160ff021916908360ff1602179055503480156200004957600080fd5b50604051620034323803806200343283398181016040528101906200006f919062000421565b336000806101000a81548173ffffffffffffffffffffffffffffffffffffffff021916908373ffffffffffffffffffffffffffffffffffffffff16021790555082600160006101000a81548173ffffffffffffffffffffffffffffffffffffffff021916908373ffffffffffffffffffffffffffffffffffffffff1602179055506000600160009054906101000a900473ffffffffffffffffffffffffffffffffffffffff1673ffffffffffffffffffffffffffffffffffffffff16637ab21cdc6040518163ffffffff1660e01b8152600401602060405180830381865afa15801562000160573d6000803e3d6000fd5b505050506040513d601f19601f82011682018060405250810190620001869190620004d7565b036200022057600160009054906101000a900473ffffffffffffffffffffffffffffffffffffffff1673ffffffffffffffffffffffffffffffffffffffff166387d0e94a83836040518363ffffffff1660e01b8152600401620001eb92919062000577565b600060405180830381600087803b1580156200020657600080fd5b505af11580156200021b573d6000803e3d6000fd5b505050505b505050620005ab565b6000604051905090565b600080fd5b600080fd5b600073ffffffffffffffffffffffffffffffffffffffff82169050919050565b60006200026a826200023d565b9050919050565b6200027c816200025d565b81146200028857600080fd5b50565b6000815190506200029c8162000271565b92915050565b600080fd5b600080fd5b6000601f19601f8301169050919050565b7f4e487b7100000000000000000000000000000000000000000000000000000000600052604160045260246000fd5b620002f782620002ac565b810181811067ffffffffffffffff82111715620003195762000318620002bd565b5b80604052505050565b60006200032e62000229565b90506200033c8282620002ec565b919050565b600067ffffffffffffffff8211156200035f576200035e620002bd565b5b6200036a82620002ac565b9050602081019050919050565b60005b83811015620003975780820151818401526020810190506200037a565b60008484015250505050565b6000620003ba620003b48462000341565b62000322565b905082815260208101848484011115620003d957620003d8620002a7565b5b620003e684828562000377565b509392505050565b600082601f830112620004065762000405620002a2565b5b815162000418848260208601620003a3565b91505092915050565b6000806000606084860312156200043d576200043c62000233565b5b60006200044d868287016200028b565b935050602062000460868287016200028b565b925050604084015167ffffffffffffffff81111562000484576200048362000238565b5b6200049286828701620003ee565b9150509250925092565b6000819050919050565b620004b1816200049c565b8114620004bd57600080fd5b50565b600081519050620004d181620004a6565b92915050565b600060208284031215620004f057620004ef62000233565b5b60006200050084828501620004c0565b91505092915050565b62000514816200025d565b82525050565b600081519050919050565b600082825260208201905092915050565b600062000543826200051a565b6200054f818562000525565b93506200056181856020860162000377565b6200056c81620002ac565b840191505092915050565b60006040820190506200058e600083018562000509565b8181036020830152620005a2818462000536565b90509392505050565b612e7780620005bb6000396000f3fe60806040526004361061009c5760003560e01c806396417767116100645780639641776714610155578063cd905dff1461017e578063d8ab5b89146101a9578063d9da99c8146101d2578063dd9548b514610211578063ee38a7491461023a5761009c565b806330c344f7146100a1578063339d2590146100cc57806339cfc995146100d65780635f1cc0e6146100ff57806364b4f7511461012a575b600080fd5b3480156100ad57600080fd5b506100b6610278565b6040516100c39190611bfd565b60405180910390f35b6100d461028f565b005b3480156100e257600080fd5b506100fd60048036038101906100f89190611da8565b6103b4565b005b34801561010b57600080fd5b5061011461044c565b6040516101219190611eaf565b60405180910390f35b34801561013657600080fd5b5061013f61058c565b60405161014c9190611ed9565b60405180910390f35b34801561016157600080fd5b5061017c60048036038101906101779190611fb4565b610598565b005b34801561018a57600080fd5b50610193610955565b6040516101a0919061204a565b60405180910390f35b3480156101b557600080fd5b506101d060048036038101906101cb9190612065565b6109ed565b005b3480156101de57600080fd5b506101f960048036038101906101f49190611fb4565b610f65565b6040516102089392919061215f565b60405180910390f35b34801561021d57600080fd5b506102386004803603810190610233919061219d565b61109f565b005b34801561024657600080fd5b50610261600480360381019061025c91906121f0565b611199565b60405161026f92919061224c565b60405180910390f35b6000600560009054906101000a900460ff16905090565b670de0b6b3a76400003410156102da576040517f08c379a00000000000000000000000000000000000000000000000000000000081526004016102d1906122d2565b60405180910390fd5b60006102e5336116e0565b9050604051806040016040528060011515815260200182815250600460003373ffffffffffffffffffffffffffffffffffffffff1673ffffffffffffffffffffffffffffffffffffffff16815260200190815260200160002060008201518160000160006101000a81548160ff021916908315150217905550602082015181600101906003610375929190611a7e565b509050506005600081819054906101000a900460ff168092919061039890612321565b91906101000a81548160ff021916908360ff1602179055505050565b600160009054906101000a900473ffffffffffffffffffffffffffffffffffffffff1673ffffffffffffffffffffffffffffffffffffffff1663d9d4122633848460006040518563ffffffff1660e01b815260040161041694939291906123b8565b600060405180830381600087803b15801561043057600080fd5b505af1158015610444573d6000803e3d6000fd5b505050505050565b610454611b18565b600460003373ffffffffffffffffffffffffffffffffffffffff1673ffffffffffffffffffffffffffffffffffffffff16815260200190815260200160002060000160009054906101000a900460ff166104e3576040517f08c379a00000000000000000000000000000000000000000000000000000000081526004016104da90612450565b60405180910390fd5b600460003373ffffffffffffffffffffffffffffffffffffffff1673ffffffffffffffffffffffffffffffffffffffff168152602001908152602001600020600101600380602002604051908101604052809291908260038015610582576020028201916000905b82829054906101000a900460ff1660ff168152602001906001019060208260000104928301926001038202915080841161054b5790505b5050505050905090565b670de0b6b3a764000081565b8460ff16600460003373ffffffffffffffffffffffffffffffffffffffff1673ffffffffffffffffffffffffffffffffffffffff1681526020019081526020016000206001016000600381106105f1576105f0612470565b5b602091828204019190069054906101000a900460ff1660ff16148061068557508460ff16600460003373ffffffffffffffffffffffffffffffffffffffff1673ffffffffffffffffffffffffffffffffffffffff16815260200190815260200160002060010160016003811061066a57610669612470565b5b602091828204019190069054906101000a900460ff1660ff16145b806106ff57508460ff16600460003373ffffffffffffffffffffffffffffffffffffffff1673ffffffffffffffffffffffffffffffffffffffff1681526020019081526020016000206001016002600381106106e4576106e3612470565b5b602091828204019190069054906101000a900460ff1660ff16145b61073e576040517f08c379a000000000000000000000000000000000000000000000000000000000815260040161073590612511565b60405180910390fd5b60008585858560405160200161075794939291906125f1565b6040516020818303038152906040528051906020012090506006600082815260200190815260200160002060000160149054906101000a900460ff166107d2576040517f08c379a00000000000000000000000000000000000000000000000000000000081526004016107c9906126b1565b60405180910390fd5b6006600082815260200190815260200160002060010160008360ff1660ff168152602001908152602001600020339080600181540180825580915050600190039060005260206000200160009091909190916101000a81548173ffffffffffffffffffffffffffffffffffffffff021916908373ffffffffffffffffffffffffffffffffffffffff1602179055507f06354a194cc1aa38c93009e264262f1db6b56a5e6dc2be2c7596a94b980c2f858585858560405161089594939291906126e0565b60405180910390a160036006600083815260200190815260200160002060010160008460ff1660ff168152602001908152602001600020805490501061094d5760006006600083815260200190815260200160002060000160146101000a81548160ff0219169083151502179055507f2c01e4c91c66eba4e28833dfd0d7db5b12558c3773d8fe5ab88cbaafb423056e8585858560405161093994939291906126e0565b60405180910390a161094c858584611880565b5b505050505050565b6000600160009054906101000a900473ffffffffffffffffffffffffffffffffffffffff1673ffffffffffffffffffffffffffffffffffffffff1663cd905dff6040518163ffffffff1660e01b8152600401602060405180830381865afa1580156109c4573d6000803e3d6000fd5b505050506040513d601f19601f820116820180604052508101906109e89190612751565b905090565b6000600160009054906101000a900473ffffffffffffffffffffffffffffffffffffffff1673ffffffffffffffffffffffffffffffffffffffff16637ab21cdc6040518163ffffffff1660e01b8152600401602060405180830381865afa158015610a5c573d6000803e3d6000fd5b505050506040513d601f19601f82011682018060405250810190610a809190612793565b90506004811015610ac6576040517f08c379a0000000000000000000000000000000000000000000000000000000008152600401610abd90612832565b60405180910390fd5b600160009054906101000a900473ffffffffffffffffffffffffffffffffffffffff1673ffffffffffffffffffffffffffffffffffffffff1663a78d9799836040518263ffffffff1660e01b8152600401610b219190612852565b602060405180830381865afa158015610b3e573d6000803e3d6000fd5b505050506040513d601f19601f82011682018060405250810190610b629190612751565b610ba1576040517f08c379a0000000000000000000000000000000000000000000000000000000008152600401610b98906128df565b60405180910390fd5b600160009054906101000a900473ffffffffffffffffffffffffffffffffffffffff1673ffffffffffffffffffffffffffffffffffffffff166380c575f0836040518263ffffffff1660e01b8152600401610bfc9190612852565b602060405180830381865afa158015610c19573d6000803e3d6000fd5b505050506040513d601f19601f82011682018060405250810190610c3d9190612751565b15610c7d576040517f08c379a0000000000000000000000000000000000000000000000000000000008152600401610c7490612971565b60405180910390fd5b6000805b600260008573ffffffffffffffffffffffffffffffffffffffff1673ffffffffffffffffffffffffffffffffffffffff16815260200190815260200160002080549050811015610d95573373ffffffffffffffffffffffffffffffffffffffff16600260008673ffffffffffffffffffffffffffffffffffffffff1673ffffffffffffffffffffffffffffffffffffffff1681526020019081526020016000208281548110610d3357610d32612470565b5b9060005260206000200160009054906101000a900473ffffffffffffffffffffffffffffffffffffffff1673ffffffffffffffffffffffffffffffffffffffff1603610d825760019150610d95565b8080610d8d90612991565b915050610c81565b506000151581151514610ddd576040517f08c379a0000000000000000000000000000000000000000000000000000000008152600401610dd490612a4b565b60405180910390fd5b600260008473ffffffffffffffffffffffffffffffffffffffff1673ffffffffffffffffffffffffffffffffffffffff168152602001908152602001600020339080600181540180825580915050600190039060005260206000200160009091909190916101000a81548173ffffffffffffffffffffffffffffffffffffffff021916908373ffffffffffffffffffffffffffffffffffffffff160217905550600282610e8a9190612a9a565b600260008573ffffffffffffffffffffffffffffffffffffffff1673ffffffffffffffffffffffffffffffffffffffff1681526020019081526020016000208054905010610f6057600160009054906101000a900473ffffffffffffffffffffffffffffffffffffffff1673ffffffffffffffffffffffffffffffffffffffff1663bf1d9156846040518263ffffffff1660e01b8152600401610f2d9190612852565b600060405180830381600087803b158015610f4757600080fd5b505af1158015610f5b573d6000803e3d6000fd5b505050505b505050565b6000806060600088888888604051602001610f8394939291906125f1565b60405160208183030381529060405280519060200120905060006006600083815260200190815260200160002090508060000160009054906101000a900473ffffffffffffffffffffffffffffffffffffffff168160000160149054906101000a900460ff168260010160008960ff1660ff1681526020019081526020016000208080548060200260200160405190810160405280929190818152602001828054801561108557602002820191906000526020600020905b8160009054906101000a900473ffffffffffffffffffffffffffffffffffffffff1673ffffffffffffffffffffffffffffffffffffffff168152602001906001019080831161103b575b505050505090509450945094505050955095509592505050565b60006110aa336119b2565b90506000818585856040516020016110c594939291906125f1565b6040516020818303038152906040528051906020012090506000600660008381526020019081526020016000209050338160000160006101000a81548173ffffffffffffffffffffffffffffffffffffffff021916908373ffffffffffffffffffffffffffffffffffffffff16021790555060018160000160146101000a81548160ff0219169083151502179055507f8b9eb22876717bbfb6bc02e9c693f640e54e5eb49e166ece6d6a70a6cc84a34f838787876040516111899493929190612acb565b60405180910390a1505050505050565b6000806004600160009054906101000a900473ffffffffffffffffffffffffffffffffffffffff1673ffffffffffffffffffffffffffffffffffffffff16637ab21cdc6040518163ffffffff1660e01b8152600401602060405180830381865afa15801561120b573d6000803e3d6000fd5b505050506040513d601f19601f8201168201806040525081019061122f9190612793565b101561153657600160009054906101000a900473ffffffffffffffffffffffffffffffffffffffff1673ffffffffffffffffffffffffffffffffffffffff166302eb72ad6040518163ffffffff1660e01b8152600401602060405180830381865afa1580156112a2573d6000803e3d6000fd5b505050506040513d601f19601f820116820180604052508101906112c69190612b25565b73ffffffffffffffffffffffffffffffffffffffff163373ffffffffffffffffffffffffffffffffffffffff1614611333576040517f08c379a000000000000000000000000000000000000000000000000000000000815260040161132a90612bc4565b60405180910390fd5b600160009054906101000a900473ffffffffffffffffffffffffffffffffffffffff1673ffffffffffffffffffffffffffffffffffffffff1663f3ba4e1b336040518263ffffffff1660e01b815260040161138e9190612852565b602060405180830381865afa1580156113ab573d6000803e3d6000fd5b505050506040513d601f19601f820116820180604052508101906113cf9190612751565b61140e576040517f08c379a000000000000000000000000000000000000000000000000000000000815260040161140590612c56565b60405180910390fd5b600160009054906101000a900473ffffffffffffffffffffffffffffffffffffffff1673ffffffffffffffffffffffffffffffffffffffff1663ee38a74985856040518363ffffffff1660e01b815260040161146b929190612c76565b600060405180830381600087803b15801561148557600080fd5b505af1158015611499573d6000803e3d6000fd5b50505050600160009054906101000a900473ffffffffffffffffffffffffffffffffffffffff1673ffffffffffffffffffffffffffffffffffffffff1663bf1d9156856040518263ffffffff1660e01b81526004016114f89190612852565b600060405180830381600087803b15801561151257600080fd5b505af1158015611526573d6000803e3d6000fd5b50505050600180915091506116d9565b8373ffffffffffffffffffffffffffffffffffffffff163373ffffffffffffffffffffffffffffffffffffffff16146115a4576040517f08c379a000000000000000000000000000000000000000000000000000000000815260040161159b90612d3e565b60405180910390fd5b600160009054906101000a900473ffffffffffffffffffffffffffffffffffffffff1673ffffffffffffffffffffffffffffffffffffffff1663ee38a74933856040518363ffffffff1660e01b8152600401611601929190612c76565b600060405180830381600087803b15801561161b57600080fd5b505af115801561162f573d6000803e3d6000fd5b50505050600067ffffffffffffffff81111561164e5761164d611c47565b5b60405190808252806020026020018201604052801561167c5781602001602082028036833780820191505090505b50600260003373ffffffffffffffffffffffffffffffffffffffff1673ffffffffffffffffffffffffffffffffffffffff16815260200190815260200160002090805190602001906116cf929190611b3a565b5060016000915091505b9250929050565b6116e8611b18565b6116f0611b18565b6116f9836119b2565b8160006003811061170d5761170c612470565b5b602002019060ff16908160ff168152505060005b60058110156117a857611733846119b2565b8260016003811061174757611746612470565b5b602002019060ff16908160ff16815250508160016003811061176c5761176b612470565b5b602002015160ff168260006003811061178857611787612470565b5b602002015160ff16036117a85780806117a090612991565b915050611721565b5060005b6005811015611876576117be846119b2565b826002600381106117d2576117d1612470565b5b602002019060ff16908160ff1681525050816002600381106117f7576117f6612470565b5b602002015160ff168260006003811061181357611812612470565b5b602002015160ff161415801561185f57508160026003811061183857611837612470565b5b602002015160ff168260016003811061185457611853612470565b5b602002015160ff1614155b61187657808061186e90612991565b9150506117ac565b5080915050919050565b600160009054906101000a900473ffffffffffffffffffffffffffffffffffffffff1673ffffffffffffffffffffffffffffffffffffffff16631c6cd3298484846040518463ffffffff1660e01b81526004016118df93929190612d5e565b600060405180830381600087803b1580156118f957600080fd5b505af115801561190d573d6000803e3d6000fd5b50505050601460ff168160ff16036119ad57600160009054906101000a900473ffffffffffffffffffffffffffffffffffffffff1673ffffffffffffffffffffffffffffffffffffffff1663cc2f6eba836040518263ffffffff1660e01b815260040161197a9190612d95565b600060405180830381600087803b15801561199457600080fd5b505af11580156119a8573d6000803e3d6000fd5b505050505b505050565b600080600a905060008160ff166003600081819054906101000a900460ff16809291906119de90612321565b91906101000a81548160ff021916908360ff16021790555060ff1643611a049190612db0565b4085604051602001611a17929190612de4565b6040516020818303038152906040528051906020012060001c611a3a9190612e10565b905060fa600360009054906101000a900460ff1660ff161115611a74576000600360006101000a81548160ff021916908360ff1602179055505b8092505050919050565b826003601f01602090048101928215611b075791602002820160005b83821115611ad857835183826101000a81548160ff021916908360ff1602179055509260200192600101602081600001049283019260010302611a9a565b8015611b055782816101000a81549060ff0219169055600101602081600001049283019260010302611ad8565b505b509050611b149190611bc4565b5090565b6040518060600160405280600390602082028036833780820191505090505090565b828054828255906000526020600020908101928215611bb3579160200282015b82811115611bb25782518260006101000a81548173ffffffffffffffffffffffffffffffffffffffff021916908373ffffffffffffffffffffffffffffffffffffffff16021790555091602001919060010190611b5a565b5b509050611bc09190611bc4565b5090565b5b80821115611bdd576000816000905550600101611bc5565b5090565b600060ff82169050919050565b611bf781611be1565b82525050565b6000602082019050611c126000830184611bee565b92915050565b6000604051905090565b600080fd5b600080fd5b600080fd5b600080fd5b6000601f19601f8301169050919050565b7f4e487b7100000000000000000000000000000000000000000000000000000000600052604160045260246000fd5b611c7f82611c36565b810181811067ffffffffffffffff82111715611c9e57611c9d611c47565b5b80604052505050565b6000611cb1611c18565b9050611cbd8282611c76565b919050565b600067ffffffffffffffff821115611cdd57611cdc611c47565b5b611ce682611c36565b9050602081019050919050565b82818337600083830152505050565b6000611d15611d1084611cc2565b611ca7565b905082815260208101848484011115611d3157611d30611c31565b5b611d3c848285611cf3565b509392505050565b600082601f830112611d5957611d58611c2c565b5b8135611d69848260208601611d02565b91505092915050565b6000819050919050565b611d8581611d72565b8114611d9057600080fd5b50565b600081359050611da281611d7c565b92915050565b60008060408385031215611dbf57611dbe611c22565b5b600083013567ffffffffffffffff811115611ddd57611ddc611c27565b5b611de985828601611d44565b9250506020611dfa85828601611d93565b9150509250929050565b600060039050919050565b600081905092915050565b6000819050919050565b611e2d81611be1565b82525050565b6000611e3f8383611e24565b60208301905092915050565b6000602082019050919050565b611e6181611e04565b611e6b8184611e0f565b9250611e7682611e1a565b8060005b83811015611ea7578151611e8e8782611e33565b9650611e9983611e4b565b925050600181019050611e7a565b505050505050565b6000606082019050611ec46000830184611e58565b92915050565b611ed381611d72565b82525050565b6000602082019050611eee6000830184611eca565b92915050565b611efd81611be1565b8114611f0857600080fd5b50565b600081359050611f1a81611ef4565b92915050565b600073ffffffffffffffffffffffffffffffffffffffff82169050919050565b6000611f4b82611f20565b9050919050565b611f5b81611f40565b8114611f6657600080fd5b50565b600081359050611f7881611f52565b92915050565b6000819050919050565b611f9181611f7e565b8114611f9c57600080fd5b50565b600081359050611fae81611f88565b92915050565b600080600080600060a08688031215611fd057611fcf611c22565b5b6000611fde88828901611f0b565b9550506020611fef88828901611f69565b945050604061200088828901611f9f565b935050606061201188828901611d93565b925050608061202288828901611f0b565b9150509295509295909350565b60008115159050919050565b6120448161202f565b82525050565b600060208201905061205f600083018461203b565b92915050565b60006020828403121561207b5761207a611c22565b5b600061208984828501611f69565b91505092915050565b61209b81611f40565b82525050565b600081519050919050565b600082825260208201905092915050565b6000819050602082019050919050565b6120d681611f40565b82525050565b60006120e883836120cd565b60208301905092915050565b6000602082019050919050565b600061210c826120a1565b61211681856120ac565b9350612121836120bd565b8060005b8381101561215257815161213988826120dc565b9750612144836120f4565b925050600181019050612125565b5085935050505092915050565b60006060820190506121746000830186612092565b612181602083018561203b565b81810360408301526121938184612101565b9050949350505050565b6000806000606084860312156121b6576121b5611c22565b5b60006121c486828701611f69565b93505060206121d586828701611f9f565b92505060406121e686828701611d93565b9150509250925092565b6000806040838503121561220757612206611c22565b5b600061221585828601611f69565b925050602083013567ffffffffffffffff81111561223657612235611c27565b5b61224285828601611d44565b9150509250929050565b6000604082019050612261600083018561203b565b61226e6020830184611eca565b9392505050565b600082825260208201905092915050565b7f526567697374726174696f6e2066656520697320726571756972656400000000600082015250565b60006122bc601c83612275565b91506122c782612286565b602082019050919050565b600060208201905081810360008301526122eb816122af565b9050919050565b7f4e487b7100000000000000000000000000000000000000000000000000000000600052601160045260246000fd5b600061232c82611be1565b915060ff820361233f5761233e6122f2565b5b600182019050919050565b600081519050919050565b60005b83811015612373578082015181840152602081019050612358565b60008484015250505050565b600061238a8261234a565b6123948185612275565b93506123a4818560208601612355565b6123ad81611c36565b840191505092915050565b60006080820190506123cd6000830187612092565b81810360208301526123df818661237f565b90506123ee6040830185611eca565b6123fb6060830184611bee565b95945050505050565b7f4e6f74207265676973746572656420617320616e206f7261636c650000000000600082015250565b600061243a601b83612275565b915061244582612404565b602082019050919050565b600060208201905081810360008301526124698161242d565b9050919050565b7f4e487b7100000000000000000000000000000000000000000000000000000000600052603260045260246000fd5b7f496e64657820646f6573206e6f74206d61746368206f7261636c65207265717560008201527f6573740000000000000000000000000000000000000000000000000000000000602082015250565b60006124fb602383612275565b91506125068261249f565b604082019050919050565b6000602082019050818103600083015261252a816124ee565b9050919050565b60008160f81b9050919050565b600061254982612531565b9050919050565b61256161255c82611be1565b61253e565b82525050565b60008160601b9050919050565b600061257f82612567565b9050919050565b600061259182612574565b9050919050565b6125a96125a482611f40565b612586565b82525050565b6000819050919050565b6125ca6125c582611f7e565b6125af565b82525050565b6000819050919050565b6125eb6125e682611d72565b6125d0565b82525050565b60006125fd8287612550565b60018201915061260d8286612598565b60148201915061261d82856125b9565b60208201915061262d82846125da565b60208201915081905095945050505050565b7f466c69676874206f722074696d657374616d7020646f206e6f74206d6174636860008201527f206f7261636c6520726571756573740000000000000000000000000000000000602082015250565b600061269b602f83612275565b91506126a68261263f565b604082019050919050565b600060208201905081810360008301526126ca8161268e565b9050919050565b6126da81611f7e565b82525050565b60006080820190506126f56000830187612092565b61270260208301866126d1565b61270f6040830185611eca565b61271c6060830184611bee565b95945050505050565b61272e8161202f565b811461273957600080fd5b50565b60008151905061274b81612725565b92915050565b60006020828403121561276757612766611c22565b5b60006127758482850161273c565b91505092915050565b60008151905061278d81611d7c565b92915050565b6000602082840312156127a9576127a8611c22565b5b60006127b78482850161277e565b91505092915050565b7f5468657265206e65656420746f206265206174206c656173742034206169726c60008201527f696e657320746f20766f746520666f72206a6f696e0000000000000000000000602082015250565b600061281c603583612275565b9150612827826127c0565b604082019050919050565b6000602082019050818103600083015261284b8161280f565b9050919050565b60006020820190506128676000830184612092565b92915050565b7f4169726c696e6520736f756c642062652072656769737465726564206669727360008201527f7400000000000000000000000000000000000000000000000000000000000000602082015250565b60006128c9602183612275565b91506128d48261286d565b604082019050919050565b600060208201905081810360008301526128f8816128bc565b9050919050565b7f4169726c696e652073686f756c646e7420626520616363657074656420616c7260008201527f6561647900000000000000000000000000000000000000000000000000000000602082015250565b600061295b602483612275565b9150612966826128ff565b604082019050919050565b6000602082019050818103600083015261298a8161294e565b9050919050565b600061299c82611d72565b91507fffffffffffffffffffffffffffffffffffffffffffffffffffffffffffffffff82036129ce576129cd6122f2565b5b600182019050919050565b7f416e206169726c696e652063616e20766f7465206a757374206f6e636520666f60008201527f7220616e6f74686572206169726c696e6520746f206a6f696e00000000000000602082015250565b6000612a35603983612275565b9150612a40826129d9565b604082019050919050565b60006020820190508181036000830152612a6481612a28565b9050919050565b7f4e487b7100000000000000000000000000000000000000000000000000000000600052601260045260246000fd5b6000612aa582611d72565b9150612ab083611d72565b925082612ac057612abf612a6b565b5b828204905092915050565b6000608082019050612ae06000830187611bee565b612aed6020830186612092565b612afa60408301856126d1565b612b076060830184611eca565b95945050505050565b600081519050612b1f81611f52565b92915050565b600060208284031215612b3b57612b3a611c22565b5b6000612b4984828501612b10565b91505092915050565b7f466972737420666f7572206169726c696e65732073686f756c6420626520726560008201527f67697374657265642062792074686520666f756e646572206169726c696e6500602082015250565b6000612bae603f83612275565b9150612bb982612b52565b604082019050919050565b60006020820190508181036000830152612bdd81612ba1565b9050919050565b7f4669727374206169726c696e65732073686f756c642070726f7669646520667560008201527f6e64696e67206669727374000000000000000000000000000000000000000000602082015250565b6000612c40602b83612275565b9150612c4b82612be4565b604082019050919050565b60006020820190508181036000830152612c6f81612c33565b9050919050565b6000604082019050612c8b6000830185612092565b8181036020830152612c9d818461237f565b90509392505050565b7f4f6e6c792074686520666f756e646572206169726c696e65732077617320616260008201527f6c6520746f207265676973746572206f74686572206169726c696e657320696e60208201527f207468652062656767696e696e67000000000000000000000000000000000000604082015250565b6000612d28604e83612275565b9150612d3382612ca6565b606082019050919050565b60006020820190508181036000830152612d5781612d1b565b9050919050565b6000606082019050612d736000830186612092565b612d8060208301856126d1565b612d8d6040830184611bee565b949350505050565b6000602082019050612daa60008301846126d1565b92915050565b6000612dbb82611d72565b9150612dc683611d72565b9250828203905081811115612dde57612ddd6122f2565b5b92915050565b6000612df082856125b9565b602082019150612e008284612598565b6014820191508190509392505050565b6000612e1b82611d72565b9150612e2683611d72565b925082612e3657612e35612a6b565b5b82820690509291505056fea2646970667358221220c82cc15329462239a9f203972f34711822531270b0b2fe5dabf5d3235cd4680464736f6c63430008100033",
  "immutableReferences": {},
  "source": "// SPDX-License-Identifier: MIT\npragma solidity ^0.8.16;\n\nimport \"@openzeppelin/contracts/utils/math/SafeMath.sol\";\nimport \"./FlightSuretyData.sol\";\n\n/************************************************** */\n/* FlightSurety Smart Contract                      */\n/************************************************** */\ncontract FlightSuretyApp {\n\n    using SafeMath for uint256;\n\n    /********************************************************************************************/\n    /*                                       CONSTANTS                                          */\n    /********************************************************************************************/\n    // Flight status codees\n    uint8 private constant STATUS_CODE_UNKNOWN = 0;\n    uint8 private constant STATUS_CODE_ON_TIME = 10;\n    uint8 private constant STATUS_CODE_LATE_AIRLINE = 20;\n    uint8 private constant STATUS_CODE_LATE_WEATHER = 30;\n    uint8 private constant STATUS_CODE_LATE_TECHNICAL = 40;\n    uint8 private constant STATUS_CODE_LATE_OTHER = 50;\n    // Oracles status\n    uint256 public constant REGISTRATION_FEE = 1 ether;\n    uint256 private constant MIN_RESPONSES = 3;\n\n    /********************************************************************************************/\n    /*                                       DATA VARIABLES                                     */\n    /********************************************************************************************/\n    // Account used to deploy contract\n    address private contractOwner;\n\n    // Data smart contract\n    FlightSuretyData flightSuretyData;\n\n    // Airlines votes\n    mapping(address => address[]) airlinesVotes;\n \n    // Oracle state\n    uint8 private nonce = 0;    \n\n    // Oracles providing information about flight status\n    struct Oracle {\n        bool isRegistered;\n        uint8[3] indexes;        \n    }\n    mapping(address => Oracle) private oracles;\n    uint8 numOracles = 0;\n\n    // Information provided by oracles\n    struct ResponseInfo {\n        address requester;                              \n        bool isOpen;\n        mapping(uint8 => address[]) responses;\n    }\n    mapping(bytes32 => ResponseInfo) private oracleResponses;\n\n    /********************************************************************************************/\n    /*                                       FUNCTION MODIFIERS                                 */\n    /********************************************************************************************/\n    modifier requireIsOperational() {\n        require(flightSuretyData.isOperational() == true, \"Contract is currently not operational\");  \n        _;\n    }\n\n    modifier requireContractOwner() {\n        require(msg.sender == contractOwner, \"Caller is not contract owner\");\n        _;\n    }\n\n    /********************************************************************************************/\n    /*                                       EVENTS                                             */\n    /********************************************************************************************/\n    event OracleRequest(uint8 index, address airline, bytes32 flight, uint256 timestamp);\n    event OracleReport(address airline, bytes32 flight, uint256 timestamp, uint8 status);\n    event FlightStatusInfo(address airline, bytes32 flight, uint256 timestamp, uint8 status);\n\n    /********************************************************************************************/\n    /*                                       CONSTRUCTOR                                        */\n    /********************************************************************************************/\n    constructor (address dataContract, address firstAirline, string memory name) {\n        contractOwner = msg.sender;\n        flightSuretyData = FlightSuretyData(dataContract);\n        // If data has 0 airlines register the founder airline at this time\n        if (flightSuretyData.getNumAirlines() == 0) {\n            flightSuretyData.registerFirstAirline(firstAirline, name);\n        }\n    }\n\n    /********************************************************************************************/\n    /*                                       UTILITY FUNCTIONS                                  */\n    /********************************************************************************************/\n    function isOperational() public view returns(bool) {\n        return flightSuretyData.isOperational();\n    }\n\n    function getNumOracles() public view returns(uint8) {\n        return numOracles;\n    }\n\n    function getOracleResponses(uint8 index, address airline, bytes32 flight, uint256 timestamp, uint8 status) public view returns(address requester, bool isOpen, address[] memory responses) {\n        bytes32 key = keccak256(abi.encodePacked(index, airline, flight, timestamp));\n        ResponseInfo storage responseInfo = oracleResponses[key];\n        return(responseInfo.requester, responseInfo.isOpen, responseInfo.responses[status]);\n    }\n\n    /********************************************************************************************/\n    /*                                     SMART CONTRACT FUNCTIONS                             */\n    /********************************************************************************************/\n    function registerAirline(address account, string memory name) external returns(bool success, uint256 votes) {\n        if (flightSuretyData.getNumAirlines() < 4) {\n            require(msg.sender == flightSuretyData.getFirstAirline(), \"First four airlines should be registered by the founder airline\");\n            require(flightSuretyData.isFundedAirline(msg.sender), \"First airlines should provide funding first\");\n            flightSuretyData.registerAirline(account, name);\n            flightSuretyData.acceptAirline(account);\n            return (true, 1);\n        } else {\n            require(msg.sender == account, \"Only the founder airlines was able to register other airlines in the beggining\");\n            flightSuretyData.registerAirline(msg.sender, name);\n            airlinesVotes[msg.sender] = new address[](0);\n            return (true, 0);\n        }\n    }\n\n    function voteAirline(address account) external {\n        // Voting is only required after the fifth ailines registered\n        uint256 numAirlines = flightSuretyData.getNumAirlines();\n        require(numAirlines >= 4, \"There need to be at least 4 airlines to vote for join\");\n        // Only waiting airlines to join can be voted in\n        require(flightSuretyData.isRegisteredAirline(account), \"Airline sould be registered first\");\n        require(!flightSuretyData.isAcceptedAirline(account), \"Airline shouldnt be accepted already\");\n        // One airline can vote just once for another airline to join\n        bool isDuplicate = false;\n        for (uint256 i = 0; i < airlinesVotes[account].length; i++) {\n            if ( airlinesVotes[account][i] == msg.sender) {\n                isDuplicate = true;\n                break;\n            }\n        }\n        require(isDuplicate == false, \"An airline can vote just once for another airline to join\");\n        // Vote and check 50%\n        airlinesVotes[account].push(msg.sender);\n        if (airlinesVotes[account].length >= (numAirlines / 2)) {\n            flightSuretyData.acceptAirline(account);\n        }\n    }\n\n    function registerFlight (string memory flight, uint256 timestamp) external {\n        flightSuretyData.registerFlight(msg.sender, flight, timestamp, STATUS_CODE_UNKNOWN);\n    }\n\n    function processFlightStatus (address airline, bytes32 flight, uint8 statusCode) internal {\n        flightSuretyData.updateFlight(airline, flight, statusCode);\n        if (statusCode == STATUS_CODE_LATE_AIRLINE) {\n            flightSuretyData.creditInsurees(flight);\n        }\n    }\n\n    function fetchFlightStatus (address airline, bytes32 flight, uint256 timestamp) external {\n        uint8 index = getRandomIndex(msg.sender);\n        bytes32 key = keccak256(abi.encodePacked(index, airline, flight, timestamp));\n        ResponseInfo storage newResponseInfo = oracleResponses[key];\n        newResponseInfo.requester = msg.sender;\n        newResponseInfo.isOpen = true;\n        emit OracleRequest(index, airline, flight, timestamp);\n    }\n\n    /********************************************************************************************/\n    /*                                    ORACLES FUNCTIONS                                     */\n    /********************************************************************************************/\n    function registerOracle () external payable {\n        require(msg.value >= REGISTRATION_FEE, \"Registration fee is required\");\n        uint8[3] memory indexes = generateIndexes(msg.sender);\n        oracles[msg.sender] = Oracle({ isRegistered: true, indexes: indexes });\n        numOracles++;\n    }\n\n    function getMyIndexes () view external returns(uint8[3] memory) {\n        require(oracles[msg.sender].isRegistered, \"Not registered as an oracle\");\n        return oracles[msg.sender].indexes;\n    }\n\n    function submitOracleResponse (uint8 index, address airline, bytes32 flight, uint256 timestamp, uint8 statusCode) external {\n        require((oracles[msg.sender].indexes[0] == index) || (oracles[msg.sender].indexes[1] == index) || (oracles[msg.sender].indexes[2] == index), \"Index does not match oracle request\");\n        bytes32 key = keccak256(abi.encodePacked(index, airline, flight, timestamp)); \n        require(oracleResponses[key].isOpen, \"Flight or timestamp do not match oracle request\");\n        oracleResponses[key].responses[statusCode].push(msg.sender);\n        emit OracleReport(airline, flight, timestamp, statusCode);\n        if (oracleResponses[key].responses[statusCode].length >= MIN_RESPONSES) {\n            oracleResponses[key].isOpen = false;\n            emit FlightStatusInfo(airline, flight, timestamp, statusCode);\n            processFlightStatus(airline, flight, statusCode);\n        }\n    }\n\n    /********************************************************************************************/\n    /*                                 UTILITY INTERNAL FUNCTIONS                               */\n    /********************************************************************************************/\n    function generateIndexes (address account) internal returns(uint8[3] memory) {\n        uint8[3] memory indexes;\n        indexes[0] = getRandomIndex(account);\n        for (uint256 i = 0; i < 5; i++) {\n            indexes[1] = getRandomIndex(account);\n            if (indexes[0] != indexes[1])\n                break;\n        }\n        for (uint256 i = 0; i < 5; i++) {\n            indexes[2] = getRandomIndex(account);\n            if (indexes[0] != indexes[2] && indexes[1] != indexes[2])\n                break;\n        }\n        return indexes;\n    }\n\n    function getRandomIndex(address account) internal returns(uint8){\n        uint8 maxValue = 10;\n        uint8 random = uint8(uint256(keccak256(abi.encodePacked(blockhash(block.number - nonce++), account))) % maxValue);\n        if (nonce > 250) {\n            nonce = 0;\n        }\n        return random;\n    }\n    \n    /********************************************************************************************/\n    /*                  AUXILIARY METHODS INTERNAL TO SMART CONTRACT                            */\n    /********************************************************************************************/\n    function getFlightKey (address airline, string memory flight, uint256 timestamp) pure internal returns(bytes32) {\n        return keccak256(abi.encodePacked(airline, flight, timestamp));\n    }\n}",
  "sourcePath": "/home/isma/Desktop/code/blockchain/FlightSurety/truffle/contracts/FlightSuretyApp.sol",
  "compiler": {
    "name": "solc",
    "version": "0.8.16+commit.07a7930e.Emscripten.clang"
  },
  "schemaVersion": "3.4.9",
  "updatedAt": "2022-09-18T20:27:59.387Z",
  "devdoc": {
    "kind": "dev",
    "methods": {},
    "version": 1
  },
  "userdoc": {
    "kind": "user",
    "methods": {},
    "version": 1
  }
}