{
  "contractName": "FlightSuretyData",
  "abi": [
    {
      "inputs": [],
      "stateMutability": "nonpayable",
      "type": "constructor"
    },
    {
      "inputs": [],
      "name": "isOperational",
      "outputs": [
        {
          "internalType": "bool",
          "name": "",
          "type": "bool"
        }
      ],
      "stateMutability": "view",
      "type": "function"
    },
    {
      "inputs": [
        {
          "internalType": "bool",
          "name": "status",
          "type": "bool"
        }
      ],
      "name": "setOperatingStatus",
      "outputs": [],
      "stateMutability": "nonpayable",
      "type": "function"
    },
    {
      "inputs": [
        {
          "internalType": "address",
          "name": "contractAddress",
          "type": "address"
        }
      ],
      "name": "isAuthorizedContract",
      "outputs": [
        {
          "internalType": "bool",
          "name": "",
          "type": "bool"
        }
      ],
      "stateMutability": "view",
      "type": "function"
    },
    {
      "inputs": [
        {
          "internalType": "address",
          "name": "contractAddress",
          "type": "address"
        },
        {
          "internalType": "bool",
          "name": "status",
          "type": "bool"
        }
      ],
      "name": "setAuthorizedContract",
      "outputs": [],
      "stateMutability": "nonpayable",
      "type": "function"
    },
    {
      "inputs": [],
      "name": "getFirstAirline",
      "outputs": [
        {
          "internalType": "address",
          "name": "",
          "type": "address"
        }
      ],
      "stateMutability": "view",
      "type": "function"
    },
    {
      "inputs": [],
      "name": "getNumAirlines",
      "outputs": [
        {
          "internalType": "uint256",
          "name": "",
          "type": "uint256"
        }
      ],
      "stateMutability": "view",
      "type": "function"
    },
    {
      "inputs": [
        {
          "internalType": "address",
          "name": "account",
          "type": "address"
        }
      ],
      "name": "isRegisteredAirline",
      "outputs": [
        {
          "internalType": "bool",
          "name": "",
          "type": "bool"
        }
      ],
      "stateMutability": "view",
      "type": "function"
    },
    {
      "inputs": [
        {
          "internalType": "address",
          "name": "account",
          "type": "address"
        }
      ],
      "name": "isAcceptedAirline",
      "outputs": [
        {
          "internalType": "bool",
          "name": "",
          "type": "bool"
        }
      ],
      "stateMutability": "view",
      "type": "function"
    },
    {
      "inputs": [
        {
          "internalType": "address",
          "name": "account",
          "type": "address"
        }
      ],
      "name": "isFundedAirline",
      "outputs": [
        {
          "internalType": "bool",
          "name": "",
          "type": "bool"
        }
      ],
      "stateMutability": "view",
      "type": "function"
    },
    {
      "inputs": [
        {
          "internalType": "address",
          "name": "account",
          "type": "address"
        }
      ],
      "name": "getAirlineBalance",
      "outputs": [
        {
          "internalType": "uint256",
          "name": "",
          "type": "uint256"
        }
      ],
      "stateMutability": "view",
      "type": "function"
    },
    {
      "inputs": [
        {
          "internalType": "address",
          "name": "account",
          "type": "address"
        }
      ],
      "name": "getAirlineInfo",
      "outputs": [
        {
          "internalType": "bool",
          "name": "",
          "type": "bool"
        },
        {
          "internalType": "bool",
          "name": "",
          "type": "bool"
        },
        {
          "internalType": "bool",
          "name": "",
          "type": "bool"
        },
        {
          "internalType": "uint256",
          "name": "",
          "type": "uint256"
        }
      ],
      "stateMutability": "view",
      "type": "function"
    },
    {
      "inputs": [],
      "name": "getAirlines",
      "outputs": [
        {
          "internalType": "address[]",
          "name": "",
          "type": "address[]"
        }
      ],
      "stateMutability": "view",
      "type": "function"
    },
    {
      "inputs": [
        {
          "internalType": "bytes32",
          "name": "key",
          "type": "bytes32"
        }
      ],
      "name": "getFlightInfoByKey",
      "outputs": [
        {
          "internalType": "bytes32",
          "name": "flightKey",
          "type": "bytes32"
        },
        {
          "internalType": "string",
          "name": "flightName",
          "type": "string"
        },
        {
          "internalType": "uint8",
          "name": "statusCode",
          "type": "uint8"
        },
        {
          "internalType": "uint256",
          "name": "updatedTimestamp",
          "type": "uint256"
        },
        {
          "internalType": "address",
          "name": "flightAirline",
          "type": "address"
        }
      ],
      "stateMutability": "view",
      "type": "function"
    },
    {
      "inputs": [
        {
          "internalType": "address",
          "name": "airline",
          "type": "address"
        },
        {
          "internalType": "string",
          "name": "flight",
          "type": "string"
        },
        {
          "internalType": "uint256",
          "name": "timestamp",
          "type": "uint256"
        }
      ],
      "name": "getFlightInfo",
      "outputs": [
        {
          "internalType": "bytes32",
          "name": "flightKey",
          "type": "bytes32"
        },
        {
          "internalType": "string",
          "name": "flightName",
          "type": "string"
        },
        {
          "internalType": "uint8",
          "name": "statusCode",
          "type": "uint8"
        },
        {
          "internalType": "uint256",
          "name": "updatedTimestamp",
          "type": "uint256"
        },
        {
          "internalType": "address",
          "name": "flightAirline",
          "type": "address"
        }
      ],
      "stateMutability": "view",
      "type": "function"
    },
    {
      "inputs": [
        {
          "internalType": "address",
          "name": "airline",
          "type": "address"
        },
        {
          "internalType": "string",
          "name": "flight",
          "type": "string"
        },
        {
          "internalType": "uint256",
          "name": "timestamp",
          "type": "uint256"
        }
      ],
      "name": "getFlightStatus",
      "outputs": [
        {
          "internalType": "uint8",
          "name": "statusCode",
          "type": "uint8"
        }
      ],
      "stateMutability": "view",
      "type": "function"
    },
    {
      "inputs": [],
      "name": "getFlights",
      "outputs": [
        {
          "internalType": "bytes32[]",
          "name": "",
          "type": "bytes32[]"
        }
      ],
      "stateMutability": "view",
      "type": "function"
    },
    {
      "inputs": [
        {
          "internalType": "bytes32",
          "name": "flight",
          "type": "bytes32"
        },
        {
          "internalType": "address",
          "name": "passenger",
          "type": "address"
        }
      ],
      "name": "getInsuranceInfo",
      "outputs": [
        {
          "internalType": "uint256",
          "name": "amount",
          "type": "uint256"
        }
      ],
      "stateMutability": "view",
      "type": "function"
    },
    {
      "inputs": [
        {
          "internalType": "bytes32",
          "name": "flight",
          "type": "bytes32"
        }
      ],
      "name": "getInsurances",
      "outputs": [
        {
          "components": [
            {
              "internalType": "address",
              "name": "passenger",
              "type": "address"
            },
            {
              "internalType": "uint256",
              "name": "amount",
              "type": "uint256"
            }
          ],
          "internalType": "struct FlightSuretyData.Insurance[]",
          "name": "",
          "type": "tuple[]"
        }
      ],
      "stateMutability": "view",
      "type": "function"
    },
    {
      "inputs": [],
      "name": "getPassengerBalance",
      "outputs": [
        {
          "internalType": "uint256",
          "name": "",
          "type": "uint256"
        }
      ],
      "stateMutability": "view",
      "type": "function"
    },
    {
      "inputs": [
        {
          "internalType": "address",
          "name": "account",
          "type": "address"
        },
        {
          "internalType": "string",
          "name": "name",
          "type": "string"
        }
      ],
      "name": "registerFirstAirline",
      "outputs": [],
      "stateMutability": "nonpayable",
      "type": "function"
    },
    {
      "inputs": [
        {
          "internalType": "address",
          "name": "account",
          "type": "address"
        },
        {
          "internalType": "string",
          "name": "name",
          "type": "string"
        }
      ],
      "name": "registerAirline",
      "outputs": [],
      "stateMutability": "nonpayable",
      "type": "function"
    },
    {
      "inputs": [
        {
          "internalType": "address",
          "name": "account",
          "type": "address"
        }
      ],
      "name": "acceptAirline",
      "outputs": [],
      "stateMutability": "nonpayable",
      "type": "function"
    },
    {
      "inputs": [
        {
          "internalType": "address",
          "name": "airline",
          "type": "address"
        },
        {
          "internalType": "string",
          "name": "flight",
          "type": "string"
        },
        {
          "internalType": "uint256",
          "name": "timestamp",
          "type": "uint256"
        },
        {
          "internalType": "uint8",
          "name": "status",
          "type": "uint8"
        }
      ],
      "name": "registerFlight",
      "outputs": [],
      "stateMutability": "nonpayable",
      "type": "function"
    },
    {
      "inputs": [
        {
          "internalType": "address",
          "name": "airline",
          "type": "address"
        },
        {
          "internalType": "bytes32",
          "name": "flight",
          "type": "bytes32"
        },
        {
          "internalType": "uint8",
          "name": "status",
          "type": "uint8"
        }
      ],
      "name": "updateFlight",
      "outputs": [],
      "stateMutability": "nonpayable",
      "type": "function"
    },
    {
      "inputs": [
        {
          "internalType": "bytes32",
          "name": "flight",
          "type": "bytes32"
        }
      ],
      "name": "creditInsurees",
      "outputs": [],
      "stateMutability": "nonpayable",
      "type": "function"
    },
    {
      "inputs": [],
      "name": "fund",
      "outputs": [],
      "stateMutability": "payable",
      "type": "function"
    },
    {
      "inputs": [
        {
          "internalType": "bytes32",
          "name": "flight",
          "type": "bytes32"
        }
      ],
      "name": "buy",
      "outputs": [],
      "stateMutability": "payable",
      "type": "function"
    },
    {
      "inputs": [],
      "name": "pay",
      "outputs": [],
      "stateMutability": "nonpayable",
      "type": "function"
    }
  ],
  "bytecode": "0x60806040526001600060146101000a81548160ff021916908315150217905550600067ffffffffffffffff8111156200003d576200003c6200025e565b5b6040519080825280602002602001820160405280156200006c5781602001602082028036833780820191505090505b5060039080519060200190620000849291906200013f565b50600067ffffffffffffffff811115620000a357620000a26200025e565b5b604051908082528060200260200182016040528015620000d25781602001602082028036833780820191505090505b5060059080519060200190620000ea929190620001ce565b50348015620000f857600080fd5b50336000806101000a81548173ffffffffffffffffffffffffffffffffffffffff021916908373ffffffffffffffffffffffffffffffffffffffff1602179055506200028d565b828054828255906000526020600020908101928215620001bb579160200282015b82811115620001ba5782518260006101000a81548173ffffffffffffffffffffffffffffffffffffffff021916908373ffffffffffffffffffffffffffffffffffffffff1602179055509160200191906001019062000160565b5b509050620001ca919062000220565b5090565b8280548282559060005260206000209081019282156200020d579160200282015b828111156200020c578251825591602001919060010190620001ef565b5b5090506200021c91906200023f565b5090565b5b808211156200023b57600081600090555060010162000221565b5090565b5b808211156200025a57600081600090555060010162000240565b5090565b7f4e487b7100000000000000000000000000000000000000000000000000000000600052604160045260246000fd5b6142a5806200029d6000396000f3fe6080604052600436106101b75760003560e01c806394c260ee116100ec578063cd905dff1161008a578063efc510a811610064578063efc510a81461060d578063f1a190161461064a578063f2fa739214610687578063f3ba4e1b146106b0576101b7565b8063cd905dff14610590578063d9d41226146105bb578063ee38a749146105e4576101b7565b8063a78d9799116100c6578063a78d9799146104f7578063b60d428814610534578063bf1d91561461053e578063cc2f6eba14610567576101b7565b806394c260ee146104735780639c9a10611461049e5780639de5f957146104ba576101b7565b80635572710f116101595780637ab21cdc116101335780637ab21cdc146103a557806380c575f0146103d057806387d0e94a1461040d57806389208e7214610436576101b7565b80635572710f146102fd57806366d0ead314610328578063720c7cbb14610365576101b7565b80631b9265b8116101955780631b9265b81461023b5780631c6cd329146102525780632c1473e41461027b57806334b27bc5146102bc576101b7565b806302eb72ad146101bc5780630d5dc054146101e7578063110466ed14610212575b600080fd5b3480156101c857600080fd5b506101d16106ed565b6040516101de9190612b95565b60405180910390f35b3480156101f357600080fd5b506101fc610734565b6040516102099190612c6e565b60405180910390f35b34801561021e57600080fd5b5061023960048036038101906102349190612cdc565b6107c2565b005b34801561024757600080fd5b5061025061086d565b005b34801561025e57600080fd5b5061027960048036038101906102749190612da4565b610a7f565b005b34801561028757600080fd5b506102a2600480360381019061029d9190612f73565b610d4f565b6040516102b395949392919061308e565b60405180910390f35b3480156102c857600080fd5b506102e360048036038101906102de91906130e8565b610f48565b6040516102f495949392919061308e565b60405180910390f35b34801561030957600080fd5b50610312611130565b60405161031f9190613115565b60405180910390f35b34801561033457600080fd5b5061034f600480360381019061034a9190613130565b611177565b60405161035c919061316c565b60405180910390f35b34801561037157600080fd5b5061038c60048036038101906103879190613130565b6111cd565b60405161039c9493929190613187565b60405180910390f35b3480156103b157600080fd5b506103ba6113c1565b6040516103c79190613115565b60405180910390f35b3480156103dc57600080fd5b506103f760048036038101906103f29190613130565b6113ce565b604051610404919061316c565b60405180910390f35b34801561041957600080fd5b50610434600480360381019061042f91906131cc565b611427565b005b34801561044257600080fd5b5061045d60048036038101906104589190613130565b6116a6565b60405161046a9190613115565b60405180910390f35b34801561047f57600080fd5b50610488611781565b60405161049591906132e6565b60405180910390f35b6104b860048036038101906104b391906130e8565b6117d9565b005b3480156104c657600080fd5b506104e160048036038101906104dc9190612f73565b6119a6565b6040516104ee9190613308565b60405180910390f35b34801561050357600080fd5b5061051e60048036038101906105199190613130565b611a4e565b60405161052b919061316c565b60405180910390f35b61053c611aa7565b005b34801561054a57600080fd5b5061056560048036038101906105609190613130565b611d09565b005b34801561057357600080fd5b5061058e600480360381019061058991906130e8565b611f3b565b005b34801561059c57600080fd5b506105a5612227565b6040516105b2919061316c565b60405180910390f35b3480156105c757600080fd5b506105e260048036038101906105dd9190613323565b61223d565b005b3480156105f057600080fd5b5061060b600480360381019061060691906131cc565b6124f0565b005b34801561061957600080fd5b50610634600480360381019061062f91906130e8565b612759565b6040516106419190613493565b60405180910390f35b34801561065657600080fd5b50610671600480360381019061066c91906134b5565b61282b565b60405161067e9190613115565b60405180910390f35b34801561069357600080fd5b506106ae60048036038101906106a991906134f5565b61299a565b005b3480156106bc57600080fd5b506106d760048036038101906106d29190613130565b612a83565b6040516106e4919061316c565b60405180910390f35b6000600360008154811061070457610703613535565b5b9060005260206000200160009054906101000a900473ffffffffffffffffffffffffffffffffffffffff16905090565b606060038054806020026020016040519081016040528092919081815260200182805480156107b857602002820191906000526020600020905b8160009054906101000a900473ffffffffffffffffffffffffffffffffffffffff1673ffffffffffffffffffffffffffffffffffffffff168152602001906001019080831161076e575b5050505050905090565b60008054906101000a900473ffffffffffffffffffffffffffffffffffffffff1673ffffffffffffffffffffffffffffffffffffffff163273ffffffffffffffffffffffffffffffffffffffff1614610850576040517f08c379a0000000000000000000000000000000000000000000000000000000008152600401610847906135b0565b60405180910390fd5b80600060146101000a81548160ff02191690831515021790555050565b600060149054906101000a900460ff166108bc576040517f08c379a00000000000000000000000000000000000000000000000000000000081526004016108b390613642565b60405180910390fd5b3273ffffffffffffffffffffffffffffffffffffffff163373ffffffffffffffffffffffffffffffffffffffff161461092a576040517f08c379a0000000000000000000000000000000000000000000000000000000008152600401610921906136ae565b60405180910390fd5b6000600760003373ffffffffffffffffffffffffffffffffffffffff1673ffffffffffffffffffffffffffffffffffffffff16815260200190815260200160002054116109ac576040517f08c379a00000000000000000000000000000000000000000000000000000000081526004016109a39061371a565b60405180910390fd5b6000600760003373ffffffffffffffffffffffffffffffffffffffff1673ffffffffffffffffffffffffffffffffffffffff1681526020019081526020016000205490506000600760003373ffffffffffffffffffffffffffffffffffffffff1673ffffffffffffffffffffffffffffffffffffffff168152602001908152602001600020819055503373ffffffffffffffffffffffffffffffffffffffff166108fc829081150290604051600060405180830381858888f19350505050158015610a7b573d6000803e3d6000fd5b5050565b600060149054906101000a900460ff16610ace576040517f08c379a0000000000000000000000000000000000000000000000000000000008152600401610ac590613642565b60405180910390fd5b60011515600160003373ffffffffffffffffffffffffffffffffffffffff1673ffffffffffffffffffffffffffffffffffffffff16815260200190815260200160002060009054906101000a900460ff16151514610b61576040517f08c379a0000000000000000000000000000000000000000000000000000000008152600401610b5890613786565b60405180910390fd5b82600260008273ffffffffffffffffffffffffffffffffffffffff1673ffffffffffffffffffffffffffffffffffffffff16815260200190815260200160002060010160029054906101000a900460ff16610bf1576040517f08c379a0000000000000000000000000000000000000000000000000000000008152600401610be8906137f2565b60405180910390fd5b600115156004600085815260200190815260200160002060000160009054906101000a900460ff16151514610c5b576040517f08c379a0000000000000000000000000000000000000000000000000000000008152600401610c529061385e565b60405180910390fd5b8373ffffffffffffffffffffffffffffffffffffffff166004600085815260200190815260200160002060040160009054906101000a900473ffffffffffffffffffffffffffffffffffffffff1673ffffffffffffffffffffffffffffffffffffffff1614610cff576040517f08c379a0000000000000000000000000000000000000000000000000000000008152600401610cf6906138f0565b60405180910390fd5b816004600085815260200190815260200160002060020160006101000a81548160ff021916908360ff16021790555042600460008581526020019081526020016000206003018190555050505050565b60006060600080600080610d64898989612adc565b9050600115156004600083815260200190815260200160002060000160009054906101000a900460ff16151514610dd0576040517f08c379a0000000000000000000000000000000000000000000000000000000008152600401610dc79061395c565b60405180910390fd5b6000600460008381526020019081526020016000206040518060a00160405290816000820160009054906101000a900460ff16151515158152602001600182018054610e1b906139ab565b80601f0160208091040260200160405190810160405280929190818152602001828054610e47906139ab565b8015610e945780601f10610e6957610100808354040283529160200191610e94565b820191906000526020600020905b815481529060010190602001808311610e7757829003601f168201915b505050505081526020016002820160009054906101000a900460ff1660ff1660ff168152602001600382015481526020016004820160009054906101000a900473ffffffffffffffffffffffffffffffffffffffff1673ffffffffffffffffffffffffffffffffffffffff1673ffffffffffffffffffffffffffffffffffffffff16815250509050818160200151826040015183606001518460800151965096509650965096505050939792965093509350565b600060606000806000600115156004600088815260200190815260200160002060000160009054906101000a900460ff16151514610fbb576040517f08c379a0000000000000000000000000000000000000000000000000000000008152600401610fb29061395c565b60405180910390fd5b6000600460008881526020019081526020016000206040518060a00160405290816000820160009054906101000a900460ff16151515158152602001600182018054611006906139ab565b80601f0160208091040260200160405190810160405280929190818152602001828054611032906139ab565b801561107f5780601f106110545761010080835404028352916020019161107f565b820191906000526020600020905b81548152906001019060200180831161106257829003601f168201915b505050505081526020016002820160009054906101000a900460ff1660ff1660ff168152602001600382015481526020016004820160009054906101000a900473ffffffffffffffffffffffffffffffffffffffff1673ffffffffffffffffffffffffffffffffffffffff1673ffffffffffffffffffffffffffffffffffffffff16815250509050868160200151826040015183606001518460800151955095509550955095505091939590929450565b6000600760003373ffffffffffffffffffffffffffffffffffffffff1673ffffffffffffffffffffffffffffffffffffffff16815260200190815260200160002054905090565b6000600160008373ffffffffffffffffffffffffffffffffffffffff1673ffffffffffffffffffffffffffffffffffffffff16815260200190815260200160002060009054906101000a900460ff169050919050565b600080600080600260008673ffffffffffffffffffffffffffffffffffffffff1673ffffffffffffffffffffffffffffffffffffffff16815260200190815260200160002060010160009054906101000a900460ff16611262576040517f08c379a000000000000000000000000000000000000000000000000000000000815260040161125990613a28565b60405180910390fd5b6000600260008773ffffffffffffffffffffffffffffffffffffffff1673ffffffffffffffffffffffffffffffffffffffff1681526020019081526020016000206040518060a00160405290816000820180546112be906139ab565b80601f01602080910402602001604051908101604052809291908181526020018280546112ea906139ab565b80156113375780601f1061130c57610100808354040283529160200191611337565b820191906000526020600020905b81548152906001019060200180831161131a57829003601f168201915b505050505081526020016001820160009054906101000a900460ff161515151581526020016001820160019054906101000a900460ff161515151581526020016001820160029054906101000a900460ff16151515158152602001600282015481525050905080602001518160400151826060015183608001519450945094509450509193509193565b6000600380549050905090565b6000600260008373ffffffffffffffffffffffffffffffffffffffff1673ffffffffffffffffffffffffffffffffffffffff16815260200190815260200160002060010160019054906101000a900460ff169050919050565b600060149054906101000a900460ff16611476576040517f08c379a000000000000000000000000000000000000000000000000000000000815260040161146d90613642565b60405180910390fd5b60008054906101000a900473ffffffffffffffffffffffffffffffffffffffff1673ffffffffffffffffffffffffffffffffffffffff163273ffffffffffffffffffffffffffffffffffffffff1614611504576040517f08c379a00000000000000000000000000000000000000000000000000000000081526004016114fb906135b0565b60405180910390fd5b60006003805490501461154c576040517f08c379a000000000000000000000000000000000000000000000000000000000815260040161154390613aba565b60405180910390fd5b6040518060a001604052808281526020016001151581526020016001151581526020016000151581526020016000815250600260008473ffffffffffffffffffffffffffffffffffffffff1673ffffffffffffffffffffffffffffffffffffffff16815260200190815260200160002060008201518160000190816115d19190613c86565b5060208201518160010160006101000a81548160ff02191690831515021790555060408201518160010160016101000a81548160ff02191690831515021790555060608201518160010160026101000a81548160ff021916908315150217905550608082015181600201559050506003829080600181540180825580915050600190039060005260206000200160009091909190916101000a81548173ffffffffffffffffffffffffffffffffffffffff021916908373ffffffffffffffffffffffffffffffffffffffff1602179055505050565b6000600260008373ffffffffffffffffffffffffffffffffffffffff1673ffffffffffffffffffffffffffffffffffffffff16815260200190815260200160002060010160009054906101000a900460ff16611737576040517f08c379a000000000000000000000000000000000000000000000000000000000815260040161172e90613a28565b60405180910390fd5b600260008373ffffffffffffffffffffffffffffffffffffffff1673ffffffffffffffffffffffffffffffffffffffff168152602001908152602001600020600201549050919050565b606060058054806020026020016040519081016040528092919081815260200182805480156117cf57602002820191906000526020600020905b8154815260200190600101908083116117bb575b5050505050905090565b600060149054906101000a900460ff16611828576040517f08c379a000000000000000000000000000000000000000000000000000000000815260040161181f90613642565b60405180910390fd5b6000341180156118405750670de0b6b3a76400003411155b61187f576040517f08c379a000000000000000000000000000000000000000000000000000000000815260040161187690613dca565b60405180910390fd5b600115156004600083815260200190815260200160002060000160009054906101000a900460ff161515146118e9576040517f08c379a00000000000000000000000000000000000000000000000000000000081526004016118e09061395c565b60405180910390fd5b6006600082815260200190815260200160002060405180604001604052803373ffffffffffffffffffffffffffffffffffffffff16815260200134815250908060018154018082558091505060019003906000526020600020906002020160009091909190915060008201518160000160006101000a81548173ffffffffffffffffffffffffffffffffffffffff021916908373ffffffffffffffffffffffffffffffffffffffff16021790555060208201518160010155505050565b6000806119b4858585612adc565b9050600115156004600083815260200190815260200160002060000160009054906101000a900460ff16151514611a20576040517f08c379a0000000000000000000000000000000000000000000000000000000008152600401611a179061395c565b60405180910390fd5b6004600082815260200190815260200160002060020160009054906101000a900460ff169150509392505050565b6000600260008373ffffffffffffffffffffffffffffffffffffffff1673ffffffffffffffffffffffffffffffffffffffff16815260200190815260200160002060010160009054906101000a900460ff169050919050565b600060149054906101000a900460ff16611af6576040517f08c379a0000000000000000000000000000000000000000000000000000000008152600401611aed90613642565b60405180910390fd5b600260003373ffffffffffffffffffffffffffffffffffffffff1673ffffffffffffffffffffffffffffffffffffffff16815260200190815260200160002060010160019054906101000a900460ff16611b85576040517f08c379a0000000000000000000000000000000000000000000000000000000008152600401611b7c90613e36565b60405180910390fd5b678ac7230489e800003414611bcf576040517f08c379a0000000000000000000000000000000000000000000000000000000008152600401611bc690613ea2565b60405180910390fd5b60001515600260003373ffffffffffffffffffffffffffffffffffffffff1673ffffffffffffffffffffffffffffffffffffffff16815260200190815260200160002060010160029054906101000a900460ff16151514611c65576040517f08c379a0000000000000000000000000000000000000000000000000000000008152600401611c5c90613f0e565b60405180910390fd5b34600260003373ffffffffffffffffffffffffffffffffffffffff1673ffffffffffffffffffffffffffffffffffffffff168152602001908152602001600020600201819055506001600260003373ffffffffffffffffffffffffffffffffffffffff1673ffffffffffffffffffffffffffffffffffffffff16815260200190815260200160002060010160026101000a81548160ff021916908315150217905550565b600060149054906101000a900460ff16611d58576040517f08c379a0000000000000000000000000000000000000000000000000000000008152600401611d4f90613642565b60405180910390fd5b60011515600160003373ffffffffffffffffffffffffffffffffffffffff1673ffffffffffffffffffffffffffffffffffffffff16815260200190815260200160002060009054906101000a900460ff16151514611deb576040517f08c379a0000000000000000000000000000000000000000000000000000000008152600401611de290613786565b60405180910390fd5b600260008273ffffffffffffffffffffffffffffffffffffffff1673ffffffffffffffffffffffffffffffffffffffff16815260200190815260200160002060010160009054906101000a900460ff16611e7a576040517f08c379a0000000000000000000000000000000000000000000000000000000008152600401611e7190613fa0565b60405180910390fd5b6001600260008373ffffffffffffffffffffffffffffffffffffffff1673ffffffffffffffffffffffffffffffffffffffff16815260200190815260200160002060010160016101000a81548160ff0219169083151502179055506003819080600181540180825580915050600190039060005260206000200160009091909190916101000a81548173ffffffffffffffffffffffffffffffffffffffff021916908373ffffffffffffffffffffffffffffffffffffffff16021790555050565b600060149054906101000a900460ff16611f8a576040517f08c379a0000000000000000000000000000000000000000000000000000000008152600401611f8190613642565b60405180910390fd5b60011515600160003373ffffffffffffffffffffffffffffffffffffffff1673ffffffffffffffffffffffffffffffffffffffff16815260200190815260200160002060009054906101000a900460ff1615151461201d576040517f08c379a000000000000000000000000000000000000000000000000000000000815260040161201490613786565b60405180910390fd5b600060066000838152602001908152602001600020805480602002602001604051908101604052809291908181526020016000905b828210156120e457838290600052602060002090600202016040518060400160405290816000820160009054906101000a900473ffffffffffffffffffffffffffffffffffffffff1673ffffffffffffffffffffffffffffffffffffffff1673ffffffffffffffffffffffffffffffffffffffff16815260200160018201548152505081526020019060010190612052565b50505050905060005b815181101561222257600082828151811061210b5761210a613535565b5b6020026020010151600001519050600083838151811061212e5761212d613535565b5b60200260200101516020015190506000600760008473ffffffffffffffffffffffffffffffffffffffff1673ffffffffffffffffffffffffffffffffffffffff1681526020019081526020016000205490506000612197612190846096612b12565b6064612b28565b905060008686815181106121ae576121ad613535565b5b602002602001015160200181815250506121c88282612b3e565b600760008673ffffffffffffffffffffffffffffffffffffffff1673ffffffffffffffffffffffffffffffffffffffff1681526020019081526020016000208190555050505050808061221a90613fef565b9150506120ed565b505050565b60008060149054906101000a900460ff16905090565b600060149054906101000a900460ff1661228c576040517f08c379a000000000000000000000000000000000000000000000000000000000815260040161228390613642565b60405180910390fd5b60011515600160003373ffffffffffffffffffffffffffffffffffffffff1673ffffffffffffffffffffffffffffffffffffffff16815260200190815260200160002060009054906101000a900460ff1615151461231f576040517f08c379a000000000000000000000000000000000000000000000000000000000815260040161231690613786565b60405180910390fd5b83600260008273ffffffffffffffffffffffffffffffffffffffff1673ffffffffffffffffffffffffffffffffffffffff16815260200190815260200160002060010160029054906101000a900460ff166123af576040517f08c379a00000000000000000000000000000000000000000000000000000000081526004016123a6906137f2565b60405180910390fd5b60006123bc868686612adc565b90506040518060a001604052806001151581526020018681526020018460ff1681526020018581526020018773ffffffffffffffffffffffffffffffffffffffff168152506004600083815260200190815260200160002060008201518160000160006101000a81548160ff02191690831515021790555060208201518160010190816124499190613c86565b5060408201518160020160006101000a81548160ff021916908360ff1602179055506060820151816003015560808201518160040160006101000a81548173ffffffffffffffffffffffffffffffffffffffff021916908373ffffffffffffffffffffffffffffffffffffffff1602179055509050506005819080600181540180825580915050600190039060005260206000200160009091909190915055505050505050565b600060149054906101000a900460ff1661253f576040517f08c379a000000000000000000000000000000000000000000000000000000000815260040161253690613642565b60405180910390fd5b60011515600160003373ffffffffffffffffffffffffffffffffffffffff1673ffffffffffffffffffffffffffffffffffffffff16815260200190815260200160002060009054906101000a900460ff161515146125d2576040517f08c379a00000000000000000000000000000000000000000000000000000000081526004016125c990613786565b60405180910390fd5b600260008373ffffffffffffffffffffffffffffffffffffffff1673ffffffffffffffffffffffffffffffffffffffff16815260200190815260200160002060010160009054906101000a900460ff1615612662576040517f08c379a000000000000000000000000000000000000000000000000000000000815260040161265990614083565b60405180910390fd5b6040518060a001604052808281526020016001151581526020016000151581526020016000151581526020016000815250600260008473ffffffffffffffffffffffffffffffffffffffff1673ffffffffffffffffffffffffffffffffffffffff16815260200190815260200160002060008201518160000190816126e79190613c86565b5060208201518160010160006101000a81548160ff02191690831515021790555060408201518160010160016101000a81548160ff02191690831515021790555060608201518160010160026101000a81548160ff021916908315150217905550608082015181600201559050505050565b606060066000838152602001908152602001600020805480602002602001604051908101604052809291908181526020016000905b8282101561282057838290600052602060002090600202016040518060400160405290816000820160009054906101000a900473ffffffffffffffffffffffffffffffffffffffff1673ffffffffffffffffffffffffffffffffffffffff1673ffffffffffffffffffffffffffffffffffffffff1681526020016001820154815250508152602001906001019061278e565b505050509050919050565b60008060066000858152602001908152602001600020805480602002602001604051908101604052809291908181526020016000905b828210156128f357838290600052602060002090600202016040518060400160405290816000820160009054906101000a900473ffffffffffffffffffffffffffffffffffffffff1673ffffffffffffffffffffffffffffffffffffffff1673ffffffffffffffffffffffffffffffffffffffff16815260200160018201548152505081526020019060010190612861565b50505050905060005b8151811015612991578373ffffffffffffffffffffffffffffffffffffffff1682828151811061292f5761292e613535565b5b60200260200101516000015173ffffffffffffffffffffffffffffffffffffffff160361297e5781818151811061296957612968613535565b5b60200260200101516020015192505050612994565b808061298990613fef565b9150506128fc565b50505b92915050565b60008054906101000a900473ffffffffffffffffffffffffffffffffffffffff1673ffffffffffffffffffffffffffffffffffffffff163273ffffffffffffffffffffffffffffffffffffffff1614612a28576040517f08c379a0000000000000000000000000000000000000000000000000000000008152600401612a1f906135b0565b60405180910390fd5b80600160008473ffffffffffffffffffffffffffffffffffffffff1673ffffffffffffffffffffffffffffffffffffffff16815260200190815260200160002060006101000a81548160ff0219169083151502179055505050565b6000600260008373ffffffffffffffffffffffffffffffffffffffff1673ffffffffffffffffffffffffffffffffffffffff16815260200190815260200160002060010160029054906101000a900460ff169050919050565b6000838383604051602001612af393929190614148565b6040516020818303038152906040528051906020012090509392505050565b60008183612b209190614181565b905092915050565b60008183612b36919061420a565b905092915050565b60008183612b4c919061423b565b905092915050565b600073ffffffffffffffffffffffffffffffffffffffff82169050919050565b6000612b7f82612b54565b9050919050565b612b8f81612b74565b82525050565b6000602082019050612baa6000830184612b86565b92915050565b600081519050919050565b600082825260208201905092915050565b6000819050602082019050919050565b612be581612b74565b82525050565b6000612bf78383612bdc565b60208301905092915050565b6000602082019050919050565b6000612c1b82612bb0565b612c258185612bbb565b9350612c3083612bcc565b8060005b83811015612c61578151612c488882612beb565b9750612c5383612c03565b925050600181019050612c34565b5085935050505092915050565b60006020820190508181036000830152612c888184612c10565b905092915050565b6000604051905090565b600080fd5b600080fd5b60008115159050919050565b612cb981612ca4565b8114612cc457600080fd5b50565b600081359050612cd681612cb0565b92915050565b600060208284031215612cf257612cf1612c9a565b5b6000612d0084828501612cc7565b91505092915050565b612d1281612b74565b8114612d1d57600080fd5b50565b600081359050612d2f81612d09565b92915050565b6000819050919050565b612d4881612d35565b8114612d5357600080fd5b50565b600081359050612d6581612d3f565b92915050565b600060ff82169050919050565b612d8181612d6b565b8114612d8c57600080fd5b50565b600081359050612d9e81612d78565b92915050565b600080600060608486031215612dbd57612dbc612c9a565b5b6000612dcb86828701612d20565b9350506020612ddc86828701612d56565b9250506040612ded86828701612d8f565b9150509250925092565b600080fd5b600080fd5b6000601f19601f8301169050919050565b7f4e487b7100000000000000000000000000000000000000000000000000000000600052604160045260246000fd5b612e4a82612e01565b810181811067ffffffffffffffff82111715612e6957612e68612e12565b5b80604052505050565b6000612e7c612c90565b9050612e888282612e41565b919050565b600067ffffffffffffffff821115612ea857612ea7612e12565b5b612eb182612e01565b9050602081019050919050565b82818337600083830152505050565b6000612ee0612edb84612e8d565b612e72565b905082815260208101848484011115612efc57612efb612dfc565b5b612f07848285612ebe565b509392505050565b600082601f830112612f2457612f23612df7565b5b8135612f34848260208601612ecd565b91505092915050565b6000819050919050565b612f5081612f3d565b8114612f5b57600080fd5b50565b600081359050612f6d81612f47565b92915050565b600080600060608486031215612f8c57612f8b612c9a565b5b6000612f9a86828701612d20565b935050602084013567ffffffffffffffff811115612fbb57612fba612c9f565b5b612fc786828701612f0f565b9250506040612fd886828701612f5e565b9150509250925092565b612feb81612d35565b82525050565b600081519050919050565b600082825260208201905092915050565b60005b8381101561302b578082015181840152602081019050613010565b60008484015250505050565b600061304282612ff1565b61304c8185612ffc565b935061305c81856020860161300d565b61306581612e01565b840191505092915050565b61307981612d6b565b82525050565b61308881612f3d565b82525050565b600060a0820190506130a36000830188612fe2565b81810360208301526130b58187613037565b90506130c46040830186613070565b6130d1606083018561307f565b6130de6080830184612b86565b9695505050505050565b6000602082840312156130fe576130fd612c9a565b5b600061310c84828501612d56565b91505092915050565b600060208201905061312a600083018461307f565b92915050565b60006020828403121561314657613145612c9a565b5b600061315484828501612d20565b91505092915050565b61316681612ca4565b82525050565b6000602082019050613181600083018461315d565b92915050565b600060808201905061319c600083018761315d565b6131a9602083018661315d565b6131b6604083018561315d565b6131c3606083018461307f565b95945050505050565b600080604083850312156131e3576131e2612c9a565b5b60006131f185828601612d20565b925050602083013567ffffffffffffffff81111561321257613211612c9f565b5b61321e85828601612f0f565b9150509250929050565b600081519050919050565b600082825260208201905092915050565b6000819050602082019050919050565b61325d81612d35565b82525050565b600061326f8383613254565b60208301905092915050565b6000602082019050919050565b600061329382613228565b61329d8185613233565b93506132a883613244565b8060005b838110156132d95781516132c08882613263565b97506132cb8361327b565b9250506001810190506132ac565b5085935050505092915050565b600060208201905081810360008301526133008184613288565b905092915050565b600060208201905061331d6000830184613070565b92915050565b6000806000806080858703121561333d5761333c612c9a565b5b600061334b87828801612d20565b945050602085013567ffffffffffffffff81111561336c5761336b612c9f565b5b61337887828801612f0f565b935050604061338987828801612f5e565b925050606061339a87828801612d8f565b91505092959194509250565b600081519050919050565b600082825260208201905092915050565b6000819050602082019050919050565b6133db81612f3d565b82525050565b6040820160008201516133f76000850182612bdc565b50602082015161340a60208501826133d2565b50505050565b600061341c83836133e1565b60408301905092915050565b6000602082019050919050565b6000613440826133a6565b61344a81856133b1565b9350613455836133c2565b8060005b8381101561348657815161346d8882613410565b975061347883613428565b925050600181019050613459565b5085935050505092915050565b600060208201905081810360008301526134ad8184613435565b905092915050565b600080604083850312156134cc576134cb612c9a565b5b60006134da85828601612d56565b92505060206134eb85828601612d20565b9150509250929050565b6000806040838503121561350c5761350b612c9a565b5b600061351a85828601612d20565b925050602061352b85828601612cc7565b9150509250929050565b7f4e487b7100000000000000000000000000000000000000000000000000000000600052603260045260246000fd5b7f43616c6c6572206973206e6f7420636f6e7472616374206f776e657200000000600082015250565b600061359a601c83612ffc565b91506135a582613564565b602082019050919050565b600060208201905081810360008301526135c98161358d565b9050919050565b7f436f6e74726163742069732063757272656e746c79206e6f74206f706572617460008201527f696f6e616c000000000000000000000000000000000000000000000000000000602082015250565b600061362c602583612ffc565b9150613637826135d0565b604082019050919050565b6000602082019050818103600083015261365b8161361f565b9050919050565b7f436f6e747261637473206e6f7420616c6c6f7765640000000000000000000000600082015250565b6000613698601583612ffc565b91506136a382613662565b602082019050919050565b600060208201905081810360008301526136c78161368b565b9050919050565b7f50617373656e67657220646f6573206e6f7420686176652062616c616e636500600082015250565b6000613704601f83612ffc565b915061370f826136ce565b602082019050919050565b60006020820190508181036000830152613733816136f7565b9050919050565b7f4e6f7420616e20617574686f72697a656420636f6e74726163742063616c6c00600082015250565b6000613770601f83612ffc565b915061377b8261373a565b602082019050919050565b6000602082019050818103600083015261379f81613763565b9050919050565b7f4169726c696e65206e6f74207965742066756e64656400000000000000000000600082015250565b60006137dc601683612ffc565b91506137e7826137a6565b602082019050919050565b6000602082019050818103600083015261380b816137cf565b9050919050565b7f466c69676874206973206e6f7420726567697374657265640000000000000000600082015250565b6000613848601883612ffc565b915061385382613812565b602082019050919050565b600060208201905081810360008301526138778161383b565b9050919050565b7f4f6e6c79206169726c696e65206f776e65722063616e2075706461746520666c60008201527f6967687400000000000000000000000000000000000000000000000000000000602082015250565b60006138da602483612ffc565b91506138e58261387e565b604082019050919050565b60006020820190508181036000830152613909816138cd565b9050919050565b7f466c69676874206e6f7420726567697374657265640000000000000000000000600082015250565b6000613946601583612ffc565b915061395182613910565b602082019050919050565b6000602082019050818103600083015261397581613939565b9050919050565b7f4e487b7100000000000000000000000000000000000000000000000000000000600052602260045260246000fd5b600060028204905060018216806139c357607f821691505b6020821081036139d6576139d561397c565b5b50919050565b7f4169726c696e6573206973206e6f742072656769737465726564000000000000600082015250565b6000613a12601a83612ffc565b9150613a1d826139dc565b602082019050919050565b60006020820190508181036000830152613a4181613a05565b9050919050565b7f4f6e6c79206669727374206169726c696e652063616e2062652072656769737460008201527f6572656420686572650000000000000000000000000000000000000000000000602082015250565b6000613aa4602983612ffc565b9150613aaf82613a48565b604082019050919050565b60006020820190508181036000830152613ad381613a97565b9050919050565b60008190508160005260206000209050919050565b60006020601f8301049050919050565b600082821b905092915050565b600060088302613b3c7fffffffffffffffffffffffffffffffffffffffffffffffffffffffffffffffff82613aff565b613b468683613aff565b95508019841693508086168417925050509392505050565b6000819050919050565b6000613b83613b7e613b7984612f3d565b613b5e565b612f3d565b9050919050565b6000819050919050565b613b9d83613b68565b613bb1613ba982613b8a565b848454613b0c565b825550505050565b600090565b613bc6613bb9565b613bd1818484613b94565b505050565b5b81811015613bf557613bea600082613bbe565b600181019050613bd7565b5050565b601f821115613c3a57613c0b81613ada565b613c1484613aef565b81016020851015613c23578190505b613c37613c2f85613aef565b830182613bd6565b50505b505050565b600082821c905092915050565b6000613c5d60001984600802613c3f565b1980831691505092915050565b6000613c768383613c4c565b9150826002028217905092915050565b613c8f82612ff1565b67ffffffffffffffff811115613ca857613ca7612e12565b5b613cb282546139ab565b613cbd828285613bf9565b600060209050601f831160018114613cf05760008415613cde578287015190505b613ce88582613c6a565b865550613d50565b601f198416613cfe86613ada565b60005b82811015613d2657848901518255600182019150602085019450602081019050613d01565b86831015613d435784890151613d3f601f891682613c4c565b8355505b6001600288020188555050505b505050505050565b7f4d696e20696e737572616e636520697320312077656920616e64206d6178206960008201527f6e737572616e6365206973203120657468657200000000000000000000000000602082015250565b6000613db4603383612ffc565b9150613dbf82613d58565b604082019050919050565b60006020820190508181036000830152613de381613da7565b9050919050565b7f4169726c696e65206e6f74207965742061636365707465640000000000000000600082015250565b6000613e20601883612ffc565b9150613e2b82613dea565b602082019050919050565b60006020820190508181036000830152613e4f81613e13565b9050919050565b7f313020657468657220726571756972656420666f722066756e64696e67000000600082015250565b6000613e8c601d83612ffc565b9150613e9782613e56565b602082019050919050565b60006020820190508181036000830152613ebb81613e7f565b9050919050565b7f4169726c696e6520616c72656164792066756e64656400000000000000000000600082015250565b6000613ef8601683612ffc565b9150613f0382613ec2565b602082019050919050565b60006020820190508181036000830152613f2781613eeb565b9050919050565b7f4169726c696e652073686f756c6420626520726567697374657265642066697260008201527f7374000000000000000000000000000000000000000000000000000000000000602082015250565b6000613f8a602283612ffc565b9150613f9582613f2e565b604082019050919050565b60006020820190508181036000830152613fb981613f7d565b9050919050565b7f4e487b7100000000000000000000000000000000000000000000000000000000600052601160045260246000fd5b6000613ffa82612f3d565b91507fffffffffffffffffffffffffffffffffffffffffffffffffffffffffffffffff820361402c5761402b613fc0565b5b600182019050919050565b7f4169726c696e6520616c72656164792072656769737465726564000000000000600082015250565b600061406d601a83612ffc565b915061407882614037565b602082019050919050565b6000602082019050818103600083015261409c81614060565b9050919050565b60008160601b9050919050565b60006140bb826140a3565b9050919050565b60006140cd826140b0565b9050919050565b6140e56140e082612b74565b6140c2565b82525050565b600081905092915050565b600061410182612ff1565b61410b81856140eb565b935061411b81856020860161300d565b80840191505092915050565b6000819050919050565b61414261413d82612f3d565b614127565b82525050565b600061415482866140d4565b60148201915061416482856140f6565b91506141708284614131565b602082019150819050949350505050565b600061418c82612f3d565b915061419783612f3d565b9250817fffffffffffffffffffffffffffffffffffffffffffffffffffffffffffffffff04831182151516156141d0576141cf613fc0565b5b828202905092915050565b7f4e487b7100000000000000000000000000000000000000000000000000000000600052601260045260246000fd5b600061421582612f3d565b915061422083612f3d565b9250826142305761422f6141db565b5b828204905092915050565b600061424682612f3d565b915061425183612f3d565b925082820190508082111561426957614268613fc0565b5b9291505056fea2646970667358221220f533bd878a77c25ef52b9b00cc86a1fc70ef3f83426910d53f87757e3ba578fa64736f6c63430008100033",
  "immutableReferences": {},
  "source": "// SPDX-License-Identifier: MIT\npragma solidity ^0.8.16;\n\nimport \"@openzeppelin/contracts/utils/math/SafeMath.sol\";\n\ncontract FlightSuretyData {\n\n    using SafeMath for uint256;\n\n    /********************************************************************************************/\n    /*                                       DATA VARIABLES                                     */\n    /********************************************************************************************/\n    // Account used to deploy contract\n    address private contractOwner;                                      \n\n    // Blocks all state changes throughout the contract if false\n    bool private operational = true;                                    \n\n    // Only authorized contracts can perform write transactions\n    mapping(address => bool) private authorized;\n     \n    // Airlines information\n    struct Airline {\n        string name;\n        bool isRegistered;\n        bool isAccepted;\n        bool isFunded;\n        uint256 balance;\n    }\n    mapping(address => Airline) private airlines;\n    address[] private airlinesArray = new address[](0);\n    \n    // Flights information\n    struct Flight {\n        bool isRegistered;\n        string flight;\n        uint8 statusCode;\n        uint256 updatedTimestamp;        \n        address airline;\n    }\n    mapping(bytes32 => Flight) private flights;\n    bytes32[] private flightsArray = new bytes32[](0);\n    \n    // Insurances information\n    struct Insurance {\n        address passenger;\n        uint256 amount;\n    }\n    mapping(bytes32 => Insurance[]) private insurances;\n\n    // Passengers balances\n    mapping(address => uint256) private balances;\n\n    /********************************************************************************************/\n    /*                                       EVENT DEFINITIONS                                  */\n    /********************************************************************************************/\n    constructor () {\n        contractOwner = msg.sender;\n    }\n\n    /********************************************************************************************/\n    /*                                       FUNCTION MODIFIERS                                 */\n    /********************************************************************************************/\n    modifier requireIsOperational() {\n        require(operational, \"Contract is currently not operational\");\n        _;\n    }\n\n    modifier requireContractOwner() {\n        require(tx.origin == contractOwner, \"Caller is not contract owner\");\n        _;\n    }\n\n    modifier requireAuthorizedContract() {\n        require(authorized[msg.sender] == true, \"Not an authorized contract call\");\n        _;\n    }\n\n    modifier requireAcceptedAirline(){\n        require(airlines[msg.sender].isAccepted, \"Airline not yet accepted\");\n        _;\n    }\n\n    modifier requireFundedAirline(address account){\n        require(airlines[account].isFunded, \"Airline not yet funded\");\n        _;\n    }\n\n\n    /********************************************************************************************/\n    /*                                       UTILITY FUNCTIONS                                  */\n    /********************************************************************************************/\n    function isOperational() public view returns(bool)  {\n        return operational;\n    }\n\n    function setOperatingStatus (bool status) external requireContractOwner {\n        operational = status;\n    }\n\n    function isAuthorizedContract(address contractAddress) external view returns(bool) {\n        return authorized[contractAddress];\n    }\n\n    function setAuthorizedContract(address contractAddress, bool status) external requireContractOwner {\n        authorized[contractAddress] = status;\n    }\n\n    function getFirstAirline() external view returns(address) {\n        return airlinesArray[0];\n    }\n\n    function getNumAirlines () external view returns (uint256) {\n        return airlinesArray.length;\n    }\n\n    function isRegisteredAirline(address account) external view returns(bool){\n        return airlines[account].isRegistered;\n    }\n\n    function isAcceptedAirline(address account) external view returns(bool){\n        return airlines[account].isAccepted;\n    }\n\n\n    function isFundedAirline(address account) external view returns(bool){\n        return airlines[account].isFunded;\n    }\n\n    function getAirlineBalance(address account) external view returns (uint256) {\n        require(airlines[account].isRegistered, \"Airlines is not registered\");\n        return (airlines[account].balance);\n    }\n\n    function getAirlineInfo(address account) external view returns (bool, bool, bool, uint256) {\n        require(airlines[account].isRegistered, \"Airlines is not registered\");\n        Airline memory aux = airlines[account];\n        return (aux.isRegistered, aux.isAccepted, aux.isFunded, aux.balance);\n    }\n\n    function getAirlines() external view returns (address[] memory) {\n        return airlinesArray;\n    }\n\n    function getFlightInfoByKey(bytes32 key) external view returns (bytes32 flightKey, string memory flightName, uint8 statusCode, uint256 updatedTimestamp, address flightAirline) {\n        require(flights[key].isRegistered == true, \"Flight not registered\");\n        Flight memory aux = flights[key];\n        return (key, aux.flight, aux.statusCode, aux.updatedTimestamp, aux.airline);\n    }\n\n    function getFlightInfo(address airline, string memory flight, uint256 timestamp) external view returns (bytes32 flightKey, string memory flightName, uint8 statusCode, uint256 updatedTimestamp, address flightAirline) {\n        bytes32 key = getFlightKey(airline, flight, timestamp);\n        require(flights[key].isRegistered == true, \"Flight not registered\");\n        Flight memory aux = flights[key];\n        return (key, aux.flight, aux.statusCode, aux.updatedTimestamp, aux.airline);\n    }\n\n    function getFlightStatus(address airline, string memory flight, uint256 timestamp) external view returns (uint8 statusCode) {\n        bytes32 key = getFlightKey(airline, flight, timestamp);\n        require(flights[key].isRegistered == true, \"Flight not registered\");\n        return (flights[key].statusCode);\n    }\n\n    function getFlights() external view returns (bytes32[] memory) {\n        return flightsArray;\n    }\n\n    function getInsuranceInfo(bytes32 flight, address passenger) external view returns (uint256 amount) {\n        Insurance[] memory aux = insurances[flight];\n        for (uint256 i = 0; i < aux.length; i++) {\n            if ( aux[i].passenger == passenger) {\n                return aux[i].amount;\n            }\n        }\n    }\n\n    function getInsurances(bytes32 flight) external view returns (Insurance[] memory) {\n        return insurances[flight];\n    }\n\n    function getPassengerBalance() external view returns(uint256) {\n        return balances[msg.sender];\n    }\n\n    /********************************************************************************************/\n    /*          SMART CONTRACT FUNCTIONS CAN BE CALLED ONLY FROM APP CONTRACT                   */\n    /********************************************************************************************/\n    function registerFirstAirline (address account, string memory name) external requireIsOperational requireContractOwner {\n        require(airlinesArray.length == 0, \"Only first airline can be registered here\");\n        airlines[account] = Airline(name, true, true, false, 0);\n        airlinesArray.push(account);\n    }\n\n    function registerAirline (address account, string memory name) external requireIsOperational requireAuthorizedContract {\n        require(!airlines[account].isRegistered, \"Airline already registered\");\n        airlines[account] = Airline(name, true, false, false, 0);\n    }\n\n    function acceptAirline (address account) external requireIsOperational requireAuthorizedContract {\n        require(airlines[account].isRegistered, \"Airline should be registered first\");\n        airlines[account].isAccepted = true;\n        airlinesArray.push(account);\n    }\n\n    function registerFlight (address airline, string memory flight, uint256 timestamp, uint8 status) external requireIsOperational requireAuthorizedContract requireFundedAirline(airline) {\n        bytes32 key = getFlightKey(airline, flight, timestamp);\n        flights[key] = Flight(true, flight, status, timestamp, airline);\n        flightsArray.push(key);\n    }\n\n    function updateFlight (address airline, bytes32 flight, uint8 status) external requireIsOperational requireAuthorizedContract requireFundedAirline(airline) {\n        require(flights[flight].isRegistered == true, \"Flight is not registered\");\n        require(flights[flight].airline == airline, \"Only airline owner can update flight\");\n        flights[flight].statusCode = status;\n        flights[flight].updatedTimestamp = block.timestamp;\n\n    }\n    \n    function creditInsurees (bytes32 flight) external requireIsOperational requireAuthorizedContract {\n        Insurance[] memory aux = insurances[flight];\n        for (uint256 i = 0; i < aux.length; i++) {\n            address passenger = aux[i].passenger;\n            uint256 amount = aux[i].amount;\n            uint256 balance = balances[passenger];\n            uint256 payment = SafeMath.div(SafeMath.mul(amount, 150), 100);\n            aux[i].amount = 0;\n            balances[passenger] = SafeMath.add(balance, payment);\n        }\n    }\n    /********************************************************************************************/\n    /*               SMART CONTRACT FUNCTIONS THAT CAN BE CALLED DIRECTLY FROM EOA              */\n    /********************************************************************************************/\n    function fund () public payable requireIsOperational requireAcceptedAirline {\n        require(msg.value == 10 ether, \"10 ether required for funding\");\n        require(airlines[msg.sender].isFunded == false, \"Airline already funded\");\n        airlines[msg.sender].balance = msg.value;\n        airlines[msg.sender].isFunded = true;\n    }\n\n    function buy (bytes32 flight) external payable requireIsOperational {\n        require(msg.value > 0 && msg.value <= 1 ether, \"Min insurance is 1 wei and max insurance is 1 ether\");\n        require(flights[flight].isRegistered == true, \"Flight not registered\");\n        insurances[flight].push(Insurance(msg.sender, msg.value));\n    }\n\n    function pay () external requireIsOperational {\n        require(msg.sender == tx.origin, \"Contracts not allowed\");\n        require(balances[msg.sender] > 0, \"Passenger does not have balance\");\n        uint256 withdraw = balances[msg.sender];\n        balances[msg.sender] = 0;\n        payable(msg.sender).transfer(withdraw);\n    }\n\n    /********************************************************************************************/\n    /*                  AUXILIARY METHODS INTERNAL TO SMART CONTRACT                            */\n    /********************************************************************************************/\n    function getFlightKey (address airline, string memory flight, uint256 timestamp) pure internal returns(bytes32) {\n        return keccak256(abi.encodePacked(airline, flight, timestamp));\n    }\n}",
  "sourcePath": "/home/isma/Desktop/code/blockchain/FlightSurety/truffle/contracts/FlightSuretyData.sol",
  "compiler": {
    "name": "solc",
    "version": "0.8.16+commit.07a7930e.Emscripten.clang"
  },
  "schemaVersion": "3.4.9",
  "updatedAt": "2022-09-18T20:27:59.403Z",
  "devdoc": {
    "kind": "dev",
    "methods": {},
    "version": 1
  },
  "userdoc": {
    "kind": "user",
    "methods": {},
    "version": 1
  }
}