{
  "contractName": "FlightSuretyApp",
  "abi": [
    {
      "inputs": [
        {
          "internalType": "address",
          "name": "dataContract",
          "type": "address"
        },
        {
          "internalType": "address",
          "name": "firstAirline",
          "type": "address"
        }
      ],
      "stateMutability": "nonpayable",
      "type": "constructor"
    },
    {
      "anonymous": false,
      "inputs": [
        {
          "indexed": false,
          "internalType": "address",
          "name": "airline",
          "type": "address"
        },
        {
          "indexed": false,
          "internalType": "string",
          "name": "flight",
          "type": "string"
        },
        {
          "indexed": false,
          "internalType": "uint256",
          "name": "timestamp",
          "type": "uint256"
        },
        {
          "indexed": false,
          "internalType": "uint8",
          "name": "status",
          "type": "uint8"
        }
      ],
      "name": "FlightStatusInfo",
      "type": "event"
    },
    {
      "anonymous": false,
      "inputs": [
        {
          "indexed": false,
          "internalType": "address",
          "name": "airline",
          "type": "address"
        },
        {
          "indexed": false,
          "internalType": "string",
          "name": "flight",
          "type": "string"
        },
        {
          "indexed": false,
          "internalType": "uint256",
          "name": "timestamp",
          "type": "uint256"
        },
        {
          "indexed": false,
          "internalType": "uint8",
          "name": "status",
          "type": "uint8"
        }
      ],
      "name": "OracleReport",
      "type": "event"
    },
    {
      "anonymous": false,
      "inputs": [
        {
          "indexed": false,
          "internalType": "uint8",
          "name": "index",
          "type": "uint8"
        },
        {
          "indexed": false,
          "internalType": "address",
          "name": "airline",
          "type": "address"
        },
        {
          "indexed": false,
          "internalType": "string",
          "name": "flight",
          "type": "string"
        },
        {
          "indexed": false,
          "internalType": "uint256",
          "name": "timestamp",
          "type": "uint256"
        }
      ],
      "name": "OracleRequest",
      "type": "event"
    },
    {
      "inputs": [],
      "name": "REGISTRATION_FEE",
      "outputs": [
        {
          "internalType": "uint256",
          "name": "",
          "type": "uint256"
        }
      ],
      "stateMutability": "view",
      "type": "function"
    },
    {
      "inputs": [],
      "name": "isOperational",
      "outputs": [
        {
          "internalType": "bool",
          "name": "",
          "type": "bool"
        }
      ],
      "stateMutability": "view",
      "type": "function"
    },
    {
      "inputs": [
        {
          "internalType": "address",
          "name": "account",
          "type": "address"
        }
      ],
      "name": "registerAirline",
      "outputs": [
        {
          "internalType": "bool",
          "name": "success",
          "type": "bool"
        },
        {
          "internalType": "uint256",
          "name": "votes",
          "type": "uint256"
        }
      ],
      "stateMutability": "nonpayable",
      "type": "function"
    },
    {
      "inputs": [
        {
          "internalType": "address",
          "name": "account",
          "type": "address"
        }
      ],
      "name": "voteAirline",
      "outputs": [],
      "stateMutability": "nonpayable",
      "type": "function"
    },
    {
      "inputs": [
        {
          "internalType": "bytes32",
          "name": "flight",
          "type": "bytes32"
        }
      ],
      "name": "registerFlight",
      "outputs": [],
      "stateMutability": "nonpayable",
      "type": "function"
    },
    {
      "inputs": [
        {
          "internalType": "address",
          "name": "airline",
          "type": "address"
        },
        {
          "internalType": "string",
          "name": "flight",
          "type": "string"
        },
        {
          "internalType": "uint256",
          "name": "timestamp",
          "type": "uint256"
        }
      ],
      "name": "fetchFlightStatus",
      "outputs": [],
      "stateMutability": "nonpayable",
      "type": "function"
    },
    {
      "inputs": [],
      "name": "registerOracle",
      "outputs": [],
      "stateMutability": "payable",
      "type": "function"
    },
    {
      "inputs": [],
      "name": "getMyIndexes",
      "outputs": [
        {
          "internalType": "uint8[3]",
          "name": "",
          "type": "uint8[3]"
        }
      ],
      "stateMutability": "view",
      "type": "function"
    },
    {
      "inputs": [
        {
          "internalType": "uint8",
          "name": "index",
          "type": "uint8"
        },
        {
          "internalType": "address",
          "name": "airline",
          "type": "address"
        },
        {
          "internalType": "string",
          "name": "flight",
          "type": "string"
        },
        {
          "internalType": "uint256",
          "name": "timestamp",
          "type": "uint256"
        },
        {
          "internalType": "uint8",
          "name": "statusCode",
          "type": "uint8"
        }
      ],
      "name": "submitOracleResponse",
      "outputs": [],
      "stateMutability": "nonpayable",
      "type": "function"
    }
  ],
  "bytecode": "0x60806040526000600360006101000a81548160ff021916908360ff1602179055503480156200002d57600080fd5b506040516200308d3803806200308d833981810160405281019062000053919062000274565b336000806101000a81548173ffffffffffffffffffffffffffffffffffffffff021916908373ffffffffffffffffffffffffffffffffffffffff16021790555081600160006101000a81548173ffffffffffffffffffffffffffffffffffffffff021916908373ffffffffffffffffffffffffffffffffffffffff1602179055506000600160009054906101000a900473ffffffffffffffffffffffffffffffffffffffff1673ffffffffffffffffffffffffffffffffffffffff16637ab21cdc6040518163ffffffff1660e01b8152600401602060405180830381865afa15801562000144573d6000803e3d6000fd5b505050506040513d601f19601f820116820180604052508101906200016a9190620002f6565b036200020257600160009054906101000a900473ffffffffffffffffffffffffffffffffffffffff1673ffffffffffffffffffffffffffffffffffffffff16637d2ab0de826040518263ffffffff1660e01b8152600401620001cd919062000339565b600060405180830381600087803b158015620001e857600080fd5b505af1158015620001fd573d6000803e3d6000fd5b505050505b505062000356565b600080fd5b600073ffffffffffffffffffffffffffffffffffffffff82169050919050565b60006200023c826200020f565b9050919050565b6200024e816200022f565b81146200025a57600080fd5b50565b6000815190506200026e8162000243565b92915050565b600080604083850312156200028e576200028d6200020a565b5b60006200029e858286016200025d565b9250506020620002b1858286016200025d565b9150509250929050565b6000819050919050565b620002d081620002bb565b8114620002dc57600080fd5b50565b600081519050620002f081620002c5565b92915050565b6000602082840312156200030f576200030e6200020a565b5b60006200031f84828501620002df565b91505092915050565b62000333816200022f565b82525050565b600060208201905062000350600083018462000328565b92915050565b612d2780620003666000396000f3fe6080604052600436106100865760003560e01c8063bdfd987711610059578063bdfd987714610114578063c10f270014610152578063cd905dff1461017b578063d8ab5b89146101a6578063f83f11c0146101cf57610086565b8063339d25901461008b5780635f1cc0e61461009557806364b4f751146100c0578063bc7bf680146100eb575b600080fd5b6100936101f8565b005b3480156100a157600080fd5b506100aa6102e5565b6040516100b79190611b41565b60405180910390f35b3480156100cc57600080fd5b506100d5610425565b6040516100e29190611b75565b60405180910390f35b3480156100f757600080fd5b50610112600480360381019061010d9190611bda565b610431565b005b34801561012057600080fd5b5061013b60048036038101906101369190611c65565b61059f565b604051610149929190611cad565b60405180910390f35b34801561015e57600080fd5b5061017960048036038101906101749190611e74565b610aea565b005b34801561018757600080fd5b50610190610e79565b60405161019d9190611f0b565b60405180910390f35b3480156101b257600080fd5b506101cd60048036038101906101c89190611c65565b610f11565b005b3480156101db57600080fd5b506101f660048036038101906101f19190611f26565b61155e565b005b670de0b6b3a7640000341015610243576040517f08c379a000000000000000000000000000000000000000000000000000000000815260040161023a90611ff2565b60405180910390fd5b600061024e33611658565b9050604051806040016040528060011515815260200182815250600460003373ffffffffffffffffffffffffffffffffffffffff1673ffffffffffffffffffffffffffffffffffffffff16815260200190815260200160002060008201518160000160006101000a81548160ff0219169083151502179055506020820151816001019060036102de929190611926565b5090505050565b6102ed6119c0565b600460003373ffffffffffffffffffffffffffffffffffffffff1673ffffffffffffffffffffffffffffffffffffffff16815260200190815260200160002060000160009054906101000a900460ff1661037c576040517f08c379a00000000000000000000000000000000000000000000000000000000081526004016103739061205e565b60405180910390fd5b600460003373ffffffffffffffffffffffffffffffffffffffff1673ffffffffffffffffffffffffffffffffffffffff16815260200190815260200160002060010160038060200260405190810160405280929190826003801561041b576020028201916000905b82829054906101000a900460ff1660ff16815260200190600101906020826000010492830192600103820291508084116103e45790505b5050505050905090565b670de0b6b3a764000081565b600160009054906101000a900473ffffffffffffffffffffffffffffffffffffffff1673ffffffffffffffffffffffffffffffffffffffff1663619f73fa336040518263ffffffff1660e01b815260040161048c919061208d565b602060405180830381865afa1580156104a9573d6000803e3d6000fd5b505050506040513d601f19601f820116820180604052508101906104cd91906120d4565b61050c576040517f08c379a000000000000000000000000000000000000000000000000000000000815260040161050390612173565b60405180910390fd5b600160009054906101000a900473ffffffffffffffffffffffffffffffffffffffff1673ffffffffffffffffffffffffffffffffffffffff166340d6b50b8260006040518363ffffffff1660e01b815260040161056a9291906121b1565b600060405180830381600087803b15801561058457600080fd5b505af1158015610598573d6000803e3d6000fd5b5050505050565b6000806005600160009054906101000a900473ffffffffffffffffffffffffffffffffffffffff1673ffffffffffffffffffffffffffffffffffffffff16637ab21cdc6040518163ffffffff1660e01b8152600401602060405180830381865afa158015610611573d6000803e3d6000fd5b505050506040513d601f19601f8201168201806040525081019061063591906121ef565b101561094457600160009054906101000a900473ffffffffffffffffffffffffffffffffffffffff1673ffffffffffffffffffffffffffffffffffffffff166302eb72ad6040518163ffffffff1660e01b8152600401602060405180830381865afa1580156106a8573d6000803e3d6000fd5b505050506040513d601f19601f820116820180604052508101906106cc9190612231565b73ffffffffffffffffffffffffffffffffffffffff163373ffffffffffffffffffffffffffffffffffffffff1614610739576040517f08c379a0000000000000000000000000000000000000000000000000000000008152600401610730906122d0565b60405180910390fd5b678ac7230489e80000600160009054906101000a900473ffffffffffffffffffffffffffffffffffffffff1673ffffffffffffffffffffffffffffffffffffffff166389208e72336040518263ffffffff1660e01b815260040161079d919061208d565b602060405180830381865afa1580156107ba573d6000803e3d6000fd5b505050506040513d601f19601f820116820180604052508101906107de91906121ef565b1461081e576040517f08c379a00000000000000000000000000000000000000000000000000000000081526004016108159061233c565b60405180910390fd5b600160009054906101000a900473ffffffffffffffffffffffffffffffffffffffff1673ffffffffffffffffffffffffffffffffffffffff1663bdfd9877846040518263ffffffff1660e01b8152600401610879919061208d565b600060405180830381600087803b15801561089357600080fd5b505af11580156108a7573d6000803e3d6000fd5b50505050600160009054906101000a900473ffffffffffffffffffffffffffffffffffffffff1673ffffffffffffffffffffffffffffffffffffffff1663bf1d9156846040518263ffffffff1660e01b8152600401610906919061208d565b600060405180830381600087803b15801561092057600080fd5b505af1158015610934573d6000803e3d6000fd5b5050505060018091509150610ae5565b8273ffffffffffffffffffffffffffffffffffffffff163373ffffffffffffffffffffffffffffffffffffffff16146109b2576040517f08c379a00000000000000000000000000000000000000000000000000000000081526004016109a9906123f4565b60405180910390fd5b600160009054906101000a900473ffffffffffffffffffffffffffffffffffffffff1673ffffffffffffffffffffffffffffffffffffffff1663bdfd9877336040518263ffffffff1660e01b8152600401610a0d919061208d565b600060405180830381600087803b158015610a2757600080fd5b505af1158015610a3b573d6000803e3d6000fd5b50505050600067ffffffffffffffff811115610a5a57610a59611d1d565b5b604051908082528060200260200182016040528015610a885781602001602082028036833780820191505090505b50600260003373ffffffffffffffffffffffffffffffffffffffff1673ffffffffffffffffffffffffffffffffffffffff1681526020019081526020016000209080519060200190610adb9291906119e2565b5060016000915091505b915091565b8460ff16600460003373ffffffffffffffffffffffffffffffffffffffff1673ffffffffffffffffffffffffffffffffffffffff168152602001908152602001600020600101600060038110610b4357610b42612414565b5b602091828204019190069054906101000a900460ff1660ff161480610bd757508460ff16600460003373ffffffffffffffffffffffffffffffffffffffff1673ffffffffffffffffffffffffffffffffffffffff168152602001908152602001600020600101600160038110610bbc57610bbb612414565b5b602091828204019190069054906101000a900460ff1660ff16145b80610c5157508460ff16600460003373ffffffffffffffffffffffffffffffffffffffff1673ffffffffffffffffffffffffffffffffffffffff168152602001908152602001600020600101600260038110610c3657610c35612414565b5b602091828204019190069054906101000a900460ff1660ff16145b610c90576040517f08c379a0000000000000000000000000000000000000000000000000000000008152600401610c87906124b5565b60405180910390fd5b600085858585604051602001610ca994939291906125e5565b6040516020818303038152906040528051906020012090506005600082815260200190815260200160002060000160149054906101000a900460ff16610d24576040517f08c379a0000000000000000000000000000000000000000000000000000000008152600401610d1b906126a1565b60405180910390fd5b6005600082815260200190815260200160002060010160008360ff1660ff168152602001908152602001600020339080600181540180825580915050600190039060005260206000200160009091909190916101000a81548173ffffffffffffffffffffffffffffffffffffffff021916908373ffffffffffffffffffffffffffffffffffffffff1602179055507f43c853095c2752648493c88b4baac4d580d2594ffb00c6f1d4242d844514f78385858585604051610de794939291906126fa565b60405180910390a160036005600083815260200190815260200160002060010160008460ff1660ff1681526020019081526020016000208054905010610e71577fe23f5229de535c091e3b7bec2665f5d698192d3b31393066e8987b7a05076b6c85858585604051610e5c94939291906126fa565b60405180910390a1610e708585858561183e565b5b505050505050565b6000600160009054906101000a900473ffffffffffffffffffffffffffffffffffffffff1673ffffffffffffffffffffffffffffffffffffffff1663cd905dff6040518163ffffffff1660e01b8152600401602060405180830381865afa158015610ee8573d6000803e3d6000fd5b505050506040513d601f19601f82011682018060405250810190610f0c91906120d4565b905090565b600160009054906101000a900473ffffffffffffffffffffffffffffffffffffffff1673ffffffffffffffffffffffffffffffffffffffff1663619f73fa336040518263ffffffff1660e01b8152600401610f6c919061208d565b602060405180830381865afa158015610f89573d6000803e3d6000fd5b505050506040513d601f19601f82011682018060405250810190610fad91906120d4565b610fec576040517f08c379a0000000000000000000000000000000000000000000000000000000008152600401610fe390612173565b60405180910390fd5b6000600160009054906101000a900473ffffffffffffffffffffffffffffffffffffffff1673ffffffffffffffffffffffffffffffffffffffff16637ab21cdc6040518163ffffffff1660e01b8152600401602060405180830381865afa15801561105b573d6000803e3d6000fd5b505050506040513d601f19601f8201168201806040525081019061107f91906121ef565b9050600481116110c4576040517f08c379a00000000000000000000000000000000000000000000000000000000081526004016110bb906127b8565b60405180910390fd5b600080600080600160009054906101000a900473ffffffffffffffffffffffffffffffffffffffff1673ffffffffffffffffffffffffffffffffffffffff1663720c7cbb876040518263ffffffff1660e01b8152600401611125919061208d565b608060405180830381865afa158015611142573d6000803e3d6000fd5b505050506040513d601f19601f8201168201806040525081019061116691906127d8565b9350935093509350836111ae576040517f08c379a00000000000000000000000000000000000000000000000000000000081526004016111a5906128b1565b60405180910390fd5b82156111ef576040517f08c379a00000000000000000000000000000000000000000000000000000000081526004016111e690612943565b60405180910390fd5b8115611230576040517f08c379a0000000000000000000000000000000000000000000000000000000008152600401611227906129af565b60405180910390fd5b60008114611273576040517f08c379a000000000000000000000000000000000000000000000000000000000815260040161126a90612a41565b60405180910390fd5b6000805b600260008973ffffffffffffffffffffffffffffffffffffffff1673ffffffffffffffffffffffffffffffffffffffff1681526020019081526020016000208054905081101561138b573373ffffffffffffffffffffffffffffffffffffffff16600260008a73ffffffffffffffffffffffffffffffffffffffff1673ffffffffffffffffffffffffffffffffffffffff168152602001908152602001600020828154811061132957611328612414565b5b9060005260206000200160009054906101000a900473ffffffffffffffffffffffffffffffffffffffff1673ffffffffffffffffffffffffffffffffffffffff1603611378576001915061138b565b808061138390612a90565b915050611277565b5060001515811515146113d3576040517f08c379a00000000000000000000000000000000000000000000000000000000081526004016113ca90612b4a565b60405180910390fd5b600260008873ffffffffffffffffffffffffffffffffffffffff1673ffffffffffffffffffffffffffffffffffffffff168152602001908152602001600020339080600181540180825580915050600190039060005260206000200160009091909190916101000a81548173ffffffffffffffffffffffffffffffffffffffff021916908373ffffffffffffffffffffffffffffffffffffffff16021790555061147e866002611844565b600260008973ffffffffffffffffffffffffffffffffffffffff1673ffffffffffffffffffffffffffffffffffffffff16815260200190815260200160002080549050111561155557600160009054906101000a900473ffffffffffffffffffffffffffffffffffffffff1673ffffffffffffffffffffffffffffffffffffffff1663bf1d9156886040518263ffffffff1660e01b8152600401611522919061208d565b600060405180830381600087803b15801561153c57600080fd5b505af1158015611550573d6000803e3d6000fd5b505050505b50505050505050565b60006115693361185a565b905060008185858560405160200161158494939291906125e5565b6040516020818303038152906040528051906020012090506000600560008381526020019081526020016000209050338160000160006101000a81548173ffffffffffffffffffffffffffffffffffffffff021916908373ffffffffffffffffffffffffffffffffffffffff16021790555060018160000160146101000a81548160ff0219169083151502179055507f3ed01f2c3fc24c6b329d931e35b03e390d23497d22b3f90e15b600343e93df11838787876040516116489493929190612b6a565b60405180910390a1505050505050565b6116606119c0565b6116686119c0565b6116718361185a565b8160006003811061168557611684612414565b5b602002019060ff16908160ff1681525050806000600381106116aa576116a9612414565b5b6020020151816001600381106116c3576116c2612414565b5b602002019060ff16908160ff16815250505b806000600381106116e9576116e8612414565b5b602002015160ff168160016003811061170557611704612414565b5b602002015160ff16036117455761171b8361185a565b8160016003811061172f5761172e612414565b5b602002019060ff16908160ff16815250506116d5565b8060016003811061175957611758612414565b5b60200201518160026003811061177257611771612414565b5b602002019060ff16908160ff16815250505b8060006003811061179857611797612414565b5b602002015160ff16816002600381106117b4576117b3612414565b5b602002015160ff1614806117fd5750806001600381106117d7576117d6612414565b5b602002015160ff16816002600381106117f3576117f2612414565b5b602002015160ff16145b156118355761180b8361185a565b8160026003811061181f5761181e612414565b5b602002019060ff16908160ff1681525050611784565b80915050919050565b50505050565b600081836118529190612be5565b905092915050565b600080600a905060008160ff166003600081819054906101000a900460ff168092919061188690612c16565b91906101000a81548160ff021916908360ff16021790555060ff16436118ac9190612c3f565b40856040516020016118bf929190612c94565b6040516020818303038152906040528051906020012060001c6118e29190612cc0565b905060fa600360009054906101000a900460ff1660ff16111561191c576000600360006101000a81548160ff021916908360ff1602179055505b8092505050919050565b826003601f016020900481019282156119af5791602002820160005b8382111561198057835183826101000a81548160ff021916908360ff1602179055509260200192600101602081600001049283019260010302611942565b80156119ad5782816101000a81549060ff0219169055600101602081600001049283019260010302611980565b505b5090506119bc9190611a6c565b5090565b6040518060600160405280600390602082028036833780820191505090505090565b828054828255906000526020600020908101928215611a5b579160200282015b82811115611a5a5782518260006101000a81548173ffffffffffffffffffffffffffffffffffffffff021916908373ffffffffffffffffffffffffffffffffffffffff16021790555091602001919060010190611a02565b5b509050611a689190611a6c565b5090565b5b80821115611a85576000816000905550600101611a6d565b5090565b600060039050919050565b600081905092915050565b6000819050919050565b600060ff82169050919050565b611abf81611aa9565b82525050565b6000611ad18383611ab6565b60208301905092915050565b6000602082019050919050565b611af381611a89565b611afd8184611a94565b9250611b0882611a9f565b8060005b83811015611b39578151611b208782611ac5565b9650611b2b83611add565b925050600181019050611b0c565b505050505050565b6000606082019050611b566000830184611aea565b92915050565b6000819050919050565b611b6f81611b5c565b82525050565b6000602082019050611b8a6000830184611b66565b92915050565b6000604051905090565b600080fd5b600080fd5b6000819050919050565b611bb781611ba4565b8114611bc257600080fd5b50565b600081359050611bd481611bae565b92915050565b600060208284031215611bf057611bef611b9a565b5b6000611bfe84828501611bc5565b91505092915050565b600073ffffffffffffffffffffffffffffffffffffffff82169050919050565b6000611c3282611c07565b9050919050565b611c4281611c27565b8114611c4d57600080fd5b50565b600081359050611c5f81611c39565b92915050565b600060208284031215611c7b57611c7a611b9a565b5b6000611c8984828501611c50565b91505092915050565b60008115159050919050565b611ca781611c92565b82525050565b6000604082019050611cc26000830185611c9e565b611ccf6020830184611b66565b9392505050565b611cdf81611aa9565b8114611cea57600080fd5b50565b600081359050611cfc81611cd6565b92915050565b600080fd5b600080fd5b6000601f19601f8301169050919050565b7f4e487b7100000000000000000000000000000000000000000000000000000000600052604160045260246000fd5b611d5582611d0c565b810181811067ffffffffffffffff82111715611d7457611d73611d1d565b5b80604052505050565b6000611d87611b90565b9050611d938282611d4c565b919050565b600067ffffffffffffffff821115611db357611db2611d1d565b5b611dbc82611d0c565b9050602081019050919050565b82818337600083830152505050565b6000611deb611de684611d98565b611d7d565b905082815260208101848484011115611e0757611e06611d07565b5b611e12848285611dc9565b509392505050565b600082601f830112611e2f57611e2e611d02565b5b8135611e3f848260208601611dd8565b91505092915050565b611e5181611b5c565b8114611e5c57600080fd5b50565b600081359050611e6e81611e48565b92915050565b600080600080600060a08688031215611e9057611e8f611b9a565b5b6000611e9e88828901611ced565b9550506020611eaf88828901611c50565b945050604086013567ffffffffffffffff811115611ed057611ecf611b9f565b5b611edc88828901611e1a565b9350506060611eed88828901611e5f565b9250506080611efe88828901611ced565b9150509295509295909350565b6000602082019050611f206000830184611c9e565b92915050565b600080600060608486031215611f3f57611f3e611b9a565b5b6000611f4d86828701611c50565b935050602084013567ffffffffffffffff811115611f6e57611f6d611b9f565b5b611f7a86828701611e1a565b9250506040611f8b86828701611e5f565b9150509250925092565b600082825260208201905092915050565b7f526567697374726174696f6e2066656520697320726571756972656400000000600082015250565b6000611fdc601c83611f95565b9150611fe782611fa6565b602082019050919050565b6000602082019050818103600083015261200b81611fcf565b9050919050565b7f4e6f74207265676973746572656420617320616e206f7261636c650000000000600082015250565b6000612048601b83611f95565b915061205382612012565b602082019050919050565b600060208201905081810360008301526120778161203b565b9050919050565b61208781611c27565b82525050565b60006020820190506120a2600083018461207e565b92915050565b6120b181611c92565b81146120bc57600080fd5b50565b6000815190506120ce816120a8565b92915050565b6000602082840312156120ea576120e9611b9a565b5b60006120f8848285016120bf565b91505092915050565b7f43616c6c65722073686f756c642062652061206d656d626572206169726c696e60008201527f6500000000000000000000000000000000000000000000000000000000000000602082015250565b600061215d602183611f95565b915061216882612101565b604082019050919050565b6000602082019050818103600083015261218c81612150565b9050919050565b61219c81611ba4565b82525050565b6121ab81611aa9565b82525050565b60006040820190506121c66000830185612193565b6121d360208301846121a2565b9392505050565b6000815190506121e981611e48565b92915050565b60006020828403121561220557612204611b9a565b5b6000612213848285016121da565b91505092915050565b60008151905061222b81611c39565b92915050565b60006020828403121561224757612246611b9a565b5b60006122558482850161221c565b91505092915050565b7f466972737420666f7572206169726c696e65732073686f756c6420626520726560008201527f67697374657265642062792074686520666f756e646572206169726c696e6500602082015250565b60006122ba603f83611f95565b91506122c58261225e565b604082019050919050565b600060208201905081810360008301526122e9816122ad565b9050919050565b7f4169726c696e6520686173206e6f742070726f76696465642066756e64696e67600082015250565b6000612326602083611f95565b9150612331826122f0565b602082019050919050565b6000602082019050818103600083015261235581612319565b9050919050565b7f4f6e6c792074686520666f756e646572206169726c696e65732077617320616260008201527f6c6520746f207265676973746572206f74686572206169726c696e657320696e60208201527f207468652062656767696e696e67000000000000000000000000000000000000604082015250565b60006123de604e83611f95565b91506123e98261235c565b606082019050919050565b6000602082019050818103600083015261240d816123d1565b9050919050565b7f4e487b7100000000000000000000000000000000000000000000000000000000600052603260045260246000fd5b7f496e64657820646f6573206e6f74206d61746368206f7261636c65207265717560008201527f6573740000000000000000000000000000000000000000000000000000000000602082015250565b600061249f602383611f95565b91506124aa82612443565b604082019050919050565b600060208201905081810360008301526124ce81612492565b9050919050565b60008160f81b9050919050565b60006124ed826124d5565b9050919050565b61250561250082611aa9565b6124e2565b82525050565b60008160601b9050919050565b60006125238261250b565b9050919050565b600061253582612518565b9050919050565b61254d61254882611c27565b61252a565b82525050565b600081519050919050565b600081905092915050565b60005b8381101561258757808201518184015260208101905061256c565b60008484015250505050565b600061259e82612553565b6125a8818561255e565b93506125b8818560208601612569565b80840191505092915050565b6000819050919050565b6125df6125da82611b5c565b6125c4565b82525050565b60006125f182876124f4565b600182019150612601828661253c565b6014820191506126118285612593565b915061261d82846125ce565b60208201915081905095945050505050565b7f466c69676874206f722074696d657374616d7020646f206e6f74206d6174636860008201527f206f7261636c6520726571756573740000000000000000000000000000000000602082015250565b600061268b602f83611f95565b91506126968261262f565b604082019050919050565b600060208201905081810360008301526126ba8161267e565b9050919050565b60006126cc82612553565b6126d68185611f95565b93506126e6818560208601612569565b6126ef81611d0c565b840191505092915050565b600060808201905061270f600083018761207e565b818103602083015261272181866126c1565b90506127306040830185611b66565b61273d60608301846121a2565b95945050505050565b7f5468657265206e65656420746f206265206174206c656173742035206169726c60008201527f696e657320746f20766f746520666f72206a6f696e0000000000000000000000602082015250565b60006127a2603583611f95565b91506127ad82612746565b604082019050919050565b600060208201905081810360008301526127d181612795565b9050919050565b600080600080608085870312156127f2576127f1611b9a565b5b6000612800878288016120bf565b9450506020612811878288016120bf565b9350506040612822878288016120bf565b9250506060612833878288016121da565b91505092959194509250565b7f4169726c696e6520736f756c642062652072656769737465726564206669727360008201527f7400000000000000000000000000000000000000000000000000000000000000602082015250565b600061289b602183611f95565b91506128a68261283f565b604082019050919050565b600060208201905081810360008301526128ca8161288e565b9050919050565b7f4169726c696e652073686f756c646e7420626520616363657074656420616c7260008201527f6561647900000000000000000000000000000000000000000000000000000000602082015250565b600061292d602483611f95565b9150612938826128d1565b604082019050919050565b6000602082019050818103600083015261295c81612920565b9050919050565b7f4169726c696e652073686f756c646e742062652061206d656d62657200000000600082015250565b6000612999601c83611f95565b91506129a482612963565b602082019050919050565b600060208201905081810360008301526129c88161298c565b9050919050565b7f4169726c696e652073686f756c646e74206861766520612062616c616e63652060008201527f616c726561647900000000000000000000000000000000000000000000000000602082015250565b6000612a2b602783611f95565b9150612a36826129cf565b604082019050919050565b60006020820190508181036000830152612a5a81612a1e565b9050919050565b7f4e487b7100000000000000000000000000000000000000000000000000000000600052601160045260246000fd5b6000612a9b82611b5c565b91507fffffffffffffffffffffffffffffffffffffffffffffffffffffffffffffffff8203612acd57612acc612a61565b5b600182019050919050565b7f416e206169726c696e652063616e20766f7465206a757374206f6e636520666f60008201527f7220616e6f74686572206169726c696e6520746f206a6f696e00000000000000602082015250565b6000612b34603983611f95565b9150612b3f82612ad8565b604082019050919050565b60006020820190508181036000830152612b6381612b27565b9050919050565b6000608082019050612b7f60008301876121a2565b612b8c602083018661207e565b8181036040830152612b9e81856126c1565b9050612bad6060830184611b66565b95945050505050565b7f4e487b7100000000000000000000000000000000000000000000000000000000600052601260045260246000fd5b6000612bf082611b5c565b9150612bfb83611b5c565b925082612c0b57612c0a612bb6565b5b828204905092915050565b6000612c2182611aa9565b915060ff8203612c3457612c33612a61565b5b600182019050919050565b6000612c4a82611b5c565b9150612c5583611b5c565b9250828203905081811115612c6d57612c6c612a61565b5b92915050565b6000819050919050565b612c8e612c8982611ba4565b612c73565b82525050565b6000612ca08285612c7d565b602082019150612cb0828461253c565b6014820191508190509392505050565b6000612ccb82611b5c565b9150612cd683611b5c565b925082612ce657612ce5612bb6565b5b82820690509291505056fea26469706673582212205c0f94218f943d814d174b63c2ee5a3c13de3f0a2e5a76a8c8d83ae4833d211564736f6c63430008100033",
  "immutableReferences": {},
  "source": "// SPDX-License-Identifier: MIT\npragma solidity ^0.8.16;\n\nimport \"@openzeppelin/contracts/utils/math/SafeMath.sol\";\nimport \"./FlightSuretyData.sol\";\n\n/************************************************** */\n/* FlightSurety Smart Contract                      */\n/************************************************** */\ncontract FlightSuretyApp {\n\n    using SafeMath for uint256;\n\n    /********************************************************************************************/\n    /*                                       DATA VARIABLES                                     */\n    /********************************************************************************************/\n\n    // Flight status codees\n    uint8 private constant STATUS_CODE_UNKNOWN = 0;\n    uint8 private constant STATUS_CODE_ON_TIME = 10;\n    uint8 private constant STATUS_CODE_LATE_AIRLINE = 20;\n    uint8 private constant STATUS_CODE_LATE_WEATHER = 30;\n    uint8 private constant STATUS_CODE_LATE_TECHNICAL = 40;\n    uint8 private constant STATUS_CODE_LATE_OTHER = 50;\n\n    // Account used to deploy contract\n    address private contractOwner;\n\n    // Data smart contract\n    FlightSuretyData flightSuretyData;\n\n    // Airlines votes\n    mapping(address => address[]) airlinesVotes;\n \n    /********************************************************************************************/\n    /*                                       FUNCTION MODIFIERS                                 */\n    /********************************************************************************************/\n    modifier requireIsOperational() {\n        require(flightSuretyData.isOperational() == true, \"Contract is currently not operational\");  \n        _;\n    }\n\n    modifier requireContractOwner() {\n        require(msg.sender == contractOwner, \"Caller is not contract owner\");\n        _;\n    }\n\n    modifier requireMemberAirline() {\n        require(flightSuretyData.isMemberAirline(msg.sender), \"Caller should be a member airline\");\n        _;\n    }\n\n    /********************************************************************************************/\n    /*                                       CONSTRUCTOR                                        */\n    /********************************************************************************************/\n    constructor (address dataContract, address firstAirline) {\n        contractOwner = msg.sender;\n        flightSuretyData = FlightSuretyData(dataContract);\n        // If data has 0 airlines register the founder airline at this time\n        if (flightSuretyData.getNumAirlines() == 0) {\n            flightSuretyData.registerFirstAirline(firstAirline);\n        }\n    }\n\n    /********************************************************************************************/\n    /*                                       UTILITY FUNCTIONS                                  */\n    /********************************************************************************************/\n    function isOperational() public view returns(bool) {\n        return flightSuretyData.isOperational();\n    }\n\n    /********************************************************************************************/\n    /*                                     SMART CONTRACT FUNCTIONS                             */\n    /********************************************************************************************/\n    function registerAirline(address account) external returns(bool success, uint256 votes) {\n        // The registration and voting criteria (50%) should be located in the APP smart contract not in the data contract\n        // this is because the criteria to accept an airline to join the group could change in the future (business rules) and\n        // therefore it's better not to mixed this business rules with the data smart contract.\n        if (flightSuretyData.getNumAirlines() < 5) {\n            require(msg.sender == flightSuretyData.getFirstAirline(), \"First four airlines should be registered by the founder airline\");\n            require(flightSuretyData.getAirlineBalance(msg.sender) == 10 ether, \"Airline has not provided funding\");\n            flightSuretyData.registerAirline(account);\n            flightSuretyData.acceptAirline(account);\n            return (true, 1);\n        } else {\n            require(msg.sender == account, \"Only the founder airlines was able to register other airlines in the beggining\");\n            flightSuretyData.registerAirline(msg.sender);\n            airlinesVotes[msg.sender] = new address[](0);\n            return (true, 0);\n        }\n    }\n\n    function voteAirline(address account) external requireMemberAirline {\n        // Voting is only required after the fifth ailines registered\n        uint256 numAirlines = flightSuretyData.getNumAirlines();\n        require(numAirlines > 4, \"There need to be at least 5 airlines to vote for join\");\n        // Only waiting airlines to join can be voted in\n        (bool isRegistered, bool isAccepted, bool isMember, uint256 balance) = flightSuretyData.getAirlineInfo(account);\n        require(isRegistered, \"Airline sould be registered first\");\n        require(!isAccepted, \"Airline shouldnt be accepted already\");\n        require(!isMember, \"Airline shouldnt be a member\");\n        require(balance == 0, \"Airline shouldnt have a balance already\");\n        // One airline can vote just once for another airline to join\n        bool isDuplicate = false;\n        for (uint256 i = 0; i < airlinesVotes[account].length; i++) {\n            if ( airlinesVotes[account][i] == msg.sender) {\n                isDuplicate = true;\n                break;\n            }\n        }\n        require(isDuplicate == false, \"An airline can vote just once for another airline to join\");\n        // Vote and check 50%\n        airlinesVotes[account].push(msg.sender);\n        if (airlinesVotes[account].length > SafeMath.div(numAirlines, 2)) {\n            flightSuretyData.acceptAirline(account);\n        }\n    }\n\n   /**\n    * @dev Register a future flight for insuring.\n    */  \n    function registerFlight (bytes32 flight) external requireMemberAirline {\n        flightSuretyData.registerFlight(flight, STATUS_CODE_UNKNOWN);\n    }\n    \n   /**\n    * @dev Called after oracle has updated flight status\n    */  \n    function processFlightStatus (address airline, string memory flight, uint256 timestamp, uint8 statusCode) internal pure {\n    }\n\n    // Generate a request for oracles to fetch flight information\n    function fetchFlightStatus (address airline, string memory flight, uint256 timestamp ) external {\n        uint8 index = getRandomIndex(msg.sender);\n        // Generate a unique key for storing the request\n        bytes32 key = keccak256(abi.encodePacked(index, airline, flight, timestamp));\n        ResponseInfo storage newResponseInfo = oracleResponses[key];\n        newResponseInfo.requester = msg.sender;\n        newResponseInfo.isOpen = true;\n        emit OracleRequest(index, airline, flight, timestamp);\n    } \n\n\n    // region ORACLE MANAGEMENT\n\n    // Incremented to add pseudo-randomness at various points\n    uint8 private nonce = 0;    \n\n    // Fee to be paid when registering oracle\n    uint256 public constant REGISTRATION_FEE = 1 ether;\n\n    // Number of oracles that must respond for valid status\n    uint256 private constant MIN_RESPONSES = 3;\n\n\n    struct Oracle {\n        bool isRegistered;\n        uint8[3] indexes;        \n    }\n\n    // Track all registered oracles\n    mapping(address => Oracle) private oracles;\n\n    // Model for responses from oracles\n    struct ResponseInfo {\n        address requester;                              // Account that requested status\n        bool isOpen;                                    // If open, oracle responses are accepted\n        mapping(uint8 => address[]) responses;          // Mapping key is the status code reported\n                                                        // This lets us group responses and identify\n                                                        // the response that majority of the oracles\n    }\n\n    // Track all oracle responses\n    // Key = hash(index, flight, timestamp)\n    mapping(bytes32 => ResponseInfo) private oracleResponses;\n\n    // Event fired each time an oracle submits a response\n    event FlightStatusInfo(address airline, string flight, uint256 timestamp, uint8 status);\n\n    event OracleReport(address airline, string flight, uint256 timestamp, uint8 status);\n\n    // Event fired when flight status request is submitted\n    // Oracles track this and if they have a matching index\n    // they fetch data and submit a response\n    event OracleRequest(uint8 index, address airline, string flight, uint256 timestamp);\n\n\n    // Register an oracle with the contract\n    function registerOracle () external payable {\n        // Require registration fee\n        require(msg.value >= REGISTRATION_FEE, \"Registration fee is required\");\n        uint8[3] memory indexes = generateIndexes(msg.sender);\n        oracles[msg.sender] = Oracle({ isRegistered: true, indexes: indexes });\n    }\n\n    function getMyIndexes () view external returns(uint8[3] memory) {\n        require(oracles[msg.sender].isRegistered, \"Not registered as an oracle\");\n        return oracles[msg.sender].indexes;\n    }\n\n    // Called by oracle when a response is available to an outstanding request\n    // For the response to be accepted, there must be a pending request that is open\n    // and matches one of the three Indexes randomly assigned to the oracle at the\n    // time of registration (i.e. uninvited oracles are not welcome)\n    function submitOracleResponse (uint8 index, address airline, string memory flight, uint256 timestamp, uint8 statusCode) external {\n        require((oracles[msg.sender].indexes[0] == index) || (oracles[msg.sender].indexes[1] == index) || (oracles[msg.sender].indexes[2] == index), \"Index does not match oracle request\");\n        bytes32 key = keccak256(abi.encodePacked(index, airline, flight, timestamp)); \n        require(oracleResponses[key].isOpen, \"Flight or timestamp do not match oracle request\");\n        oracleResponses[key].responses[statusCode].push(msg.sender);\n        // Information isn't considered verified until at least MIN_RESPONSES\n        // oracles respond with the *** same *** information\n        emit OracleReport(airline, flight, timestamp, statusCode);\n        if (oracleResponses[key].responses[statusCode].length >= MIN_RESPONSES) {\n            emit FlightStatusInfo(airline, flight, timestamp, statusCode);\n            // Handle flight status as appropriate\n            processFlightStatus(airline, flight, timestamp, statusCode);\n        }\n    }\n\n    function getFlightKey (address airline, string memory flight, uint256 timestamp ) pure internal returns(bytes32) {\n        return keccak256(abi.encodePacked(airline, flight, timestamp));\n    }\n\n    // Returns array of three non-duplicating integers from 0-9\n    function generateIndexes (address account) internal returns(uint8[3] memory) {\n        uint8[3] memory indexes;\n        indexes[0] = getRandomIndex(account);\n        indexes[1] = indexes[0];\n        while(indexes[1] == indexes[0]) {\n            indexes[1] = getRandomIndex(account);\n        }\n        indexes[2] = indexes[1];\n        while((indexes[2] == indexes[0]) || (indexes[2] == indexes[1])) {\n            indexes[2] = getRandomIndex(account);\n        }\n        return indexes;\n    }\n\n    // Returns array of three non-duplicating integers from 0-9\n    function getRandomIndex (address account) internal returns (uint8) {\n        uint8 maxValue = 10;\n        // Pseudo random number...the incrementing nonce adds variation\n        uint8 random = uint8(uint256(keccak256(abi.encodePacked(blockhash(block.number - nonce++), account))) % maxValue);\n        if (nonce > 250) {\n            nonce = 0;  // Can only fetch blockhashes for last 256 blocks so we adapt\n        }\n        return random;\n    }\n\n    // endregion\n}   \n",
  "sourcePath": "/home/isma/Desktop/code/blockchain/FlightSurety/contracts/FlightSuretyApp.sol",
  "compiler": {
    "name": "solc",
    "version": "0.8.16+commit.07a7930e.Emscripten.clang"
  },
  "schemaVersion": "3.4.9",
  "updatedAt": "2022-09-13T22:25:41.096Z",
  "devdoc": {
    "kind": "dev",
    "methods": {
      "registerFlight(bytes32)": {
        "details": "Register a future flight for insuring."
      }
    },
    "version": 1
  },
  "userdoc": {
    "kind": "user",
    "methods": {},
    "version": 1
  }
}