{
  "contractName": "FlightSuretyData",
  "abi": [
    {
      "inputs": [],
      "stateMutability": "nonpayable",
      "type": "constructor"
    },
    {
      "inputs": [],
      "name": "isOperational",
      "outputs": [
        {
          "internalType": "bool",
          "name": "",
          "type": "bool"
        }
      ],
      "stateMutability": "view",
      "type": "function"
    },
    {
      "inputs": [
        {
          "internalType": "bool",
          "name": "status",
          "type": "bool"
        }
      ],
      "name": "setOperatingStatus",
      "outputs": [],
      "stateMutability": "nonpayable",
      "type": "function"
    },
    {
      "inputs": [
        {
          "internalType": "address",
          "name": "contractAddress",
          "type": "address"
        }
      ],
      "name": "isAuthorizedContract",
      "outputs": [
        {
          "internalType": "bool",
          "name": "",
          "type": "bool"
        }
      ],
      "stateMutability": "view",
      "type": "function"
    },
    {
      "inputs": [
        {
          "internalType": "address",
          "name": "contractAddress",
          "type": "address"
        },
        {
          "internalType": "bool",
          "name": "status",
          "type": "bool"
        }
      ],
      "name": "setAuthorizedContract",
      "outputs": [],
      "stateMutability": "nonpayable",
      "type": "function"
    },
    {
      "inputs": [],
      "name": "getFirstAirline",
      "outputs": [
        {
          "internalType": "address",
          "name": "",
          "type": "address"
        }
      ],
      "stateMutability": "view",
      "type": "function"
    },
    {
      "inputs": [],
      "name": "getNumAirlines",
      "outputs": [
        {
          "internalType": "uint256",
          "name": "",
          "type": "uint256"
        }
      ],
      "stateMutability": "view",
      "type": "function"
    },
    {
      "inputs": [
        {
          "internalType": "address",
          "name": "account",
          "type": "address"
        }
      ],
      "name": "isMemberAirline",
      "outputs": [
        {
          "internalType": "bool",
          "name": "",
          "type": "bool"
        }
      ],
      "stateMutability": "view",
      "type": "function"
    },
    {
      "inputs": [
        {
          "internalType": "address",
          "name": "account",
          "type": "address"
        }
      ],
      "name": "getAirlineBalance",
      "outputs": [
        {
          "internalType": "uint256",
          "name": "",
          "type": "uint256"
        }
      ],
      "stateMutability": "view",
      "type": "function"
    },
    {
      "inputs": [
        {
          "internalType": "address",
          "name": "account",
          "type": "address"
        }
      ],
      "name": "getAirlineInfo",
      "outputs": [
        {
          "internalType": "bool",
          "name": "",
          "type": "bool"
        },
        {
          "internalType": "bool",
          "name": "",
          "type": "bool"
        },
        {
          "internalType": "bool",
          "name": "",
          "type": "bool"
        },
        {
          "internalType": "uint256",
          "name": "",
          "type": "uint256"
        }
      ],
      "stateMutability": "view",
      "type": "function"
    },
    {
      "inputs": [
        {
          "internalType": "address",
          "name": "account",
          "type": "address"
        }
      ],
      "name": "registerFirstAirline",
      "outputs": [],
      "stateMutability": "nonpayable",
      "type": "function"
    },
    {
      "inputs": [
        {
          "internalType": "address",
          "name": "account",
          "type": "address"
        }
      ],
      "name": "registerAirline",
      "outputs": [],
      "stateMutability": "nonpayable",
      "type": "function"
    },
    {
      "inputs": [
        {
          "internalType": "address",
          "name": "account",
          "type": "address"
        }
      ],
      "name": "acceptAirline",
      "outputs": [],
      "stateMutability": "nonpayable",
      "type": "function"
    },
    {
      "inputs": [
        {
          "internalType": "bytes32",
          "name": "flight",
          "type": "bytes32"
        },
        {
          "internalType": "uint8",
          "name": "status",
          "type": "uint8"
        }
      ],
      "name": "registerFlight",
      "outputs": [],
      "stateMutability": "nonpayable",
      "type": "function"
    },
    {
      "inputs": [],
      "name": "buy",
      "outputs": [],
      "stateMutability": "payable",
      "type": "function"
    },
    {
      "inputs": [],
      "name": "creditInsurees",
      "outputs": [],
      "stateMutability": "nonpayable",
      "type": "function"
    },
    {
      "inputs": [],
      "name": "pay",
      "outputs": [],
      "stateMutability": "nonpayable",
      "type": "function"
    },
    {
      "inputs": [],
      "name": "fund",
      "outputs": [],
      "stateMutability": "payable",
      "type": "function"
    }
  ],
  "bytecode": "0x60806040526001600060146101000a81548160ff021916908315150217905550600067ffffffffffffffff8111156200003d576200003c620002c4565b5b6040519080825280602002602001820160405280156200006c5781602001602082028036833780820191505090505b506003908051906020019062000084929190620001a5565b50600067ffffffffffffffff811115620000a357620000a2620002c4565b5b604051908082528060200260200182016040528015620000d25781602001602082028036833780820191505090505b5060059080519060200190620000ea92919062000234565b50600067ffffffffffffffff811115620001095762000108620002c4565b5b604051908082528060200260200182016040528015620001385781602001602082028036833780820191505090505b50600790805190602001906200015092919062000234565b503480156200015e57600080fd5b50336000806101000a81548173ffffffffffffffffffffffffffffffffffffffff021916908373ffffffffffffffffffffffffffffffffffffffff160217905550620002f3565b82805482825590600052602060002090810192821562000221579160200282015b82811115620002205782518260006101000a81548173ffffffffffffffffffffffffffffffffffffffff021916908373ffffffffffffffffffffffffffffffffffffffff16021790555091602001919060010190620001c6565b5b50905062000230919062000286565b5090565b82805482825590600052602060002090810192821562000273579160200282015b828111156200027257825182559160200191906001019062000255565b5b509050620002829190620002a5565b5090565b5b80821115620002a157600081600090555060010162000287565b5090565b5b80821115620002c0576000816000905550600101620002a6565b5090565b7f4e487b7100000000000000000000000000000000000000000000000000000000600052604160045260246000fd5b611c6a80620003036000396000f3fe6080604052600436106100fe5760003560e01c80637ab21cdc11610095578063b60d428811610064578063b60d428814610303578063bdfd98771461030d578063bf1d915614610336578063cd905dff1461035f578063f2fa73921461038a576100fe565b80637ab21cdc146102685780637d2ab0de1461029357806389208e72146102bc578063a6f2ae3a146102f9576100fe565b806340d6b50b116100d157806340d6b50b14610185578063619f73fa146101ae57806366d0ead3146101eb578063720c7cbb14610228576100fe565b806302eb72ad14610103578063110466ed1461012e5780631b9265b81461015757806336cee4841461016e575b600080fd5b34801561010f57600080fd5b506101186103b3565b60405161012591906115b2565b60405180910390f35b34801561013a57600080fd5b506101556004803603810190610150919061160a565b6103fa565b005b34801561016357600080fd5b5061016c6104a5565b005b34801561017a57600080fd5b50610183610589565b005b34801561019157600080fd5b506101ac60048036038101906101a791906116a6565b61066d565b005b3480156101ba57600080fd5b506101d560048036038101906101d09190611712565b6108cb565b6040516101e2919061174e565b60405180910390f35b3480156101f757600080fd5b50610212600480360381019061020d9190611712565b610924565b60405161021f919061174e565b60405180910390f35b34801561023457600080fd5b5061024f600480360381019061024a9190611712565b61097a565b60405161025f9493929190611782565b60405180910390f35b34801561027457600080fd5b5061027d610adc565b60405161028a91906117c7565b60405180910390f35b34801561029f57600080fd5b506102ba60048036038101906102b59190611712565b610ae9565b005b3480156102c857600080fd5b506102e360048036038101906102de9190611712565b610d4b565b6040516102f091906117c7565b60405180910390f35b610301610e26565b005b61030b610f0a565b005b34801561031957600080fd5b50610334600480360381019061032f9190611712565b610fee565b005b34801561034257600080fd5b5061035d60048036038101906103589190611712565b6112a3565b005b34801561036b57600080fd5b50610374611472565b604051610381919061174e565b60405180910390f35b34801561039657600080fd5b506103b160048036038101906103ac91906117e2565b611488565b005b600060036000815481106103ca576103c9611822565b5b9060005260206000200160009054906101000a900473ffffffffffffffffffffffffffffffffffffffff16905090565b60008054906101000a900473ffffffffffffffffffffffffffffffffffffffff1673ffffffffffffffffffffffffffffffffffffffff163273ffffffffffffffffffffffffffffffffffffffff1614610488576040517f08c379a000000000000000000000000000000000000000000000000000000000815260040161047f906118ae565b60405180910390fd5b80600060146101000a81548160ff02191690831515021790555050565b600060149054906101000a900460ff166104f4576040517f08c379a00000000000000000000000000000000000000000000000000000000081526004016104eb90611940565b60405180910390fd5b60011515600160003373ffffffffffffffffffffffffffffffffffffffff1673ffffffffffffffffffffffffffffffffffffffff16815260200190815260200160002060009054906101000a900460ff16151514610587576040517f08c379a000000000000000000000000000000000000000000000000000000000815260040161057e906119ac565b60405180910390fd5b565b600060149054906101000a900460ff166105d8576040517f08c379a00000000000000000000000000000000000000000000000000000000081526004016105cf90611940565b60405180910390fd5b60011515600160003373ffffffffffffffffffffffffffffffffffffffff1673ffffffffffffffffffffffffffffffffffffffff16815260200190815260200160002060009054906101000a900460ff1615151461066b576040517f08c379a0000000000000000000000000000000000000000000000000000000008152600401610662906119ac565b60405180910390fd5b565b600060149054906101000a900460ff166106bc576040517f08c379a00000000000000000000000000000000000000000000000000000000081526004016106b390611940565b60405180910390fd5b60011515600160003373ffffffffffffffffffffffffffffffffffffffff1673ffffffffffffffffffffffffffffffffffffffff16815260200190815260200160002060009054906101000a900460ff1615151461074f576040517f08c379a0000000000000000000000000000000000000000000000000000000008152600401610746906119ac565b60405180910390fd5b600015156004600084815260200190815260200160002060000160009054906101000a900460ff161515146107b9576040517f08c379a00000000000000000000000000000000000000000000000000000000081526004016107b090611a18565b60405180910390fd5b60405180608001604052806001151581526020018260ff1681526020014281526020013373ffffffffffffffffffffffffffffffffffffffff168152506004600084815260200190815260200160002060008201518160000160006101000a81548160ff02191690831515021790555060208201518160000160016101000a81548160ff021916908360ff1602179055506040820151816001015560608201518160020160006101000a81548173ffffffffffffffffffffffffffffffffffffffff021916908373ffffffffffffffffffffffffffffffffffffffff16021790555090505060058290806001815401808255809150506001900390600052602060002001600090919091909150555050565b6000600260008373ffffffffffffffffffffffffffffffffffffffff1673ffffffffffffffffffffffffffffffffffffffff16815260200190815260200160002060000160029054906101000a900460ff169050919050565b6000600160008373ffffffffffffffffffffffffffffffffffffffff1673ffffffffffffffffffffffffffffffffffffffff16815260200190815260200160002060009054906101000a900460ff169050919050565b600080600080600260008673ffffffffffffffffffffffffffffffffffffffff1673ffffffffffffffffffffffffffffffffffffffff16815260200190815260200160002060000160009054906101000a900460ff16610a0f576040517f08c379a0000000000000000000000000000000000000000000000000000000008152600401610a0690611a84565b60405180910390fd5b6000600260008773ffffffffffffffffffffffffffffffffffffffff1673ffffffffffffffffffffffffffffffffffffffff1681526020019081526020016000206040518060800160405290816000820160009054906101000a900460ff161515151581526020016000820160019054906101000a900460ff161515151581526020016000820160029054906101000a900460ff16151515158152602001600182015481525050905080600001518160200151826040015183606001519450945094509450509193509193565b6000600380549050905090565b600060149054906101000a900460ff16610b38576040517f08c379a0000000000000000000000000000000000000000000000000000000008152600401610b2f90611940565b60405180910390fd5b60008054906101000a900473ffffffffffffffffffffffffffffffffffffffff1673ffffffffffffffffffffffffffffffffffffffff163273ffffffffffffffffffffffffffffffffffffffff1614610bc6576040517f08c379a0000000000000000000000000000000000000000000000000000000008152600401610bbd906118ae565b60405180910390fd5b600060038054905014610c0e576040517f08c379a0000000000000000000000000000000000000000000000000000000008152600401610c0590611b16565b60405180910390fd5b60405180608001604052806001151581526020016001151581526020016000151581526020016000815250600260008373ffffffffffffffffffffffffffffffffffffffff1673ffffffffffffffffffffffffffffffffffffffff16815260200190815260200160002060008201518160000160006101000a81548160ff02191690831515021790555060208201518160000160016101000a81548160ff02191690831515021790555060408201518160000160026101000a81548160ff021916908315150217905550606082015181600101559050506003819080600181540180825580915050600190039060005260206000200160009091909190916101000a81548173ffffffffffffffffffffffffffffffffffffffff021916908373ffffffffffffffffffffffffffffffffffffffff16021790555050565b6000600260008373ffffffffffffffffffffffffffffffffffffffff1673ffffffffffffffffffffffffffffffffffffffff16815260200190815260200160002060000160009054906101000a900460ff16610ddc576040517f08c379a0000000000000000000000000000000000000000000000000000000008152600401610dd390611a84565b60405180910390fd5b600260008373ffffffffffffffffffffffffffffffffffffffff1673ffffffffffffffffffffffffffffffffffffffff168152602001908152602001600020600101549050919050565b600060149054906101000a900460ff16610e75576040517f08c379a0000000000000000000000000000000000000000000000000000000008152600401610e6c90611940565b60405180910390fd5b60011515600160003373ffffffffffffffffffffffffffffffffffffffff1673ffffffffffffffffffffffffffffffffffffffff16815260200190815260200160002060009054906101000a900460ff16151514610f08576040517f08c379a0000000000000000000000000000000000000000000000000000000008152600401610eff906119ac565b60405180910390fd5b565b600060149054906101000a900460ff16610f59576040517f08c379a0000000000000000000000000000000000000000000000000000000008152600401610f5090611940565b60405180910390fd5b60011515600160003373ffffffffffffffffffffffffffffffffffffffff1673ffffffffffffffffffffffffffffffffffffffff16815260200190815260200160002060009054906101000a900460ff16151514610fec576040517f08c379a0000000000000000000000000000000000000000000000000000000008152600401610fe3906119ac565b60405180910390fd5b565b600060149054906101000a900460ff1661103d576040517f08c379a000000000000000000000000000000000000000000000000000000000815260040161103490611940565b60405180910390fd5b60011515600160003373ffffffffffffffffffffffffffffffffffffffff1673ffffffffffffffffffffffffffffffffffffffff16815260200190815260200160002060009054906101000a900460ff161515146110d0576040517f08c379a00000000000000000000000000000000000000000000000000000000081526004016110c7906119ac565b60405180910390fd5b60001515600260008373ffffffffffffffffffffffffffffffffffffffff1673ffffffffffffffffffffffffffffffffffffffff16815260200190815260200160002060000160009054906101000a900460ff16151514611166576040517f08c379a000000000000000000000000000000000000000000000000000000000815260040161115d90611b82565b60405180910390fd5b60405180608001604052806001151581526020016000151581526020016000151581526020016000815250600260008373ffffffffffffffffffffffffffffffffffffffff1673ffffffffffffffffffffffffffffffffffffffff16815260200190815260200160002060008201518160000160006101000a81548160ff02191690831515021790555060208201518160000160016101000a81548160ff02191690831515021790555060408201518160000160026101000a81548160ff021916908315150217905550606082015181600101559050506003819080600181540180825580915050600190039060005260206000200160009091909190916101000a81548173ffffffffffffffffffffffffffffffffffffffff021916908373ffffffffffffffffffffffffffffffffffffffff16021790555050565b600060149054906101000a900460ff166112f2576040517f08c379a00000000000000000000000000000000000000000000000000000000081526004016112e990611940565b60405180910390fd5b60011515600160003373ffffffffffffffffffffffffffffffffffffffff1673ffffffffffffffffffffffffffffffffffffffff16815260200190815260200160002060009054906101000a900460ff16151514611385576040517f08c379a000000000000000000000000000000000000000000000000000000000815260040161137c906119ac565b60405180910390fd5b600260008273ffffffffffffffffffffffffffffffffffffffff1673ffffffffffffffffffffffffffffffffffffffff16815260200190815260200160002060000160009054906101000a900460ff16611414576040517f08c379a000000000000000000000000000000000000000000000000000000000815260040161140b90611c14565b60405180910390fd5b6001600260008373ffffffffffffffffffffffffffffffffffffffff1673ffffffffffffffffffffffffffffffffffffffff16815260200190815260200160002060000160016101000a81548160ff02191690831515021790555050565b60008060149054906101000a900460ff16905090565b60008054906101000a900473ffffffffffffffffffffffffffffffffffffffff1673ffffffffffffffffffffffffffffffffffffffff163273ffffffffffffffffffffffffffffffffffffffff1614611516576040517f08c379a000000000000000000000000000000000000000000000000000000000815260040161150d906118ae565b60405180910390fd5b80600160008473ffffffffffffffffffffffffffffffffffffffff1673ffffffffffffffffffffffffffffffffffffffff16815260200190815260200160002060006101000a81548160ff0219169083151502179055505050565b600073ffffffffffffffffffffffffffffffffffffffff82169050919050565b600061159c82611571565b9050919050565b6115ac81611591565b82525050565b60006020820190506115c760008301846115a3565b92915050565b600080fd5b60008115159050919050565b6115e7816115d2565b81146115f257600080fd5b50565b600081359050611604816115de565b92915050565b6000602082840312156116205761161f6115cd565b5b600061162e848285016115f5565b91505092915050565b6000819050919050565b61164a81611637565b811461165557600080fd5b50565b60008135905061166781611641565b92915050565b600060ff82169050919050565b6116838161166d565b811461168e57600080fd5b50565b6000813590506116a08161167a565b92915050565b600080604083850312156116bd576116bc6115cd565b5b60006116cb85828601611658565b92505060206116dc85828601611691565b9150509250929050565b6116ef81611591565b81146116fa57600080fd5b50565b60008135905061170c816116e6565b92915050565b600060208284031215611728576117276115cd565b5b6000611736848285016116fd565b91505092915050565b611748816115d2565b82525050565b6000602082019050611763600083018461173f565b92915050565b6000819050919050565b61177c81611769565b82525050565b6000608082019050611797600083018761173f565b6117a4602083018661173f565b6117b1604083018561173f565b6117be6060830184611773565b95945050505050565b60006020820190506117dc6000830184611773565b92915050565b600080604083850312156117f9576117f86115cd565b5b6000611807858286016116fd565b9250506020611818858286016115f5565b9150509250929050565b7f4e487b7100000000000000000000000000000000000000000000000000000000600052603260045260246000fd5b600082825260208201905092915050565b7f43616c6c6572206973206e6f7420636f6e7472616374206f776e657200000000600082015250565b6000611898601c83611851565b91506118a382611862565b602082019050919050565b600060208201905081810360008301526118c78161188b565b9050919050565b7f436f6e74726163742069732063757272656e746c79206e6f74206f706572617460008201527f696f6e616c000000000000000000000000000000000000000000000000000000602082015250565b600061192a602583611851565b9150611935826118ce565b604082019050919050565b600060208201905081810360008301526119598161191d565b9050919050565b7f4e6f7420616e20617574686f72697a656420636f6e74726163742063616c6c00600082015250565b6000611996601f83611851565b91506119a182611960565b602082019050919050565b600060208201905081810360008301526119c581611989565b9050919050565b7f466c6967687420616c7265616479207265676973746572656400000000000000600082015250565b6000611a02601983611851565b9150611a0d826119cc565b602082019050919050565b60006020820190508181036000830152611a31816119f5565b9050919050565b7f4169726c696e6573206973206e6f742072656769737465726564000000000000600082015250565b6000611a6e601a83611851565b9150611a7982611a38565b602082019050919050565b60006020820190508181036000830152611a9d81611a61565b9050919050565b7f4f6e6c79206669727374206169726c696e652063616e2062652072656769737460008201527f6572656420686572650000000000000000000000000000000000000000000000602082015250565b6000611b00602983611851565b9150611b0b82611aa4565b604082019050919050565b60006020820190508181036000830152611b2f81611af3565b9050919050565b7f4169726c696e6520616c72656164792072656769737465726564000000000000600082015250565b6000611b6c601a83611851565b9150611b7782611b36565b602082019050919050565b60006020820190508181036000830152611b9b81611b5f565b9050919050565b7f4169726c696e652073686f756c6420626520726567697374657265642066697260008201527f7374000000000000000000000000000000000000000000000000000000000000602082015250565b6000611bfe602283611851565b9150611c0982611ba2565b604082019050919050565b60006020820190508181036000830152611c2d81611bf1565b905091905056fea2646970667358221220eb0a849615dc55af6054e4450e3ac9fab3ffd7ac695ab4e872cd3179a61e554464736f6c63430008100033",
  "immutableReferences": {},
  "source": "// SPDX-License-Identifier: MIT\npragma solidity ^0.8.16;\n\nimport \"@openzeppelin/contracts/utils/math/SafeMath.sol\";\n\ncontract FlightSuretyData {\n\n    using SafeMath for uint256;\n\n    /********************************************************************************************/\n    /*                                       DATA VARIABLES                                     */\n    /********************************************************************************************/\n\n    // Account used to deploy contract\n    address private contractOwner;                                      \n\n    // Blocks all state changes throughout the contract if false\n    bool private operational = true;                                    \n\n    // Only authorized contracts can perform write transactions\n    mapping(address => bool) private authorized;\n     \n    // Airlines information\n    struct Airline {\n        bool isRegistered;\n        bool isAccepted;\n        bool isMember;\n        uint256 balance;\n    }\n    mapping(address => Airline) private airlines;\n    address[] private airlinesArray = new address[](0);\n    \n    // Flights information\n    struct Flight {\n        bool isRegistered;\n        uint8 statusCode;\n        uint256 updatedTimestamp;        \n        address airline;\n    }\n    mapping(bytes32 => Flight) private flights;\n    bytes32[] private flightsArray = new bytes32[](0);\n    \n    // Insurances information\n    struct Insurance {\n        address passenger;\n        uint256 amount;\n    }\n    mapping(bytes32 => Insurance[]) private insurances;\n    bytes32[] private insurancesArray = new bytes32[](0);\n\n    /********************************************************************************************/\n    /*                                       EVENT DEFINITIONS                                  */\n    /********************************************************************************************/\n    constructor () {\n        contractOwner = msg.sender;\n    }\n\n    /********************************************************************************************/\n    /*                                       FUNCTION MODIFIERS                                 */\n    /********************************************************************************************/\n    modifier requireIsOperational() {\n        require(operational, \"Contract is currently not operational\");\n        _;\n    }\n\n    modifier requireContractOwner() {\n        require(tx.origin == contractOwner, \"Caller is not contract owner\");\n        _;\n    }\n\n    modifier requireAuthorizedContract() {\n        require(authorized[msg.sender] == true, \"Not an authorized contract call\");\n        _;\n    }\n\n    /********************************************************************************************/\n    /*                                       UTILITY FUNCTIONS                                  */\n    /********************************************************************************************/\n    function isOperational() public view returns(bool)  {\n        return operational;\n    }\n\n    function setOperatingStatus (bool status) external requireContractOwner {\n        operational = status;\n    }\n\n    function isAuthorizedContract(address contractAddress) external view returns(bool) {\n        return authorized[contractAddress];\n    }\n\n    function setAuthorizedContract(address contractAddress, bool status) external requireContractOwner {\n        authorized[contractAddress] = status;\n    }\n\n    function getFirstAirline() external view returns(address) {\n        return airlinesArray[0];\n    }\n\n    function getNumAirlines () external view returns (uint256) {\n        return airlinesArray.length;\n    }\n\n    function isMemberAirline(address account) external view returns(bool){\n        return airlines[account].isMember;\n    }\n\n    function getAirlineBalance(address account) external view returns (uint256) {\n        require(airlines[account].isRegistered, \"Airlines is not registered\");\n        return (airlines[account].balance);\n    }\n\n    function getAirlineInfo(address account) external view returns (bool, bool, bool, uint256) {\n        require(airlines[account].isRegistered, \"Airlines is not registered\");\n        Airline memory aux = airlines[account];\n        return (aux.isRegistered, aux.isAccepted, aux.isMember, aux.balance);\n    }\n\n    /********************************************************************************************/\n    /*                                     SMART CONTRACT FUNCTIONS                             */\n    /********************************************************************************************/\n    function registerFirstAirline (address account) external requireIsOperational requireContractOwner {\n        require(airlinesArray.length == 0, \"Only first airline can be registered here\");\n        airlines[account] = Airline(true, true, false, 0);\n        airlinesArray.push(account);\n    }\n\n    function registerAirline (address account) external requireIsOperational requireAuthorizedContract {\n        require(airlines[account].isRegistered == false, \"Airline already registered\");\n        airlines[account] = Airline(true, false, false, 0);\n        airlinesArray.push(account);\n    }\n\n    function acceptAirline (address account) external requireIsOperational requireAuthorizedContract {\n        require(airlines[account].isRegistered, \"Airline should be registered first\");\n        airlines[account].isAccepted = true;\n    }\n\n    function registerFlight (bytes32 flight, uint8 status) external requireIsOperational requireAuthorizedContract {\n        require(flights[flight].isRegistered == false, \"Flight already registered\");\n        flights[flight] = Flight(true, status, block.timestamp, msg.sender);\n        flightsArray.push(flight);\n    }\n\n   /**\n    * @dev Buy insurance for a flight\n    */   \n    function buy () external payable requireIsOperational requireAuthorizedContract {\n    }\n\n   /**\n    *  @dev Credits payouts to insurees\n    */\n    function creditInsurees () external requireIsOperational requireAuthorizedContract {\n    }  \n\n   /**\n    *  @dev Transfers eligible payout funds to insuree\n    */\n    function pay () external requireIsOperational requireAuthorizedContract {\n    }\n\n   /**\n    * @dev Initial funding for the insurance. Unless there are too many delayed flights resulting in insurance payouts, the contract should be self-sustaining\n    */   \n    function fund () public payable requireIsOperational requireAuthorizedContract {\n    }\n\n    function getFlightKey (address airline, string memory flight, uint256 timestamp) pure internal returns(bytes32) {\n        return keccak256(abi.encodePacked(airline, flight, timestamp));\n    }\n}",
  "sourcePath": "/home/isma/Desktop/code/blockchain/FlightSurety/contracts/FlightSuretyData.sol",
  "compiler": {
    "name": "solc",
    "version": "0.8.16+commit.07a7930e.Emscripten.clang"
  },
  "schemaVersion": "3.4.9",
  "updatedAt": "2022-09-13T22:25:41.105Z",
  "devdoc": {
    "kind": "dev",
    "methods": {
      "buy()": {
        "details": "Buy insurance for a flight"
      },
      "creditInsurees()": {
        "details": "Credits payouts to insurees"
      },
      "fund()": {
        "details": "Initial funding for the insurance. Unless there are too many delayed flights resulting in insurance payouts, the contract should be self-sustaining"
      },
      "pay()": {
        "details": "Transfers eligible payout funds to insuree"
      }
    },
    "version": 1
  },
  "userdoc": {
    "kind": "user",
    "methods": {},
    "version": 1
  }
}