{
  "contractName": "FlightSuretyApp",
  "abi": [
    {
      "inputs": [],
      "stateMutability": "nonpayable",
      "type": "constructor"
    },
    {
      "anonymous": false,
      "inputs": [
        {
          "indexed": false,
          "internalType": "address",
          "name": "airline",
          "type": "address"
        },
        {
          "indexed": false,
          "internalType": "string",
          "name": "flight",
          "type": "string"
        },
        {
          "indexed": false,
          "internalType": "uint256",
          "name": "timestamp",
          "type": "uint256"
        },
        {
          "indexed": false,
          "internalType": "uint8",
          "name": "status",
          "type": "uint8"
        }
      ],
      "name": "FlightStatusInfo",
      "type": "event"
    },
    {
      "anonymous": false,
      "inputs": [
        {
          "indexed": false,
          "internalType": "address",
          "name": "airline",
          "type": "address"
        },
        {
          "indexed": false,
          "internalType": "string",
          "name": "flight",
          "type": "string"
        },
        {
          "indexed": false,
          "internalType": "uint256",
          "name": "timestamp",
          "type": "uint256"
        },
        {
          "indexed": false,
          "internalType": "uint8",
          "name": "status",
          "type": "uint8"
        }
      ],
      "name": "OracleReport",
      "type": "event"
    },
    {
      "anonymous": false,
      "inputs": [
        {
          "indexed": false,
          "internalType": "uint8",
          "name": "index",
          "type": "uint8"
        },
        {
          "indexed": false,
          "internalType": "address",
          "name": "airline",
          "type": "address"
        },
        {
          "indexed": false,
          "internalType": "string",
          "name": "flight",
          "type": "string"
        },
        {
          "indexed": false,
          "internalType": "uint256",
          "name": "timestamp",
          "type": "uint256"
        }
      ],
      "name": "OracleRequest",
      "type": "event"
    },
    {
      "inputs": [],
      "name": "REGISTRATION_FEE",
      "outputs": [
        {
          "internalType": "uint256",
          "name": "",
          "type": "uint256"
        }
      ],
      "stateMutability": "view",
      "type": "function"
    },
    {
      "inputs": [],
      "name": "isOperational",
      "outputs": [
        {
          "internalType": "bool",
          "name": "",
          "type": "bool"
        }
      ],
      "stateMutability": "pure",
      "type": "function"
    },
    {
      "inputs": [],
      "name": "registerAirline",
      "outputs": [
        {
          "internalType": "bool",
          "name": "success",
          "type": "bool"
        },
        {
          "internalType": "uint256",
          "name": "votes",
          "type": "uint256"
        }
      ],
      "stateMutability": "pure",
      "type": "function"
    },
    {
      "inputs": [],
      "name": "registerFlight",
      "outputs": [],
      "stateMutability": "pure",
      "type": "function"
    },
    {
      "inputs": [
        {
          "internalType": "address",
          "name": "airline",
          "type": "address"
        },
        {
          "internalType": "string",
          "name": "flight",
          "type": "string"
        },
        {
          "internalType": "uint256",
          "name": "timestamp",
          "type": "uint256"
        }
      ],
      "name": "fetchFlightStatus",
      "outputs": [],
      "stateMutability": "nonpayable",
      "type": "function"
    },
    {
      "inputs": [],
      "name": "registerOracle",
      "outputs": [],
      "stateMutability": "payable",
      "type": "function"
    },
    {
      "inputs": [],
      "name": "getMyIndexes",
      "outputs": [
        {
          "internalType": "uint8[3]",
          "name": "",
          "type": "uint8[3]"
        }
      ],
      "stateMutability": "view",
      "type": "function"
    },
    {
      "inputs": [
        {
          "internalType": "uint8",
          "name": "index",
          "type": "uint8"
        },
        {
          "internalType": "address",
          "name": "airline",
          "type": "address"
        },
        {
          "internalType": "string",
          "name": "flight",
          "type": "string"
        },
        {
          "internalType": "uint256",
          "name": "timestamp",
          "type": "uint256"
        },
        {
          "internalType": "uint8",
          "name": "statusCode",
          "type": "uint8"
        }
      ],
      "name": "submitOracleResponse",
      "outputs": [],
      "stateMutability": "nonpayable",
      "type": "function"
    }
  ],
  "bytecode": "0x60806040526000600260006101000a81548160ff021916908360ff16021790555034801561002c57600080fd5b50336000806101000a81548173ffffffffffffffffffffffffffffffffffffffff021916908373ffffffffffffffffffffffffffffffffffffffff1602179055506116868061007c6000396000f3fe60806040526004361061007b5760003560e01c8063ae6f17e01161004e578063ae6f17e01461010c578063c10f270014610123578063cd905dff1461014c578063f83f11c0146101775761007b565b8063339d2590146100805780635f1cc0e61461008a57806363e29a3f146100b557806364b4f751146100e1575b600080fd5b6100886101a0565b005b34801561009657600080fd5b5061009f61028d565b6040516100ac9190610cc4565b60405180910390f35b3480156100c157600080fd5b506100ca6103cd565b6040516100d8929190610d13565b60405180910390f35b3480156100ed57600080fd5b506100f66103db565b6040516101039190610d3c565b60405180910390f35b34801561011857600080fd5b506101216103e7565b005b34801561012f57600080fd5b5061014a60048036038101906101459190610f67565b6103e9565b005b34801561015857600080fd5b50610161610778565b60405161016e9190610ffe565b60405180910390f35b34801561018357600080fd5b5061019e60048036038101906101999190611019565b610781565b005b670de0b6b3a76400003410156101eb576040517f08c379a00000000000000000000000000000000000000000000000000000000081526004016101e2906110e5565b60405180910390fd5b60006101f63361087b565b9050604051806040016040528060011515815260200182815250600360003373ffffffffffffffffffffffffffffffffffffffff1673ffffffffffffffffffffffffffffffffffffffff16815260200190815260200160002060008201518160000160006101000a81548160ff021916908315150217905550602082015181600101906003610286929190610b33565b5090505050565b610295610bcd565b600360003373ffffffffffffffffffffffffffffffffffffffff1673ffffffffffffffffffffffffffffffffffffffff16815260200190815260200160002060000160009054906101000a900460ff16610324576040517f08c379a000000000000000000000000000000000000000000000000000000000815260040161031b90611151565b60405180910390fd5b600360003373ffffffffffffffffffffffffffffffffffffffff1673ffffffffffffffffffffffffffffffffffffffff1681526020019081526020016000206001016003806020026040519081016040528092919082600380156103c3576020028201916000905b82829054906101000a900460ff1660ff168152602001906001019060208260000104928301926001038202915080841161038c5790505b5050505050905090565b600080816000915091509091565b670de0b6b3a764000081565b565b8460ff16600360003373ffffffffffffffffffffffffffffffffffffffff1673ffffffffffffffffffffffffffffffffffffffff16815260200190815260200160002060010160006003811061044257610441611171565b5b602091828204019190069054906101000a900460ff1660ff1614806104d657508460ff16600360003373ffffffffffffffffffffffffffffffffffffffff1673ffffffffffffffffffffffffffffffffffffffff1681526020019081526020016000206001016001600381106104bb576104ba611171565b5b602091828204019190069054906101000a900460ff1660ff16145b8061055057508460ff16600360003373ffffffffffffffffffffffffffffffffffffffff1673ffffffffffffffffffffffffffffffffffffffff16815260200190815260200160002060010160026003811061053557610534611171565b5b602091828204019190069054906101000a900460ff1660ff16145b61058f576040517f08c379a000000000000000000000000000000000000000000000000000000000815260040161058690611212565b60405180910390fd5b6000858585856040516020016105a89493929190611342565b6040516020818303038152906040528051906020012090506004600082815260200190815260200160002060000160149054906101000a900460ff16610623576040517f08c379a000000000000000000000000000000000000000000000000000000000815260040161061a906113fe565b60405180910390fd5b6004600082815260200190815260200160002060010160008360ff1660ff168152602001908152602001600020339080600181540180825580915050600190039060005260206000200160009091909190916101000a81548173ffffffffffffffffffffffffffffffffffffffff021916908373ffffffffffffffffffffffffffffffffffffffff1602179055507f43c853095c2752648493c88b4baac4d580d2594ffb00c6f1d4242d844514f783858585856040516106e69493929190611475565b60405180910390a160036004600083815260200190815260200160002060010160008460ff1660ff1681526020019081526020016000208054905010610770577fe23f5229de535c091e3b7bec2665f5d698192d3b31393066e8987b7a05076b6c8585858560405161075b9493929190611475565b60405180910390a161076f85858585610a61565b5b505050505050565b60006001905090565b600061078c33610a67565b90506000818585856040516020016107a79493929190611342565b6040516020818303038152906040528051906020012090506000600460008381526020019081526020016000209050338160000160006101000a81548173ffffffffffffffffffffffffffffffffffffffff021916908373ffffffffffffffffffffffffffffffffffffffff16021790555060018160000160146101000a81548160ff0219169083151502179055507f3ed01f2c3fc24c6b329d931e35b03e390d23497d22b3f90e15b600343e93df118387878760405161086b94939291906114c1565b60405180910390a1505050505050565b610883610bcd565b61088b610bcd565b61089483610a67565b816000600381106108a8576108a7611171565b5b602002019060ff16908160ff1681525050806000600381106108cd576108cc611171565b5b6020020151816001600381106108e6576108e5611171565b5b602002019060ff16908160ff16815250505b8060006003811061090c5761090b611171565b5b602002015160ff168160016003811061092857610927611171565b5b602002015160ff16036109685761093e83610a67565b8160016003811061095257610951611171565b5b602002019060ff16908160ff16815250506108f8565b8060016003811061097c5761097b611171565b5b60200201518160026003811061099557610994611171565b5b602002019060ff16908160ff16815250505b806000600381106109bb576109ba611171565b5b602002015160ff16816002600381106109d7576109d6611171565b5b602002015160ff161480610a205750806001600381106109fa576109f9611171565b5b602002015160ff1681600260038110610a1657610a15611171565b5b602002015160ff16145b15610a5857610a2e83610a67565b81600260038110610a4257610a41611171565b5b602002019060ff16908160ff16815250506109a7565b80915050919050565b50505050565b600080600a905060008160ff166002600081819054906101000a900460ff1680929190610a939061153c565b91906101000a81548160ff021916908360ff16021790555060ff1643610ab99190611565565b4085604051602001610acc9291906115c4565b6040516020818303038152906040528051906020012060001c610aef919061161f565b905060fa600260009054906101000a900460ff1660ff161115610b29576000600260006101000a81548160ff021916908360ff1602179055505b8092505050919050565b826003601f01602090048101928215610bbc5791602002820160005b83821115610b8d57835183826101000a81548160ff021916908360ff1602179055509260200192600101602081600001049283019260010302610b4f565b8015610bba5782816101000a81549060ff0219169055600101602081600001049283019260010302610b8d565b505b509050610bc99190610bef565b5090565b6040518060600160405280600390602082028036833780820191505090505090565b5b80821115610c08576000816000905550600101610bf0565b5090565b600060039050919050565b600081905092915050565b6000819050919050565b600060ff82169050919050565b610c4281610c2c565b82525050565b6000610c548383610c39565b60208301905092915050565b6000602082019050919050565b610c7681610c0c565b610c808184610c17565b9250610c8b82610c22565b8060005b83811015610cbc578151610ca38782610c48565b9650610cae83610c60565b925050600181019050610c8f565b505050505050565b6000606082019050610cd96000830184610c6d565b92915050565b60008115159050919050565b610cf481610cdf565b82525050565b6000819050919050565b610d0d81610cfa565b82525050565b6000604082019050610d286000830185610ceb565b610d356020830184610d04565b9392505050565b6000602082019050610d516000830184610d04565b92915050565b6000604051905090565b600080fd5b600080fd5b610d7481610c2c565b8114610d7f57600080fd5b50565b600081359050610d9181610d6b565b92915050565b600073ffffffffffffffffffffffffffffffffffffffff82169050919050565b6000610dc282610d97565b9050919050565b610dd281610db7565b8114610ddd57600080fd5b50565b600081359050610def81610dc9565b92915050565b600080fd5b600080fd5b6000601f19601f8301169050919050565b7f4e487b7100000000000000000000000000000000000000000000000000000000600052604160045260246000fd5b610e4882610dff565b810181811067ffffffffffffffff82111715610e6757610e66610e10565b5b80604052505050565b6000610e7a610d57565b9050610e868282610e3f565b919050565b600067ffffffffffffffff821115610ea657610ea5610e10565b5b610eaf82610dff565b9050602081019050919050565b82818337600083830152505050565b6000610ede610ed984610e8b565b610e70565b905082815260208101848484011115610efa57610ef9610dfa565b5b610f05848285610ebc565b509392505050565b600082601f830112610f2257610f21610df5565b5b8135610f32848260208601610ecb565b91505092915050565b610f4481610cfa565b8114610f4f57600080fd5b50565b600081359050610f6181610f3b565b92915050565b600080600080600060a08688031215610f8357610f82610d61565b5b6000610f9188828901610d82565b9550506020610fa288828901610de0565b945050604086013567ffffffffffffffff811115610fc357610fc2610d66565b5b610fcf88828901610f0d565b9350506060610fe088828901610f52565b9250506080610ff188828901610d82565b9150509295509295909350565b60006020820190506110136000830184610ceb565b92915050565b60008060006060848603121561103257611031610d61565b5b600061104086828701610de0565b935050602084013567ffffffffffffffff81111561106157611060610d66565b5b61106d86828701610f0d565b925050604061107e86828701610f52565b9150509250925092565b600082825260208201905092915050565b7f526567697374726174696f6e2066656520697320726571756972656400000000600082015250565b60006110cf601c83611088565b91506110da82611099565b602082019050919050565b600060208201905081810360008301526110fe816110c2565b9050919050565b7f4e6f74207265676973746572656420617320616e206f7261636c650000000000600082015250565b600061113b601b83611088565b915061114682611105565b602082019050919050565b6000602082019050818103600083015261116a8161112e565b9050919050565b7f4e487b7100000000000000000000000000000000000000000000000000000000600052603260045260246000fd5b7f496e64657820646f6573206e6f74206d61746368206f7261636c65207265717560008201527f6573740000000000000000000000000000000000000000000000000000000000602082015250565b60006111fc602383611088565b9150611207826111a0565b604082019050919050565b6000602082019050818103600083015261122b816111ef565b9050919050565b60008160f81b9050919050565b600061124a82611232565b9050919050565b61126261125d82610c2c565b61123f565b82525050565b60008160601b9050919050565b600061128082611268565b9050919050565b600061129282611275565b9050919050565b6112aa6112a582610db7565b611287565b82525050565b600081519050919050565b600081905092915050565b60005b838110156112e45780820151818401526020810190506112c9565b60008484015250505050565b60006112fb826112b0565b61130581856112bb565b93506113158185602086016112c6565b80840191505092915050565b6000819050919050565b61133c61133782610cfa565b611321565b82525050565b600061134e8287611251565b60018201915061135e8286611299565b60148201915061136e82856112f0565b915061137a828461132b565b60208201915081905095945050505050565b7f466c69676874206f722074696d657374616d7020646f206e6f74206d6174636860008201527f206f7261636c6520726571756573740000000000000000000000000000000000602082015250565b60006113e8602f83611088565b91506113f38261138c565b604082019050919050565b60006020820190508181036000830152611417816113db565b9050919050565b61142781610db7565b82525050565b6000611438826112b0565b6114428185611088565b93506114528185602086016112c6565b61145b81610dff565b840191505092915050565b61146f81610c2c565b82525050565b600060808201905061148a600083018761141e565b818103602083015261149c818661142d565b90506114ab6040830185610d04565b6114b86060830184611466565b95945050505050565b60006080820190506114d66000830187611466565b6114e3602083018661141e565b81810360408301526114f5818561142d565b90506115046060830184610d04565b95945050505050565b7f4e487b7100000000000000000000000000000000000000000000000000000000600052601160045260246000fd5b600061154782610c2c565b915060ff820361155a5761155961150d565b5b600182019050919050565b600061157082610cfa565b915061157b83610cfa565b92508282039050818111156115935761159261150d565b5b92915050565b6000819050919050565b6000819050919050565b6115be6115b982611599565b6115a3565b82525050565b60006115d082856115ad565b6020820191506115e08284611299565b6014820191508190509392505050565b7f4e487b7100000000000000000000000000000000000000000000000000000000600052601260045260246000fd5b600061162a82610cfa565b915061163583610cfa565b925082611645576116446115f0565b5b82820690509291505056fea2646970667358221220d00ed9b4fe7a937fd94e905dfc0ed4f9bef02ce0ef6bb17dd84e39608e99509164736f6c63430008100033",
  "immutableReferences": {},
  "source": "// SPDX-License-Identifier: MIT\npragma solidity ^0.8.16;\n\nimport \"@openzeppelin/contracts/utils/math/SafeMath.sol\";\n\n/************************************************** */\n/* FlightSurety Smart Contract                      */\n/************************************************** */\ncontract FlightSuretyApp {\n\n    using SafeMath for uint256;\n\n    /********************************************************************************************/\n    /*                                       DATA VARIABLES                                     */\n    /********************************************************************************************/\n\n    // Flight status codees\n    uint8 private constant STATUS_CODE_UNKNOWN = 0;\n    uint8 private constant STATUS_CODE_ON_TIME = 10;\n    uint8 private constant STATUS_CODE_LATE_AIRLINE = 20;\n    uint8 private constant STATUS_CODE_LATE_WEATHER = 30;\n    uint8 private constant STATUS_CODE_LATE_TECHNICAL = 40;\n    uint8 private constant STATUS_CODE_LATE_OTHER = 50;\n\n    address private contractOwner;          // Account used to deploy contract\n\n    struct Flight {\n        bool isRegistered;\n        uint8 statusCode;\n        uint256 updatedTimestamp;        \n        address airline;\n    }\n    mapping(bytes32 => Flight) private flights;\n\n \n    /********************************************************************************************/\n    /*                                       FUNCTION MODIFIERS                                 */\n    /********************************************************************************************/\n    /**\n    * @dev Modifier that requires the \"operational\" boolean variable to be \"true\"\n    *      This is used on all state changing functions to pause the contract in \n    *      the event there is an issue that needs to be fixed\n    */\n    modifier requireIsOperational() {\n         // Modify to call data contract's status\n        require(true, \"Contract is currently not operational\");  \n        _;  // All modifiers require an \"_\" which indicates where the function body will be added\n    }\n\n    /**\n    * @dev Modifier that requires the \"ContractOwner\" account to be the function caller\n    */\n    modifier requireContractOwner() {\n        require(msg.sender == contractOwner, \"Caller is not contract owner\");\n        _;\n    }\n\n    /********************************************************************************************/\n    /*                                       CONSTRUCTOR                                        */\n    /********************************************************************************************/\n    /**\n    * @dev Contract constructor\n    *\n    */\n    constructor () {\n        contractOwner = msg.sender;\n    }\n\n    /********************************************************************************************/\n    /*                                       UTILITY FUNCTIONS                                  */\n    /********************************************************************************************/\n    function isOperational() public pure returns(bool) {\n        return true;  // Modify to call data contract's status\n    }\n\n    /********************************************************************************************/\n    /*                                     SMART CONTRACT FUNCTIONS                             */\n    /********************************************************************************************/\n   /**\n    * @dev Add an airline to the registration queue\n    *\n    */   \n    function registerAirline() external pure returns(bool success, uint256 votes) {\n        return (success, 0);\n    }\n\n   /**\n    * @dev Register a future flight for insuring.\n    */  \n    function registerFlight () external pure {\n    }\n    \n   /**\n    * @dev Called after oracle has updated flight status\n    */  \n    function processFlightStatus (address airline, string memory flight, uint256 timestamp, uint8 statusCode) internal pure {\n    }\n\n    // Generate a request for oracles to fetch flight information\n    function fetchFlightStatus (address airline, string memory flight, uint256 timestamp ) external {\n        uint8 index = getRandomIndex(msg.sender);\n        // Generate a unique key for storing the request\n        bytes32 key = keccak256(abi.encodePacked(index, airline, flight, timestamp));\n        ResponseInfo storage newResponseInfo = oracleResponses[key];\n        newResponseInfo.requester = msg.sender;\n        newResponseInfo.isOpen = true;\n        emit OracleRequest(index, airline, flight, timestamp);\n    } \n\n\n    // region ORACLE MANAGEMENT\n\n    // Incremented to add pseudo-randomness at various points\n    uint8 private nonce = 0;    \n\n    // Fee to be paid when registering oracle\n    uint256 public constant REGISTRATION_FEE = 1 ether;\n\n    // Number of oracles that must respond for valid status\n    uint256 private constant MIN_RESPONSES = 3;\n\n\n    struct Oracle {\n        bool isRegistered;\n        uint8[3] indexes;        \n    }\n\n    // Track all registered oracles\n    mapping(address => Oracle) private oracles;\n\n    // Model for responses from oracles\n    struct ResponseInfo {\n        address requester;                              // Account that requested status\n        bool isOpen;                                    // If open, oracle responses are accepted\n        mapping(uint8 => address[]) responses;          // Mapping key is the status code reported\n                                                        // This lets us group responses and identify\n                                                        // the response that majority of the oracles\n    }\n\n    // Track all oracle responses\n    // Key = hash(index, flight, timestamp)\n    mapping(bytes32 => ResponseInfo) private oracleResponses;\n\n    // Event fired each time an oracle submits a response\n    event FlightStatusInfo(address airline, string flight, uint256 timestamp, uint8 status);\n\n    event OracleReport(address airline, string flight, uint256 timestamp, uint8 status);\n\n    // Event fired when flight status request is submitted\n    // Oracles track this and if they have a matching index\n    // they fetch data and submit a response\n    event OracleRequest(uint8 index, address airline, string flight, uint256 timestamp);\n\n\n    // Register an oracle with the contract\n    function registerOracle () external payable {\n        // Require registration fee\n        require(msg.value >= REGISTRATION_FEE, \"Registration fee is required\");\n        uint8[3] memory indexes = generateIndexes(msg.sender);\n        oracles[msg.sender] = Oracle({ isRegistered: true, indexes: indexes });\n    }\n\n    function getMyIndexes () view external returns(uint8[3] memory) {\n        require(oracles[msg.sender].isRegistered, \"Not registered as an oracle\");\n        return oracles[msg.sender].indexes;\n    }\n\n    // Called by oracle when a response is available to an outstanding request\n    // For the response to be accepted, there must be a pending request that is open\n    // and matches one of the three Indexes randomly assigned to the oracle at the\n    // time of registration (i.e. uninvited oracles are not welcome)\n    function submitOracleResponse (uint8 index, address airline, string memory flight, uint256 timestamp, uint8 statusCode) external {\n        require((oracles[msg.sender].indexes[0] == index) || (oracles[msg.sender].indexes[1] == index) || (oracles[msg.sender].indexes[2] == index), \"Index does not match oracle request\");\n        bytes32 key = keccak256(abi.encodePacked(index, airline, flight, timestamp)); \n        require(oracleResponses[key].isOpen, \"Flight or timestamp do not match oracle request\");\n        oracleResponses[key].responses[statusCode].push(msg.sender);\n        // Information isn't considered verified until at least MIN_RESPONSES\n        // oracles respond with the *** same *** information\n        emit OracleReport(airline, flight, timestamp, statusCode);\n        if (oracleResponses[key].responses[statusCode].length >= MIN_RESPONSES) {\n            emit FlightStatusInfo(airline, flight, timestamp, statusCode);\n            // Handle flight status as appropriate\n            processFlightStatus(airline, flight, timestamp, statusCode);\n        }\n    }\n\n    function getFlightKey (address airline, string memory flight, uint256 timestamp ) pure internal returns(bytes32) {\n        return keccak256(abi.encodePacked(airline, flight, timestamp));\n    }\n\n    // Returns array of three non-duplicating integers from 0-9\n    function generateIndexes (address account) internal returns(uint8[3] memory) {\n        uint8[3] memory indexes;\n        indexes[0] = getRandomIndex(account);\n        indexes[1] = indexes[0];\n        while(indexes[1] == indexes[0]) {\n            indexes[1] = getRandomIndex(account);\n        }\n        indexes[2] = indexes[1];\n        while((indexes[2] == indexes[0]) || (indexes[2] == indexes[1])) {\n            indexes[2] = getRandomIndex(account);\n        }\n        return indexes;\n    }\n\n    // Returns array of three non-duplicating integers from 0-9\n    function getRandomIndex (address account) internal returns (uint8) {\n        uint8 maxValue = 10;\n        // Pseudo random number...the incrementing nonce adds variation\n        uint8 random = uint8(uint256(keccak256(abi.encodePacked(blockhash(block.number - nonce++), account))) % maxValue);\n        if (nonce > 250) {\n            nonce = 0;  // Can only fetch blockhashes for last 256 blocks so we adapt\n        }\n        return random;\n    }\n\n    // endregion\n}   \n",
  "sourcePath": "/home/isma/Desktop/code/blockchain/FlightSurety/contracts/FlightSuretyApp.sol",
  "compiler": {
    "name": "solc",
    "version": "0.8.16+commit.07a7930e.Emscripten.clang"
  },
  "schemaVersion": "3.4.9",
  "updatedAt": "2022-09-11T22:15:04.865Z",
  "devdoc": {
    "kind": "dev",
    "methods": {
      "constructor": {
        "details": "Contract constructor"
      },
      "registerAirline()": {
        "details": "Add an airline to the registration queue"
      },
      "registerFlight()": {
        "details": "Register a future flight for insuring."
      }
    },
    "version": 1
  },
  "userdoc": {
    "kind": "user",
    "methods": {},
    "version": 1
  }
}