{
  "contractName": "FlightSuretyData",
  "abi": [
    {
      "inputs": [],
      "stateMutability": "nonpayable",
      "type": "constructor"
    },
    {
      "inputs": [],
      "name": "isOperational",
      "outputs": [
        {
          "internalType": "bool",
          "name": "",
          "type": "bool"
        }
      ],
      "stateMutability": "view",
      "type": "function"
    },
    {
      "inputs": [
        {
          "internalType": "bool",
          "name": "status",
          "type": "bool"
        }
      ],
      "name": "setOperatingStatus",
      "outputs": [],
      "stateMutability": "nonpayable",
      "type": "function"
    },
    {
      "inputs": [
        {
          "internalType": "address",
          "name": "contractAddress",
          "type": "address"
        }
      ],
      "name": "isAuthorizedContract",
      "outputs": [
        {
          "internalType": "bool",
          "name": "",
          "type": "bool"
        }
      ],
      "stateMutability": "view",
      "type": "function"
    },
    {
      "inputs": [
        {
          "internalType": "address",
          "name": "contractAddress",
          "type": "address"
        },
        {
          "internalType": "bool",
          "name": "status",
          "type": "bool"
        }
      ],
      "name": "setAuthorizedContract",
      "outputs": [],
      "stateMutability": "nonpayable",
      "type": "function"
    },
    {
      "inputs": [],
      "name": "getFirstAirline",
      "outputs": [
        {
          "internalType": "address",
          "name": "",
          "type": "address"
        }
      ],
      "stateMutability": "view",
      "type": "function"
    },
    {
      "inputs": [],
      "name": "getNumAirlines",
      "outputs": [
        {
          "internalType": "uint256",
          "name": "",
          "type": "uint256"
        }
      ],
      "stateMutability": "view",
      "type": "function"
    },
    {
      "inputs": [
        {
          "internalType": "address",
          "name": "account",
          "type": "address"
        }
      ],
      "name": "isRegisteredAirline",
      "outputs": [
        {
          "internalType": "bool",
          "name": "",
          "type": "bool"
        }
      ],
      "stateMutability": "view",
      "type": "function"
    },
    {
      "inputs": [
        {
          "internalType": "address",
          "name": "account",
          "type": "address"
        }
      ],
      "name": "isAcceptedAirline",
      "outputs": [
        {
          "internalType": "bool",
          "name": "",
          "type": "bool"
        }
      ],
      "stateMutability": "view",
      "type": "function"
    },
    {
      "inputs": [
        {
          "internalType": "address",
          "name": "account",
          "type": "address"
        }
      ],
      "name": "isFundedAirline",
      "outputs": [
        {
          "internalType": "bool",
          "name": "",
          "type": "bool"
        }
      ],
      "stateMutability": "view",
      "type": "function"
    },
    {
      "inputs": [
        {
          "internalType": "address",
          "name": "account",
          "type": "address"
        }
      ],
      "name": "getAirlineBalance",
      "outputs": [
        {
          "internalType": "uint256",
          "name": "",
          "type": "uint256"
        }
      ],
      "stateMutability": "view",
      "type": "function"
    },
    {
      "inputs": [
        {
          "internalType": "address",
          "name": "account",
          "type": "address"
        }
      ],
      "name": "getAirlineInfo",
      "outputs": [
        {
          "internalType": "bool",
          "name": "",
          "type": "bool"
        },
        {
          "internalType": "bool",
          "name": "",
          "type": "bool"
        },
        {
          "internalType": "bool",
          "name": "",
          "type": "bool"
        },
        {
          "internalType": "uint256",
          "name": "",
          "type": "uint256"
        }
      ],
      "stateMutability": "view",
      "type": "function"
    },
    {
      "inputs": [],
      "name": "getAirlines",
      "outputs": [
        {
          "internalType": "address[]",
          "name": "",
          "type": "address[]"
        }
      ],
      "stateMutability": "view",
      "type": "function"
    },
    {
      "inputs": [
        {
          "internalType": "address",
          "name": "airline",
          "type": "address"
        },
        {
          "internalType": "string",
          "name": "flight",
          "type": "string"
        },
        {
          "internalType": "uint256",
          "name": "timestamp",
          "type": "uint256"
        }
      ],
      "name": "getFlightInfo",
      "outputs": [
        {
          "internalType": "uint8",
          "name": "statusCode",
          "type": "uint8"
        },
        {
          "internalType": "uint256",
          "name": "updatedTimestamp",
          "type": "uint256"
        },
        {
          "internalType": "address",
          "name": "flightAirline",
          "type": "address"
        }
      ],
      "stateMutability": "view",
      "type": "function"
    },
    {
      "inputs": [
        {
          "internalType": "address",
          "name": "airline",
          "type": "address"
        },
        {
          "internalType": "string",
          "name": "flight",
          "type": "string"
        },
        {
          "internalType": "uint256",
          "name": "timestamp",
          "type": "uint256"
        }
      ],
      "name": "getFlightStatus",
      "outputs": [
        {
          "internalType": "uint8",
          "name": "statusCode",
          "type": "uint8"
        }
      ],
      "stateMutability": "view",
      "type": "function"
    },
    {
      "inputs": [],
      "name": "getFlights",
      "outputs": [
        {
          "internalType": "bytes32[]",
          "name": "",
          "type": "bytes32[]"
        }
      ],
      "stateMutability": "view",
      "type": "function"
    },
    {
      "inputs": [
        {
          "internalType": "bytes32",
          "name": "flight",
          "type": "bytes32"
        },
        {
          "internalType": "address",
          "name": "passenger",
          "type": "address"
        }
      ],
      "name": "getInsuranceInfo",
      "outputs": [
        {
          "internalType": "uint256",
          "name": "amount",
          "type": "uint256"
        }
      ],
      "stateMutability": "view",
      "type": "function"
    },
    {
      "inputs": [
        {
          "internalType": "bytes32",
          "name": "flight",
          "type": "bytes32"
        }
      ],
      "name": "getInsurances",
      "outputs": [
        {
          "components": [
            {
              "internalType": "address",
              "name": "passenger",
              "type": "address"
            },
            {
              "internalType": "uint256",
              "name": "amount",
              "type": "uint256"
            }
          ],
          "internalType": "struct FlightSuretyData.Insurance[]",
          "name": "",
          "type": "tuple[]"
        }
      ],
      "stateMutability": "view",
      "type": "function"
    },
    {
      "inputs": [
        {
          "internalType": "address",
          "name": "account",
          "type": "address"
        }
      ],
      "name": "registerFirstAirline",
      "outputs": [],
      "stateMutability": "nonpayable",
      "type": "function"
    },
    {
      "inputs": [
        {
          "internalType": "address",
          "name": "account",
          "type": "address"
        }
      ],
      "name": "registerAirline",
      "outputs": [],
      "stateMutability": "nonpayable",
      "type": "function"
    },
    {
      "inputs": [
        {
          "internalType": "address",
          "name": "account",
          "type": "address"
        }
      ],
      "name": "acceptAirline",
      "outputs": [],
      "stateMutability": "nonpayable",
      "type": "function"
    },
    {
      "inputs": [
        {
          "internalType": "address",
          "name": "airline",
          "type": "address"
        },
        {
          "internalType": "string",
          "name": "flight",
          "type": "string"
        },
        {
          "internalType": "uint256",
          "name": "timestamp",
          "type": "uint256"
        },
        {
          "internalType": "uint8",
          "name": "status",
          "type": "uint8"
        }
      ],
      "name": "registerFlight",
      "outputs": [],
      "stateMutability": "nonpayable",
      "type": "function"
    },
    {
      "inputs": [
        {
          "internalType": "address",
          "name": "airline",
          "type": "address"
        },
        {
          "internalType": "bytes32",
          "name": "flight",
          "type": "bytes32"
        },
        {
          "internalType": "uint8",
          "name": "status",
          "type": "uint8"
        }
      ],
      "name": "updateFlight",
      "outputs": [],
      "stateMutability": "nonpayable",
      "type": "function"
    },
    {
      "inputs": [
        {
          "internalType": "bytes32",
          "name": "flight",
          "type": "bytes32"
        }
      ],
      "name": "creditInsurees",
      "outputs": [],
      "stateMutability": "nonpayable",
      "type": "function"
    },
    {
      "inputs": [],
      "name": "fund",
      "outputs": [],
      "stateMutability": "payable",
      "type": "function"
    },
    {
      "inputs": [
        {
          "internalType": "bytes32",
          "name": "flight",
          "type": "bytes32"
        }
      ],
      "name": "buy",
      "outputs": [],
      "stateMutability": "payable",
      "type": "function"
    },
    {
      "inputs": [],
      "name": "pay",
      "outputs": [],
      "stateMutability": "nonpayable",
      "type": "function"
    }
  ],
  "bytecode": "0x60806040526001600060146101000a81548160ff021916908315150217905550600067ffffffffffffffff8111156200003d576200003c6200025e565b5b6040519080825280602002602001820160405280156200006c5781602001602082028036833780820191505090505b5060039080519060200190620000849291906200013f565b50600067ffffffffffffffff811115620000a357620000a26200025e565b5b604051908082528060200260200182016040528015620000d25781602001602082028036833780820191505090505b5060059080519060200190620000ea929190620001ce565b50348015620000f857600080fd5b50336000806101000a81548173ffffffffffffffffffffffffffffffffffffffff021916908373ffffffffffffffffffffffffffffffffffffffff1602179055506200028d565b828054828255906000526020600020908101928215620001bb579160200282015b82811115620001ba5782518260006101000a81548173ffffffffffffffffffffffffffffffffffffffff021916908373ffffffffffffffffffffffffffffffffffffffff1602179055509160200191906001019062000160565b5b509050620001ca919062000220565b5090565b8280548282559060005260206000209081019282156200020d579160200282015b828111156200020c578251825591602001919060010190620001ef565b5b5090506200021c91906200023f565b5090565b5b808211156200023b57600081600090555060010162000221565b5090565b5b808211156200025a57600081600090555060010162000240565b5090565b7f4e487b7100000000000000000000000000000000000000000000000000000000600052604160045260246000fd5b613aa3806200029d6000396000f3fe6080604052600436106101815760003560e01c80639c9a1061116100d1578063cc2f6eba1161008a578063efc510a811610064578063efc510a814610569578063f1a19016146105a6578063f2fa7392146105e3578063f3ba4e1b1461060c57610181565b8063cc2f6eba146104ec578063cd905dff14610515578063d9d412261461054057610181565b80639c9a1061146103fa5780639de5f95714610416578063a78d979914610453578063b60d428814610490578063bdfd98771461049a578063bf1d9156146104c357610181565b806366d0ead31161013e5780637d2ab0de116101185780637d2ab0de1461032c57806380c575f01461035557806389208e721461039257806394c260ee146103cf57610181565b806366d0ead314610284578063720c7cbb146102c15780637ab21cdc1461030157610181565b806302eb72ad146101865780630d5dc054146101b1578063110466ed146101dc5780631b9265b8146102055780631c6cd3291461021c5780632c1473e414610245575b600080fd5b34801561019257600080fd5b5061019b610649565b6040516101a89190612738565b60405180910390f35b3480156101bd57600080fd5b506101c6610690565b6040516101d39190612811565b60405180910390f35b3480156101e857600080fd5b5061020360048036038101906101fe919061287f565b61071e565b005b34801561021157600080fd5b5061021a6107c9565b005b34801561022857600080fd5b50610243600480360381019061023e9190612947565b6109db565b005b34801561025157600080fd5b5061026c60048036038101906102679190612b16565b610cab565b60405161027b93929190612ba3565b60405180910390f35b34801561029057600080fd5b506102ab60048036038101906102a69190612bda565b610e02565b6040516102b89190612c16565b60405180910390f35b3480156102cd57600080fd5b506102e860048036038101906102e39190612bda565b610e58565b6040516102f89493929190612c31565b60405180910390f35b34801561030d57600080fd5b50610316610fba565b6040516103239190612c76565b60405180910390f35b34801561033857600080fd5b50610353600480360381019061034e9190612bda565b610fc7565b005b34801561036157600080fd5b5061037c60048036038101906103779190612bda565b611229565b6040516103899190612c16565b60405180910390f35b34801561039e57600080fd5b506103b960048036038101906103b49190612bda565b611282565b6040516103c69190612c76565b60405180910390f35b3480156103db57600080fd5b506103e461135d565b6040516103f19190612d4f565b60405180910390f35b610414600480360381019061040f9190612d71565b6113b5565b005b34801561042257600080fd5b5061043d60048036038101906104389190612b16565b611582565b60405161044a9190612d9e565b60405180910390f35b34801561045f57600080fd5b5061047a60048036038101906104759190612bda565b61162a565b6040516104879190612c16565b60405180910390f35b610498611683565b005b3480156104a657600080fd5b506104c160048036038101906104bc9190612bda565b6118e5565b005b3480156104cf57600080fd5b506104ea60048036038101906104e59190612bda565b611b31565b005b3480156104f857600080fd5b50610513600480360381019061050e9190612d71565b611d63565b005b34801561052157600080fd5b5061052a61204f565b6040516105379190612c16565b60405180910390f35b34801561054c57600080fd5b5061056760048036038101906105629190612db9565b612065565b005b34801561057557600080fd5b50610590600480360381019061058b9190612d71565b6122fc565b60405161059d9190612f29565b60405180910390f35b3480156105b257600080fd5b506105cd60048036038101906105c89190612f4b565b6123ce565b6040516105da9190612c76565b60405180910390f35b3480156105ef57600080fd5b5061060a60048036038101906106059190612f8b565b61253d565b005b34801561061857600080fd5b50610633600480360381019061062e9190612bda565b612626565b6040516106409190612c16565b60405180910390f35b600060036000815481106106605761065f612fcb565b5b9060005260206000200160009054906101000a900473ffffffffffffffffffffffffffffffffffffffff16905090565b6060600380548060200260200160405190810160405280929190818152602001828054801561071457602002820191906000526020600020905b8160009054906101000a900473ffffffffffffffffffffffffffffffffffffffff1673ffffffffffffffffffffffffffffffffffffffff16815260200190600101908083116106ca575b5050505050905090565b60008054906101000a900473ffffffffffffffffffffffffffffffffffffffff1673ffffffffffffffffffffffffffffffffffffffff163273ffffffffffffffffffffffffffffffffffffffff16146107ac576040517f08c379a00000000000000000000000000000000000000000000000000000000081526004016107a390613057565b60405180910390fd5b80600060146101000a81548160ff02191690831515021790555050565b600060149054906101000a900460ff16610818576040517f08c379a000000000000000000000000000000000000000000000000000000000815260040161080f906130e9565b60405180910390fd5b3273ffffffffffffffffffffffffffffffffffffffff163373ffffffffffffffffffffffffffffffffffffffff1614610886576040517f08c379a000000000000000000000000000000000000000000000000000000000815260040161087d90613155565b60405180910390fd5b6000600760003373ffffffffffffffffffffffffffffffffffffffff1673ffffffffffffffffffffffffffffffffffffffff1681526020019081526020016000205411610908576040517f08c379a00000000000000000000000000000000000000000000000000000000081526004016108ff906131c1565b60405180910390fd5b6000600760003373ffffffffffffffffffffffffffffffffffffffff1673ffffffffffffffffffffffffffffffffffffffff1681526020019081526020016000205490506000600760003373ffffffffffffffffffffffffffffffffffffffff1673ffffffffffffffffffffffffffffffffffffffff168152602001908152602001600020819055503373ffffffffffffffffffffffffffffffffffffffff166108fc829081150290604051600060405180830381858888f193505050501580156109d7573d6000803e3d6000fd5b5050565b600060149054906101000a900460ff16610a2a576040517f08c379a0000000000000000000000000000000000000000000000000000000008152600401610a21906130e9565b60405180910390fd5b60011515600160003373ffffffffffffffffffffffffffffffffffffffff1673ffffffffffffffffffffffffffffffffffffffff16815260200190815260200160002060009054906101000a900460ff16151514610abd576040517f08c379a0000000000000000000000000000000000000000000000000000000008152600401610ab49061322d565b60405180910390fd5b82600260008273ffffffffffffffffffffffffffffffffffffffff1673ffffffffffffffffffffffffffffffffffffffff16815260200190815260200160002060000160029054906101000a900460ff16610b4d576040517f08c379a0000000000000000000000000000000000000000000000000000000008152600401610b4490613299565b60405180910390fd5b600115156004600085815260200190815260200160002060000160009054906101000a900460ff16151514610bb7576040517f08c379a0000000000000000000000000000000000000000000000000000000008152600401610bae90613305565b60405180910390fd5b8373ffffffffffffffffffffffffffffffffffffffff166004600085815260200190815260200160002060020160009054906101000a900473ffffffffffffffffffffffffffffffffffffffff1673ffffffffffffffffffffffffffffffffffffffff1614610c5b576040517f08c379a0000000000000000000000000000000000000000000000000000000008152600401610c5290613397565b60405180910390fd5b816004600085815260200190815260200160002060000160016101000a81548160ff021916908360ff16021790555042600460008581526020019081526020016000206001018190555050505050565b600080600080610cbc87878761267f565b9050600115156004600083815260200190815260200160002060000160009054906101000a900460ff16151514610d28576040517f08c379a0000000000000000000000000000000000000000000000000000000008152600401610d1f90613403565b60405180910390fd5b6000600460008381526020019081526020016000206040518060800160405290816000820160009054906101000a900460ff161515151581526020016000820160019054906101000a900460ff1660ff1660ff168152602001600182015481526020016002820160009054906101000a900473ffffffffffffffffffffffffffffffffffffffff1673ffffffffffffffffffffffffffffffffffffffff1673ffffffffffffffffffffffffffffffffffffffff16815250509050806020015181604001518260600151945094509450505093509350939050565b6000600160008373ffffffffffffffffffffffffffffffffffffffff1673ffffffffffffffffffffffffffffffffffffffff16815260200190815260200160002060009054906101000a900460ff169050919050565b600080600080600260008673ffffffffffffffffffffffffffffffffffffffff1673ffffffffffffffffffffffffffffffffffffffff16815260200190815260200160002060000160009054906101000a900460ff16610eed576040517f08c379a0000000000000000000000000000000000000000000000000000000008152600401610ee49061346f565b60405180910390fd5b6000600260008773ffffffffffffffffffffffffffffffffffffffff1673ffffffffffffffffffffffffffffffffffffffff1681526020019081526020016000206040518060800160405290816000820160009054906101000a900460ff161515151581526020016000820160019054906101000a900460ff161515151581526020016000820160029054906101000a900460ff16151515158152602001600182015481525050905080600001518160200151826040015183606001519450945094509450509193509193565b6000600380549050905090565b600060149054906101000a900460ff16611016576040517f08c379a000000000000000000000000000000000000000000000000000000000815260040161100d906130e9565b60405180910390fd5b60008054906101000a900473ffffffffffffffffffffffffffffffffffffffff1673ffffffffffffffffffffffffffffffffffffffff163273ffffffffffffffffffffffffffffffffffffffff16146110a4576040517f08c379a000000000000000000000000000000000000000000000000000000000815260040161109b90613057565b60405180910390fd5b6000600380549050146110ec576040517f08c379a00000000000000000000000000000000000000000000000000000000081526004016110e390613501565b60405180910390fd5b60405180608001604052806001151581526020016001151581526020016000151581526020016000815250600260008373ffffffffffffffffffffffffffffffffffffffff1673ffffffffffffffffffffffffffffffffffffffff16815260200190815260200160002060008201518160000160006101000a81548160ff02191690831515021790555060208201518160000160016101000a81548160ff02191690831515021790555060408201518160000160026101000a81548160ff021916908315150217905550606082015181600101559050506003819080600181540180825580915050600190039060005260206000200160009091909190916101000a81548173ffffffffffffffffffffffffffffffffffffffff021916908373ffffffffffffffffffffffffffffffffffffffff16021790555050565b6000600260008373ffffffffffffffffffffffffffffffffffffffff1673ffffffffffffffffffffffffffffffffffffffff16815260200190815260200160002060000160019054906101000a900460ff169050919050565b6000600260008373ffffffffffffffffffffffffffffffffffffffff1673ffffffffffffffffffffffffffffffffffffffff16815260200190815260200160002060000160009054906101000a900460ff16611313576040517f08c379a000000000000000000000000000000000000000000000000000000000815260040161130a9061346f565b60405180910390fd5b600260008373ffffffffffffffffffffffffffffffffffffffff1673ffffffffffffffffffffffffffffffffffffffff168152602001908152602001600020600101549050919050565b606060058054806020026020016040519081016040528092919081815260200182805480156113ab57602002820191906000526020600020905b815481526020019060010190808311611397575b5050505050905090565b600060149054906101000a900460ff16611404576040517f08c379a00000000000000000000000000000000000000000000000000000000081526004016113fb906130e9565b60405180910390fd5b60003411801561141c5750670de0b6b3a76400003411155b61145b576040517f08c379a000000000000000000000000000000000000000000000000000000000815260040161145290613593565b60405180910390fd5b600115156004600083815260200190815260200160002060000160009054906101000a900460ff161515146114c5576040517f08c379a00000000000000000000000000000000000000000000000000000000081526004016114bc90613403565b60405180910390fd5b6006600082815260200190815260200160002060405180604001604052803373ffffffffffffffffffffffffffffffffffffffff16815260200134815250908060018154018082558091505060019003906000526020600020906002020160009091909190915060008201518160000160006101000a81548173ffffffffffffffffffffffffffffffffffffffff021916908373ffffffffffffffffffffffffffffffffffffffff16021790555060208201518160010155505050565b60008061159085858561267f565b9050600115156004600083815260200190815260200160002060000160009054906101000a900460ff161515146115fc576040517f08c379a00000000000000000000000000000000000000000000000000000000081526004016115f390613403565b60405180910390fd5b6004600082815260200190815260200160002060000160019054906101000a900460ff169150509392505050565b6000600260008373ffffffffffffffffffffffffffffffffffffffff1673ffffffffffffffffffffffffffffffffffffffff16815260200190815260200160002060000160009054906101000a900460ff169050919050565b600060149054906101000a900460ff166116d2576040517f08c379a00000000000000000000000000000000000000000000000000000000081526004016116c9906130e9565b60405180910390fd5b600260003373ffffffffffffffffffffffffffffffffffffffff1673ffffffffffffffffffffffffffffffffffffffff16815260200190815260200160002060000160019054906101000a900460ff16611761576040517f08c379a0000000000000000000000000000000000000000000000000000000008152600401611758906135ff565b60405180910390fd5b678ac7230489e8000034146117ab576040517f08c379a00000000000000000000000000000000000000000000000000000000081526004016117a29061366b565b60405180910390fd5b60001515600260003373ffffffffffffffffffffffffffffffffffffffff1673ffffffffffffffffffffffffffffffffffffffff16815260200190815260200160002060000160029054906101000a900460ff16151514611841576040517f08c379a0000000000000000000000000000000000000000000000000000000008152600401611838906136d7565b60405180910390fd5b34600260003373ffffffffffffffffffffffffffffffffffffffff1673ffffffffffffffffffffffffffffffffffffffff168152602001908152602001600020600101819055506001600260003373ffffffffffffffffffffffffffffffffffffffff1673ffffffffffffffffffffffffffffffffffffffff16815260200190815260200160002060000160026101000a81548160ff021916908315150217905550565b600060149054906101000a900460ff16611934576040517f08c379a000000000000000000000000000000000000000000000000000000000815260040161192b906130e9565b60405180910390fd5b60011515600160003373ffffffffffffffffffffffffffffffffffffffff1673ffffffffffffffffffffffffffffffffffffffff16815260200190815260200160002060009054906101000a900460ff161515146119c7576040517f08c379a00000000000000000000000000000000000000000000000000000000081526004016119be9061322d565b60405180910390fd5b600260008273ffffffffffffffffffffffffffffffffffffffff1673ffffffffffffffffffffffffffffffffffffffff16815260200190815260200160002060000160009054906101000a900460ff1615611a57576040517f08c379a0000000000000000000000000000000000000000000000000000000008152600401611a4e90613743565b60405180910390fd5b60405180608001604052806001151581526020016000151581526020016000151581526020016000815250600260008373ffffffffffffffffffffffffffffffffffffffff1673ffffffffffffffffffffffffffffffffffffffff16815260200190815260200160002060008201518160000160006101000a81548160ff02191690831515021790555060208201518160000160016101000a81548160ff02191690831515021790555060408201518160000160026101000a81548160ff0219169083151502179055506060820151816001015590505050565b600060149054906101000a900460ff16611b80576040517f08c379a0000000000000000000000000000000000000000000000000000000008152600401611b77906130e9565b60405180910390fd5b60011515600160003373ffffffffffffffffffffffffffffffffffffffff1673ffffffffffffffffffffffffffffffffffffffff16815260200190815260200160002060009054906101000a900460ff16151514611c13576040517f08c379a0000000000000000000000000000000000000000000000000000000008152600401611c0a9061322d565b60405180910390fd5b600260008273ffffffffffffffffffffffffffffffffffffffff1673ffffffffffffffffffffffffffffffffffffffff16815260200190815260200160002060000160009054906101000a900460ff16611ca2576040517f08c379a0000000000000000000000000000000000000000000000000000000008152600401611c99906137d5565b60405180910390fd5b6001600260008373ffffffffffffffffffffffffffffffffffffffff1673ffffffffffffffffffffffffffffffffffffffff16815260200190815260200160002060000160016101000a81548160ff0219169083151502179055506003819080600181540180825580915050600190039060005260206000200160009091909190916101000a81548173ffffffffffffffffffffffffffffffffffffffff021916908373ffffffffffffffffffffffffffffffffffffffff16021790555050565b600060149054906101000a900460ff16611db2576040517f08c379a0000000000000000000000000000000000000000000000000000000008152600401611da9906130e9565b60405180910390fd5b60011515600160003373ffffffffffffffffffffffffffffffffffffffff1673ffffffffffffffffffffffffffffffffffffffff16815260200190815260200160002060009054906101000a900460ff16151514611e45576040517f08c379a0000000000000000000000000000000000000000000000000000000008152600401611e3c9061322d565b60405180910390fd5b600060066000838152602001908152602001600020805480602002602001604051908101604052809291908181526020016000905b82821015611f0c57838290600052602060002090600202016040518060400160405290816000820160009054906101000a900473ffffffffffffffffffffffffffffffffffffffff1673ffffffffffffffffffffffffffffffffffffffff1673ffffffffffffffffffffffffffffffffffffffff16815260200160018201548152505081526020019060010190611e7a565b50505050905060005b815181101561204a576000828281518110611f3357611f32612fcb565b5b60200260200101516000015190506000838381518110611f5657611f55612fcb565b5b60200260200101516020015190506000600760008473ffffffffffffffffffffffffffffffffffffffff1673ffffffffffffffffffffffffffffffffffffffff1681526020019081526020016000205490506000611fbf611fb884600f6126b5565b60646126cb565b90506000868681518110611fd657611fd5612fcb565b5b60200260200101516020018181525050611ff082826126e1565b600760008673ffffffffffffffffffffffffffffffffffffffff1673ffffffffffffffffffffffffffffffffffffffff1681526020019081526020016000208190555050505050808061204290613824565b915050611f15565b505050565b60008060149054906101000a900460ff16905090565b600060149054906101000a900460ff166120b4576040517f08c379a00000000000000000000000000000000000000000000000000000000081526004016120ab906130e9565b60405180910390fd5b60011515600160003373ffffffffffffffffffffffffffffffffffffffff1673ffffffffffffffffffffffffffffffffffffffff16815260200190815260200160002060009054906101000a900460ff16151514612147576040517f08c379a000000000000000000000000000000000000000000000000000000000815260040161213e9061322d565b60405180910390fd5b83600260008273ffffffffffffffffffffffffffffffffffffffff1673ffffffffffffffffffffffffffffffffffffffff16815260200190815260200160002060000160029054906101000a900460ff166121d7576040517f08c379a00000000000000000000000000000000000000000000000000000000081526004016121ce90613299565b60405180910390fd5b60006121e486868661267f565b905060405180608001604052806001151581526020018460ff1681526020018581526020018773ffffffffffffffffffffffffffffffffffffffff168152506004600083815260200190815260200160002060008201518160000160006101000a81548160ff02191690831515021790555060208201518160000160016101000a81548160ff021916908360ff1602179055506040820151816001015560608201518160020160006101000a81548173ffffffffffffffffffffffffffffffffffffffff021916908373ffffffffffffffffffffffffffffffffffffffff1602179055509050506005819080600181540180825580915050600190039060005260206000200160009091909190915055505050505050565b606060066000838152602001908152602001600020805480602002602001604051908101604052809291908181526020016000905b828210156123c357838290600052602060002090600202016040518060400160405290816000820160009054906101000a900473ffffffffffffffffffffffffffffffffffffffff1673ffffffffffffffffffffffffffffffffffffffff1673ffffffffffffffffffffffffffffffffffffffff16815260200160018201548152505081526020019060010190612331565b505050509050919050565b60008060066000858152602001908152602001600020805480602002602001604051908101604052809291908181526020016000905b8282101561249657838290600052602060002090600202016040518060400160405290816000820160009054906101000a900473ffffffffffffffffffffffffffffffffffffffff1673ffffffffffffffffffffffffffffffffffffffff1673ffffffffffffffffffffffffffffffffffffffff16815260200160018201548152505081526020019060010190612404565b50505050905060005b8151811015612534578373ffffffffffffffffffffffffffffffffffffffff168282815181106124d2576124d1612fcb565b5b60200260200101516000015173ffffffffffffffffffffffffffffffffffffffff16036125215781818151811061250c5761250b612fcb565b5b60200260200101516020015192505050612537565b808061252c90613824565b91505061249f565b50505b92915050565b60008054906101000a900473ffffffffffffffffffffffffffffffffffffffff1673ffffffffffffffffffffffffffffffffffffffff163273ffffffffffffffffffffffffffffffffffffffff16146125cb576040517f08c379a00000000000000000000000000000000000000000000000000000000081526004016125c290613057565b60405180910390fd5b80600160008473ffffffffffffffffffffffffffffffffffffffff1673ffffffffffffffffffffffffffffffffffffffff16815260200190815260200160002060006101000a81548160ff0219169083151502179055505050565b6000600260008373ffffffffffffffffffffffffffffffffffffffff1673ffffffffffffffffffffffffffffffffffffffff16815260200190815260200160002060000160029054906101000a900460ff169050919050565b600083838360405160200161269693929190613946565b6040516020818303038152906040528051906020012090509392505050565b600081836126c3919061397f565b905092915050565b600081836126d99190613a08565b905092915050565b600081836126ef9190613a39565b905092915050565b600073ffffffffffffffffffffffffffffffffffffffff82169050919050565b6000612722826126f7565b9050919050565b61273281612717565b82525050565b600060208201905061274d6000830184612729565b92915050565b600081519050919050565b600082825260208201905092915050565b6000819050602082019050919050565b61278881612717565b82525050565b600061279a838361277f565b60208301905092915050565b6000602082019050919050565b60006127be82612753565b6127c8818561275e565b93506127d38361276f565b8060005b838110156128045781516127eb888261278e565b97506127f6836127a6565b9250506001810190506127d7565b5085935050505092915050565b6000602082019050818103600083015261282b81846127b3565b905092915050565b6000604051905090565b600080fd5b600080fd5b60008115159050919050565b61285c81612847565b811461286757600080fd5b50565b60008135905061287981612853565b92915050565b6000602082840312156128955761289461283d565b5b60006128a38482850161286a565b91505092915050565b6128b581612717565b81146128c057600080fd5b50565b6000813590506128d2816128ac565b92915050565b6000819050919050565b6128eb816128d8565b81146128f657600080fd5b50565b600081359050612908816128e2565b92915050565b600060ff82169050919050565b6129248161290e565b811461292f57600080fd5b50565b6000813590506129418161291b565b92915050565b6000806000606084860312156129605761295f61283d565b5b600061296e868287016128c3565b935050602061297f868287016128f9565b925050604061299086828701612932565b9150509250925092565b600080fd5b600080fd5b6000601f19601f8301169050919050565b7f4e487b7100000000000000000000000000000000000000000000000000000000600052604160045260246000fd5b6129ed826129a4565b810181811067ffffffffffffffff82111715612a0c57612a0b6129b5565b5b80604052505050565b6000612a1f612833565b9050612a2b82826129e4565b919050565b600067ffffffffffffffff821115612a4b57612a4a6129b5565b5b612a54826129a4565b9050602081019050919050565b82818337600083830152505050565b6000612a83612a7e84612a30565b612a15565b905082815260208101848484011115612a9f57612a9e61299f565b5b612aaa848285612a61565b509392505050565b600082601f830112612ac757612ac661299a565b5b8135612ad7848260208601612a70565b91505092915050565b6000819050919050565b612af381612ae0565b8114612afe57600080fd5b50565b600081359050612b1081612aea565b92915050565b600080600060608486031215612b2f57612b2e61283d565b5b6000612b3d868287016128c3565b935050602084013567ffffffffffffffff811115612b5e57612b5d612842565b5b612b6a86828701612ab2565b9250506040612b7b86828701612b01565b9150509250925092565b612b8e8161290e565b82525050565b612b9d81612ae0565b82525050565b6000606082019050612bb86000830186612b85565b612bc56020830185612b94565b612bd26040830184612729565b949350505050565b600060208284031215612bf057612bef61283d565b5b6000612bfe848285016128c3565b91505092915050565b612c1081612847565b82525050565b6000602082019050612c2b6000830184612c07565b92915050565b6000608082019050612c466000830187612c07565b612c536020830186612c07565b612c606040830185612c07565b612c6d6060830184612b94565b95945050505050565b6000602082019050612c8b6000830184612b94565b92915050565b600081519050919050565b600082825260208201905092915050565b6000819050602082019050919050565b612cc6816128d8565b82525050565b6000612cd88383612cbd565b60208301905092915050565b6000602082019050919050565b6000612cfc82612c91565b612d068185612c9c565b9350612d1183612cad565b8060005b83811015612d42578151612d298882612ccc565b9750612d3483612ce4565b925050600181019050612d15565b5085935050505092915050565b60006020820190508181036000830152612d698184612cf1565b905092915050565b600060208284031215612d8757612d8661283d565b5b6000612d95848285016128f9565b91505092915050565b6000602082019050612db36000830184612b85565b92915050565b60008060008060808587031215612dd357612dd261283d565b5b6000612de1878288016128c3565b945050602085013567ffffffffffffffff811115612e0257612e01612842565b5b612e0e87828801612ab2565b9350506040612e1f87828801612b01565b9250506060612e3087828801612932565b91505092959194509250565b600081519050919050565b600082825260208201905092915050565b6000819050602082019050919050565b612e7181612ae0565b82525050565b604082016000820151612e8d600085018261277f565b506020820151612ea06020850182612e68565b50505050565b6000612eb28383612e77565b60408301905092915050565b6000602082019050919050565b6000612ed682612e3c565b612ee08185612e47565b9350612eeb83612e58565b8060005b83811015612f1c578151612f038882612ea6565b9750612f0e83612ebe565b925050600181019050612eef565b5085935050505092915050565b60006020820190508181036000830152612f438184612ecb565b905092915050565b60008060408385031215612f6257612f6161283d565b5b6000612f70858286016128f9565b9250506020612f81858286016128c3565b9150509250929050565b60008060408385031215612fa257612fa161283d565b5b6000612fb0858286016128c3565b9250506020612fc18582860161286a565b9150509250929050565b7f4e487b7100000000000000000000000000000000000000000000000000000000600052603260045260246000fd5b600082825260208201905092915050565b7f43616c6c6572206973206e6f7420636f6e7472616374206f776e657200000000600082015250565b6000613041601c83612ffa565b915061304c8261300b565b602082019050919050565b6000602082019050818103600083015261307081613034565b9050919050565b7f436f6e74726163742069732063757272656e746c79206e6f74206f706572617460008201527f696f6e616c000000000000000000000000000000000000000000000000000000602082015250565b60006130d3602583612ffa565b91506130de82613077565b604082019050919050565b60006020820190508181036000830152613102816130c6565b9050919050565b7f436f6e747261637473206e6f7420616c6c6f7765640000000000000000000000600082015250565b600061313f601583612ffa565b915061314a82613109565b602082019050919050565b6000602082019050818103600083015261316e81613132565b9050919050565b7f50617373656e67657220646f6573206e6f7420686176652062616c616e636500600082015250565b60006131ab601f83612ffa565b91506131b682613175565b602082019050919050565b600060208201905081810360008301526131da8161319e565b9050919050565b7f4e6f7420616e20617574686f72697a656420636f6e74726163742063616c6c00600082015250565b6000613217601f83612ffa565b9150613222826131e1565b602082019050919050565b600060208201905081810360008301526132468161320a565b9050919050565b7f4169726c696e65206e6f74207965742066756e64656400000000000000000000600082015250565b6000613283601683612ffa565b915061328e8261324d565b602082019050919050565b600060208201905081810360008301526132b281613276565b9050919050565b7f466c69676874206973206e6f7420726567697374657265640000000000000000600082015250565b60006132ef601883612ffa565b91506132fa826132b9565b602082019050919050565b6000602082019050818103600083015261331e816132e2565b9050919050565b7f4f6e6c79206169726c696e65206f776e65722063616e2075706461746520666c60008201527f6967687400000000000000000000000000000000000000000000000000000000602082015250565b6000613381602483612ffa565b915061338c82613325565b604082019050919050565b600060208201905081810360008301526133b081613374565b9050919050565b7f466c69676874206e6f7420726567697374657265640000000000000000000000600082015250565b60006133ed601583612ffa565b91506133f8826133b7565b602082019050919050565b6000602082019050818103600083015261341c816133e0565b9050919050565b7f4169726c696e6573206973206e6f742072656769737465726564000000000000600082015250565b6000613459601a83612ffa565b915061346482613423565b602082019050919050565b600060208201905081810360008301526134888161344c565b9050919050565b7f4f6e6c79206669727374206169726c696e652063616e2062652072656769737460008201527f6572656420686572650000000000000000000000000000000000000000000000602082015250565b60006134eb602983612ffa565b91506134f68261348f565b604082019050919050565b6000602082019050818103600083015261351a816134de565b9050919050565b7f4d696e20696e737572616e636520697320312077656920616e64206d6178206960008201527f6e737572616e6365206973203120657468657200000000000000000000000000602082015250565b600061357d603383612ffa565b915061358882613521565b604082019050919050565b600060208201905081810360008301526135ac81613570565b9050919050565b7f4169726c696e65206e6f74207965742061636365707465640000000000000000600082015250565b60006135e9601883612ffa565b91506135f4826135b3565b602082019050919050565b60006020820190508181036000830152613618816135dc565b9050919050565b7f313020657468657220726571756972656420666f722066756e64696e67000000600082015250565b6000613655601d83612ffa565b91506136608261361f565b602082019050919050565b6000602082019050818103600083015261368481613648565b9050919050565b7f4169726c696e6520616c72656164792066756e64656400000000000000000000600082015250565b60006136c1601683612ffa565b91506136cc8261368b565b602082019050919050565b600060208201905081810360008301526136f0816136b4565b9050919050565b7f4169726c696e6520616c72656164792072656769737465726564000000000000600082015250565b600061372d601a83612ffa565b9150613738826136f7565b602082019050919050565b6000602082019050818103600083015261375c81613720565b9050919050565b7f4169726c696e652073686f756c6420626520726567697374657265642066697260008201527f7374000000000000000000000000000000000000000000000000000000000000602082015250565b60006137bf602283612ffa565b91506137ca82613763565b604082019050919050565b600060208201905081810360008301526137ee816137b2565b9050919050565b7f4e487b7100000000000000000000000000000000000000000000000000000000600052601160045260246000fd5b600061382f82612ae0565b91507fffffffffffffffffffffffffffffffffffffffffffffffffffffffffffffffff8203613861576138606137f5565b5b600182019050919050565b60008160601b9050919050565b60006138848261386c565b9050919050565b600061389682613879565b9050919050565b6138ae6138a982612717565b61388b565b82525050565b600081519050919050565b600081905092915050565b60005b838110156138e85780820151818401526020810190506138cd565b60008484015250505050565b60006138ff826138b4565b61390981856138bf565b93506139198185602086016138ca565b80840191505092915050565b6000819050919050565b61394061393b82612ae0565b613925565b82525050565b6000613952828661389d565b60148201915061396282856138f4565b915061396e828461392f565b602082019150819050949350505050565b600061398a82612ae0565b915061399583612ae0565b9250817fffffffffffffffffffffffffffffffffffffffffffffffffffffffffffffffff04831182151516156139ce576139cd6137f5565b5b828202905092915050565b7f4e487b7100000000000000000000000000000000000000000000000000000000600052601260045260246000fd5b6000613a1382612ae0565b9150613a1e83612ae0565b925082613a2e57613a2d6139d9565b5b828204905092915050565b6000613a4482612ae0565b9150613a4f83612ae0565b9250828201905080821115613a6757613a666137f5565b5b9291505056fea2646970667358221220fb1ca3cc7626b39e117cb59674d0a789fa351b821d897f21753671cf026a7c6064736f6c63430008100033",
  "immutableReferences": {},
  "source": "// SPDX-License-Identifier: MIT\npragma solidity ^0.8.16;\n\nimport \"@openzeppelin/contracts/utils/math/SafeMath.sol\";\n\ncontract FlightSuretyData {\n\n    using SafeMath for uint256;\n\n    /********************************************************************************************/\n    /*                                       DATA VARIABLES                                     */\n    /********************************************************************************************/\n    // Account used to deploy contract\n    address private contractOwner;                                      \n\n    // Blocks all state changes throughout the contract if false\n    bool private operational = true;                                    \n\n    // Only authorized contracts can perform write transactions\n    mapping(address => bool) private authorized;\n     \n    // Airlines information\n    struct Airline {\n        bool isRegistered;\n        bool isAccepted;\n        bool isFunded;\n        uint256 balance;\n    }\n    mapping(address => Airline) private airlines;\n    address[] private airlinesArray = new address[](0);\n    \n    // Flights information\n    struct Flight {\n        bool isRegistered;\n        uint8 statusCode;\n        uint256 updatedTimestamp;        \n        address airline;\n    }\n    mapping(bytes32 => Flight) private flights;\n    bytes32[] private flightsArray = new bytes32[](0);\n    \n    // Insurances information\n    struct Insurance {\n        address passenger;\n        uint256 amount;\n    }\n    mapping(bytes32 => Insurance[]) private insurances;\n\n    // Passengers balances\n    mapping(address => uint256) private balances;\n\n    /********************************************************************************************/\n    /*                                       EVENT DEFINITIONS                                  */\n    /********************************************************************************************/\n    constructor () {\n        contractOwner = msg.sender;\n    }\n\n    /********************************************************************************************/\n    /*                                       FUNCTION MODIFIERS                                 */\n    /********************************************************************************************/\n    modifier requireIsOperational() {\n        require(operational, \"Contract is currently not operational\");\n        _;\n    }\n\n    modifier requireContractOwner() {\n        require(tx.origin == contractOwner, \"Caller is not contract owner\");\n        _;\n    }\n\n    modifier requireAuthorizedContract() {\n        require(authorized[msg.sender] == true, \"Not an authorized contract call\");\n        _;\n    }\n\n    modifier requireAcceptedAirline(){\n        require(airlines[msg.sender].isAccepted, \"Airline not yet accepted\");\n        _;\n    }\n\n    modifier requireFundedAirline(address account){\n        require(airlines[account].isFunded, \"Airline not yet funded\");\n        _;\n    }\n\n\n    /********************************************************************************************/\n    /*                                       UTILITY FUNCTIONS                                  */\n    /********************************************************************************************/\n    function isOperational() public view returns(bool)  {\n        return operational;\n    }\n\n    function setOperatingStatus (bool status) external requireContractOwner {\n        operational = status;\n    }\n\n    function isAuthorizedContract(address contractAddress) external view returns(bool) {\n        return authorized[contractAddress];\n    }\n\n    function setAuthorizedContract(address contractAddress, bool status) external requireContractOwner {\n        authorized[contractAddress] = status;\n    }\n\n    function getFirstAirline() external view returns(address) {\n        return airlinesArray[0];\n    }\n\n    function getNumAirlines () external view returns (uint256) {\n        return airlinesArray.length;\n    }\n\n    function isRegisteredAirline(address account) external view returns(bool){\n        return airlines[account].isRegistered;\n    }\n\n    function isAcceptedAirline(address account) external view returns(bool){\n        return airlines[account].isAccepted;\n    }\n\n\n    function isFundedAirline(address account) external view returns(bool){\n        return airlines[account].isFunded;\n    }\n\n    function getAirlineBalance(address account) external view returns (uint256) {\n        require(airlines[account].isRegistered, \"Airlines is not registered\");\n        return (airlines[account].balance);\n    }\n\n    function getAirlineInfo(address account) external view returns (bool, bool, bool, uint256) {\n        require(airlines[account].isRegistered, \"Airlines is not registered\");\n        Airline memory aux = airlines[account];\n        return (aux.isRegistered, aux.isAccepted, aux.isFunded, aux.balance);\n    }\n\n    function getAirlines() external view returns (address[] memory) {\n        return airlinesArray;\n    }\n\n    function getFlightInfo(address airline, string memory flight, uint256 timestamp) external view returns (uint8 statusCode, uint256 updatedTimestamp, address flightAirline) {\n        bytes32 key = getFlightKey(airline, flight, timestamp);\n        require(flights[key].isRegistered == true, \"Flight not registered\");\n        Flight memory aux = flights[key];\n        return (aux.statusCode, aux.updatedTimestamp, aux.airline);\n    }\n\n    function getFlightStatus(address airline, string memory flight, uint256 timestamp) external view returns (uint8 statusCode) {\n        bytes32 key = getFlightKey(airline, flight, timestamp);\n        require(flights[key].isRegistered == true, \"Flight not registered\");\n        return (flights[key].statusCode);\n    }\n\n    function getFlights() external view returns (bytes32[] memory) {\n        return flightsArray;\n    }\n\n    function getInsuranceInfo(bytes32 flight, address passenger) external view returns (uint256 amount) {\n        Insurance[] memory aux = insurances[flight];\n        for (uint256 i = 0; i < aux.length; i++) {\n            if ( aux[i].passenger == passenger) {\n                return aux[i].amount;\n            }\n        }\n    }\n\n    function getInsurances(bytes32 flight) external view returns (Insurance[] memory) {\n        return insurances[flight];\n    }\n\n    /********************************************************************************************/\n    /*          SMART CONTRACT FUNCTIONS CAN BE CALLED ONLY FROM APP CONTRACT                   */\n    /********************************************************************************************/\n    function registerFirstAirline (address account) external requireIsOperational requireContractOwner {\n        require(airlinesArray.length == 0, \"Only first airline can be registered here\");\n        airlines[account] = Airline(true, true, false, 0);\n        airlinesArray.push(account);\n    }\n\n    function registerAirline (address account) external requireIsOperational requireAuthorizedContract {\n        require(!airlines[account].isRegistered, \"Airline already registered\");\n        airlines[account] = Airline(true, false, false, 0);\n    }\n\n    function acceptAirline (address account) external requireIsOperational requireAuthorizedContract {\n        require(airlines[account].isRegistered, \"Airline should be registered first\");\n        airlines[account].isAccepted = true;\n        airlinesArray.push(account);\n    }\n\n    function registerFlight (address airline, string memory flight, uint256 timestamp, uint8 status) external requireIsOperational requireAuthorizedContract requireFundedAirline(airline) {\n        bytes32 key = getFlightKey(airline, flight, timestamp);\n        flights[key] = Flight(true, status, timestamp, airline);\n        flightsArray.push(key);\n    }\n\n    function updateFlight (address airline, bytes32 flight, uint8 status) external requireIsOperational requireAuthorizedContract requireFundedAirline(airline) {\n        require(flights[flight].isRegistered == true, \"Flight is not registered\");\n        require(flights[flight].airline == airline, \"Only airline owner can update flight\");\n        flights[flight].statusCode = status;\n        flights[flight].updatedTimestamp = block.timestamp;\n\n    }\n    \n    function creditInsurees (bytes32 flight) external requireIsOperational requireAuthorizedContract {\n        Insurance[] memory aux = insurances[flight];\n        for (uint256 i = 0; i < aux.length; i++) {\n            address passenger = aux[i].passenger;\n            uint256 amount = aux[i].amount;\n            uint256 balance = balances[passenger];\n            uint256 payment = SafeMath.div(SafeMath.mul(amount, 15), 100);\n            aux[i].amount = 0;\n            balances[passenger] = SafeMath.add(balance, payment);\n        }\n    }\n    /********************************************************************************************/\n    /*               SMART CONTRACT FUNCTIONS THAT CAN BE CALLED DIRECTLY FROM EOA              */\n    /********************************************************************************************/\n    function fund () public payable requireIsOperational requireAcceptedAirline {\n        require(msg.value == 10 ether, \"10 ether required for funding\");\n        require(airlines[msg.sender].isFunded == false, \"Airline already funded\");\n        airlines[msg.sender].balance = msg.value;\n        airlines[msg.sender].isFunded = true;\n    }\n\n    function buy (bytes32 flight) external payable requireIsOperational {\n        require(msg.value > 0 && msg.value <= 1 ether, \"Min insurance is 1 wei and max insurance is 1 ether\");\n        require(flights[flight].isRegistered == true, \"Flight not registered\");\n        insurances[flight].push(Insurance(msg.sender, msg.value));\n    }\n\n    function pay () external requireIsOperational {\n        require(msg.sender == tx.origin, \"Contracts not allowed\");\n        require(balances[msg.sender] > 0, \"Passenger does not have balance\");\n        uint256 withdraw = balances[msg.sender];\n        balances[msg.sender] = 0;\n        payable(msg.sender).transfer(withdraw);\n    }\n\n    /********************************************************************************************/\n    /*                  AUXILIARY METHODS INTERNAL TO SMART CONTRACT                            */\n    /********************************************************************************************/\n    function getFlightKey (address airline, string memory flight, uint256 timestamp) pure internal returns(bytes32) {\n        return keccak256(abi.encodePacked(airline, flight, timestamp));\n    }\n}",
  "sourcePath": "/home/isma/Desktop/code/blockchain/FlightSurety/contracts/FlightSuretyData.sol",
  "compiler": {
    "name": "solc",
    "version": "0.8.16+commit.07a7930e.Emscripten.clang"
  },
  "schemaVersion": "3.4.9",
  "updatedAt": "2022-09-18T05:46:30.931Z",
  "devdoc": {
    "kind": "dev",
    "methods": {},
    "version": 1
  },
  "userdoc": {
    "kind": "user",
    "methods": {},
    "version": 1
  }
}