{
  "contractName": "FlightSuretyApp",
  "abi": [
    {
      "inputs": [
        {
          "internalType": "address",
          "name": "dataContract",
          "type": "address"
        },
        {
          "internalType": "address",
          "name": "firstAirline",
          "type": "address"
        }
      ],
      "stateMutability": "nonpayable",
      "type": "constructor"
    },
    {
      "anonymous": false,
      "inputs": [
        {
          "indexed": false,
          "internalType": "address",
          "name": "airline",
          "type": "address"
        },
        {
          "indexed": false,
          "internalType": "bytes32",
          "name": "flight",
          "type": "bytes32"
        },
        {
          "indexed": false,
          "internalType": "uint256",
          "name": "timestamp",
          "type": "uint256"
        },
        {
          "indexed": false,
          "internalType": "uint8",
          "name": "status",
          "type": "uint8"
        }
      ],
      "name": "FlightStatusInfo",
      "type": "event"
    },
    {
      "anonymous": false,
      "inputs": [
        {
          "indexed": false,
          "internalType": "address",
          "name": "airline",
          "type": "address"
        },
        {
          "indexed": false,
          "internalType": "bytes32",
          "name": "flight",
          "type": "bytes32"
        },
        {
          "indexed": false,
          "internalType": "uint256",
          "name": "timestamp",
          "type": "uint256"
        },
        {
          "indexed": false,
          "internalType": "uint8",
          "name": "status",
          "type": "uint8"
        }
      ],
      "name": "OracleReport",
      "type": "event"
    },
    {
      "anonymous": false,
      "inputs": [
        {
          "indexed": false,
          "internalType": "uint8",
          "name": "index",
          "type": "uint8"
        },
        {
          "indexed": false,
          "internalType": "address",
          "name": "airline",
          "type": "address"
        },
        {
          "indexed": false,
          "internalType": "bytes32",
          "name": "flight",
          "type": "bytes32"
        },
        {
          "indexed": false,
          "internalType": "uint256",
          "name": "timestamp",
          "type": "uint256"
        }
      ],
      "name": "OracleRequest",
      "type": "event"
    },
    {
      "inputs": [],
      "name": "REGISTRATION_FEE",
      "outputs": [
        {
          "internalType": "uint256",
          "name": "",
          "type": "uint256"
        }
      ],
      "stateMutability": "view",
      "type": "function"
    },
    {
      "inputs": [],
      "name": "isOperational",
      "outputs": [
        {
          "internalType": "bool",
          "name": "",
          "type": "bool"
        }
      ],
      "stateMutability": "view",
      "type": "function"
    },
    {
      "inputs": [
        {
          "internalType": "uint8",
          "name": "index",
          "type": "uint8"
        },
        {
          "internalType": "address",
          "name": "airline",
          "type": "address"
        },
        {
          "internalType": "bytes32",
          "name": "flight",
          "type": "bytes32"
        },
        {
          "internalType": "uint256",
          "name": "timestamp",
          "type": "uint256"
        },
        {
          "internalType": "uint8",
          "name": "status",
          "type": "uint8"
        }
      ],
      "name": "getOracleResponses",
      "outputs": [
        {
          "internalType": "address",
          "name": "requester",
          "type": "address"
        },
        {
          "internalType": "bool",
          "name": "isOpen",
          "type": "bool"
        },
        {
          "internalType": "address[]",
          "name": "responses",
          "type": "address[]"
        }
      ],
      "stateMutability": "view",
      "type": "function"
    },
    {
      "inputs": [
        {
          "internalType": "address",
          "name": "account",
          "type": "address"
        }
      ],
      "name": "registerAirline",
      "outputs": [
        {
          "internalType": "bool",
          "name": "success",
          "type": "bool"
        },
        {
          "internalType": "uint256",
          "name": "votes",
          "type": "uint256"
        }
      ],
      "stateMutability": "nonpayable",
      "type": "function"
    },
    {
      "inputs": [
        {
          "internalType": "address",
          "name": "account",
          "type": "address"
        }
      ],
      "name": "voteAirline",
      "outputs": [],
      "stateMutability": "nonpayable",
      "type": "function"
    },
    {
      "inputs": [
        {
          "internalType": "string",
          "name": "flight",
          "type": "string"
        },
        {
          "internalType": "uint256",
          "name": "timestamp",
          "type": "uint256"
        }
      ],
      "name": "registerFlight",
      "outputs": [],
      "stateMutability": "nonpayable",
      "type": "function"
    },
    {
      "inputs": [
        {
          "internalType": "address",
          "name": "airline",
          "type": "address"
        },
        {
          "internalType": "bytes32",
          "name": "flight",
          "type": "bytes32"
        },
        {
          "internalType": "uint256",
          "name": "timestamp",
          "type": "uint256"
        }
      ],
      "name": "fetchFlightStatus",
      "outputs": [],
      "stateMutability": "nonpayable",
      "type": "function"
    },
    {
      "inputs": [],
      "name": "registerOracle",
      "outputs": [],
      "stateMutability": "payable",
      "type": "function"
    },
    {
      "inputs": [],
      "name": "getMyIndexes",
      "outputs": [
        {
          "internalType": "uint8[3]",
          "name": "",
          "type": "uint8[3]"
        }
      ],
      "stateMutability": "view",
      "type": "function"
    },
    {
      "inputs": [
        {
          "internalType": "uint8",
          "name": "index",
          "type": "uint8"
        },
        {
          "internalType": "address",
          "name": "airline",
          "type": "address"
        },
        {
          "internalType": "bytes32",
          "name": "flight",
          "type": "bytes32"
        },
        {
          "internalType": "uint256",
          "name": "timestamp",
          "type": "uint256"
        },
        {
          "internalType": "uint8",
          "name": "statusCode",
          "type": "uint8"
        }
      ],
      "name": "submitOracleResponse",
      "outputs": [],
      "stateMutability": "nonpayable",
      "type": "function"
    }
  ],
  "bytecode": "0x60806040526000600360006101000a81548160ff021916908360ff1602179055503480156200002d57600080fd5b50604051620030ab380380620030ab833981810160405281019062000053919062000274565b336000806101000a81548173ffffffffffffffffffffffffffffffffffffffff021916908373ffffffffffffffffffffffffffffffffffffffff16021790555081600160006101000a81548173ffffffffffffffffffffffffffffffffffffffff021916908373ffffffffffffffffffffffffffffffffffffffff1602179055506000600160009054906101000a900473ffffffffffffffffffffffffffffffffffffffff1673ffffffffffffffffffffffffffffffffffffffff16637ab21cdc6040518163ffffffff1660e01b8152600401602060405180830381865afa15801562000144573d6000803e3d6000fd5b505050506040513d601f19601f820116820180604052508101906200016a9190620002f6565b036200020257600160009054906101000a900473ffffffffffffffffffffffffffffffffffffffff1673ffffffffffffffffffffffffffffffffffffffff16637d2ab0de826040518263ffffffff1660e01b8152600401620001cd919062000339565b600060405180830381600087803b158015620001e857600080fd5b505af1158015620001fd573d6000803e3d6000fd5b505050505b505062000356565b600080fd5b600073ffffffffffffffffffffffffffffffffffffffff82169050919050565b60006200023c826200020f565b9050919050565b6200024e816200022f565b81146200025a57600080fd5b50565b6000815190506200026e8162000243565b92915050565b600080604083850312156200028e576200028d6200020a565b5b60006200029e858286016200025d565b9250506020620002b1858286016200025d565b9150509250929050565b6000819050919050565b620002d081620002bb565b8114620002dc57600080fd5b50565b600081519050620002f081620002c5565b92915050565b6000602082840312156200030f576200030e6200020a565b5b60006200031f84828501620002df565b91505092915050565b62000333816200022f565b82525050565b600060208201905062000350600083018462000328565b92915050565b612d4580620003666000396000f3fe6080604052600436106100915760003560e01c8063bdfd987711610059578063bdfd987714610148578063cd905dff14610186578063d8ab5b89146101b1578063d9da99c8146101da578063dd9548b51461021957610091565b8063339d25901461009657806339cfc995146100a05780635f1cc0e6146100c957806364b4f751146100f4578063964177671461011f575b600080fd5b61009e610242565b005b3480156100ac57600080fd5b506100c760048036038101906100c29190611ce6565b61032f565b005b3480156100d557600080fd5b506100de6103c7565b6040516100eb9190611dfa565b60405180910390f35b34801561010057600080fd5b50610109610507565b6040516101169190611e24565b60405180910390f35b34801561012b57600080fd5b5061014660048036038101906101419190611eff565b610513565b005b34801561015457600080fd5b5061016f600480360381019061016a9190611f7a565b6108d0565b60405161017d929190611fc2565b60405180910390f35b34801561019257600080fd5b5061019b610e11565b6040516101a89190611feb565b60405180910390f35b3480156101bd57600080fd5b506101d860048036038101906101d39190611f7a565b610ea9565b005b3480156101e657600080fd5b5061020160048036038101906101fc9190611eff565b611421565b604051610210939291906120d3565b60405180910390f35b34801561022557600080fd5b50610240600480360381019061023b9190612111565b61155b565b005b670de0b6b3a764000034101561028d576040517f08c379a0000000000000000000000000000000000000000000000000000000008152600401610284906121c1565b60405180910390fd5b600061029833611655565b9050604051806040016040528060011515815260200182815250600460003373ffffffffffffffffffffffffffffffffffffffff1673ffffffffffffffffffffffffffffffffffffffff16815260200190815260200160002060008201518160000160006101000a81548160ff0219169083151502179055506020820151816001019060036103289291906119f3565b5090505050565b600160009054906101000a900473ffffffffffffffffffffffffffffffffffffffff1673ffffffffffffffffffffffffffffffffffffffff1663d9d4122633848460006040518563ffffffff1660e01b8152600401610391949392919061225e565b600060405180830381600087803b1580156103ab57600080fd5b505af11580156103bf573d6000803e3d6000fd5b505050505050565b6103cf611a8d565b600460003373ffffffffffffffffffffffffffffffffffffffff1673ffffffffffffffffffffffffffffffffffffffff16815260200190815260200160002060000160009054906101000a900460ff1661045e576040517f08c379a0000000000000000000000000000000000000000000000000000000008152600401610455906122f6565b60405180910390fd5b600460003373ffffffffffffffffffffffffffffffffffffffff1673ffffffffffffffffffffffffffffffffffffffff1681526020019081526020016000206001016003806020026040519081016040528092919082600380156104fd576020028201916000905b82829054906101000a900460ff1660ff16815260200190600101906020826000010492830192600103820291508084116104c65790505b5050505050905090565b670de0b6b3a764000081565b8460ff16600460003373ffffffffffffffffffffffffffffffffffffffff1673ffffffffffffffffffffffffffffffffffffffff16815260200190815260200160002060010160006003811061056c5761056b612316565b5b602091828204019190069054906101000a900460ff1660ff16148061060057508460ff16600460003373ffffffffffffffffffffffffffffffffffffffff1673ffffffffffffffffffffffffffffffffffffffff1681526020019081526020016000206001016001600381106105e5576105e4612316565b5b602091828204019190069054906101000a900460ff1660ff16145b8061067a57508460ff16600460003373ffffffffffffffffffffffffffffffffffffffff1673ffffffffffffffffffffffffffffffffffffffff16815260200190815260200160002060010160026003811061065f5761065e612316565b5b602091828204019190069054906101000a900460ff1660ff16145b6106b9576040517f08c379a00000000000000000000000000000000000000000000000000000000081526004016106b0906123b7565b60405180910390fd5b6000858585856040516020016106d29493929190612497565b6040516020818303038152906040528051906020012090506005600082815260200190815260200160002060000160149054906101000a900460ff1661074d576040517f08c379a000000000000000000000000000000000000000000000000000000000815260040161074490612557565b60405180910390fd5b6005600082815260200190815260200160002060010160008360ff1660ff168152602001908152602001600020339080600181540180825580915050600190039060005260206000200160009091909190916101000a81548173ffffffffffffffffffffffffffffffffffffffff021916908373ffffffffffffffffffffffffffffffffffffffff1602179055507f06354a194cc1aa38c93009e264262f1db6b56a5e6dc2be2c7596a94b980c2f85858585856040516108109493929190612586565b60405180910390a160036005600083815260200190815260200160002060010160008460ff1660ff16815260200190815260200160002080549050106108c85760006005600083815260200190815260200160002060000160146101000a81548160ff0219169083151502179055507f2c01e4c91c66eba4e28833dfd0d7db5b12558c3773d8fe5ab88cbaafb423056e858585856040516108b49493929190612586565b60405180910390a16108c78585846117f5565b5b505050505050565b6000806004600160009054906101000a900473ffffffffffffffffffffffffffffffffffffffff1673ffffffffffffffffffffffffffffffffffffffff16637ab21cdc6040518163ffffffff1660e01b8152600401602060405180830381865afa158015610942573d6000803e3d6000fd5b505050506040513d601f19601f8201168201806040525081019061096691906125e0565b1015610c6b57600160009054906101000a900473ffffffffffffffffffffffffffffffffffffffff1673ffffffffffffffffffffffffffffffffffffffff166302eb72ad6040518163ffffffff1660e01b8152600401602060405180830381865afa1580156109d9573d6000803e3d6000fd5b505050506040513d601f19601f820116820180604052508101906109fd9190612622565b73ffffffffffffffffffffffffffffffffffffffff163373ffffffffffffffffffffffffffffffffffffffff1614610a6a576040517f08c379a0000000000000000000000000000000000000000000000000000000008152600401610a61906126c1565b60405180910390fd5b600160009054906101000a900473ffffffffffffffffffffffffffffffffffffffff1673ffffffffffffffffffffffffffffffffffffffff1663f3ba4e1b336040518263ffffffff1660e01b8152600401610ac591906126e1565b602060405180830381865afa158015610ae2573d6000803e3d6000fd5b505050506040513d601f19601f82011682018060405250810190610b069190612728565b610b45576040517f08c379a0000000000000000000000000000000000000000000000000000000008152600401610b3c906127c7565b60405180910390fd5b600160009054906101000a900473ffffffffffffffffffffffffffffffffffffffff1673ffffffffffffffffffffffffffffffffffffffff1663bdfd9877846040518263ffffffff1660e01b8152600401610ba091906126e1565b600060405180830381600087803b158015610bba57600080fd5b505af1158015610bce573d6000803e3d6000fd5b50505050600160009054906101000a900473ffffffffffffffffffffffffffffffffffffffff1673ffffffffffffffffffffffffffffffffffffffff1663bf1d9156846040518263ffffffff1660e01b8152600401610c2d91906126e1565b600060405180830381600087803b158015610c4757600080fd5b505af1158015610c5b573d6000803e3d6000fd5b5050505060018091509150610e0c565b8273ffffffffffffffffffffffffffffffffffffffff163373ffffffffffffffffffffffffffffffffffffffff1614610cd9576040517f08c379a0000000000000000000000000000000000000000000000000000000008152600401610cd09061287f565b60405180910390fd5b600160009054906101000a900473ffffffffffffffffffffffffffffffffffffffff1673ffffffffffffffffffffffffffffffffffffffff1663bdfd9877336040518263ffffffff1660e01b8152600401610d3491906126e1565b600060405180830381600087803b158015610d4e57600080fd5b505af1158015610d62573d6000803e3d6000fd5b50505050600067ffffffffffffffff811115610d8157610d80611b85565b5b604051908082528060200260200182016040528015610daf5781602001602082028036833780820191505090505b50600260003373ffffffffffffffffffffffffffffffffffffffff1673ffffffffffffffffffffffffffffffffffffffff1681526020019081526020016000209080519060200190610e02929190611aaf565b5060016000915091505b915091565b6000600160009054906101000a900473ffffffffffffffffffffffffffffffffffffffff1673ffffffffffffffffffffffffffffffffffffffff1663cd905dff6040518163ffffffff1660e01b8152600401602060405180830381865afa158015610e80573d6000803e3d6000fd5b505050506040513d601f19601f82011682018060405250810190610ea49190612728565b905090565b6000600160009054906101000a900473ffffffffffffffffffffffffffffffffffffffff1673ffffffffffffffffffffffffffffffffffffffff16637ab21cdc6040518163ffffffff1660e01b8152600401602060405180830381865afa158015610f18573d6000803e3d6000fd5b505050506040513d601f19601f82011682018060405250810190610f3c91906125e0565b90506004811015610f82576040517f08c379a0000000000000000000000000000000000000000000000000000000008152600401610f7990612911565b60405180910390fd5b600160009054906101000a900473ffffffffffffffffffffffffffffffffffffffff1673ffffffffffffffffffffffffffffffffffffffff1663a78d9799836040518263ffffffff1660e01b8152600401610fdd91906126e1565b602060405180830381865afa158015610ffa573d6000803e3d6000fd5b505050506040513d601f19601f8201168201806040525081019061101e9190612728565b61105d576040517f08c379a0000000000000000000000000000000000000000000000000000000008152600401611054906129a3565b60405180910390fd5b600160009054906101000a900473ffffffffffffffffffffffffffffffffffffffff1673ffffffffffffffffffffffffffffffffffffffff166380c575f0836040518263ffffffff1660e01b81526004016110b891906126e1565b602060405180830381865afa1580156110d5573d6000803e3d6000fd5b505050506040513d601f19601f820116820180604052508101906110f99190612728565b15611139576040517f08c379a000000000000000000000000000000000000000000000000000000000815260040161113090612a35565b60405180910390fd5b6000805b600260008573ffffffffffffffffffffffffffffffffffffffff1673ffffffffffffffffffffffffffffffffffffffff16815260200190815260200160002080549050811015611251573373ffffffffffffffffffffffffffffffffffffffff16600260008673ffffffffffffffffffffffffffffffffffffffff1673ffffffffffffffffffffffffffffffffffffffff16815260200190815260200160002082815481106111ef576111ee612316565b5b9060005260206000200160009054906101000a900473ffffffffffffffffffffffffffffffffffffffff1673ffffffffffffffffffffffffffffffffffffffff160361123e5760019150611251565b808061124990612a84565b91505061113d565b506000151581151514611299576040517f08c379a000000000000000000000000000000000000000000000000000000000815260040161129090612b3e565b60405180910390fd5b600260008473ffffffffffffffffffffffffffffffffffffffff1673ffffffffffffffffffffffffffffffffffffffff168152602001908152602001600020339080600181540180825580915050600190039060005260206000200160009091909190916101000a81548173ffffffffffffffffffffffffffffffffffffffff021916908373ffffffffffffffffffffffffffffffffffffffff1602179055506002826113469190612b8d565b600260008573ffffffffffffffffffffffffffffffffffffffff1673ffffffffffffffffffffffffffffffffffffffff168152602001908152602001600020805490501061141c57600160009054906101000a900473ffffffffffffffffffffffffffffffffffffffff1673ffffffffffffffffffffffffffffffffffffffff1663bf1d9156846040518263ffffffff1660e01b81526004016113e991906126e1565b600060405180830381600087803b15801561140357600080fd5b505af1158015611417573d6000803e3d6000fd5b505050505b505050565b600080606060008888888860405160200161143f9493929190612497565b60405160208183030381529060405280519060200120905060006005600083815260200190815260200160002090508060000160009054906101000a900473ffffffffffffffffffffffffffffffffffffffff168160000160149054906101000a900460ff168260010160008960ff1660ff1681526020019081526020016000208080548060200260200160405190810160405280929190818152602001828054801561154157602002820191906000526020600020905b8160009054906101000a900473ffffffffffffffffffffffffffffffffffffffff1673ffffffffffffffffffffffffffffffffffffffff16815260200190600101908083116114f7575b505050505090509450945094505050955095509592505050565b600061156633611927565b90506000818585856040516020016115819493929190612497565b6040516020818303038152906040528051906020012090506000600560008381526020019081526020016000209050338160000160006101000a81548173ffffffffffffffffffffffffffffffffffffffff021916908373ffffffffffffffffffffffffffffffffffffffff16021790555060018160000160146101000a81548160ff0219169083151502179055507f8b9eb22876717bbfb6bc02e9c693f640e54e5eb49e166ece6d6a70a6cc84a34f838787876040516116459493929190612bbe565b60405180910390a1505050505050565b61165d611a8d565b611665611a8d565b61166e83611927565b8160006003811061168257611681612316565b5b602002019060ff16908160ff168152505060005b601981101561171d576116a884611927565b826001600381106116bc576116bb612316565b5b602002019060ff16908160ff1681525050816001600381106116e1576116e0612316565b5b602002015160ff16826000600381106116fd576116fc612316565b5b602002015160ff160361171d57808061171590612a84565b915050611696565b5060005b60198110156117eb5761173384611927565b8260026003811061174757611746612316565b5b602002019060ff16908160ff16815250508160026003811061176c5761176b612316565b5b602002015160ff168260006003811061178857611787612316565b5b602002015160ff16141580156117d45750816002600381106117ad576117ac612316565b5b602002015160ff16826001600381106117c9576117c8612316565b5b602002015160ff1614155b6117eb5780806117e390612a84565b915050611721565b5080915050919050565b600160009054906101000a900473ffffffffffffffffffffffffffffffffffffffff1673ffffffffffffffffffffffffffffffffffffffff16631c6cd3298484846040518463ffffffff1660e01b815260040161185493929190612c03565b600060405180830381600087803b15801561186e57600080fd5b505af1158015611882573d6000803e3d6000fd5b50505050601460ff168160ff160361192257600160009054906101000a900473ffffffffffffffffffffffffffffffffffffffff1673ffffffffffffffffffffffffffffffffffffffff1663cc2f6eba836040518263ffffffff1660e01b81526004016118ef9190612c3a565b600060405180830381600087803b15801561190957600080fd5b505af115801561191d573d6000803e3d6000fd5b505050505b505050565b600080600a905060008160ff166003600081819054906101000a900460ff168092919061195390612c55565b91906101000a81548160ff021916908360ff16021790555060ff16436119799190612c7e565b408560405160200161198c929190612cb2565b6040516020818303038152906040528051906020012060001c6119af9190612cde565b905060fa600360009054906101000a900460ff1660ff1611156119e9576000600360006101000a81548160ff021916908360ff1602179055505b8092505050919050565b826003601f01602090048101928215611a7c5791602002820160005b83821115611a4d57835183826101000a81548160ff021916908360ff1602179055509260200192600101602081600001049283019260010302611a0f565b8015611a7a5782816101000a81549060ff0219169055600101602081600001049283019260010302611a4d565b505b509050611a899190611b39565b5090565b6040518060600160405280600390602082028036833780820191505090505090565b828054828255906000526020600020908101928215611b28579160200282015b82811115611b275782518260006101000a81548173ffffffffffffffffffffffffffffffffffffffff021916908373ffffffffffffffffffffffffffffffffffffffff16021790555091602001919060010190611acf565b5b509050611b359190611b39565b5090565b5b80821115611b52576000816000905550600101611b3a565b5090565b6000604051905090565b600080fd5b600080fd5b600080fd5b600080fd5b6000601f19601f8301169050919050565b7f4e487b7100000000000000000000000000000000000000000000000000000000600052604160045260246000fd5b611bbd82611b74565b810181811067ffffffffffffffff82111715611bdc57611bdb611b85565b5b80604052505050565b6000611bef611b56565b9050611bfb8282611bb4565b919050565b600067ffffffffffffffff821115611c1b57611c1a611b85565b5b611c2482611b74565b9050602081019050919050565b82818337600083830152505050565b6000611c53611c4e84611c00565b611be5565b905082815260208101848484011115611c6f57611c6e611b6f565b5b611c7a848285611c31565b509392505050565b600082601f830112611c9757611c96611b6a565b5b8135611ca7848260208601611c40565b91505092915050565b6000819050919050565b611cc381611cb0565b8114611cce57600080fd5b50565b600081359050611ce081611cba565b92915050565b60008060408385031215611cfd57611cfc611b60565b5b600083013567ffffffffffffffff811115611d1b57611d1a611b65565b5b611d2785828601611c82565b9250506020611d3885828601611cd1565b9150509250929050565b600060039050919050565b600081905092915050565b6000819050919050565b600060ff82169050919050565b611d7881611d62565b82525050565b6000611d8a8383611d6f565b60208301905092915050565b6000602082019050919050565b611dac81611d42565b611db68184611d4d565b9250611dc182611d58565b8060005b83811015611df2578151611dd98782611d7e565b9650611de483611d96565b925050600181019050611dc5565b505050505050565b6000606082019050611e0f6000830184611da3565b92915050565b611e1e81611cb0565b82525050565b6000602082019050611e396000830184611e15565b92915050565b611e4881611d62565b8114611e5357600080fd5b50565b600081359050611e6581611e3f565b92915050565b600073ffffffffffffffffffffffffffffffffffffffff82169050919050565b6000611e9682611e6b565b9050919050565b611ea681611e8b565b8114611eb157600080fd5b50565b600081359050611ec381611e9d565b92915050565b6000819050919050565b611edc81611ec9565b8114611ee757600080fd5b50565b600081359050611ef981611ed3565b92915050565b600080600080600060a08688031215611f1b57611f1a611b60565b5b6000611f2988828901611e56565b9550506020611f3a88828901611eb4565b9450506040611f4b88828901611eea565b9350506060611f5c88828901611cd1565b9250506080611f6d88828901611e56565b9150509295509295909350565b600060208284031215611f9057611f8f611b60565b5b6000611f9e84828501611eb4565b91505092915050565b60008115159050919050565b611fbc81611fa7565b82525050565b6000604082019050611fd76000830185611fb3565b611fe46020830184611e15565b9392505050565b60006020820190506120006000830184611fb3565b92915050565b61200f81611e8b565b82525050565b600081519050919050565b600082825260208201905092915050565b6000819050602082019050919050565b61204a81611e8b565b82525050565b600061205c8383612041565b60208301905092915050565b6000602082019050919050565b600061208082612015565b61208a8185612020565b935061209583612031565b8060005b838110156120c65781516120ad8882612050565b97506120b883612068565b925050600181019050612099565b5085935050505092915050565b60006060820190506120e86000830186612006565b6120f56020830185611fb3565b81810360408301526121078184612075565b9050949350505050565b60008060006060848603121561212a57612129611b60565b5b600061213886828701611eb4565b935050602061214986828701611eea565b925050604061215a86828701611cd1565b9150509250925092565b600082825260208201905092915050565b7f526567697374726174696f6e2066656520697320726571756972656400000000600082015250565b60006121ab601c83612164565b91506121b682612175565b602082019050919050565b600060208201905081810360008301526121da8161219e565b9050919050565b600081519050919050565b60005b8381101561220a5780820151818401526020810190506121ef565b60008484015250505050565b6000612221826121e1565b61222b8185612164565b935061223b8185602086016121ec565b61224481611b74565b840191505092915050565b61225881611d62565b82525050565b60006080820190506122736000830187612006565b81810360208301526122858186612216565b90506122946040830185611e15565b6122a1606083018461224f565b95945050505050565b7f4e6f74207265676973746572656420617320616e206f7261636c650000000000600082015250565b60006122e0601b83612164565b91506122eb826122aa565b602082019050919050565b6000602082019050818103600083015261230f816122d3565b9050919050565b7f4e487b7100000000000000000000000000000000000000000000000000000000600052603260045260246000fd5b7f496e64657820646f6573206e6f74206d61746368206f7261636c65207265717560008201527f6573740000000000000000000000000000000000000000000000000000000000602082015250565b60006123a1602383612164565b91506123ac82612345565b604082019050919050565b600060208201905081810360008301526123d081612394565b9050919050565b60008160f81b9050919050565b60006123ef826123d7565b9050919050565b61240761240282611d62565b6123e4565b82525050565b60008160601b9050919050565b60006124258261240d565b9050919050565b60006124378261241a565b9050919050565b61244f61244a82611e8b565b61242c565b82525050565b6000819050919050565b61247061246b82611ec9565b612455565b82525050565b6000819050919050565b61249161248c82611cb0565b612476565b82525050565b60006124a382876123f6565b6001820191506124b3828661243e565b6014820191506124c3828561245f565b6020820191506124d38284612480565b60208201915081905095945050505050565b7f466c69676874206f722074696d657374616d7020646f206e6f74206d6174636860008201527f206f7261636c6520726571756573740000000000000000000000000000000000602082015250565b6000612541602f83612164565b915061254c826124e5565b604082019050919050565b6000602082019050818103600083015261257081612534565b9050919050565b61258081611ec9565b82525050565b600060808201905061259b6000830187612006565b6125a86020830186612577565b6125b56040830185611e15565b6125c2606083018461224f565b95945050505050565b6000815190506125da81611cba565b92915050565b6000602082840312156125f6576125f5611b60565b5b6000612604848285016125cb565b91505092915050565b60008151905061261c81611e9d565b92915050565b60006020828403121561263857612637611b60565b5b60006126468482850161260d565b91505092915050565b7f466972737420666f7572206169726c696e65732073686f756c6420626520726560008201527f67697374657265642062792074686520666f756e646572206169726c696e6500602082015250565b60006126ab603f83612164565b91506126b68261264f565b604082019050919050565b600060208201905081810360008301526126da8161269e565b9050919050565b60006020820190506126f66000830184612006565b92915050565b61270581611fa7565b811461271057600080fd5b50565b600081519050612722816126fc565b92915050565b60006020828403121561273e5761273d611b60565b5b600061274c84828501612713565b91505092915050565b7f4669727374206169726c696e65732073686f756c642070726f7669646520667560008201527f6e64696e67206669727374000000000000000000000000000000000000000000602082015250565b60006127b1602b83612164565b91506127bc82612755565b604082019050919050565b600060208201905081810360008301526127e0816127a4565b9050919050565b7f4f6e6c792074686520666f756e646572206169726c696e65732077617320616260008201527f6c6520746f207265676973746572206f74686572206169726c696e657320696e60208201527f207468652062656767696e696e67000000000000000000000000000000000000604082015250565b6000612869604e83612164565b9150612874826127e7565b606082019050919050565b600060208201905081810360008301526128988161285c565b9050919050565b7f5468657265206e65656420746f206265206174206c656173742034206169726c60008201527f696e657320746f20766f746520666f72206a6f696e0000000000000000000000602082015250565b60006128fb603583612164565b91506129068261289f565b604082019050919050565b6000602082019050818103600083015261292a816128ee565b9050919050565b7f4169726c696e6520736f756c642062652072656769737465726564206669727360008201527f7400000000000000000000000000000000000000000000000000000000000000602082015250565b600061298d602183612164565b915061299882612931565b604082019050919050565b600060208201905081810360008301526129bc81612980565b9050919050565b7f4169726c696e652073686f756c646e7420626520616363657074656420616c7260008201527f6561647900000000000000000000000000000000000000000000000000000000602082015250565b6000612a1f602483612164565b9150612a2a826129c3565b604082019050919050565b60006020820190508181036000830152612a4e81612a12565b9050919050565b7f4e487b7100000000000000000000000000000000000000000000000000000000600052601160045260246000fd5b6000612a8f82611cb0565b91507fffffffffffffffffffffffffffffffffffffffffffffffffffffffffffffffff8203612ac157612ac0612a55565b5b600182019050919050565b7f416e206169726c696e652063616e20766f7465206a757374206f6e636520666f60008201527f7220616e6f74686572206169726c696e6520746f206a6f696e00000000000000602082015250565b6000612b28603983612164565b9150612b3382612acc565b604082019050919050565b60006020820190508181036000830152612b5781612b1b565b9050919050565b7f4e487b7100000000000000000000000000000000000000000000000000000000600052601260045260246000fd5b6000612b9882611cb0565b9150612ba383611cb0565b925082612bb357612bb2612b5e565b5b828204905092915050565b6000608082019050612bd3600083018761224f565b612be06020830186612006565b612bed6040830185612577565b612bfa6060830184611e15565b95945050505050565b6000606082019050612c186000830186612006565b612c256020830185612577565b612c32604083018461224f565b949350505050565b6000602082019050612c4f6000830184612577565b92915050565b6000612c6082611d62565b915060ff8203612c7357612c72612a55565b5b600182019050919050565b6000612c8982611cb0565b9150612c9483611cb0565b9250828203905081811115612cac57612cab612a55565b5b92915050565b6000612cbe828561245f565b602082019150612cce828461243e565b6014820191508190509392505050565b6000612ce982611cb0565b9150612cf483611cb0565b925082612d0457612d03612b5e565b5b82820690509291505056fea2646970667358221220e04461002e7ba312f63e757f1cc43168e6dcae39975e4459db800d1031e0bee064736f6c63430008100033",
  "immutableReferences": {},
  "source": "// SPDX-License-Identifier: MIT\npragma solidity ^0.8.16;\n\nimport \"@openzeppelin/contracts/utils/math/SafeMath.sol\";\nimport \"./FlightSuretyData.sol\";\n\n/************************************************** */\n/* FlightSurety Smart Contract                      */\n/************************************************** */\ncontract FlightSuretyApp {\n\n    using SafeMath for uint256;\n\n    /********************************************************************************************/\n    /*                                       CONSTANTS                                          */\n    /********************************************************************************************/\n    // Flight status codees\n    uint8 private constant STATUS_CODE_UNKNOWN = 0;\n    uint8 private constant STATUS_CODE_ON_TIME = 10;\n    uint8 private constant STATUS_CODE_LATE_AIRLINE = 20;\n    uint8 private constant STATUS_CODE_LATE_WEATHER = 30;\n    uint8 private constant STATUS_CODE_LATE_TECHNICAL = 40;\n    uint8 private constant STATUS_CODE_LATE_OTHER = 50;\n    // Oracles status\n    uint256 public constant REGISTRATION_FEE = 1 ether;\n    uint256 private constant MIN_RESPONSES = 3;\n\n    /********************************************************************************************/\n    /*                                       DATA VARIABLES                                     */\n    /********************************************************************************************/\n    // Account used to deploy contract\n    address private contractOwner;\n\n    // Data smart contract\n    FlightSuretyData flightSuretyData;\n\n    // Airlines votes\n    mapping(address => address[]) airlinesVotes;\n \n    // Oracle state\n    uint8 private nonce = 0;    \n\n    // Oracles providing information about flight status\n    struct Oracle {\n        bool isRegistered;\n        uint8[3] indexes;        \n    }\n    mapping(address => Oracle) private oracles;\n\n    // Information provided by oracles\n    struct ResponseInfo {\n        address requester;                              \n        bool isOpen;\n        mapping(uint8 => address[]) responses;\n    }\n    mapping(bytes32 => ResponseInfo) private oracleResponses;\n\n    /********************************************************************************************/\n    /*                                       FUNCTION MODIFIERS                                 */\n    /********************************************************************************************/\n    modifier requireIsOperational() {\n        require(flightSuretyData.isOperational() == true, \"Contract is currently not operational\");  \n        _;\n    }\n\n    modifier requireContractOwner() {\n        require(msg.sender == contractOwner, \"Caller is not contract owner\");\n        _;\n    }\n\n    /********************************************************************************************/\n    /*                                       EVENTS                                             */\n    /********************************************************************************************/\n    event OracleRequest(uint8 index, address airline, bytes32 flight, uint256 timestamp);\n    event OracleReport(address airline, bytes32 flight, uint256 timestamp, uint8 status);\n    event FlightStatusInfo(address airline, bytes32 flight, uint256 timestamp, uint8 status);\n\n    /********************************************************************************************/\n    /*                                       CONSTRUCTOR                                        */\n    /********************************************************************************************/\n    constructor (address dataContract, address firstAirline) {\n        contractOwner = msg.sender;\n        flightSuretyData = FlightSuretyData(dataContract);\n        // If data has 0 airlines register the founder airline at this time\n        if (flightSuretyData.getNumAirlines() == 0) {\n            flightSuretyData.registerFirstAirline(firstAirline);\n        }\n    }\n\n    /********************************************************************************************/\n    /*                                       UTILITY FUNCTIONS                                  */\n    /********************************************************************************************/\n    function isOperational() public view returns(bool) {\n        return flightSuretyData.isOperational();\n    }\n\n    function getOracleResponses(uint8 index, address airline, bytes32 flight, uint256 timestamp, uint8 status) public view returns(address requester, bool isOpen, address[] memory responses) {\n        bytes32 key = keccak256(abi.encodePacked(index, airline, flight, timestamp));\n        ResponseInfo storage responseInfo = oracleResponses[key];\n        return(responseInfo.requester, responseInfo.isOpen, responseInfo.responses[status]);\n    }\n\n    /********************************************************************************************/\n    /*                                     SMART CONTRACT FUNCTIONS                             */\n    /********************************************************************************************/\n    function registerAirline(address account) external returns(bool success, uint256 votes) {\n        if (flightSuretyData.getNumAirlines() < 4) {\n            require(msg.sender == flightSuretyData.getFirstAirline(), \"First four airlines should be registered by the founder airline\");\n            require(flightSuretyData.isFundedAirline(msg.sender), \"First airlines should provide funding first\");\n            flightSuretyData.registerAirline(account);\n            flightSuretyData.acceptAirline(account);\n            return (true, 1);\n        } else {\n            require(msg.sender == account, \"Only the founder airlines was able to register other airlines in the beggining\");\n            flightSuretyData.registerAirline(msg.sender);\n            airlinesVotes[msg.sender] = new address[](0);\n            return (true, 0);\n        }\n    }\n\n    function voteAirline(address account) external {\n        // Voting is only required after the fifth ailines registered\n        uint256 numAirlines = flightSuretyData.getNumAirlines();\n        require(numAirlines >= 4, \"There need to be at least 4 airlines to vote for join\");\n        // Only waiting airlines to join can be voted in\n        require(flightSuretyData.isRegisteredAirline(account), \"Airline sould be registered first\");\n        require(!flightSuretyData.isAcceptedAirline(account), \"Airline shouldnt be accepted already\");\n        // One airline can vote just once for another airline to join\n        bool isDuplicate = false;\n        for (uint256 i = 0; i < airlinesVotes[account].length; i++) {\n            if ( airlinesVotes[account][i] == msg.sender) {\n                isDuplicate = true;\n                break;\n            }\n        }\n        require(isDuplicate == false, \"An airline can vote just once for another airline to join\");\n        // Vote and check 50%\n        airlinesVotes[account].push(msg.sender);\n        if (airlinesVotes[account].length >= (numAirlines / 2)) {\n            flightSuretyData.acceptAirline(account);\n        }\n    }\n\n    function registerFlight (string memory flight, uint256 timestamp) external {\n        flightSuretyData.registerFlight(msg.sender, flight, timestamp, STATUS_CODE_UNKNOWN);\n    }\n\n    function processFlightStatus (address airline, bytes32 flight, uint8 statusCode) internal {\n        flightSuretyData.updateFlight(airline, flight, statusCode);\n        if (statusCode == STATUS_CODE_LATE_AIRLINE) {\n            flightSuretyData.creditInsurees(flight);\n        }\n    }\n\n    function fetchFlightStatus (address airline, bytes32 flight, uint256 timestamp) external {\n        uint8 index = getRandomIndex(msg.sender);\n        bytes32 key = keccak256(abi.encodePacked(index, airline, flight, timestamp));\n        ResponseInfo storage newResponseInfo = oracleResponses[key];\n        newResponseInfo.requester = msg.sender;\n        newResponseInfo.isOpen = true;\n        emit OracleRequest(index, airline, flight, timestamp);\n    }\n\n    /********************************************************************************************/\n    /*                                    ORACLES FUNCTIONS                                     */\n    /********************************************************************************************/\n    function registerOracle () external payable {\n        require(msg.value >= REGISTRATION_FEE, \"Registration fee is required\");\n        uint8[3] memory indexes = generateIndexes(msg.sender);\n        oracles[msg.sender] = Oracle({ isRegistered: true, indexes: indexes });\n    }\n\n    function getMyIndexes () view external returns(uint8[3] memory) {\n        require(oracles[msg.sender].isRegistered, \"Not registered as an oracle\");\n        return oracles[msg.sender].indexes;\n    }\n\n    function submitOracleResponse (uint8 index, address airline, bytes32 flight, uint256 timestamp, uint8 statusCode) external {\n        require((oracles[msg.sender].indexes[0] == index) || (oracles[msg.sender].indexes[1] == index) || (oracles[msg.sender].indexes[2] == index), \"Index does not match oracle request\");\n        bytes32 key = keccak256(abi.encodePacked(index, airline, flight, timestamp)); \n        require(oracleResponses[key].isOpen, \"Flight or timestamp do not match oracle request\");\n        oracleResponses[key].responses[statusCode].push(msg.sender);\n        emit OracleReport(airline, flight, timestamp, statusCode);\n        if (oracleResponses[key].responses[statusCode].length >= MIN_RESPONSES) {\n            oracleResponses[key].isOpen = false;\n            emit FlightStatusInfo(airline, flight, timestamp, statusCode);\n            processFlightStatus(airline, flight, statusCode);\n        }\n    }\n\n    /********************************************************************************************/\n    /*                                 UTILITY INTERNAL FUNCTIONS                               */\n    /********************************************************************************************/\n    function generateIndexes (address account) internal returns(uint8[3] memory) {\n        uint8[3] memory indexes;\n        indexes[0] = getRandomIndex(account);\n        for (uint256 i = 0; i < 25; i++) {\n            indexes[1] = getRandomIndex(account);\n            if (indexes[0] != indexes[1])\n                break;\n        }\n        for (uint256 i = 0; i < 25; i++) {\n            indexes[2] = getRandomIndex(account);\n            if (indexes[0] != indexes[2] && indexes[1] != indexes[2])\n                break;\n        }\n        return indexes;\n    }\n\n    function getRandomIndex(address account) internal returns(uint8){\n        uint8 maxValue = 10;\n        uint8 random = uint8(uint256(keccak256(abi.encodePacked(blockhash(block.number - nonce++), account))) % maxValue);\n        if (nonce > 250) {\n            nonce = 0;\n        }\n        return random;\n    }\n    \n    /********************************************************************************************/\n    /*                  AUXILIARY METHODS INTERNAL TO SMART CONTRACT                            */\n    /********************************************************************************************/\n    function getFlightKey (address airline, string memory flight, uint256 timestamp) pure internal returns(bytes32) {\n        return keccak256(abi.encodePacked(airline, flight, timestamp));\n    }\n}",
  "sourcePath": "/home/isma/Desktop/code/blockchain/FlightSurety/contracts/FlightSuretyApp.sol",
  "compiler": {
    "name": "solc",
    "version": "0.8.16+commit.07a7930e.Emscripten.clang"
  },
  "schemaVersion": "3.4.9",
  "updatedAt": "2022-09-18T05:46:30.906Z",
  "devdoc": {
    "kind": "dev",
    "methods": {},
    "version": 1
  },
  "userdoc": {
    "kind": "user",
    "methods": {},
    "version": 1
  }
}