{
  "contractName": "FlightSuretyApp",
  "abi": [
    {
      "inputs": [
        {
          "internalType": "address",
          "name": "dataContract",
          "type": "address"
        },
        {
          "internalType": "address",
          "name": "firstAirline",
          "type": "address"
        }
      ],
      "stateMutability": "nonpayable",
      "type": "constructor"
    },
    {
      "anonymous": false,
      "inputs": [
        {
          "indexed": false,
          "internalType": "address",
          "name": "airline",
          "type": "address"
        },
        {
          "indexed": false,
          "internalType": "string",
          "name": "flight",
          "type": "string"
        },
        {
          "indexed": false,
          "internalType": "uint256",
          "name": "timestamp",
          "type": "uint256"
        },
        {
          "indexed": false,
          "internalType": "uint8",
          "name": "status",
          "type": "uint8"
        }
      ],
      "name": "FlightStatusInfo",
      "type": "event"
    },
    {
      "anonymous": false,
      "inputs": [
        {
          "indexed": false,
          "internalType": "address",
          "name": "airline",
          "type": "address"
        },
        {
          "indexed": false,
          "internalType": "string",
          "name": "flight",
          "type": "string"
        },
        {
          "indexed": false,
          "internalType": "uint256",
          "name": "timestamp",
          "type": "uint256"
        },
        {
          "indexed": false,
          "internalType": "uint8",
          "name": "status",
          "type": "uint8"
        }
      ],
      "name": "OracleReport",
      "type": "event"
    },
    {
      "anonymous": false,
      "inputs": [
        {
          "indexed": false,
          "internalType": "uint8",
          "name": "index",
          "type": "uint8"
        },
        {
          "indexed": false,
          "internalType": "address",
          "name": "airline",
          "type": "address"
        },
        {
          "indexed": false,
          "internalType": "string",
          "name": "flight",
          "type": "string"
        },
        {
          "indexed": false,
          "internalType": "uint256",
          "name": "timestamp",
          "type": "uint256"
        }
      ],
      "name": "OracleRequest",
      "type": "event"
    },
    {
      "inputs": [],
      "name": "REGISTRATION_FEE",
      "outputs": [
        {
          "internalType": "uint256",
          "name": "",
          "type": "uint256"
        }
      ],
      "stateMutability": "view",
      "type": "function"
    },
    {
      "inputs": [],
      "name": "isOperational",
      "outputs": [
        {
          "internalType": "bool",
          "name": "",
          "type": "bool"
        }
      ],
      "stateMutability": "view",
      "type": "function"
    },
    {
      "inputs": [
        {
          "internalType": "address",
          "name": "account",
          "type": "address"
        }
      ],
      "name": "registerAirline",
      "outputs": [
        {
          "internalType": "bool",
          "name": "success",
          "type": "bool"
        },
        {
          "internalType": "uint256",
          "name": "votes",
          "type": "uint256"
        }
      ],
      "stateMutability": "nonpayable",
      "type": "function"
    },
    {
      "inputs": [
        {
          "internalType": "address",
          "name": "account",
          "type": "address"
        }
      ],
      "name": "voteAirline",
      "outputs": [],
      "stateMutability": "nonpayable",
      "type": "function"
    },
    {
      "inputs": [
        {
          "internalType": "string",
          "name": "flight",
          "type": "string"
        }
      ],
      "name": "registerFlight",
      "outputs": [],
      "stateMutability": "nonpayable",
      "type": "function"
    },
    {
      "inputs": [
        {
          "internalType": "address",
          "name": "airline",
          "type": "address"
        },
        {
          "internalType": "string",
          "name": "flight",
          "type": "string"
        },
        {
          "internalType": "uint256",
          "name": "timestamp",
          "type": "uint256"
        }
      ],
      "name": "fetchFlightStatus",
      "outputs": [],
      "stateMutability": "nonpayable",
      "type": "function"
    },
    {
      "inputs": [],
      "name": "registerOracle",
      "outputs": [],
      "stateMutability": "payable",
      "type": "function"
    },
    {
      "inputs": [],
      "name": "getMyIndexes",
      "outputs": [
        {
          "internalType": "uint8[3]",
          "name": "",
          "type": "uint8[3]"
        }
      ],
      "stateMutability": "view",
      "type": "function"
    },
    {
      "inputs": [
        {
          "internalType": "uint8",
          "name": "index",
          "type": "uint8"
        },
        {
          "internalType": "address",
          "name": "airline",
          "type": "address"
        },
        {
          "internalType": "string",
          "name": "flight",
          "type": "string"
        },
        {
          "internalType": "uint256",
          "name": "timestamp",
          "type": "uint256"
        },
        {
          "internalType": "uint8",
          "name": "statusCode",
          "type": "uint8"
        }
      ],
      "name": "submitOracleResponse",
      "outputs": [],
      "stateMutability": "nonpayable",
      "type": "function"
    }
  ],
  "bytecode": "0x60806040526000600360006101000a81548160ff021916908360ff1602179055503480156200002d57600080fd5b5060405162002f2c38038062002f2c833981810160405281019062000053919062000274565b336000806101000a81548173ffffffffffffffffffffffffffffffffffffffff021916908373ffffffffffffffffffffffffffffffffffffffff16021790555081600160006101000a81548173ffffffffffffffffffffffffffffffffffffffff021916908373ffffffffffffffffffffffffffffffffffffffff1602179055506000600160009054906101000a900473ffffffffffffffffffffffffffffffffffffffff1673ffffffffffffffffffffffffffffffffffffffff16637ab21cdc6040518163ffffffff1660e01b8152600401602060405180830381865afa15801562000144573d6000803e3d6000fd5b505050506040513d601f19601f820116820180604052508101906200016a9190620002f6565b036200020257600160009054906101000a900473ffffffffffffffffffffffffffffffffffffffff1673ffffffffffffffffffffffffffffffffffffffff16637d2ab0de826040518263ffffffff1660e01b8152600401620001cd919062000339565b600060405180830381600087803b158015620001e857600080fd5b505af1158015620001fd573d6000803e3d6000fd5b505050505b505062000356565b600080fd5b600073ffffffffffffffffffffffffffffffffffffffff82169050919050565b60006200023c826200020f565b9050919050565b6200024e816200022f565b81146200025a57600080fd5b50565b6000815190506200026e8162000243565b92915050565b600080604083850312156200028e576200028d6200020a565b5b60006200029e858286016200025d565b9250506020620002b1858286016200025d565b9150509250929050565b6000819050919050565b620002d081620002bb565b8114620002dc57600080fd5b50565b600081519050620002f081620002c5565b92915050565b6000602082840312156200030f576200030e6200020a565b5b60006200031f84828501620002df565b91505092915050565b62000333816200022f565b82525050565b600060208201905062000350600083018462000328565b92915050565b612bc680620003666000396000f3fe6080604052600436106100865760003560e01c8063bdfd987711610059578063bdfd987714610114578063c10f270014610152578063cd905dff1461017b578063d8ab5b89146101a6578063f83f11c0146101cf57610086565b8063339d25901461008b5780633f8dd545146100955780635f1cc0e6146100be57806364b4f751146100e9575b600080fd5b6100936101f8565b005b3480156100a157600080fd5b506100bc60048036038101906100b79190611bcb565b6102e5565b005b3480156100ca57600080fd5b506100d3610455565b6040516100e09190611ccc565b60405180910390f35b3480156100f557600080fd5b506100fe610595565b60405161010b9190611d00565b60405180910390f35b34801561012057600080fd5b5061013b60048036038101906101369190611d79565b6105a1565b604051610149929190611dc1565b60405180910390f35b34801561015e57600080fd5b5061017960048036038101906101749190611e42565b610ae2565b005b34801561018757600080fd5b50610190610e71565b60405161019d9190611ed9565b60405180910390f35b3480156101b257600080fd5b506101cd60048036038101906101c89190611d79565b610f09565b005b3480156101db57600080fd5b506101f660048036038101906101f19190611ef4565b61155c565b005b670de0b6b3a7640000341015610243576040517f08c379a000000000000000000000000000000000000000000000000000000000815260040161023a90611fc0565b60405180910390fd5b600061024e33611656565b9050604051806040016040528060011515815260200182815250600460003373ffffffffffffffffffffffffffffffffffffffff1673ffffffffffffffffffffffffffffffffffffffff16815260200190815260200160002060008201518160000160006101000a81548160ff0219169083151502179055506020820151816001019060036102de92919061190e565b5090505050565b600160009054906101000a900473ffffffffffffffffffffffffffffffffffffffff1673ffffffffffffffffffffffffffffffffffffffff1663619f73fa336040518263ffffffff1660e01b81526004016103409190611fef565b602060405180830381865afa15801561035d573d6000803e3d6000fd5b505050506040513d601f19601f820116820180604052508101906103819190612036565b6103c0576040517f08c379a00000000000000000000000000000000000000000000000000000000081526004016103b7906120d5565b60405180910390fd5b600160009054906101000a900473ffffffffffffffffffffffffffffffffffffffff1673ffffffffffffffffffffffffffffffffffffffff1663d548b64c338360006040518463ffffffff1660e01b815260040161042093929190612172565b600060405180830381600087803b15801561043a57600080fd5b505af115801561044e573d6000803e3d6000fd5b5050505050565b61045d6119a8565b600460003373ffffffffffffffffffffffffffffffffffffffff1673ffffffffffffffffffffffffffffffffffffffff16815260200190815260200160002060000160009054906101000a900460ff166104ec576040517f08c379a00000000000000000000000000000000000000000000000000000000081526004016104e3906121fc565b60405180910390fd5b600460003373ffffffffffffffffffffffffffffffffffffffff1673ffffffffffffffffffffffffffffffffffffffff16815260200190815260200160002060010160038060200260405190810160405280929190826003801561058b576020028201916000905b82829054906101000a900460ff1660ff16815260200190600101906020826000010492830192600103820291508084116105545790505b5050505050905090565b670de0b6b3a764000081565b6000806004600160009054906101000a900473ffffffffffffffffffffffffffffffffffffffff1673ffffffffffffffffffffffffffffffffffffffff16637ab21cdc6040518163ffffffff1660e01b8152600401602060405180830381865afa158015610613573d6000803e3d6000fd5b505050506040513d601f19601f820116820180604052508101906106379190612231565b101561093c57600160009054906101000a900473ffffffffffffffffffffffffffffffffffffffff1673ffffffffffffffffffffffffffffffffffffffff166302eb72ad6040518163ffffffff1660e01b8152600401602060405180830381865afa1580156106aa573d6000803e3d6000fd5b505050506040513d601f19601f820116820180604052508101906106ce9190612273565b73ffffffffffffffffffffffffffffffffffffffff163373ffffffffffffffffffffffffffffffffffffffff161461073b576040517f08c379a000000000000000000000000000000000000000000000000000000000815260040161073290612312565b60405180910390fd5b600160009054906101000a900473ffffffffffffffffffffffffffffffffffffffff1673ffffffffffffffffffffffffffffffffffffffff1663619f73fa336040518263ffffffff1660e01b81526004016107969190611fef565b602060405180830381865afa1580156107b3573d6000803e3d6000fd5b505050506040513d601f19601f820116820180604052508101906107d79190612036565b610816576040517f08c379a000000000000000000000000000000000000000000000000000000000815260040161080d906123a4565b60405180910390fd5b600160009054906101000a900473ffffffffffffffffffffffffffffffffffffffff1673ffffffffffffffffffffffffffffffffffffffff1663bdfd9877846040518263ffffffff1660e01b81526004016108719190611fef565b600060405180830381600087803b15801561088b57600080fd5b505af115801561089f573d6000803e3d6000fd5b50505050600160009054906101000a900473ffffffffffffffffffffffffffffffffffffffff1673ffffffffffffffffffffffffffffffffffffffff1663bf1d9156846040518263ffffffff1660e01b81526004016108fe9190611fef565b600060405180830381600087803b15801561091857600080fd5b505af115801561092c573d6000803e3d6000fd5b5050505060018091509150610add565b8273ffffffffffffffffffffffffffffffffffffffff163373ffffffffffffffffffffffffffffffffffffffff16146109aa576040517f08c379a00000000000000000000000000000000000000000000000000000000081526004016109a19061245c565b60405180910390fd5b600160009054906101000a900473ffffffffffffffffffffffffffffffffffffffff1673ffffffffffffffffffffffffffffffffffffffff1663bdfd9877336040518263ffffffff1660e01b8152600401610a059190611fef565b600060405180830381600087803b158015610a1f57600080fd5b505af1158015610a33573d6000803e3d6000fd5b50505050600067ffffffffffffffff811115610a5257610a51611aa0565b5b604051908082528060200260200182016040528015610a805781602001602082028036833780820191505090505b50600260003373ffffffffffffffffffffffffffffffffffffffff1673ffffffffffffffffffffffffffffffffffffffff1681526020019081526020016000209080519060200190610ad39291906119ca565b5060016000915091505b915091565b8460ff16600460003373ffffffffffffffffffffffffffffffffffffffff1673ffffffffffffffffffffffffffffffffffffffff168152602001908152602001600020600101600060038110610b3b57610b3a61247c565b5b602091828204019190069054906101000a900460ff1660ff161480610bcf57508460ff16600460003373ffffffffffffffffffffffffffffffffffffffff1673ffffffffffffffffffffffffffffffffffffffff168152602001908152602001600020600101600160038110610bb457610bb361247c565b5b602091828204019190069054906101000a900460ff1660ff16145b80610c4957508460ff16600460003373ffffffffffffffffffffffffffffffffffffffff1673ffffffffffffffffffffffffffffffffffffffff168152602001908152602001600020600101600260038110610c2e57610c2d61247c565b5b602091828204019190069054906101000a900460ff1660ff16145b610c88576040517f08c379a0000000000000000000000000000000000000000000000000000000008152600401610c7f9061251d565b60405180910390fd5b600085858585604051602001610ca19493929190612618565b6040516020818303038152906040528051906020012090506005600082815260200190815260200160002060000160149054906101000a900460ff16610d1c576040517f08c379a0000000000000000000000000000000000000000000000000000000008152600401610d13906126d4565b60405180910390fd5b6005600082815260200190815260200160002060010160008360ff1660ff168152602001908152602001600020339080600181540180825580915050600190039060005260206000200160009091909190916101000a81548173ffffffffffffffffffffffffffffffffffffffff021916908373ffffffffffffffffffffffffffffffffffffffff1602179055507f43c853095c2752648493c88b4baac4d580d2594ffb00c6f1d4242d844514f78385858585604051610ddf94939291906126f4565b60405180910390a160036005600083815260200190815260200160002060010160008460ff1660ff1681526020019081526020016000208054905010610e69577fe23f5229de535c091e3b7bec2665f5d698192d3b31393066e8987b7a05076b6c85858585604051610e5494939291906126f4565b60405180910390a1610e688585858561183c565b5b505050505050565b6000600160009054906101000a900473ffffffffffffffffffffffffffffffffffffffff1673ffffffffffffffffffffffffffffffffffffffff1663cd905dff6040518163ffffffff1660e01b8152600401602060405180830381865afa158015610ee0573d6000803e3d6000fd5b505050506040513d601f19601f82011682018060405250810190610f049190612036565b905090565b600160009054906101000a900473ffffffffffffffffffffffffffffffffffffffff1673ffffffffffffffffffffffffffffffffffffffff1663619f73fa336040518263ffffffff1660e01b8152600401610f649190611fef565b602060405180830381865afa158015610f81573d6000803e3d6000fd5b505050506040513d601f19601f82011682018060405250810190610fa59190612036565b610fe4576040517f08c379a0000000000000000000000000000000000000000000000000000000008152600401610fdb906120d5565b60405180910390fd5b6000600160009054906101000a900473ffffffffffffffffffffffffffffffffffffffff1673ffffffffffffffffffffffffffffffffffffffff16637ab21cdc6040518163ffffffff1660e01b8152600401602060405180830381865afa158015611053573d6000803e3d6000fd5b505050506040513d601f19601f820116820180604052508101906110779190612231565b905060048110156110bd576040517f08c379a00000000000000000000000000000000000000000000000000000000081526004016110b4906127b2565b60405180910390fd5b600160009054906101000a900473ffffffffffffffffffffffffffffffffffffffff1673ffffffffffffffffffffffffffffffffffffffff1663a78d9799836040518263ffffffff1660e01b81526004016111189190611fef565b602060405180830381865afa158015611135573d6000803e3d6000fd5b505050506040513d601f19601f820116820180604052508101906111599190612036565b611198576040517f08c379a000000000000000000000000000000000000000000000000000000000815260040161118f90612844565b60405180910390fd5b600160009054906101000a900473ffffffffffffffffffffffffffffffffffffffff1673ffffffffffffffffffffffffffffffffffffffff166380c575f0836040518263ffffffff1660e01b81526004016111f39190611fef565b602060405180830381865afa158015611210573d6000803e3d6000fd5b505050506040513d601f19601f820116820180604052508101906112349190612036565b15611274576040517f08c379a000000000000000000000000000000000000000000000000000000000815260040161126b906128d6565b60405180910390fd5b6000805b600260008573ffffffffffffffffffffffffffffffffffffffff1673ffffffffffffffffffffffffffffffffffffffff1681526020019081526020016000208054905081101561138c573373ffffffffffffffffffffffffffffffffffffffff16600260008673ffffffffffffffffffffffffffffffffffffffff1673ffffffffffffffffffffffffffffffffffffffff168152602001908152602001600020828154811061132a5761132961247c565b5b9060005260206000200160009054906101000a900473ffffffffffffffffffffffffffffffffffffffff1673ffffffffffffffffffffffffffffffffffffffff1603611379576001915061138c565b808061138490612925565b915050611278565b5060001515811515146113d4576040517f08c379a00000000000000000000000000000000000000000000000000000000081526004016113cb906129df565b60405180910390fd5b600260008473ffffffffffffffffffffffffffffffffffffffff1673ffffffffffffffffffffffffffffffffffffffff168152602001908152602001600020339080600181540180825580915050600190039060005260206000200160009091909190916101000a81548173ffffffffffffffffffffffffffffffffffffffff021916908373ffffffffffffffffffffffffffffffffffffffff1602179055506002826114819190612a2e565b600260008573ffffffffffffffffffffffffffffffffffffffff1673ffffffffffffffffffffffffffffffffffffffff168152602001908152602001600020805490501061155757600160009054906101000a900473ffffffffffffffffffffffffffffffffffffffff1673ffffffffffffffffffffffffffffffffffffffff1663bf1d9156846040518263ffffffff1660e01b81526004016115249190611fef565b600060405180830381600087803b15801561153e57600080fd5b505af1158015611552573d6000803e3d6000fd5b505050505b505050565b600061156733611842565b90506000818585856040516020016115829493929190612618565b6040516020818303038152906040528051906020012090506000600560008381526020019081526020016000209050338160000160006101000a81548173ffffffffffffffffffffffffffffffffffffffff021916908373ffffffffffffffffffffffffffffffffffffffff16021790555060018160000160146101000a81548160ff0219169083151502179055507f3ed01f2c3fc24c6b329d931e35b03e390d23497d22b3f90e15b600343e93df11838787876040516116469493929190612a5f565b60405180910390a1505050505050565b61165e6119a8565b6116666119a8565b61166f83611842565b816000600381106116835761168261247c565b5b602002019060ff16908160ff1681525050806000600381106116a8576116a761247c565b5b6020020151816001600381106116c1576116c061247c565b5b602002019060ff16908160ff16815250505b806000600381106116e7576116e661247c565b5b602002015160ff16816001600381106117035761170261247c565b5b602002015160ff16036117435761171983611842565b8160016003811061172d5761172c61247c565b5b602002019060ff16908160ff16815250506116d3565b806001600381106117575761175661247c565b5b6020020151816002600381106117705761176f61247c565b5b602002019060ff16908160ff16815250505b806000600381106117965761179561247c565b5b602002015160ff16816002600381106117b2576117b161247c565b5b602002015160ff1614806117fb5750806001600381106117d5576117d461247c565b5b602002015160ff16816002600381106117f1576117f061247c565b5b602002015160ff16145b156118335761180983611842565b8160026003811061181d5761181c61247c565b5b602002019060ff16908160ff1681525050611782565b80915050919050565b50505050565b600080600a905060008160ff166003600081819054906101000a900460ff168092919061186e90612aab565b91906101000a81548160ff021916908360ff16021790555060ff16436118949190612ad4565b40856040516020016118a7929190612b33565b6040516020818303038152906040528051906020012060001c6118ca9190612b5f565b905060fa600360009054906101000a900460ff1660ff161115611904576000600360006101000a81548160ff021916908360ff1602179055505b8092505050919050565b826003601f016020900481019282156119975791602002820160005b8382111561196857835183826101000a81548160ff021916908360ff160217905550926020019260010160208160000104928301926001030261192a565b80156119955782816101000a81549060ff0219169055600101602081600001049283019260010302611968565b505b5090506119a49190611a54565b5090565b6040518060600160405280600390602082028036833780820191505090505090565b828054828255906000526020600020908101928215611a43579160200282015b82811115611a425782518260006101000a81548173ffffffffffffffffffffffffffffffffffffffff021916908373ffffffffffffffffffffffffffffffffffffffff160217905550916020019190600101906119ea565b5b509050611a509190611a54565b5090565b5b80821115611a6d576000816000905550600101611a55565b5090565b6000604051905090565b600080fd5b600080fd5b600080fd5b600080fd5b6000601f19601f8301169050919050565b7f4e487b7100000000000000000000000000000000000000000000000000000000600052604160045260246000fd5b611ad882611a8f565b810181811067ffffffffffffffff82111715611af757611af6611aa0565b5b80604052505050565b6000611b0a611a71565b9050611b168282611acf565b919050565b600067ffffffffffffffff821115611b3657611b35611aa0565b5b611b3f82611a8f565b9050602081019050919050565b82818337600083830152505050565b6000611b6e611b6984611b1b565b611b00565b905082815260208101848484011115611b8a57611b89611a8a565b5b611b95848285611b4c565b509392505050565b600082601f830112611bb257611bb1611a85565b5b8135611bc2848260208601611b5b565b91505092915050565b600060208284031215611be157611be0611a7b565b5b600082013567ffffffffffffffff811115611bff57611bfe611a80565b5b611c0b84828501611b9d565b91505092915050565b600060039050919050565b600081905092915050565b6000819050919050565b600060ff82169050919050565b611c4a81611c34565b82525050565b6000611c5c8383611c41565b60208301905092915050565b6000602082019050919050565b611c7e81611c14565b611c888184611c1f565b9250611c9382611c2a565b8060005b83811015611cc4578151611cab8782611c50565b9650611cb683611c68565b925050600181019050611c97565b505050505050565b6000606082019050611ce16000830184611c75565b92915050565b6000819050919050565b611cfa81611ce7565b82525050565b6000602082019050611d156000830184611cf1565b92915050565b600073ffffffffffffffffffffffffffffffffffffffff82169050919050565b6000611d4682611d1b565b9050919050565b611d5681611d3b565b8114611d6157600080fd5b50565b600081359050611d7381611d4d565b92915050565b600060208284031215611d8f57611d8e611a7b565b5b6000611d9d84828501611d64565b91505092915050565b60008115159050919050565b611dbb81611da6565b82525050565b6000604082019050611dd66000830185611db2565b611de36020830184611cf1565b9392505050565b611df381611c34565b8114611dfe57600080fd5b50565b600081359050611e1081611dea565b92915050565b611e1f81611ce7565b8114611e2a57600080fd5b50565b600081359050611e3c81611e16565b92915050565b600080600080600060a08688031215611e5e57611e5d611a7b565b5b6000611e6c88828901611e01565b9550506020611e7d88828901611d64565b945050604086013567ffffffffffffffff811115611e9e57611e9d611a80565b5b611eaa88828901611b9d565b9350506060611ebb88828901611e2d565b9250506080611ecc88828901611e01565b9150509295509295909350565b6000602082019050611eee6000830184611db2565b92915050565b600080600060608486031215611f0d57611f0c611a7b565b5b6000611f1b86828701611d64565b935050602084013567ffffffffffffffff811115611f3c57611f3b611a80565b5b611f4886828701611b9d565b9250506040611f5986828701611e2d565b9150509250925092565b600082825260208201905092915050565b7f526567697374726174696f6e2066656520697320726571756972656400000000600082015250565b6000611faa601c83611f63565b9150611fb582611f74565b602082019050919050565b60006020820190508181036000830152611fd981611f9d565b9050919050565b611fe981611d3b565b82525050565b60006020820190506120046000830184611fe0565b92915050565b61201381611da6565b811461201e57600080fd5b50565b6000815190506120308161200a565b92915050565b60006020828403121561204c5761204b611a7b565b5b600061205a84828501612021565b91505092915050565b7f43616c6c65722073686f756c642062652061206d656d626572206169726c696e60008201527f6500000000000000000000000000000000000000000000000000000000000000602082015250565b60006120bf602183611f63565b91506120ca82612063565b604082019050919050565b600060208201905081810360008301526120ee816120b2565b9050919050565b600081519050919050565b60005b8381101561211e578082015181840152602081019050612103565b60008484015250505050565b6000612135826120f5565b61213f8185611f63565b935061214f818560208601612100565b61215881611a8f565b840191505092915050565b61216c81611c34565b82525050565b60006060820190506121876000830186611fe0565b8181036020830152612199818561212a565b90506121a86040830184612163565b949350505050565b7f4e6f74207265676973746572656420617320616e206f7261636c650000000000600082015250565b60006121e6601b83611f63565b91506121f1826121b0565b602082019050919050565b60006020820190508181036000830152612215816121d9565b9050919050565b60008151905061222b81611e16565b92915050565b60006020828403121561224757612246611a7b565b5b60006122558482850161221c565b91505092915050565b60008151905061226d81611d4d565b92915050565b60006020828403121561228957612288611a7b565b5b60006122978482850161225e565b91505092915050565b7f466972737420666f7572206169726c696e65732073686f756c6420626520726560008201527f67697374657265642062792074686520666f756e646572206169726c696e6500602082015250565b60006122fc603f83611f63565b9150612307826122a0565b604082019050919050565b6000602082019050818103600083015261232b816122ef565b9050919050565b7f4669727374206169726c696e65732073686f756c642070726f7669646520667560008201527f6e64696e67206669727374000000000000000000000000000000000000000000602082015250565b600061238e602b83611f63565b915061239982612332565b604082019050919050565b600060208201905081810360008301526123bd81612381565b9050919050565b7f4f6e6c792074686520666f756e646572206169726c696e65732077617320616260008201527f6c6520746f207265676973746572206f74686572206169726c696e657320696e60208201527f207468652062656767696e696e67000000000000000000000000000000000000604082015250565b6000612446604e83611f63565b9150612451826123c4565b606082019050919050565b6000602082019050818103600083015261247581612439565b9050919050565b7f4e487b7100000000000000000000000000000000000000000000000000000000600052603260045260246000fd5b7f496e64657820646f6573206e6f74206d61746368206f7261636c65207265717560008201527f6573740000000000000000000000000000000000000000000000000000000000602082015250565b6000612507602383611f63565b9150612512826124ab565b604082019050919050565b60006020820190508181036000830152612536816124fa565b9050919050565b60008160f81b9050919050565b60006125558261253d565b9050919050565b61256d61256882611c34565b61254a565b82525050565b60008160601b9050919050565b600061258b82612573565b9050919050565b600061259d82612580565b9050919050565b6125b56125b082611d3b565b612592565b82525050565b600081905092915050565b60006125d1826120f5565b6125db81856125bb565b93506125eb818560208601612100565b80840191505092915050565b6000819050919050565b61261261260d82611ce7565b6125f7565b82525050565b6000612624828761255c565b60018201915061263482866125a4565b60148201915061264482856125c6565b91506126508284612601565b60208201915081905095945050505050565b7f466c69676874206f722074696d657374616d7020646f206e6f74206d6174636860008201527f206f7261636c6520726571756573740000000000000000000000000000000000602082015250565b60006126be602f83611f63565b91506126c982612662565b604082019050919050565b600060208201905081810360008301526126ed816126b1565b9050919050565b60006080820190506127096000830187611fe0565b818103602083015261271b818661212a565b905061272a6040830185611cf1565b6127376060830184612163565b95945050505050565b7f5468657265206e65656420746f206265206174206c656173742034206169726c60008201527f696e657320746f20766f746520666f72206a6f696e0000000000000000000000602082015250565b600061279c603583611f63565b91506127a782612740565b604082019050919050565b600060208201905081810360008301526127cb8161278f565b9050919050565b7f4169726c696e6520736f756c642062652072656769737465726564206669727360008201527f7400000000000000000000000000000000000000000000000000000000000000602082015250565b600061282e602183611f63565b9150612839826127d2565b604082019050919050565b6000602082019050818103600083015261285d81612821565b9050919050565b7f4169726c696e652073686f756c646e7420626520616363657074656420616c7260008201527f6561647900000000000000000000000000000000000000000000000000000000602082015250565b60006128c0602483611f63565b91506128cb82612864565b604082019050919050565b600060208201905081810360008301526128ef816128b3565b9050919050565b7f4e487b7100000000000000000000000000000000000000000000000000000000600052601160045260246000fd5b600061293082611ce7565b91507fffffffffffffffffffffffffffffffffffffffffffffffffffffffffffffffff8203612962576129616128f6565b5b600182019050919050565b7f416e206169726c696e652063616e20766f7465206a757374206f6e636520666f60008201527f7220616e6f74686572206169726c696e6520746f206a6f696e00000000000000602082015250565b60006129c9603983611f63565b91506129d48261296d565b604082019050919050565b600060208201905081810360008301526129f8816129bc565b9050919050565b7f4e487b7100000000000000000000000000000000000000000000000000000000600052601260045260246000fd5b6000612a3982611ce7565b9150612a4483611ce7565b925082612a5457612a536129ff565b5b828204905092915050565b6000608082019050612a746000830187612163565b612a816020830186611fe0565b8181036040830152612a93818561212a565b9050612aa26060830184611cf1565b95945050505050565b6000612ab682611c34565b915060ff8203612ac957612ac86128f6565b5b600182019050919050565b6000612adf82611ce7565b9150612aea83611ce7565b9250828203905081811115612b0257612b016128f6565b5b92915050565b6000819050919050565b6000819050919050565b612b2d612b2882612b08565b612b12565b82525050565b6000612b3f8285612b1c565b602082019150612b4f82846125a4565b6014820191508190509392505050565b6000612b6a82611ce7565b9150612b7583611ce7565b925082612b8557612b846129ff565b5b82820690509291505056fea2646970667358221220e5df52411a2c8216497ba69556e4f2e1b789fe01481d75b9bfd2063fbc9f775164736f6c63430008100033",
  "immutableReferences": {},
  "source": "// SPDX-License-Identifier: MIT\npragma solidity ^0.8.16;\n\nimport \"@openzeppelin/contracts/utils/math/SafeMath.sol\";\nimport \"./FlightSuretyData.sol\";\n\n/************************************************** */\n/* FlightSurety Smart Contract                      */\n/************************************************** */\ncontract FlightSuretyApp {\n\n    using SafeMath for uint256;\n\n    /********************************************************************************************/\n    /*                                       DATA VARIABLES                                     */\n    /********************************************************************************************/\n\n    // Flight status codees\n    uint8 private constant STATUS_CODE_UNKNOWN = 0;\n    uint8 private constant STATUS_CODE_ON_TIME = 10;\n    uint8 private constant STATUS_CODE_LATE_AIRLINE = 20;\n    uint8 private constant STATUS_CODE_LATE_WEATHER = 30;\n    uint8 private constant STATUS_CODE_LATE_TECHNICAL = 40;\n    uint8 private constant STATUS_CODE_LATE_OTHER = 50;\n\n    // Account used to deploy contract\n    address private contractOwner;\n\n    // Data smart contract\n    FlightSuretyData flightSuretyData;\n\n    // Airlines votes\n    mapping(address => address[]) airlinesVotes;\n \n    /********************************************************************************************/\n    /*                                       FUNCTION MODIFIERS                                 */\n    /********************************************************************************************/\n    modifier requireIsOperational() {\n        require(flightSuretyData.isOperational() == true, \"Contract is currently not operational\");  \n        _;\n    }\n\n    modifier requireContractOwner() {\n        require(msg.sender == contractOwner, \"Caller is not contract owner\");\n        _;\n    }\n\n    modifier requireMemberAirline() {\n        require(flightSuretyData.isMemberAirline(msg.sender), \"Caller should be a member airline\");\n        _;\n    }\n\n    /********************************************************************************************/\n    /*                                       CONSTRUCTOR                                        */\n    /********************************************************************************************/\n    constructor (address dataContract, address firstAirline) {\n        contractOwner = msg.sender;\n        flightSuretyData = FlightSuretyData(dataContract);\n        // If data has 0 airlines register the founder airline at this time\n        if (flightSuretyData.getNumAirlines() == 0) {\n            flightSuretyData.registerFirstAirline(firstAirline);\n        }\n    }\n\n    /********************************************************************************************/\n    /*                                       UTILITY FUNCTIONS                                  */\n    /********************************************************************************************/\n    function isOperational() public view returns(bool) {\n        return flightSuretyData.isOperational();\n    }\n\n    /********************************************************************************************/\n    /*                                     SMART CONTRACT FUNCTIONS                             */\n    /********************************************************************************************/\n    function registerAirline(address account) external returns(bool success, uint256 votes) {\n        // The registration and voting criteria (50%) should be located in the APP smart contract not in the data contract\n        // because the criteria to accept an airline to join the group may change in the future (business rules), and\n        // therefore it is better not to mixed this business rules with the data smart contract.\n        if (flightSuretyData.getNumAirlines() < 4) {\n            require(msg.sender == flightSuretyData.getFirstAirline(), \"First four airlines should be registered by the founder airline\");\n            require(flightSuretyData.isMemberAirline(msg.sender), \"First airlines should provide funding first\");\n            flightSuretyData.registerAirline(account);\n            flightSuretyData.acceptAirline(account);\n            return (true, 1);\n        } else {\n            require(msg.sender == account, \"Only the founder airlines was able to register other airlines in the beggining\");\n            flightSuretyData.registerAirline(msg.sender);\n            airlinesVotes[msg.sender] = new address[](0);\n            return (true, 0);\n        }\n    }\n\n    function voteAirline(address account) external requireMemberAirline {\n        // Voting is only required after the fifth ailines registered\n        uint256 numAirlines = flightSuretyData.getNumAirlines();\n        require(numAirlines >= 4, \"There need to be at least 4 airlines to vote for join\");\n        // Only waiting airlines to join can be voted in\n        require(flightSuretyData.isRegisteredAirline(account), \"Airline sould be registered first\");\n        require(!flightSuretyData.isAcceptedAirline(account), \"Airline shouldnt be accepted already\");\n        // One airline can vote just once for another airline to join\n        bool isDuplicate = false;\n        for (uint256 i = 0; i < airlinesVotes[account].length; i++) {\n            if ( airlinesVotes[account][i] == msg.sender) {\n                isDuplicate = true;\n                break;\n            }\n        }\n        require(isDuplicate == false, \"An airline can vote just once for another airline to join\");\n        // Vote and check 50%\n        airlinesVotes[account].push(msg.sender);\n        if (airlinesVotes[account].length >= (numAirlines / 2)) {\n            flightSuretyData.acceptAirline(account);\n        }\n    }\n\n   /**\n    * @dev Register a future flight for insuring.\n    */  \n    function registerFlight (string memory flight) external requireMemberAirline {\n        flightSuretyData.registerFlight(msg.sender, flight, STATUS_CODE_UNKNOWN);\n    }\n    \n   /**\n    * @dev Called after oracle has updated flight status\n    */  \n    function processFlightStatus (address airline, string memory flight, uint256 timestamp, uint8 statusCode) internal pure {\n    }\n\n    // Generate a request for oracles to fetch flight information\n    function fetchFlightStatus (address airline, string memory flight, uint256 timestamp ) external {\n        uint8 index = getRandomIndex(msg.sender);\n        // Generate a unique key for storing the request\n        bytes32 key = keccak256(abi.encodePacked(index, airline, flight, timestamp));\n        ResponseInfo storage newResponseInfo = oracleResponses[key];\n        newResponseInfo.requester = msg.sender;\n        newResponseInfo.isOpen = true;\n        emit OracleRequest(index, airline, flight, timestamp);\n    } \n\n\n    // region ORACLE MANAGEMENT\n\n    // Incremented to add pseudo-randomness at various points\n    uint8 private nonce = 0;    \n\n    // Fee to be paid when registering oracle\n    uint256 public constant REGISTRATION_FEE = 1 ether;\n\n    // Number of oracles that must respond for valid status\n    uint256 private constant MIN_RESPONSES = 3;\n\n\n    struct Oracle {\n        bool isRegistered;\n        uint8[3] indexes;        \n    }\n\n    // Track all registered oracles\n    mapping(address => Oracle) private oracles;\n\n    // Model for responses from oracles\n    struct ResponseInfo {\n        address requester;                              // Account that requested status\n        bool isOpen;                                    // If open, oracle responses are accepted\n        mapping(uint8 => address[]) responses;          // Mapping key is the status code reported\n                                                        // This lets us group responses and identify\n                                                        // the response that majority of the oracles\n    }\n\n    // Track all oracle responses\n    // Key = hash(index, flight, timestamp)\n    mapping(bytes32 => ResponseInfo) private oracleResponses;\n\n    // Event fired each time an oracle submits a response\n    event FlightStatusInfo(address airline, string flight, uint256 timestamp, uint8 status);\n\n    event OracleReport(address airline, string flight, uint256 timestamp, uint8 status);\n\n    // Event fired when flight status request is submitted\n    // Oracles track this and if they have a matching index\n    // they fetch data and submit a response\n    event OracleRequest(uint8 index, address airline, string flight, uint256 timestamp);\n\n\n    // Register an oracle with the contract\n    function registerOracle () external payable {\n        // Require registration fee\n        require(msg.value >= REGISTRATION_FEE, \"Registration fee is required\");\n        uint8[3] memory indexes = generateIndexes(msg.sender);\n        oracles[msg.sender] = Oracle({ isRegistered: true, indexes: indexes });\n    }\n\n    function getMyIndexes () view external returns(uint8[3] memory) {\n        require(oracles[msg.sender].isRegistered, \"Not registered as an oracle\");\n        return oracles[msg.sender].indexes;\n    }\n\n    // Called by oracle when a response is available to an outstanding request\n    // For the response to be accepted, there must be a pending request that is open\n    // and matches one of the three Indexes randomly assigned to the oracle at the\n    // time of registration (i.e. uninvited oracles are not welcome)\n    function submitOracleResponse (uint8 index, address airline, string memory flight, uint256 timestamp, uint8 statusCode) external {\n        require((oracles[msg.sender].indexes[0] == index) || (oracles[msg.sender].indexes[1] == index) || (oracles[msg.sender].indexes[2] == index), \"Index does not match oracle request\");\n        bytes32 key = keccak256(abi.encodePacked(index, airline, flight, timestamp)); \n        require(oracleResponses[key].isOpen, \"Flight or timestamp do not match oracle request\");\n        oracleResponses[key].responses[statusCode].push(msg.sender);\n        // Information isn't considered verified until at least MIN_RESPONSES\n        // oracles respond with the *** same *** information\n        emit OracleReport(airline, flight, timestamp, statusCode);\n        if (oracleResponses[key].responses[statusCode].length >= MIN_RESPONSES) {\n            emit FlightStatusInfo(airline, flight, timestamp, statusCode);\n            // Handle flight status as appropriate\n            processFlightStatus(airline, flight, timestamp, statusCode);\n        }\n    }\n\n    function getFlightKey (address airline, string memory flight, uint256 timestamp ) pure internal returns(bytes32) {\n        return keccak256(abi.encodePacked(airline, flight, timestamp));\n    }\n\n    // Returns array of three non-duplicating integers from 0-9\n    function generateIndexes (address account) internal returns(uint8[3] memory) {\n        uint8[3] memory indexes;\n        indexes[0] = getRandomIndex(account);\n        indexes[1] = indexes[0];\n        while(indexes[1] == indexes[0]) {\n            indexes[1] = getRandomIndex(account);\n        }\n        indexes[2] = indexes[1];\n        while((indexes[2] == indexes[0]) || (indexes[2] == indexes[1])) {\n            indexes[2] = getRandomIndex(account);\n        }\n        return indexes;\n    }\n\n    // Returns array of three non-duplicating integers from 0-9\n    function getRandomIndex (address account) internal returns (uint8) {\n        uint8 maxValue = 10;\n        // Pseudo random number...the incrementing nonce adds variation\n        uint8 random = uint8(uint256(keccak256(abi.encodePacked(blockhash(block.number - nonce++), account))) % maxValue);\n        if (nonce > 250) {\n            nonce = 0;  // Can only fetch blockhashes for last 256 blocks so we adapt\n        }\n        return random;\n    }\n\n    // endregion\n}   \n",
  "sourcePath": "/home/isma/Desktop/code/blockchain/FlightSurety/contracts/FlightSuretyApp.sol",
  "compiler": {
    "name": "solc",
    "version": "0.8.16+commit.07a7930e.Emscripten.clang"
  },
  "schemaVersion": "3.4.9",
  "updatedAt": "2022-09-16T16:56:09.666Z",
  "devdoc": {
    "kind": "dev",
    "methods": {
      "registerFlight(string)": {
        "details": "Register a future flight for insuring."
      }
    },
    "version": 1
  },
  "userdoc": {
    "kind": "user",
    "methods": {},
    "version": 1
  }
}