{
  "contractName": "FlightSuretyData",
  "abi": [
    {
      "inputs": [],
      "stateMutability": "nonpayable",
      "type": "constructor"
    },
    {
      "inputs": [],
      "name": "isOperational",
      "outputs": [
        {
          "internalType": "bool",
          "name": "",
          "type": "bool"
        }
      ],
      "stateMutability": "view",
      "type": "function",
      "constant": true
    },
    {
      "inputs": [
        {
          "internalType": "bool",
          "name": "mode",
          "type": "bool"
        }
      ],
      "name": "setOperatingStatus",
      "outputs": [],
      "stateMutability": "nonpayable",
      "type": "function"
    },
    {
      "inputs": [
        {
          "internalType": "address",
          "name": "contractAddress",
          "type": "address"
        }
      ],
      "name": "isAuthorizedContract",
      "outputs": [
        {
          "internalType": "bool",
          "name": "",
          "type": "bool"
        }
      ],
      "stateMutability": "view",
      "type": "function",
      "constant": true
    },
    {
      "inputs": [
        {
          "internalType": "address",
          "name": "contractAddress",
          "type": "address"
        },
        {
          "internalType": "bool",
          "name": "status",
          "type": "bool"
        }
      ],
      "name": "setAuthorizedContract",
      "outputs": [],
      "stateMutability": "nonpayable",
      "type": "function"
    },
    {
      "inputs": [],
      "name": "getNumAirlines",
      "outputs": [
        {
          "internalType": "uint8",
          "name": "",
          "type": "uint8"
        }
      ],
      "stateMutability": "view",
      "type": "function",
      "constant": true
    },
    {
      "inputs": [],
      "name": "isMemberAirline",
      "outputs": [
        {
          "internalType": "bool",
          "name": "",
          "type": "bool"
        }
      ],
      "stateMutability": "view",
      "type": "function",
      "constant": true
    },
    {
      "inputs": [
        {
          "internalType": "address",
          "name": "account",
          "type": "address"
        }
      ],
      "name": "getAirlineInfo",
      "outputs": [
        {
          "internalType": "bool",
          "name": "",
          "type": "bool"
        },
        {
          "internalType": "bool",
          "name": "",
          "type": "bool"
        },
        {
          "internalType": "bool",
          "name": "",
          "type": "bool"
        },
        {
          "internalType": "uint256",
          "name": "",
          "type": "uint256"
        }
      ],
      "stateMutability": "view",
      "type": "function",
      "constant": true
    },
    {
      "inputs": [
        {
          "internalType": "address",
          "name": "account",
          "type": "address"
        }
      ],
      "name": "registerFirstAirline",
      "outputs": [],
      "stateMutability": "nonpayable",
      "type": "function"
    },
    {
      "inputs": [
        {
          "internalType": "address",
          "name": "account",
          "type": "address"
        }
      ],
      "name": "registerAirline",
      "outputs": [],
      "stateMutability": "nonpayable",
      "type": "function"
    },
    {
      "inputs": [
        {
          "internalType": "address",
          "name": "account",
          "type": "address"
        }
      ],
      "name": "acceptAirline",
      "outputs": [],
      "stateMutability": "nonpayable",
      "type": "function"
    },
    {
      "inputs": [
        {
          "internalType": "bytes32",
          "name": "flight",
          "type": "bytes32"
        },
        {
          "internalType": "uint8",
          "name": "status",
          "type": "uint8"
        }
      ],
      "name": "registerFlight",
      "outputs": [],
      "stateMutability": "nonpayable",
      "type": "function"
    },
    {
      "inputs": [],
      "name": "buy",
      "outputs": [],
      "stateMutability": "payable",
      "type": "function",
      "payable": true
    },
    {
      "inputs": [],
      "name": "creditInsurees",
      "outputs": [],
      "stateMutability": "nonpayable",
      "type": "function"
    },
    {
      "inputs": [],
      "name": "pay",
      "outputs": [],
      "stateMutability": "nonpayable",
      "type": "function"
    },
    {
      "inputs": [],
      "name": "fund",
      "outputs": [],
      "stateMutability": "payable",
      "type": "function",
      "payable": true
    }
  ],
  "bytecode": "0x60806040526001600060146101000a81548160ff02191690831515021790555034801561002b57600080fd5b50336000806101000a81548173ffffffffffffffffffffffffffffffffffffffff021916908373ffffffffffffffffffffffffffffffffffffffff160217905550611a408061007b6000396000f3fe6080604052600436106100e85760003560e01c80637ab21cdc1161008a578063bdfd987711610059578063bdfd98771461027d578063bf1d9156146102a6578063cd905dff146102cf578063f2fa7392146102fa576100e8565b80637ab21cdc146102155780637d2ab0de14610240578063a6f2ae3a14610269578063b60d428814610273576100e8565b806336cee484116100c657806336cee4841461015857806340d6b50b1461016f57806366d0ead314610198578063720c7cbb146101d5576100e8565b8063110466ed146100ed5780631b9265b8146101165780631fedaeb41461012d575b600080fd5b3480156100f957600080fd5b50610114600480360381019061010f9190611376565b610323565b005b34801561012257600080fd5b5061012b6103ce565b005b34801561013957600080fd5b506101426104b2565b60405161014f91906113b2565b60405180910390f35b34801561016457600080fd5b5061016d610509565b005b34801561017b57600080fd5b506101966004803603810190610191919061143c565b6105ed565b005b3480156101a457600080fd5b506101bf60048036038101906101ba91906114da565b610822565b6040516101cc91906113b2565b60405180910390f35b3480156101e157600080fd5b506101fc60048036038101906101f791906114da565b610878565b60405161020c9493929190611520565b60405180910390f35b34801561022157600080fd5b5061022a6109da565b6040516102379190611574565b60405180910390f35b34801561024c57600080fd5b50610267600480360381019061026291906114da565b6109f1565b005b610271610c19565b005b61027b610cfd565b005b34801561028957600080fd5b506102a4600480360381019061029f91906114da565b610de1565b005b3480156102b257600080fd5b506102cd60048036038101906102c891906114da565b61106b565b005b3480156102db57600080fd5b506102e461123a565b6040516102f191906113b2565b60405180910390f35b34801561030657600080fd5b50610321600480360381019061031c919061158f565b611250565b005b60008054906101000a900473ffffffffffffffffffffffffffffffffffffffff1673ffffffffffffffffffffffffffffffffffffffff163273ffffffffffffffffffffffffffffffffffffffff16146103b1576040517f08c379a00000000000000000000000000000000000000000000000000000000081526004016103a89061162c565b60405180910390fd5b80600060146101000a81548160ff02191690831515021790555050565b600060149054906101000a900460ff1661041d576040517f08c379a0000000000000000000000000000000000000000000000000000000008152600401610414906116be565b60405180910390fd5b60011515600160003373ffffffffffffffffffffffffffffffffffffffff1673ffffffffffffffffffffffffffffffffffffffff16815260200190815260200160002060009054906101000a900460ff161515146104b0576040517f08c379a00000000000000000000000000000000000000000000000000000000081526004016104a79061172a565b60405180910390fd5b565b6000600260003373ffffffffffffffffffffffffffffffffffffffff1673ffffffffffffffffffffffffffffffffffffffff16815260200190815260200160002060000160029054906101000a900460ff16905090565b600060149054906101000a900460ff16610558576040517f08c379a000000000000000000000000000000000000000000000000000000000815260040161054f906116be565b60405180910390fd5b60011515600160003373ffffffffffffffffffffffffffffffffffffffff1673ffffffffffffffffffffffffffffffffffffffff16815260200190815260200160002060009054906101000a900460ff161515146105eb576040517f08c379a00000000000000000000000000000000000000000000000000000000081526004016105e29061172a565b60405180910390fd5b565b600060149054906101000a900460ff1661063c576040517f08c379a0000000000000000000000000000000000000000000000000000000008152600401610633906116be565b60405180910390fd5b60011515600160003373ffffffffffffffffffffffffffffffffffffffff1673ffffffffffffffffffffffffffffffffffffffff16815260200190815260200160002060009054906101000a900460ff161515146106cf576040517f08c379a00000000000000000000000000000000000000000000000000000000081526004016106c69061172a565b60405180910390fd5b600015156004600084815260200190815260200160002060000160009054906101000a900460ff16151514610739576040517f08c379a000000000000000000000000000000000000000000000000000000000815260040161073090611796565b60405180910390fd5b60405180608001604052806001151581526020018260ff1681526020014281526020013373ffffffffffffffffffffffffffffffffffffffff168152506004600084815260200190815260200160002060008201518160000160006101000a81548160ff02191690831515021790555060208201518160000160016101000a81548160ff021916908360ff1602179055506040820151816001015560608201518160020160006101000a81548173ffffffffffffffffffffffffffffffffffffffff021916908373ffffffffffffffffffffffffffffffffffffffff1602179055509050505050565b6000600160008373ffffffffffffffffffffffffffffffffffffffff1673ffffffffffffffffffffffffffffffffffffffff16815260200190815260200160002060009054906101000a900460ff169050919050565b600080600080600260008673ffffffffffffffffffffffffffffffffffffffff1673ffffffffffffffffffffffffffffffffffffffff16815260200190815260200160002060000160009054906101000a900460ff1661090d576040517f08c379a000000000000000000000000000000000000000000000000000000000815260040161090490611802565b60405180910390fd5b6000600260008773ffffffffffffffffffffffffffffffffffffffff1673ffffffffffffffffffffffffffffffffffffffff1681526020019081526020016000206040518060800160405290816000820160009054906101000a900460ff161515151581526020016000820160019054906101000a900460ff161515151581526020016000820160029054906101000a900460ff16151515158152602001600182015481525050905080600001518160200151826040015183606001519450945094509450509193509193565b6000600360009054906101000a900460ff16905090565b600060149054906101000a900460ff16610a40576040517f08c379a0000000000000000000000000000000000000000000000000000000008152600401610a37906116be565b60405180910390fd5b60008054906101000a900473ffffffffffffffffffffffffffffffffffffffff1673ffffffffffffffffffffffffffffffffffffffff163273ffffffffffffffffffffffffffffffffffffffff1614610ace576040517f08c379a0000000000000000000000000000000000000000000000000000000008152600401610ac59061162c565b60405180910390fd5b6000600360009054906101000a900460ff1660ff1614610b23576040517f08c379a0000000000000000000000000000000000000000000000000000000008152600401610b1a90611894565b60405180910390fd5b60405180608001604052806001151581526020016001151581526020016000151581526020016000815250600260008373ffffffffffffffffffffffffffffffffffffffff1673ffffffffffffffffffffffffffffffffffffffff16815260200190815260200160002060008201518160000160006101000a81548160ff02191690831515021790555060208201518160000160016101000a81548160ff02191690831515021790555060408201518160000160026101000a81548160ff021916908315150217905550606082015181600101559050506001600360006101000a81548160ff021916908360ff16021790555050565b600060149054906101000a900460ff16610c68576040517f08c379a0000000000000000000000000000000000000000000000000000000008152600401610c5f906116be565b60405180910390fd5b60011515600160003373ffffffffffffffffffffffffffffffffffffffff1673ffffffffffffffffffffffffffffffffffffffff16815260200190815260200160002060009054906101000a900460ff16151514610cfb576040517f08c379a0000000000000000000000000000000000000000000000000000000008152600401610cf29061172a565b60405180910390fd5b565b600060149054906101000a900460ff16610d4c576040517f08c379a0000000000000000000000000000000000000000000000000000000008152600401610d43906116be565b60405180910390fd5b60011515600160003373ffffffffffffffffffffffffffffffffffffffff1673ffffffffffffffffffffffffffffffffffffffff16815260200190815260200160002060009054906101000a900460ff16151514610ddf576040517f08c379a0000000000000000000000000000000000000000000000000000000008152600401610dd69061172a565b60405180910390fd5b565b600060149054906101000a900460ff16610e30576040517f08c379a0000000000000000000000000000000000000000000000000000000008152600401610e27906116be565b60405180910390fd5b60011515600160003373ffffffffffffffffffffffffffffffffffffffff1673ffffffffffffffffffffffffffffffffffffffff16815260200190815260200160002060009054906101000a900460ff16151514610ec3576040517f08c379a0000000000000000000000000000000000000000000000000000000008152600401610eba9061172a565b60405180910390fd5b60001515600260008373ffffffffffffffffffffffffffffffffffffffff1673ffffffffffffffffffffffffffffffffffffffff16815260200190815260200160002060000160009054906101000a900460ff16151514610f59576040517f08c379a0000000000000000000000000000000000000000000000000000000008152600401610f5090611900565b60405180910390fd5b60405180608001604052806001151581526020016000151581526020016000151581526020016000815250600260008373ffffffffffffffffffffffffffffffffffffffff1673ffffffffffffffffffffffffffffffffffffffff16815260200190815260200160002060008201518160000160006101000a81548160ff02191690831515021790555060208201518160000160016101000a81548160ff02191690831515021790555060408201518160000160026101000a81548160ff021916908315150217905550606082015181600101559050506003600081819054906101000a900460ff168092919061104f9061194f565b91906101000a81548160ff021916908360ff1602179055505050565b600060149054906101000a900460ff166110ba576040517f08c379a00000000000000000000000000000000000000000000000000000000081526004016110b1906116be565b60405180910390fd5b60011515600160003373ffffffffffffffffffffffffffffffffffffffff1673ffffffffffffffffffffffffffffffffffffffff16815260200190815260200160002060009054906101000a900460ff1615151461114d576040517f08c379a00000000000000000000000000000000000000000000000000000000081526004016111449061172a565b60405180910390fd5b600260008273ffffffffffffffffffffffffffffffffffffffff1673ffffffffffffffffffffffffffffffffffffffff16815260200190815260200160002060000160009054906101000a900460ff166111dc576040517f08c379a00000000000000000000000000000000000000000000000000000000081526004016111d3906119ea565b60405180910390fd5b6001600260008373ffffffffffffffffffffffffffffffffffffffff1673ffffffffffffffffffffffffffffffffffffffff16815260200190815260200160002060000160016101000a81548160ff02191690831515021790555050565b60008060149054906101000a900460ff16905090565b60008054906101000a900473ffffffffffffffffffffffffffffffffffffffff1673ffffffffffffffffffffffffffffffffffffffff163273ffffffffffffffffffffffffffffffffffffffff16146112de576040517f08c379a00000000000000000000000000000000000000000000000000000000081526004016112d59061162c565b60405180910390fd5b80600160008473ffffffffffffffffffffffffffffffffffffffff1673ffffffffffffffffffffffffffffffffffffffff16815260200190815260200160002060006101000a81548160ff0219169083151502179055505050565b600080fd5b60008115159050919050565b6113538161133e565b811461135e57600080fd5b50565b6000813590506113708161134a565b92915050565b60006020828403121561138c5761138b611339565b5b600061139a84828501611361565b91505092915050565b6113ac8161133e565b82525050565b60006020820190506113c760008301846113a3565b92915050565b6000819050919050565b6113e0816113cd565b81146113eb57600080fd5b50565b6000813590506113fd816113d7565b92915050565b600060ff82169050919050565b61141981611403565b811461142457600080fd5b50565b60008135905061143681611410565b92915050565b6000806040838503121561145357611452611339565b5b6000611461858286016113ee565b925050602061147285828601611427565b9150509250929050565b600073ffffffffffffffffffffffffffffffffffffffff82169050919050565b60006114a78261147c565b9050919050565b6114b78161149c565b81146114c257600080fd5b50565b6000813590506114d4816114ae565b92915050565b6000602082840312156114f0576114ef611339565b5b60006114fe848285016114c5565b91505092915050565b6000819050919050565b61151a81611507565b82525050565b600060808201905061153560008301876113a3565b61154260208301866113a3565b61154f60408301856113a3565b61155c6060830184611511565b95945050505050565b61156e81611403565b82525050565b60006020820190506115896000830184611565565b92915050565b600080604083850312156115a6576115a5611339565b5b60006115b4858286016114c5565b92505060206115c585828601611361565b9150509250929050565b600082825260208201905092915050565b7f43616c6c6572206973206e6f7420636f6e7472616374206f776e657200000000600082015250565b6000611616601c836115cf565b9150611621826115e0565b602082019050919050565b6000602082019050818103600083015261164581611609565b9050919050565b7f436f6e74726163742069732063757272656e746c79206e6f74206f706572617460008201527f696f6e616c000000000000000000000000000000000000000000000000000000602082015250565b60006116a86025836115cf565b91506116b38261164c565b604082019050919050565b600060208201905081810360008301526116d78161169b565b9050919050565b7f4e6f7420616e20617574686f72697a656420636f6e74726163742063616c6c00600082015250565b6000611714601f836115cf565b915061171f826116de565b602082019050919050565b6000602082019050818103600083015261174381611707565b9050919050565b7f466c6967687420616c7265616479207265676973746572656400000000000000600082015250565b60006117806019836115cf565b915061178b8261174a565b602082019050919050565b600060208201905081810360008301526117af81611773565b9050919050565b7f4169726c696e6573206973206e6f742072656769737465726564000000000000600082015250565b60006117ec601a836115cf565b91506117f7826117b6565b602082019050919050565b6000602082019050818103600083015261181b816117df565b9050919050565b7f4f6e6c79206669727374206169726c696e652063616e2062652072656769737460008201527f6572656420686572650000000000000000000000000000000000000000000000602082015250565b600061187e6029836115cf565b915061188982611822565b604082019050919050565b600060208201905081810360008301526118ad81611871565b9050919050565b7f4169726c696e6520616c72656164792072656769737465726564000000000000600082015250565b60006118ea601a836115cf565b91506118f5826118b4565b602082019050919050565b60006020820190508181036000830152611919816118dd565b9050919050565b7f4e487b7100000000000000000000000000000000000000000000000000000000600052601160045260246000fd5b600061195a82611403565b915060ff820361196d5761196c611920565b5b600182019050919050565b7f4169726c696e652073686f756c6420626520726567697374657265642066697260008201527f7374000000000000000000000000000000000000000000000000000000000000602082015250565b60006119d46022836115cf565b91506119df82611978565b604082019050919050565b60006020820190508181036000830152611a03816119c7565b905091905056fea26469706673582212204c676dc77356403a828d170b28e88ffe419056015fa90f5dc37055c51c5b89b464736f6c63430008100033",
  "immutableReferences": {},
  "source": "// SPDX-License-Identifier: MIT\npragma solidity ^0.8.16;\n\nimport \"@openzeppelin/contracts/utils/math/SafeMath.sol\";\n\ncontract FlightSuretyData {\n\n    using SafeMath for uint256;\n\n    /********************************************************************************************/\n    /*                                       DATA VARIABLES                                     */\n    /********************************************************************************************/\n\n    // Account used to deploy contract\n    address private contractOwner;                                      \n\n    // Blocks all state changes throughout the contract if false\n    bool private operational = true;                                    \n\n    // Only authorized contracts can perform write transactions\n    mapping(address => bool) private authorized;\n     \n    // Airlines information\n    struct Airline {\n        bool isRegistered;\n        bool isAccepted;\n        bool isMember;\n        uint256 balance;\n    }\n    mapping(address => Airline) private airlines;\n    uint8 numAirlines;\n    \n    // Flights information\n    struct Flight {\n        bool isRegistered;\n        uint8 statusCode;\n        uint256 updatedTimestamp;        \n        address airline;\n    }\n    mapping(bytes32 => Flight) private flights;\n    \n    // Insurances information\n    struct Insurance {\n        address passenger;\n        uint256 amount;\n    }\n    mapping(bytes32 => Insurance[]) private insurances;\n\n    /********************************************************************************************/\n    /*                                       EVENT DEFINITIONS                                  */\n    /********************************************************************************************/\n    constructor () {\n        contractOwner = msg.sender;\n    }\n\n    /********************************************************************************************/\n    /*                                       FUNCTION MODIFIERS                                 */\n    /********************************************************************************************/\n    modifier requireIsOperational() {\n        require(operational, \"Contract is currently not operational\");\n        _;\n    }\n\n    modifier requireContractOwner() {\n        require(tx.origin == contractOwner, \"Caller is not contract owner\");\n        _;\n    }\n\n    modifier requireAuthorizedContract() {\n        require(authorized[msg.sender] == true, \"Not an authorized contract call\");\n        _;\n    }\n\n    /********************************************************************************************/\n    /*                                       UTILITY FUNCTIONS                                  */\n    /********************************************************************************************/\n    function isOperational() public view returns(bool)  {\n        return operational;\n    }\n\n    function setOperatingStatus (bool mode) external requireContractOwner {\n        operational = mode;\n    }\n\n    function isAuthorizedContract(address contractAddress) external view returns(bool) {\n        return authorized[contractAddress];\n    }\n\n    function setAuthorizedContract(address contractAddress, bool status) external requireContractOwner {\n        authorized[contractAddress] = status;\n    }\n\n    function getNumAirlines () external view returns (uint8) {\n        return numAirlines;\n    }\n\n    function isMemberAirline() external view returns(bool){\n        return airlines[msg.sender].isMember;\n    }\n\n    function getAirlineInfo(address account) external view returns (bool, bool, bool, uint256) {\n        require(airlines[account].isRegistered, \"Airlines is not registered\");\n        Airline memory aux = airlines[account];\n        return (aux.isRegistered, aux.isAccepted, aux.isMember, aux.balance);\n    }\n\n    /********************************************************************************************/\n    /*                                     SMART CONTRACT FUNCTIONS                             */\n    /********************************************************************************************/\n    function registerFirstAirline (address account) external requireIsOperational requireContractOwner {\n        require(numAirlines == 0, \"Only first airline can be registered here\");\n        airlines[account] = Airline(true, true, false, 0);\n        numAirlines = 1;\n    }\n\n    function registerAirline (address account) external requireIsOperational requireAuthorizedContract {\n        require(airlines[account].isRegistered == false, \"Airline already registered\");\n        airlines[account] = Airline(true, false, false, 0);\n        numAirlines++;\n    }\n\n    function acceptAirline (address account) external requireIsOperational requireAuthorizedContract {\n        require(airlines[account].isRegistered, \"Airline should be registered first\");\n        airlines[account].isAccepted = true;\n    }\n\n    function registerFlight (bytes32 flight, uint8 status) external requireIsOperational requireAuthorizedContract {\n        require(flights[flight].isRegistered == false, \"Flight already registered\");\n        flights[flight] = Flight(true, status, block.timestamp, msg.sender);\n    }\n\n   /**\n    * @dev Buy insurance for a flight\n    */   \n    function buy () external payable requireIsOperational requireAuthorizedContract {\n    }\n\n   /**\n    *  @dev Credits payouts to insurees\n    */\n    function creditInsurees () external requireIsOperational requireAuthorizedContract {\n    }  \n\n   /**\n    *  @dev Transfers eligible payout funds to insuree\n    */\n    function pay () external requireIsOperational requireAuthorizedContract {\n    }\n\n   /**\n    * @dev Initial funding for the insurance. Unless there are too many delayed flights resulting in insurance payouts, the contract should be self-sustaining\n    */   \n    function fund () public payable requireIsOperational requireAuthorizedContract {\n    }\n\n    function getFlightKey (address airline, string memory flight, uint256 timestamp) pure internal returns(bytes32) {\n        return keccak256(abi.encodePacked(airline, flight, timestamp));\n    }\n}",
  "sourcePath": "/home/isma/Desktop/code/blockchain/FlightSurety/contracts/FlightSuretyData.sol",
  "compiler": {
    "name": "solc",
    "version": "0.8.16+commit.07a7930e.Emscripten.clang"
  },
  "schemaVersion": "3.4.9",
  "updatedAt": "2022-09-12T21:52:15.595Z",
  "networkType": "ethereum",
  "devdoc": {
    "kind": "dev",
    "methods": {
      "buy()": {
        "details": "Buy insurance for a flight"
      },
      "creditInsurees()": {
        "details": "Credits payouts to insurees"
      },
      "fund()": {
        "details": "Initial funding for the insurance. Unless there are too many delayed flights resulting in insurance payouts, the contract should be self-sustaining"
      },
      "pay()": {
        "details": "Transfers eligible payout funds to insuree"
      }
    },
    "version": 1
  },
  "userdoc": {
    "kind": "user",
    "methods": {},
    "version": 1
  }
}