{
  "contractName": "FlightSuretyApp",
  "abi": [
    {
      "inputs": [
        {
          "internalType": "address",
          "name": "dataContract",
          "type": "address"
        },
        {
          "internalType": "address",
          "name": "firstAirline",
          "type": "address"
        }
      ],
      "stateMutability": "nonpayable",
      "type": "constructor"
    },
    {
      "anonymous": false,
      "inputs": [
        {
          "indexed": false,
          "internalType": "address",
          "name": "airline",
          "type": "address"
        },
        {
          "indexed": false,
          "internalType": "string",
          "name": "flight",
          "type": "string"
        },
        {
          "indexed": false,
          "internalType": "uint256",
          "name": "timestamp",
          "type": "uint256"
        },
        {
          "indexed": false,
          "internalType": "uint8",
          "name": "status",
          "type": "uint8"
        }
      ],
      "name": "FlightStatusInfo",
      "type": "event"
    },
    {
      "anonymous": false,
      "inputs": [
        {
          "indexed": false,
          "internalType": "address",
          "name": "airline",
          "type": "address"
        },
        {
          "indexed": false,
          "internalType": "string",
          "name": "flight",
          "type": "string"
        },
        {
          "indexed": false,
          "internalType": "uint256",
          "name": "timestamp",
          "type": "uint256"
        },
        {
          "indexed": false,
          "internalType": "uint8",
          "name": "status",
          "type": "uint8"
        }
      ],
      "name": "OracleReport",
      "type": "event"
    },
    {
      "anonymous": false,
      "inputs": [
        {
          "indexed": false,
          "internalType": "uint8",
          "name": "index",
          "type": "uint8"
        },
        {
          "indexed": false,
          "internalType": "address",
          "name": "airline",
          "type": "address"
        },
        {
          "indexed": false,
          "internalType": "string",
          "name": "flight",
          "type": "string"
        },
        {
          "indexed": false,
          "internalType": "uint256",
          "name": "timestamp",
          "type": "uint256"
        }
      ],
      "name": "OracleRequest",
      "type": "event"
    },
    {
      "inputs": [],
      "name": "REGISTRATION_FEE",
      "outputs": [
        {
          "internalType": "uint256",
          "name": "",
          "type": "uint256"
        }
      ],
      "stateMutability": "view",
      "type": "function",
      "constant": true
    },
    {
      "inputs": [],
      "name": "isOperational",
      "outputs": [
        {
          "internalType": "bool",
          "name": "",
          "type": "bool"
        }
      ],
      "stateMutability": "view",
      "type": "function",
      "constant": true
    },
    {
      "inputs": [
        {
          "internalType": "address",
          "name": "account",
          "type": "address"
        }
      ],
      "name": "registerAirline",
      "outputs": [
        {
          "internalType": "bool",
          "name": "success",
          "type": "bool"
        },
        {
          "internalType": "uint256",
          "name": "votes",
          "type": "uint256"
        }
      ],
      "stateMutability": "nonpayable",
      "type": "function"
    },
    {
      "inputs": [
        {
          "internalType": "address",
          "name": "account",
          "type": "address"
        }
      ],
      "name": "voteAirline",
      "outputs": [],
      "stateMutability": "nonpayable",
      "type": "function"
    },
    {
      "inputs": [
        {
          "internalType": "bytes32",
          "name": "flight",
          "type": "bytes32"
        }
      ],
      "name": "registerFlight",
      "outputs": [],
      "stateMutability": "nonpayable",
      "type": "function"
    },
    {
      "inputs": [
        {
          "internalType": "address",
          "name": "airline",
          "type": "address"
        },
        {
          "internalType": "string",
          "name": "flight",
          "type": "string"
        },
        {
          "internalType": "uint256",
          "name": "timestamp",
          "type": "uint256"
        }
      ],
      "name": "fetchFlightStatus",
      "outputs": [],
      "stateMutability": "nonpayable",
      "type": "function"
    },
    {
      "inputs": [],
      "name": "registerOracle",
      "outputs": [],
      "stateMutability": "payable",
      "type": "function",
      "payable": true
    },
    {
      "inputs": [],
      "name": "getMyIndexes",
      "outputs": [
        {
          "internalType": "uint8[3]",
          "name": "",
          "type": "uint8[3]"
        }
      ],
      "stateMutability": "view",
      "type": "function",
      "constant": true
    },
    {
      "inputs": [
        {
          "internalType": "uint8",
          "name": "index",
          "type": "uint8"
        },
        {
          "internalType": "address",
          "name": "airline",
          "type": "address"
        },
        {
          "internalType": "string",
          "name": "flight",
          "type": "string"
        },
        {
          "internalType": "uint256",
          "name": "timestamp",
          "type": "uint256"
        },
        {
          "internalType": "uint8",
          "name": "statusCode",
          "type": "uint8"
        }
      ],
      "name": "submitOracleResponse",
      "outputs": [],
      "stateMutability": "nonpayable",
      "type": "function"
    }
  ],
  "bytecode": "0x60806040526000600360006101000a81548160ff021916908360ff1602179055503480156200002d57600080fd5b5060405162002cf038038062002cf0833981810160405281019062000053919062000277565b336000806101000a81548173ffffffffffffffffffffffffffffffffffffffff021916908373ffffffffffffffffffffffffffffffffffffffff16021790555081600160006101000a81548173ffffffffffffffffffffffffffffffffffffffff021916908373ffffffffffffffffffffffffffffffffffffffff1602179055506000600160009054906101000a900473ffffffffffffffffffffffffffffffffffffffff1673ffffffffffffffffffffffffffffffffffffffff16637ab21cdc6040518163ffffffff1660e01b8152600401602060405180830381865afa15801562000144573d6000803e3d6000fd5b505050506040513d601f19601f820116820180604052508101906200016a9190620002fc565b60ff16036200020557600160009054906101000a900473ffffffffffffffffffffffffffffffffffffffff1673ffffffffffffffffffffffffffffffffffffffff16637d2ab0de826040518263ffffffff1660e01b8152600401620001d091906200033f565b600060405180830381600087803b158015620001eb57600080fd5b505af115801562000200573d6000803e3d6000fd5b505050505b50506200035c565b600080fd5b600073ffffffffffffffffffffffffffffffffffffffff82169050919050565b60006200023f8262000212565b9050919050565b620002518162000232565b81146200025d57600080fd5b50565b600081519050620002718162000246565b92915050565b600080604083850312156200029157620002906200020d565b5b6000620002a18582860162000260565b9250506020620002b48582860162000260565b9150509250929050565b600060ff82169050919050565b620002d681620002be565b8114620002e257600080fd5b50565b600081519050620002f681620002cb565b92915050565b6000602082840312156200031557620003146200020d565b5b60006200032584828501620002e5565b91505092915050565b620003398162000232565b82525050565b60006020820190506200035660008301846200032e565b92915050565b612984806200036c6000396000f3fe6080604052600436106100865760003560e01c8063bdfd987711610059578063bdfd987714610114578063c10f270014610152578063cd905dff1461017b578063d8ab5b89146101a6578063f83f11c0146101cf57610086565b8063339d25901461008b5780635f1cc0e61461009557806364b4f751146100c0578063bc7bf680146100eb575b600080fd5b6100936101f8565b005b3480156100a157600080fd5b506100aa6102e5565b6040516100b7919061195b565b60405180910390f35b3480156100cc57600080fd5b506100d5610425565b6040516100e2919061198f565b60405180910390f35b3480156100f757600080fd5b50610112600480360381019061010d91906119f4565b610431565b005b34801561012057600080fd5b5061013b60048036038101906101369190611a7f565b610594565b604051610149929190611ac7565b60405180910390f35b34801561015e57600080fd5b5061017960048036038101906101749190611c8e565b61098d565b005b34801561018757600080fd5b50610190610d1c565b60405161019d9190611d25565b60405180910390f35b3480156101b257600080fd5b506101cd60048036038101906101c89190611a7f565b610db4565b005b3480156101db57600080fd5b506101f660048036038101906101f19190611d40565b611378565b005b670de0b6b3a7640000341015610243576040517f08c379a000000000000000000000000000000000000000000000000000000000815260040161023a90611e0c565b60405180910390fd5b600061024e33611472565b9050604051806040016040528060011515815260200182815250600460003373ffffffffffffffffffffffffffffffffffffffff1673ffffffffffffffffffffffffffffffffffffffff16815260200190815260200160002060008201518160000160006101000a81548160ff0219169083151502179055506020820151816001019060036102de929190611740565b5090505050565b6102ed6117da565b600460003373ffffffffffffffffffffffffffffffffffffffff1673ffffffffffffffffffffffffffffffffffffffff16815260200190815260200160002060000160009054906101000a900460ff1661037c576040517f08c379a000000000000000000000000000000000000000000000000000000000815260040161037390611e78565b60405180910390fd5b600460003373ffffffffffffffffffffffffffffffffffffffff1673ffffffffffffffffffffffffffffffffffffffff16815260200190815260200160002060010160038060200260405190810160405280929190826003801561041b576020028201916000905b82829054906101000a900460ff1660ff16815260200190600101906020826000010492830192600103820291508084116103e45790505b5050505050905090565b670de0b6b3a764000081565b600160009054906101000a900473ffffffffffffffffffffffffffffffffffffffff1673ffffffffffffffffffffffffffffffffffffffff16631fedaeb46040518163ffffffff1660e01b8152600401602060405180830381865afa15801561049e573d6000803e3d6000fd5b505050506040513d601f19601f820116820180604052508101906104c29190611ec4565b610501576040517f08c379a00000000000000000000000000000000000000000000000000000000081526004016104f890611f63565b60405180910390fd5b600160009054906101000a900473ffffffffffffffffffffffffffffffffffffffff1673ffffffffffffffffffffffffffffffffffffffff166340d6b50b8260006040518363ffffffff1660e01b815260040161055f929190611fa1565b600060405180830381600087803b15801561057957600080fd5b505af115801561058d573d6000803e3d6000fd5b5050505050565b6000806005600160009054906101000a900473ffffffffffffffffffffffffffffffffffffffff1673ffffffffffffffffffffffffffffffffffffffff16637ab21cdc6040518163ffffffff1660e01b8152600401602060405180830381865afa158015610606573d6000803e3d6000fd5b505050506040513d601f19601f8201168201806040525081019061062a9190611fdf565b60ff1610156107e75760008054906101000a900473ffffffffffffffffffffffffffffffffffffffff1673ffffffffffffffffffffffffffffffffffffffff163373ffffffffffffffffffffffffffffffffffffffff16146106c1576040517f08c379a00000000000000000000000000000000000000000000000000000000081526004016106b8906120a4565b60405180910390fd5b600160009054906101000a900473ffffffffffffffffffffffffffffffffffffffff1673ffffffffffffffffffffffffffffffffffffffff1663bdfd9877846040518263ffffffff1660e01b815260040161071c91906120d3565b600060405180830381600087803b15801561073657600080fd5b505af115801561074a573d6000803e3d6000fd5b50505050600160009054906101000a900473ffffffffffffffffffffffffffffffffffffffff1673ffffffffffffffffffffffffffffffffffffffff1663bf1d9156846040518263ffffffff1660e01b81526004016107a991906120d3565b600060405180830381600087803b1580156107c357600080fd5b505af11580156107d7573d6000803e3d6000fd5b5050505060018091509150610988565b8273ffffffffffffffffffffffffffffffffffffffff163373ffffffffffffffffffffffffffffffffffffffff1614610855576040517f08c379a000000000000000000000000000000000000000000000000000000000815260040161084c90612186565b60405180910390fd5b600160009054906101000a900473ffffffffffffffffffffffffffffffffffffffff1673ffffffffffffffffffffffffffffffffffffffff1663bdfd9877336040518263ffffffff1660e01b81526004016108b091906120d3565b600060405180830381600087803b1580156108ca57600080fd5b505af11580156108de573d6000803e3d6000fd5b50505050600067ffffffffffffffff8111156108fd576108fc611b37565b5b60405190808252806020026020018201604052801561092b5781602001602082028036833780820191505090505b50600260003373ffffffffffffffffffffffffffffffffffffffff1673ffffffffffffffffffffffffffffffffffffffff168152602001908152602001600020908051906020019061097e9291906117fc565b5060016000915091505b915091565b8460ff16600460003373ffffffffffffffffffffffffffffffffffffffff1673ffffffffffffffffffffffffffffffffffffffff1681526020019081526020016000206001016000600381106109e6576109e56121a6565b5b602091828204019190069054906101000a900460ff1660ff161480610a7a57508460ff16600460003373ffffffffffffffffffffffffffffffffffffffff1673ffffffffffffffffffffffffffffffffffffffff168152602001908152602001600020600101600160038110610a5f57610a5e6121a6565b5b602091828204019190069054906101000a900460ff1660ff16145b80610af457508460ff16600460003373ffffffffffffffffffffffffffffffffffffffff1673ffffffffffffffffffffffffffffffffffffffff168152602001908152602001600020600101600260038110610ad957610ad86121a6565b5b602091828204019190069054906101000a900460ff1660ff16145b610b33576040517f08c379a0000000000000000000000000000000000000000000000000000000008152600401610b2a90612247565b60405180910390fd5b600085858585604051602001610b4c9493929190612377565b6040516020818303038152906040528051906020012090506005600082815260200190815260200160002060000160149054906101000a900460ff16610bc7576040517f08c379a0000000000000000000000000000000000000000000000000000000008152600401610bbe90612433565b60405180910390fd5b6005600082815260200190815260200160002060010160008360ff1660ff168152602001908152602001600020339080600181540180825580915050600190039060005260206000200160009091909190916101000a81548173ffffffffffffffffffffffffffffffffffffffff021916908373ffffffffffffffffffffffffffffffffffffffff1602179055507f43c853095c2752648493c88b4baac4d580d2594ffb00c6f1d4242d844514f78385858585604051610c8a949392919061248c565b60405180910390a160036005600083815260200190815260200160002060010160008460ff1660ff1681526020019081526020016000208054905010610d14577fe23f5229de535c091e3b7bec2665f5d698192d3b31393066e8987b7a05076b6c85858585604051610cff949392919061248c565b60405180910390a1610d1385858585611658565b5b505050505050565b6000600160009054906101000a900473ffffffffffffffffffffffffffffffffffffffff1673ffffffffffffffffffffffffffffffffffffffff1663cd905dff6040518163ffffffff1660e01b8152600401602060405180830381865afa158015610d8b573d6000803e3d6000fd5b505050506040513d601f19601f82011682018060405250810190610daf9190611ec4565b905090565b600160009054906101000a900473ffffffffffffffffffffffffffffffffffffffff1673ffffffffffffffffffffffffffffffffffffffff16631fedaeb46040518163ffffffff1660e01b8152600401602060405180830381865afa158015610e21573d6000803e3d6000fd5b505050506040513d601f19601f82011682018060405250810190610e459190611ec4565b610e84576040517f08c379a0000000000000000000000000000000000000000000000000000000008152600401610e7b90611f63565b60405180910390fd5b6000600160009054906101000a900473ffffffffffffffffffffffffffffffffffffffff1673ffffffffffffffffffffffffffffffffffffffff16637ab21cdc6040518163ffffffff1660e01b8152600401602060405180830381865afa158015610ef3573d6000803e3d6000fd5b505050506040513d601f19601f82011682018060405250810190610f179190611fdf565b905060048160ff1611610f5f576040517f08c379a0000000000000000000000000000000000000000000000000000000008152600401610f569061254a565b60405180910390fd5b600080600080600160009054906101000a900473ffffffffffffffffffffffffffffffffffffffff1673ffffffffffffffffffffffffffffffffffffffff1663720c7cbb876040518263ffffffff1660e01b8152600401610fc091906120d3565b608060405180830381865afa158015610fdd573d6000803e3d6000fd5b505050506040513d601f19601f82011682018060405250810190611001919061257f565b935093509350935083611049576040517f08c379a000000000000000000000000000000000000000000000000000000000815260040161104090612632565b60405180910390fd5b821561108a576040517f08c379a00000000000000000000000000000000000000000000000000000000081526004016110819061269e565b60405180910390fd5b6000805b600260008973ffffffffffffffffffffffffffffffffffffffff1673ffffffffffffffffffffffffffffffffffffffff168152602001908152602001600020805490508110156111a2573373ffffffffffffffffffffffffffffffffffffffff16600260008a73ffffffffffffffffffffffffffffffffffffffff1673ffffffffffffffffffffffffffffffffffffffff16815260200190815260200160002082815481106111405761113f6121a6565b5b9060005260206000200160009054906101000a900473ffffffffffffffffffffffffffffffffffffffff1673ffffffffffffffffffffffffffffffffffffffff160361118f57600191506111a2565b808061119a906126ed565b91505061108e565b5060001515811515146111ea576040517f08c379a00000000000000000000000000000000000000000000000000000000081526004016111e1906127a7565b60405180910390fd5b600260008873ffffffffffffffffffffffffffffffffffffffff1673ffffffffffffffffffffffffffffffffffffffff168152602001908152602001600020339080600181540180825580915050600190039060005260206000200160009091909190916101000a81548173ffffffffffffffffffffffffffffffffffffffff021916908373ffffffffffffffffffffffffffffffffffffffff1602179055506112988660ff16600261165e565b600260008973ffffffffffffffffffffffffffffffffffffffff1673ffffffffffffffffffffffffffffffffffffffff16815260200190815260200160002080549050111561136f57600160009054906101000a900473ffffffffffffffffffffffffffffffffffffffff1673ffffffffffffffffffffffffffffffffffffffff1663bf1d9156886040518263ffffffff1660e01b815260040161133c91906120d3565b600060405180830381600087803b15801561135657600080fd5b505af115801561136a573d6000803e3d6000fd5b505050505b50505050505050565b600061138333611674565b905060008185858560405160200161139e9493929190612377565b6040516020818303038152906040528051906020012090506000600560008381526020019081526020016000209050338160000160006101000a81548173ffffffffffffffffffffffffffffffffffffffff021916908373ffffffffffffffffffffffffffffffffffffffff16021790555060018160000160146101000a81548160ff0219169083151502179055507f3ed01f2c3fc24c6b329d931e35b03e390d23497d22b3f90e15b600343e93df118387878760405161146294939291906127c7565b60405180910390a1505050505050565b61147a6117da565b6114826117da565b61148b83611674565b8160006003811061149f5761149e6121a6565b5b602002019060ff16908160ff1681525050806000600381106114c4576114c36121a6565b5b6020020151816001600381106114dd576114dc6121a6565b5b602002019060ff16908160ff16815250505b80600060038110611503576115026121a6565b5b602002015160ff168160016003811061151f5761151e6121a6565b5b602002015160ff160361155f5761153583611674565b81600160038110611549576115486121a6565b5b602002019060ff16908160ff16815250506114ef565b80600160038110611573576115726121a6565b5b60200201518160026003811061158c5761158b6121a6565b5b602002019060ff16908160ff16815250505b806000600381106115b2576115b16121a6565b5b602002015160ff16816002600381106115ce576115cd6121a6565b5b602002015160ff1614806116175750806001600381106115f1576115f06121a6565b5b602002015160ff168160026003811061160d5761160c6121a6565b5b602002015160ff16145b1561164f5761162583611674565b81600260038110611639576116386121a6565b5b602002019060ff16908160ff168152505061159e565b80915050919050565b50505050565b6000818361166c9190612842565b905092915050565b600080600a905060008160ff166003600081819054906101000a900460ff16809291906116a090612873565b91906101000a81548160ff021916908360ff16021790555060ff16436116c6919061289c565b40856040516020016116d99291906128f1565b6040516020818303038152906040528051906020012060001c6116fc919061291d565b905060fa600360009054906101000a900460ff1660ff161115611736576000600360006101000a81548160ff021916908360ff1602179055505b8092505050919050565b826003601f016020900481019282156117c95791602002820160005b8382111561179a57835183826101000a81548160ff021916908360ff160217905550926020019260010160208160000104928301926001030261175c565b80156117c75782816101000a81549060ff021916905560010160208160000104928301926001030261179a565b505b5090506117d69190611886565b5090565b6040518060600160405280600390602082028036833780820191505090505090565b828054828255906000526020600020908101928215611875579160200282015b828111156118745782518260006101000a81548173ffffffffffffffffffffffffffffffffffffffff021916908373ffffffffffffffffffffffffffffffffffffffff1602179055509160200191906001019061181c565b5b5090506118829190611886565b5090565b5b8082111561189f576000816000905550600101611887565b5090565b600060039050919050565b600081905092915050565b6000819050919050565b600060ff82169050919050565b6118d9816118c3565b82525050565b60006118eb83836118d0565b60208301905092915050565b6000602082019050919050565b61190d816118a3565b61191781846118ae565b9250611922826118b9565b8060005b8381101561195357815161193a87826118df565b9650611945836118f7565b925050600181019050611926565b505050505050565b60006060820190506119706000830184611904565b92915050565b6000819050919050565b61198981611976565b82525050565b60006020820190506119a46000830184611980565b92915050565b6000604051905090565b600080fd5b600080fd5b6000819050919050565b6119d1816119be565b81146119dc57600080fd5b50565b6000813590506119ee816119c8565b92915050565b600060208284031215611a0a57611a096119b4565b5b6000611a18848285016119df565b91505092915050565b600073ffffffffffffffffffffffffffffffffffffffff82169050919050565b6000611a4c82611a21565b9050919050565b611a5c81611a41565b8114611a6757600080fd5b50565b600081359050611a7981611a53565b92915050565b600060208284031215611a9557611a946119b4565b5b6000611aa384828501611a6a565b91505092915050565b60008115159050919050565b611ac181611aac565b82525050565b6000604082019050611adc6000830185611ab8565b611ae96020830184611980565b9392505050565b611af9816118c3565b8114611b0457600080fd5b50565b600081359050611b1681611af0565b92915050565b600080fd5b600080fd5b6000601f19601f8301169050919050565b7f4e487b7100000000000000000000000000000000000000000000000000000000600052604160045260246000fd5b611b6f82611b26565b810181811067ffffffffffffffff82111715611b8e57611b8d611b37565b5b80604052505050565b6000611ba16119aa565b9050611bad8282611b66565b919050565b600067ffffffffffffffff821115611bcd57611bcc611b37565b5b611bd682611b26565b9050602081019050919050565b82818337600083830152505050565b6000611c05611c0084611bb2565b611b97565b905082815260208101848484011115611c2157611c20611b21565b5b611c2c848285611be3565b509392505050565b600082601f830112611c4957611c48611b1c565b5b8135611c59848260208601611bf2565b91505092915050565b611c6b81611976565b8114611c7657600080fd5b50565b600081359050611c8881611c62565b92915050565b600080600080600060a08688031215611caa57611ca96119b4565b5b6000611cb888828901611b07565b9550506020611cc988828901611a6a565b945050604086013567ffffffffffffffff811115611cea57611ce96119b9565b5b611cf688828901611c34565b9350506060611d0788828901611c79565b9250506080611d1888828901611b07565b9150509295509295909350565b6000602082019050611d3a6000830184611ab8565b92915050565b600080600060608486031215611d5957611d586119b4565b5b6000611d6786828701611a6a565b935050602084013567ffffffffffffffff811115611d8857611d876119b9565b5b611d9486828701611c34565b9250506040611da586828701611c79565b9150509250925092565b600082825260208201905092915050565b7f526567697374726174696f6e2066656520697320726571756972656400000000600082015250565b6000611df6601c83611daf565b9150611e0182611dc0565b602082019050919050565b60006020820190508181036000830152611e2581611de9565b9050919050565b7f4e6f74207265676973746572656420617320616e206f7261636c650000000000600082015250565b6000611e62601b83611daf565b9150611e6d82611e2c565b602082019050919050565b60006020820190508181036000830152611e9181611e55565b9050919050565b611ea181611aac565b8114611eac57600080fd5b50565b600081519050611ebe81611e98565b92915050565b600060208284031215611eda57611ed96119b4565b5b6000611ee884828501611eaf565b91505092915050565b7f43616c6c65722073686f756c642062652061206d656d626572206169726c696e60008201527f6500000000000000000000000000000000000000000000000000000000000000602082015250565b6000611f4d602183611daf565b9150611f5882611ef1565b604082019050919050565b60006020820190508181036000830152611f7c81611f40565b9050919050565b611f8c816119be565b82525050565b611f9b816118c3565b82525050565b6000604082019050611fb66000830185611f83565b611fc36020830184611f92565b9392505050565b600081519050611fd981611af0565b92915050565b600060208284031215611ff557611ff46119b4565b5b600061200384828501611fca565b91505092915050565b7f466972737420666f7572206169726c696e65732061726520726567697374657260008201527f65642062792074686520636f6e7472616374206f776e657220616b612066697260208201527f7374206169726c696e6500000000000000000000000000000000000000000000604082015250565b600061208e604a83611daf565b91506120998261200c565b606082019050919050565b600060208201905081810360008301526120bd81612081565b9050919050565b6120cd81611a41565b82525050565b60006020820190506120e860008301846120c4565b92915050565b7f4f6e6c792074686520666f756e646572206169726c696e65732077617320616260008201527f6c6520746f207265676973746572206f74686572206169726c696e657320696e60208201527f207468652062656767696e696e67000000000000000000000000000000000000604082015250565b6000612170604e83611daf565b915061217b826120ee565b606082019050919050565b6000602082019050818103600083015261219f81612163565b9050919050565b7f4e487b7100000000000000000000000000000000000000000000000000000000600052603260045260246000fd5b7f496e64657820646f6573206e6f74206d61746368206f7261636c65207265717560008201527f6573740000000000000000000000000000000000000000000000000000000000602082015250565b6000612231602383611daf565b915061223c826121d5565b604082019050919050565b6000602082019050818103600083015261226081612224565b9050919050565b60008160f81b9050919050565b600061227f82612267565b9050919050565b612297612292826118c3565b612274565b82525050565b60008160601b9050919050565b60006122b58261229d565b9050919050565b60006122c7826122aa565b9050919050565b6122df6122da82611a41565b6122bc565b82525050565b600081519050919050565b600081905092915050565b60005b838110156123195780820151818401526020810190506122fe565b60008484015250505050565b6000612330826122e5565b61233a81856122f0565b935061234a8185602086016122fb565b80840191505092915050565b6000819050919050565b61237161236c82611976565b612356565b82525050565b60006123838287612286565b60018201915061239382866122ce565b6014820191506123a38285612325565b91506123af8284612360565b60208201915081905095945050505050565b7f466c69676874206f722074696d657374616d7020646f206e6f74206d6174636860008201527f206f7261636c6520726571756573740000000000000000000000000000000000602082015250565b600061241d602f83611daf565b9150612428826123c1565b604082019050919050565b6000602082019050818103600083015261244c81612410565b9050919050565b600061245e826122e5565b6124688185611daf565b93506124788185602086016122fb565b61248181611b26565b840191505092915050565b60006080820190506124a160008301876120c4565b81810360208301526124b38186612453565b90506124c26040830185611980565b6124cf6060830184611f92565b95945050505050565b7f5468657265206e65656420746f206265206174206c656173742035206169726c60008201527f696e657320746f20766f746520666f72206a6f696e0000000000000000000000602082015250565b6000612534603583611daf565b915061253f826124d8565b604082019050919050565b6000602082019050818103600083015261256381612527565b9050919050565b60008151905061257981611c62565b92915050565b60008060008060808587031215612599576125986119b4565b5b60006125a787828801611eaf565b94505060206125b887828801611eaf565b93505060406125c987828801611eaf565b92505060606125da8782880161256a565b91505092959194509250565b7f4169726c696e65206e6f74207265676973746572656400000000000000000000600082015250565b600061261c601683611daf565b9150612627826125e6565b602082019050919050565b6000602082019050818103600083015261264b8161260f565b9050919050565b7f4169726c696e6520697320616c72656164792061636365707465640000000000600082015250565b6000612688601b83611daf565b915061269382612652565b602082019050919050565b600060208201905081810360008301526126b78161267b565b9050919050565b7f4e487b7100000000000000000000000000000000000000000000000000000000600052601160045260246000fd5b60006126f882611976565b91507fffffffffffffffffffffffffffffffffffffffffffffffffffffffffffffffff820361272a576127296126be565b5b600182019050919050565b7f416e206169726c696e652063616e20766f7465206a757374206f6e636520666f60008201527f7220616e6f74686572206169726c696e6520746f206a6f696e00000000000000602082015250565b6000612791603983611daf565b915061279c82612735565b604082019050919050565b600060208201905081810360008301526127c081612784565b9050919050565b60006080820190506127dc6000830187611f92565b6127e960208301866120c4565b81810360408301526127fb8185612453565b905061280a6060830184611980565b95945050505050565b7f4e487b7100000000000000000000000000000000000000000000000000000000600052601260045260246000fd5b600061284d82611976565b915061285883611976565b92508261286857612867612813565b5b828204905092915050565b600061287e826118c3565b915060ff8203612891576128906126be565b5b600182019050919050565b60006128a782611976565b91506128b283611976565b92508282039050818111156128ca576128c96126be565b5b92915050565b6000819050919050565b6128eb6128e6826119be565b6128d0565b82525050565b60006128fd82856128da565b60208201915061290d82846122ce565b6014820191508190509392505050565b600061292882611976565b915061293383611976565b92508261294357612942612813565b5b82820690509291505056fea2646970667358221220d9fe0b27f2c33200cd85baa231a7c37a9d70a151ddd5abc7b1fd33efaecc5b5e64736f6c63430008100033",
  "immutableReferences": {},
  "source": "// SPDX-License-Identifier: MIT\npragma solidity ^0.8.16;\n\nimport \"@openzeppelin/contracts/utils/math/SafeMath.sol\";\nimport \"./FlightSuretyData.sol\";\n\n/************************************************** */\n/* FlightSurety Smart Contract                      */\n/************************************************** */\ncontract FlightSuretyApp {\n\n    using SafeMath for uint256;\n\n    /********************************************************************************************/\n    /*                                       DATA VARIABLES                                     */\n    /********************************************************************************************/\n\n    // Flight status codees\n    uint8 private constant STATUS_CODE_UNKNOWN = 0;\n    uint8 private constant STATUS_CODE_ON_TIME = 10;\n    uint8 private constant STATUS_CODE_LATE_AIRLINE = 20;\n    uint8 private constant STATUS_CODE_LATE_WEATHER = 30;\n    uint8 private constant STATUS_CODE_LATE_TECHNICAL = 40;\n    uint8 private constant STATUS_CODE_LATE_OTHER = 50;\n\n    // Account used to deploy contract\n    address private contractOwner;\n\n    // Data smart contract\n    FlightSuretyData flightSuretyData;\n\n    // Airlines votes\n    mapping(address => address[]) airlinesVotes;\n \n    /********************************************************************************************/\n    /*                                       FUNCTION MODIFIERS                                 */\n    /********************************************************************************************/\n    modifier requireIsOperational() {\n        require(flightSuretyData.isOperational() == true, \"Contract is currently not operational\");  \n        _;\n    }\n\n    modifier requireContractOwner() {\n        require(msg.sender == contractOwner, \"Caller is not contract owner\");\n        _;\n    }\n\n    modifier requireMemberAirline() {\n        require(flightSuretyData.isMemberAirline(), \"Caller should be a member airline\");\n        _;\n    }\n\n    /********************************************************************************************/\n    /*                                       CONSTRUCTOR                                        */\n    /********************************************************************************************/\n    constructor (address dataContract, address firstAirline) {\n        contractOwner = msg.sender;\n        flightSuretyData = FlightSuretyData(dataContract);\n        // If data has 0 airlines register the founder airline at this time\n        if (flightSuretyData.getNumAirlines() == 0) {\n            flightSuretyData.registerFirstAirline(firstAirline);\n        }\n    }\n\n    /********************************************************************************************/\n    /*                                       UTILITY FUNCTIONS                                  */\n    /********************************************************************************************/\n    function isOperational() public view returns(bool) {\n        return flightSuretyData.isOperational();\n    }\n\n    /********************************************************************************************/\n    /*                                     SMART CONTRACT FUNCTIONS                             */\n    /********************************************************************************************/\n    function registerAirline(address account) external returns(bool success, uint256 votes) {\n        // The registration and voting criteria (50%) should be located in the APP smart contract not in the data contract\n        // this is because the criteria to accept an airline to join the group could change in the future (business rules) and\n        // therefore it's better not to mixed this business rules with the data smart contract.\n        if (flightSuretyData.getNumAirlines() < 5) {\n            require(msg.sender == contractOwner, \"First four airlines are registered by the contract owner aka first airline\");\n            flightSuretyData.registerAirline(account);\n            flightSuretyData.acceptAirline(account);\n            return (true, 1);\n        } else {\n            require(msg.sender == account, \"Only the founder airlines was able to register other airlines in the beggining\");\n            flightSuretyData.registerAirline(msg.sender);\n            airlinesVotes[msg.sender] = new address[](0);\n            return (true, 0);\n        }\n    }\n\n    function voteAirline(address account) external requireMemberAirline {\n        // Voting is only required after the fifth ailines registered\n        uint8 numAirlines = flightSuretyData.getNumAirlines();\n        require(numAirlines > 4, \"There need to be at least 5 airlines to vote for join\");\n        // Only waiting airlines to join can be voted in\n        (bool isRegistered, bool isAccepted, bool isMember, uint256 balance) = flightSuretyData.getAirlineInfo(account);\n        require(isRegistered, \"Airline not registered\");\n        require(!isAccepted, \"Airline is already accepted\");\n        // One airline can vote just once for another airline to join\n        bool isDuplicate = false;\n        for (uint256 i = 0; i < airlinesVotes[account].length; i++) {\n            if ( airlinesVotes[account][i] == msg.sender) {\n                isDuplicate = true;\n                break;\n            }\n        }\n        require(isDuplicate == false, \"An airline can vote just once for another airline to join\");\n        // Vote and check 50%\n        airlinesVotes[account].push(msg.sender);\n        if (airlinesVotes[account].length > SafeMath.div(numAirlines, 2)) {\n            flightSuretyData.acceptAirline(account);\n        }\n    }\n\n   /**\n    * @dev Register a future flight for insuring.\n    */  \n    function registerFlight (bytes32 flight) external requireMemberAirline {\n        flightSuretyData.registerFlight(flight, STATUS_CODE_UNKNOWN);\n    }\n    \n   /**\n    * @dev Called after oracle has updated flight status\n    */  \n    function processFlightStatus (address airline, string memory flight, uint256 timestamp, uint8 statusCode) internal pure {\n    }\n\n    // Generate a request for oracles to fetch flight information\n    function fetchFlightStatus (address airline, string memory flight, uint256 timestamp ) external {\n        uint8 index = getRandomIndex(msg.sender);\n        // Generate a unique key for storing the request\n        bytes32 key = keccak256(abi.encodePacked(index, airline, flight, timestamp));\n        ResponseInfo storage newResponseInfo = oracleResponses[key];\n        newResponseInfo.requester = msg.sender;\n        newResponseInfo.isOpen = true;\n        emit OracleRequest(index, airline, flight, timestamp);\n    } \n\n\n    // region ORACLE MANAGEMENT\n\n    // Incremented to add pseudo-randomness at various points\n    uint8 private nonce = 0;    \n\n    // Fee to be paid when registering oracle\n    uint256 public constant REGISTRATION_FEE = 1 ether;\n\n    // Number of oracles that must respond for valid status\n    uint256 private constant MIN_RESPONSES = 3;\n\n\n    struct Oracle {\n        bool isRegistered;\n        uint8[3] indexes;        \n    }\n\n    // Track all registered oracles\n    mapping(address => Oracle) private oracles;\n\n    // Model for responses from oracles\n    struct ResponseInfo {\n        address requester;                              // Account that requested status\n        bool isOpen;                                    // If open, oracle responses are accepted\n        mapping(uint8 => address[]) responses;          // Mapping key is the status code reported\n                                                        // This lets us group responses and identify\n                                                        // the response that majority of the oracles\n    }\n\n    // Track all oracle responses\n    // Key = hash(index, flight, timestamp)\n    mapping(bytes32 => ResponseInfo) private oracleResponses;\n\n    // Event fired each time an oracle submits a response\n    event FlightStatusInfo(address airline, string flight, uint256 timestamp, uint8 status);\n\n    event OracleReport(address airline, string flight, uint256 timestamp, uint8 status);\n\n    // Event fired when flight status request is submitted\n    // Oracles track this and if they have a matching index\n    // they fetch data and submit a response\n    event OracleRequest(uint8 index, address airline, string flight, uint256 timestamp);\n\n\n    // Register an oracle with the contract\n    function registerOracle () external payable {\n        // Require registration fee\n        require(msg.value >= REGISTRATION_FEE, \"Registration fee is required\");\n        uint8[3] memory indexes = generateIndexes(msg.sender);\n        oracles[msg.sender] = Oracle({ isRegistered: true, indexes: indexes });\n    }\n\n    function getMyIndexes () view external returns(uint8[3] memory) {\n        require(oracles[msg.sender].isRegistered, \"Not registered as an oracle\");\n        return oracles[msg.sender].indexes;\n    }\n\n    // Called by oracle when a response is available to an outstanding request\n    // For the response to be accepted, there must be a pending request that is open\n    // and matches one of the three Indexes randomly assigned to the oracle at the\n    // time of registration (i.e. uninvited oracles are not welcome)\n    function submitOracleResponse (uint8 index, address airline, string memory flight, uint256 timestamp, uint8 statusCode) external {\n        require((oracles[msg.sender].indexes[0] == index) || (oracles[msg.sender].indexes[1] == index) || (oracles[msg.sender].indexes[2] == index), \"Index does not match oracle request\");\n        bytes32 key = keccak256(abi.encodePacked(index, airline, flight, timestamp)); \n        require(oracleResponses[key].isOpen, \"Flight or timestamp do not match oracle request\");\n        oracleResponses[key].responses[statusCode].push(msg.sender);\n        // Information isn't considered verified until at least MIN_RESPONSES\n        // oracles respond with the *** same *** information\n        emit OracleReport(airline, flight, timestamp, statusCode);\n        if (oracleResponses[key].responses[statusCode].length >= MIN_RESPONSES) {\n            emit FlightStatusInfo(airline, flight, timestamp, statusCode);\n            // Handle flight status as appropriate\n            processFlightStatus(airline, flight, timestamp, statusCode);\n        }\n    }\n\n    function getFlightKey (address airline, string memory flight, uint256 timestamp ) pure internal returns(bytes32) {\n        return keccak256(abi.encodePacked(airline, flight, timestamp));\n    }\n\n    // Returns array of three non-duplicating integers from 0-9\n    function generateIndexes (address account) internal returns(uint8[3] memory) {\n        uint8[3] memory indexes;\n        indexes[0] = getRandomIndex(account);\n        indexes[1] = indexes[0];\n        while(indexes[1] == indexes[0]) {\n            indexes[1] = getRandomIndex(account);\n        }\n        indexes[2] = indexes[1];\n        while((indexes[2] == indexes[0]) || (indexes[2] == indexes[1])) {\n            indexes[2] = getRandomIndex(account);\n        }\n        return indexes;\n    }\n\n    // Returns array of three non-duplicating integers from 0-9\n    function getRandomIndex (address account) internal returns (uint8) {\n        uint8 maxValue = 10;\n        // Pseudo random number...the incrementing nonce adds variation\n        uint8 random = uint8(uint256(keccak256(abi.encodePacked(blockhash(block.number - nonce++), account))) % maxValue);\n        if (nonce > 250) {\n            nonce = 0;  // Can only fetch blockhashes for last 256 blocks so we adapt\n        }\n        return random;\n    }\n\n    // endregion\n}   \n",
  "sourcePath": "/home/isma/Desktop/code/blockchain/FlightSurety/contracts/FlightSuretyApp.sol",
  "compiler": {
    "name": "solc",
    "version": "0.8.16+commit.07a7930e.Emscripten.clang"
  },
  "schemaVersion": "3.4.9",
  "updatedAt": "2022-09-12T21:52:15.587Z",
  "networkType": "ethereum",
  "devdoc": {
    "kind": "dev",
    "methods": {
      "registerFlight(bytes32)": {
        "details": "Register a future flight for insuring."
      }
    },
    "version": 1
  },
  "userdoc": {
    "kind": "user",
    "methods": {},
    "version": 1
  }
}