{
  "contractName": "FlightSuretyData",
  "abi": [
    {
      "inputs": [],
      "stateMutability": "nonpayable",
      "type": "constructor"
    },
    {
      "inputs": [],
      "name": "isOperational",
      "outputs": [
        {
          "internalType": "bool",
          "name": "",
          "type": "bool"
        }
      ],
      "stateMutability": "view",
      "type": "function"
    },
    {
      "inputs": [
        {
          "internalType": "bool",
          "name": "status",
          "type": "bool"
        }
      ],
      "name": "setOperatingStatus",
      "outputs": [],
      "stateMutability": "nonpayable",
      "type": "function"
    },
    {
      "inputs": [
        {
          "internalType": "address",
          "name": "contractAddress",
          "type": "address"
        }
      ],
      "name": "isAuthorizedContract",
      "outputs": [
        {
          "internalType": "bool",
          "name": "",
          "type": "bool"
        }
      ],
      "stateMutability": "view",
      "type": "function"
    },
    {
      "inputs": [
        {
          "internalType": "address",
          "name": "contractAddress",
          "type": "address"
        },
        {
          "internalType": "bool",
          "name": "status",
          "type": "bool"
        }
      ],
      "name": "setAuthorizedContract",
      "outputs": [],
      "stateMutability": "nonpayable",
      "type": "function"
    },
    {
      "inputs": [],
      "name": "getFirstAirline",
      "outputs": [
        {
          "internalType": "address",
          "name": "",
          "type": "address"
        }
      ],
      "stateMutability": "view",
      "type": "function"
    },
    {
      "inputs": [],
      "name": "getNumAirlines",
      "outputs": [
        {
          "internalType": "uint256",
          "name": "",
          "type": "uint256"
        }
      ],
      "stateMutability": "view",
      "type": "function"
    },
    {
      "inputs": [
        {
          "internalType": "address",
          "name": "account",
          "type": "address"
        }
      ],
      "name": "isRegisteredAirline",
      "outputs": [
        {
          "internalType": "bool",
          "name": "",
          "type": "bool"
        }
      ],
      "stateMutability": "view",
      "type": "function"
    },
    {
      "inputs": [
        {
          "internalType": "address",
          "name": "account",
          "type": "address"
        }
      ],
      "name": "isAcceptedAirline",
      "outputs": [
        {
          "internalType": "bool",
          "name": "",
          "type": "bool"
        }
      ],
      "stateMutability": "view",
      "type": "function"
    },
    {
      "inputs": [
        {
          "internalType": "address",
          "name": "account",
          "type": "address"
        }
      ],
      "name": "isMemberAirline",
      "outputs": [
        {
          "internalType": "bool",
          "name": "",
          "type": "bool"
        }
      ],
      "stateMutability": "view",
      "type": "function"
    },
    {
      "inputs": [
        {
          "internalType": "address",
          "name": "account",
          "type": "address"
        }
      ],
      "name": "getAirlineBalance",
      "outputs": [
        {
          "internalType": "uint256",
          "name": "",
          "type": "uint256"
        }
      ],
      "stateMutability": "view",
      "type": "function"
    },
    {
      "inputs": [
        {
          "internalType": "address",
          "name": "account",
          "type": "address"
        }
      ],
      "name": "getAirlineInfo",
      "outputs": [
        {
          "internalType": "bool",
          "name": "",
          "type": "bool"
        },
        {
          "internalType": "bool",
          "name": "",
          "type": "bool"
        },
        {
          "internalType": "bool",
          "name": "",
          "type": "bool"
        },
        {
          "internalType": "uint256",
          "name": "",
          "type": "uint256"
        }
      ],
      "stateMutability": "view",
      "type": "function"
    },
    {
      "inputs": [],
      "name": "getAirlines",
      "outputs": [
        {
          "internalType": "address[]",
          "name": "",
          "type": "address[]"
        }
      ],
      "stateMutability": "view",
      "type": "function"
    },
    {
      "inputs": [
        {
          "internalType": "string",
          "name": "flight",
          "type": "string"
        }
      ],
      "name": "getFlightInfo",
      "outputs": [
        {
          "internalType": "uint8",
          "name": "statusCode",
          "type": "uint8"
        },
        {
          "internalType": "uint256",
          "name": "updatedTimestamp",
          "type": "uint256"
        },
        {
          "internalType": "address",
          "name": "airline",
          "type": "address"
        }
      ],
      "stateMutability": "view",
      "type": "function"
    },
    {
      "inputs": [],
      "name": "getFlights",
      "outputs": [
        {
          "internalType": "string[]",
          "name": "",
          "type": "string[]"
        }
      ],
      "stateMutability": "view",
      "type": "function"
    },
    {
      "inputs": [
        {
          "internalType": "address",
          "name": "account",
          "type": "address"
        }
      ],
      "name": "registerFirstAirline",
      "outputs": [],
      "stateMutability": "nonpayable",
      "type": "function"
    },
    {
      "inputs": [
        {
          "internalType": "address",
          "name": "account",
          "type": "address"
        }
      ],
      "name": "registerAirline",
      "outputs": [],
      "stateMutability": "nonpayable",
      "type": "function"
    },
    {
      "inputs": [
        {
          "internalType": "address",
          "name": "account",
          "type": "address"
        }
      ],
      "name": "acceptAirline",
      "outputs": [],
      "stateMutability": "nonpayable",
      "type": "function"
    },
    {
      "inputs": [
        {
          "internalType": "address",
          "name": "account",
          "type": "address"
        },
        {
          "internalType": "string",
          "name": "flight",
          "type": "string"
        },
        {
          "internalType": "uint8",
          "name": "status",
          "type": "uint8"
        }
      ],
      "name": "registerFlight",
      "outputs": [],
      "stateMutability": "nonpayable",
      "type": "function"
    },
    {
      "inputs": [
        {
          "internalType": "string",
          "name": "flight",
          "type": "string"
        }
      ],
      "name": "buy",
      "outputs": [],
      "stateMutability": "payable",
      "type": "function"
    },
    {
      "inputs": [],
      "name": "creditInsurees",
      "outputs": [],
      "stateMutability": "nonpayable",
      "type": "function"
    },
    {
      "inputs": [],
      "name": "pay",
      "outputs": [],
      "stateMutability": "nonpayable",
      "type": "function"
    },
    {
      "inputs": [],
      "name": "fund",
      "outputs": [],
      "stateMutability": "payable",
      "type": "function"
    }
  ],
  "bytecode": "0x60806040526001600060146101000a81548160ff021916908315150217905550600067ffffffffffffffff8111156200003d576200003c6200032d565b5b6040519080825280602002602001820160405280156200006c5781602001602082028036833780820191505090505b506003908051906020019062000084929190620001b1565b50600067ffffffffffffffff811115620000a357620000a26200032d565b5b604051908082528060200260200182016040528015620000d857816020015b6060815260200190600190039081620000c25790505b5060059080519060200190620000f092919062000240565b50600067ffffffffffffffff8111156200010f576200010e6200032d565b5b6040519080825280602002602001820160405280156200014457816020015b60608152602001906001900390816200012e5790505b50600790805190602001906200015c92919062000240565b503480156200016a57600080fd5b50336000806101000a81548173ffffffffffffffffffffffffffffffffffffffff021916908373ffffffffffffffffffffffffffffffffffffffff1602179055506200068e565b8280548282559060005260206000209081019282156200022d579160200282015b828111156200022c5782518260006101000a81548173ffffffffffffffffffffffffffffffffffffffff021916908373ffffffffffffffffffffffffffffffffffffffff16021790555091602001919060010190620001d2565b5b5090506200023c9190620002a0565b5090565b8280548282559060005260206000209081019282156200028d579160200282015b828111156200028c5782518290816200027b9190620005a7565b509160200191906001019062000261565b5b5090506200029c9190620002bf565b5090565b5b80821115620002bb576000816000905550600101620002a1565b5090565b5b80821115620002e35760008181620002d99190620002e7565b50600101620002c0565b5090565b508054620002f59062000396565b6000825580601f106200030957506200032a565b601f016020900490600052602060002090810190620003299190620002a0565b5b50565b7f4e487b7100000000000000000000000000000000000000000000000000000000600052604160045260246000fd5b600081519050919050565b7f4e487b7100000000000000000000000000000000000000000000000000000000600052602260045260246000fd5b60006002820490506001821680620003af57607f821691505b602082108103620003c557620003c462000367565b5b50919050565b60008190508160005260206000209050919050565b60006020601f8301049050919050565b600082821b905092915050565b6000600883026200042f7fffffffffffffffffffffffffffffffffffffffffffffffffffffffffffffffff82620003f0565b6200043b8683620003f0565b95508019841693508086168417925050509392505050565b6000819050919050565b6000819050919050565b600062000488620004826200047c8462000453565b6200045d565b62000453565b9050919050565b6000819050919050565b620004a48362000467565b620004bc620004b3826200048f565b848454620003fd565b825550505050565b600090565b620004d3620004c4565b620004e081848462000499565b505050565b5b818110156200050857620004fc600082620004c9565b600181019050620004e6565b5050565b601f82111562000557576200052181620003cb565b6200052c84620003e0565b810160208510156200053c578190505b620005546200054b85620003e0565b830182620004e5565b50505b505050565b600082821c905092915050565b60006200057c600019846008026200055c565b1980831691505092915050565b600062000597838362000569565b9150826002028217905092915050565b620005b2826200035c565b67ffffffffffffffff811115620005ce57620005cd6200032d565b5b620005da825462000396565b620005e78282856200050c565b600060209050601f8311600181146200061f57600084156200060a578287015190505b62000616858262000589565b86555062000686565b601f1984166200062f86620003cb565b60005b82811015620006595784890151825560018201915060208501945060208101905062000632565b8683101562000679578489015162000675601f89168262000569565b8355505b6001600288020188555050505b505050505050565b612c1a806200069e6000396000f3fe6080604052600436106101355760003560e01c806380c575f0116100ab578063b60d42881161006f578063b60d428814610432578063bdfd98771461043c578063bf1d915614610465578063cd905dff1461048e578063d548b64c146104b9578063f2fa7392146104e257610135565b806380c575f01461031157806389208e721461034e57806394c260ee1461038b578063a78d9799146103b6578063b22bccc0146103f357610135565b8063492cc769116100fd578063492cc769146101e7578063619f73fa1461020357806366d0ead314610240578063720c7cbb1461027d5780637ab21cdc146102bd5780637d2ab0de146102e857610135565b806302eb72ad1461013a5780630d5dc05414610165578063110466ed146101905780631b9265b8146101b957806336cee484146101d0575b600080fd5b34801561014657600080fd5b5061014f61050b565b60405161015c9190611c3b565b60405180910390f35b34801561017157600080fd5b5061017a610552565b6040516101879190611d14565b60405180910390f35b34801561019c57600080fd5b506101b760048036038101906101b29190611d82565b6105e0565b005b3480156101c557600080fd5b506101ce61068b565b005b3480156101dc57600080fd5b506101e561076f565b005b61020160048036038101906101fc9190611ef5565b610853565b005b34801561020f57600080fd5b5061022a60048036038101906102259190611f6a565b610a29565b6040516102379190611fa6565b60405180910390f35b34801561024c57600080fd5b5061026760048036038101906102629190611f6a565b610a82565b6040516102749190611fa6565b60405180910390f35b34801561028957600080fd5b506102a4600480360381019061029f9190611f6a565b610ad8565b6040516102b49493929190611fda565b60405180910390f35b3480156102c957600080fd5b506102d2610c3a565b6040516102df919061201f565b60405180910390f35b3480156102f457600080fd5b5061030f600480360381019061030a9190611f6a565b610c47565b005b34801561031d57600080fd5b5061033860048036038101906103339190611f6a565b610ea9565b6040516103459190611fa6565b60405180910390f35b34801561035a57600080fd5b5061037560048036038101906103709190611f6a565b610f02565b604051610382919061201f565b60405180910390f35b34801561039757600080fd5b506103a0610fdd565b6040516103ad919061217b565b60405180910390f35b3480156103c257600080fd5b506103dd60048036038101906103d89190611f6a565b6110b6565b6040516103ea9190611fa6565b60405180910390f35b3480156103ff57600080fd5b5061041a60048036038101906104159190611ef5565b61110f565b604051610429939291906121b9565b60405180910390f35b61043a6111f5565b005b34801561044857600080fd5b50610463600480360381019061045e9190611f6a565b6113fc565b005b34801561047157600080fd5b5061048c60048036038101906104879190611f6a565b611648565b005b34801561049a57600080fd5b506104a361187a565b6040516104b09190611fa6565b60405180910390f35b3480156104c557600080fd5b506104e060048036038101906104db919061221c565b611890565b005b3480156104ee57600080fd5b506105096004803603810190610504919061228b565b611b11565b005b60006003600081548110610522576105216122cb565b5b9060005260206000200160009054906101000a900473ffffffffffffffffffffffffffffffffffffffff16905090565b606060038054806020026020016040519081016040528092919081815260200182805480156105d657602002820191906000526020600020905b8160009054906101000a900473ffffffffffffffffffffffffffffffffffffffff1673ffffffffffffffffffffffffffffffffffffffff168152602001906001019080831161058c575b5050505050905090565b60008054906101000a900473ffffffffffffffffffffffffffffffffffffffff1673ffffffffffffffffffffffffffffffffffffffff163273ffffffffffffffffffffffffffffffffffffffff161461066e576040517f08c379a000000000000000000000000000000000000000000000000000000000815260040161066590612357565b60405180910390fd5b80600060146101000a81548160ff02191690831515021790555050565b600060149054906101000a900460ff166106da576040517f08c379a00000000000000000000000000000000000000000000000000000000081526004016106d1906123e9565b60405180910390fd5b60011515600160003373ffffffffffffffffffffffffffffffffffffffff1673ffffffffffffffffffffffffffffffffffffffff16815260200190815260200160002060009054906101000a900460ff1615151461076d576040517f08c379a000000000000000000000000000000000000000000000000000000000815260040161076490612455565b60405180910390fd5b565b600060149054906101000a900460ff166107be576040517f08c379a00000000000000000000000000000000000000000000000000000000081526004016107b5906123e9565b60405180910390fd5b60011515600160003373ffffffffffffffffffffffffffffffffffffffff1673ffffffffffffffffffffffffffffffffffffffff16815260200190815260200160002060009054906101000a900460ff16151514610851576040517f08c379a000000000000000000000000000000000000000000000000000000000815260040161084890612455565b60405180910390fd5b565b600060149054906101000a900460ff166108a2576040517f08c379a0000000000000000000000000000000000000000000000000000000008152600401610899906123e9565b60405180910390fd5b600115156004826040516108b691906124b1565b908152602001604051809103902060000160009054906101000a900460ff16151514610917576040517f08c379a000000000000000000000000000000000000000000000000000000000815260040161090e90612514565b60405180910390fd5b670de0b6b3a76400003410610961576040517f08c379a0000000000000000000000000000000000000000000000000000000008152600401610958906125a6565b60405180910390fd5b60068160405161097191906124b1565b908152602001604051809103902060405180604001604052803373ffffffffffffffffffffffffffffffffffffffff16815260200134815250908060018154018082558091505060019003906000526020600020906002020160009091909190915060008201518160000160006101000a81548173ffffffffffffffffffffffffffffffffffffffff021916908373ffffffffffffffffffffffffffffffffffffffff16021790555060208201518160010155505050565b6000600260008373ffffffffffffffffffffffffffffffffffffffff1673ffffffffffffffffffffffffffffffffffffffff16815260200190815260200160002060000160029054906101000a900460ff169050919050565b6000600160008373ffffffffffffffffffffffffffffffffffffffff1673ffffffffffffffffffffffffffffffffffffffff16815260200190815260200160002060009054906101000a900460ff169050919050565b600080600080600260008673ffffffffffffffffffffffffffffffffffffffff1673ffffffffffffffffffffffffffffffffffffffff16815260200190815260200160002060000160009054906101000a900460ff16610b6d576040517f08c379a0000000000000000000000000000000000000000000000000000000008152600401610b6490612612565b60405180910390fd5b6000600260008773ffffffffffffffffffffffffffffffffffffffff1673ffffffffffffffffffffffffffffffffffffffff1681526020019081526020016000206040518060800160405290816000820160009054906101000a900460ff161515151581526020016000820160019054906101000a900460ff161515151581526020016000820160029054906101000a900460ff16151515158152602001600182015481525050905080600001518160200151826040015183606001519450945094509450509193509193565b6000600380549050905090565b600060149054906101000a900460ff16610c96576040517f08c379a0000000000000000000000000000000000000000000000000000000008152600401610c8d906123e9565b60405180910390fd5b60008054906101000a900473ffffffffffffffffffffffffffffffffffffffff1673ffffffffffffffffffffffffffffffffffffffff163273ffffffffffffffffffffffffffffffffffffffff1614610d24576040517f08c379a0000000000000000000000000000000000000000000000000000000008152600401610d1b90612357565b60405180910390fd5b600060038054905014610d6c576040517f08c379a0000000000000000000000000000000000000000000000000000000008152600401610d63906126a4565b60405180910390fd5b60405180608001604052806001151581526020016001151581526020016000151581526020016000815250600260008373ffffffffffffffffffffffffffffffffffffffff1673ffffffffffffffffffffffffffffffffffffffff16815260200190815260200160002060008201518160000160006101000a81548160ff02191690831515021790555060208201518160000160016101000a81548160ff02191690831515021790555060408201518160000160026101000a81548160ff021916908315150217905550606082015181600101559050506003819080600181540180825580915050600190039060005260206000200160009091909190916101000a81548173ffffffffffffffffffffffffffffffffffffffff021916908373ffffffffffffffffffffffffffffffffffffffff16021790555050565b6000600260008373ffffffffffffffffffffffffffffffffffffffff1673ffffffffffffffffffffffffffffffffffffffff16815260200190815260200160002060000160019054906101000a900460ff169050919050565b6000600260008373ffffffffffffffffffffffffffffffffffffffff1673ffffffffffffffffffffffffffffffffffffffff16815260200190815260200160002060000160009054906101000a900460ff16610f93576040517f08c379a0000000000000000000000000000000000000000000000000000000008152600401610f8a90612612565b60405180910390fd5b600260008373ffffffffffffffffffffffffffffffffffffffff1673ffffffffffffffffffffffffffffffffffffffff168152602001908152602001600020600101549050919050565b60606005805480602002602001604051908101604052809291908181526020016000905b828210156110ad578382906000526020600020018054611020906126f3565b80601f016020809104026020016040519081016040528092919081815260200182805461104c906126f3565b80156110995780601f1061106e57610100808354040283529160200191611099565b820191906000526020600020905b81548152906001019060200180831161107c57829003601f168201915b505050505081526020019060010190611001565b50505050905090565b6000600260008373ffffffffffffffffffffffffffffffffffffffff1673ffffffffffffffffffffffffffffffffffffffff16815260200190815260200160002060000160009054906101000a900460ff169050919050565b60008060008060048560405161112591906124b1565b90815260200160405180910390206040518060800160405290816000820160009054906101000a900460ff161515151581526020016000820160019054906101000a900460ff1660ff1660ff168152602001600182015481526020016002820160009054906101000a900473ffffffffffffffffffffffffffffffffffffffff1673ffffffffffffffffffffffffffffffffffffffff1673ffffffffffffffffffffffffffffffffffffffff16815250509050806020015181604001518260600151935093509350509193909250565b600060149054906101000a900460ff16611244576040517f08c379a000000000000000000000000000000000000000000000000000000000815260040161123b906123e9565b60405180910390fd5b600260003373ffffffffffffffffffffffffffffffffffffffff1673ffffffffffffffffffffffffffffffffffffffff16815260200190815260200160002060000160019054906101000a900460ff166112d3576040517f08c379a00000000000000000000000000000000000000000000000000000000081526004016112ca90612770565b60405180910390fd5b6000600260003373ffffffffffffffffffffffffffffffffffffffff1673ffffffffffffffffffffffffffffffffffffffff1681526020019081526020016000206001015414611358576040517f08c379a000000000000000000000000000000000000000000000000000000000815260040161134f906127dc565b60405180910390fd5b34600260003373ffffffffffffffffffffffffffffffffffffffff1673ffffffffffffffffffffffffffffffffffffffff168152602001908152602001600020600101819055506001600260003373ffffffffffffffffffffffffffffffffffffffff1673ffffffffffffffffffffffffffffffffffffffff16815260200190815260200160002060000160026101000a81548160ff021916908315150217905550565b600060149054906101000a900460ff1661144b576040517f08c379a0000000000000000000000000000000000000000000000000000000008152600401611442906123e9565b60405180910390fd5b60011515600160003373ffffffffffffffffffffffffffffffffffffffff1673ffffffffffffffffffffffffffffffffffffffff16815260200190815260200160002060009054906101000a900460ff161515146114de576040517f08c379a00000000000000000000000000000000000000000000000000000000081526004016114d590612455565b60405180910390fd5b600260008273ffffffffffffffffffffffffffffffffffffffff1673ffffffffffffffffffffffffffffffffffffffff16815260200190815260200160002060000160009054906101000a900460ff161561156e576040517f08c379a000000000000000000000000000000000000000000000000000000000815260040161156590612848565b60405180910390fd5b60405180608001604052806001151581526020016000151581526020016000151581526020016000815250600260008373ffffffffffffffffffffffffffffffffffffffff1673ffffffffffffffffffffffffffffffffffffffff16815260200190815260200160002060008201518160000160006101000a81548160ff02191690831515021790555060208201518160000160016101000a81548160ff02191690831515021790555060408201518160000160026101000a81548160ff0219169083151502179055506060820151816001015590505050565b600060149054906101000a900460ff16611697576040517f08c379a000000000000000000000000000000000000000000000000000000000815260040161168e906123e9565b60405180910390fd5b60011515600160003373ffffffffffffffffffffffffffffffffffffffff1673ffffffffffffffffffffffffffffffffffffffff16815260200190815260200160002060009054906101000a900460ff1615151461172a576040517f08c379a000000000000000000000000000000000000000000000000000000000815260040161172190612455565b60405180910390fd5b600260008273ffffffffffffffffffffffffffffffffffffffff1673ffffffffffffffffffffffffffffffffffffffff16815260200190815260200160002060000160009054906101000a900460ff166117b9576040517f08c379a00000000000000000000000000000000000000000000000000000000081526004016117b0906128da565b60405180910390fd5b6001600260008373ffffffffffffffffffffffffffffffffffffffff1673ffffffffffffffffffffffffffffffffffffffff16815260200190815260200160002060000160016101000a81548160ff0219169083151502179055506003819080600181540180825580915050600190039060005260206000200160009091909190916101000a81548173ffffffffffffffffffffffffffffffffffffffff021916908373ffffffffffffffffffffffffffffffffffffffff16021790555050565b60008060149054906101000a900460ff16905090565b600060149054906101000a900460ff166118df576040517f08c379a00000000000000000000000000000000000000000000000000000000081526004016118d6906123e9565b60405180910390fd5b60011515600160003373ffffffffffffffffffffffffffffffffffffffff1673ffffffffffffffffffffffffffffffffffffffff16815260200190815260200160002060009054906101000a900460ff16151514611972576040517f08c379a000000000000000000000000000000000000000000000000000000000815260040161196990612455565b60405180910390fd5b6000151560048360405161198691906124b1565b908152602001604051809103902060000160009054906101000a900460ff161515146119e7576040517f08c379a00000000000000000000000000000000000000000000000000000000081526004016119de90612946565b60405180910390fd5b60405180608001604052806001151581526020018260ff1681526020014281526020018473ffffffffffffffffffffffffffffffffffffffff16815250600483604051611a3491906124b1565b908152602001604051809103902060008201518160000160006101000a81548160ff02191690831515021790555060208201518160000160016101000a81548160ff021916908360ff1602179055506040820151816001015560608201518160020160006101000a81548173ffffffffffffffffffffffffffffffffffffffff021916908373ffffffffffffffffffffffffffffffffffffffff160217905550905050600582908060018154018082558091505060019003906000526020600020016000909190919091509081611b0b9190612b12565b50505050565b60008054906101000a900473ffffffffffffffffffffffffffffffffffffffff1673ffffffffffffffffffffffffffffffffffffffff163273ffffffffffffffffffffffffffffffffffffffff1614611b9f576040517f08c379a0000000000000000000000000000000000000000000000000000000008152600401611b9690612357565b60405180910390fd5b80600160008473ffffffffffffffffffffffffffffffffffffffff1673ffffffffffffffffffffffffffffffffffffffff16815260200190815260200160002060006101000a81548160ff0219169083151502179055505050565b600073ffffffffffffffffffffffffffffffffffffffff82169050919050565b6000611c2582611bfa565b9050919050565b611c3581611c1a565b82525050565b6000602082019050611c506000830184611c2c565b92915050565b600081519050919050565b600082825260208201905092915050565b6000819050602082019050919050565b611c8b81611c1a565b82525050565b6000611c9d8383611c82565b60208301905092915050565b6000602082019050919050565b6000611cc182611c56565b611ccb8185611c61565b9350611cd683611c72565b8060005b83811015611d07578151611cee8882611c91565b9750611cf983611ca9565b925050600181019050611cda565b5085935050505092915050565b60006020820190508181036000830152611d2e8184611cb6565b905092915050565b6000604051905090565b600080fd5b600080fd5b60008115159050919050565b611d5f81611d4a565b8114611d6a57600080fd5b50565b600081359050611d7c81611d56565b92915050565b600060208284031215611d9857611d97611d40565b5b6000611da684828501611d6d565b91505092915050565b600080fd5b600080fd5b6000601f19601f8301169050919050565b7f4e487b7100000000000000000000000000000000000000000000000000000000600052604160045260246000fd5b611e0282611db9565b810181811067ffffffffffffffff82111715611e2157611e20611dca565b5b80604052505050565b6000611e34611d36565b9050611e408282611df9565b919050565b600067ffffffffffffffff821115611e6057611e5f611dca565b5b611e6982611db9565b9050602081019050919050565b82818337600083830152505050565b6000611e98611e9384611e45565b611e2a565b905082815260208101848484011115611eb457611eb3611db4565b5b611ebf848285611e76565b509392505050565b600082601f830112611edc57611edb611daf565b5b8135611eec848260208601611e85565b91505092915050565b600060208284031215611f0b57611f0a611d40565b5b600082013567ffffffffffffffff811115611f2957611f28611d45565b5b611f3584828501611ec7565b91505092915050565b611f4781611c1a565b8114611f5257600080fd5b50565b600081359050611f6481611f3e565b92915050565b600060208284031215611f8057611f7f611d40565b5b6000611f8e84828501611f55565b91505092915050565b611fa081611d4a565b82525050565b6000602082019050611fbb6000830184611f97565b92915050565b6000819050919050565b611fd481611fc1565b82525050565b6000608082019050611fef6000830187611f97565b611ffc6020830186611f97565b6120096040830185611f97565b6120166060830184611fcb565b95945050505050565b60006020820190506120346000830184611fcb565b92915050565b600081519050919050565b600082825260208201905092915050565b6000819050602082019050919050565b600081519050919050565b600082825260208201905092915050565b60005b838110156120a0578082015181840152602081019050612085565b60008484015250505050565b60006120b782612066565b6120c18185612071565b93506120d1818560208601612082565b6120da81611db9565b840191505092915050565b60006120f183836120ac565b905092915050565b6000602082019050919050565b60006121118261203a565b61211b8185612045565b93508360208202850161212d85612056565b8060005b85811015612169578484038952815161214a85826120e5565b9450612155836120f9565b925060208a01995050600181019050612131565b50829750879550505050505092915050565b600060208201905081810360008301526121958184612106565b905092915050565b600060ff82169050919050565b6121b38161219d565b82525050565b60006060820190506121ce60008301866121aa565b6121db6020830185611fcb565b6121e86040830184611c2c565b949350505050565b6121f98161219d565b811461220457600080fd5b50565b600081359050612216816121f0565b92915050565b60008060006060848603121561223557612234611d40565b5b600061224386828701611f55565b935050602084013567ffffffffffffffff81111561226457612263611d45565b5b61227086828701611ec7565b925050604061228186828701612207565b9150509250925092565b600080604083850312156122a2576122a1611d40565b5b60006122b085828601611f55565b92505060206122c185828601611d6d565b9150509250929050565b7f4e487b7100000000000000000000000000000000000000000000000000000000600052603260045260246000fd5b600082825260208201905092915050565b7f43616c6c6572206973206e6f7420636f6e7472616374206f776e657200000000600082015250565b6000612341601c836122fa565b915061234c8261230b565b602082019050919050565b6000602082019050818103600083015261237081612334565b9050919050565b7f436f6e74726163742069732063757272656e746c79206e6f74206f706572617460008201527f696f6e616c000000000000000000000000000000000000000000000000000000602082015250565b60006123d36025836122fa565b91506123de82612377565b604082019050919050565b60006020820190508181036000830152612402816123c6565b9050919050565b7f4e6f7420616e20617574686f72697a656420636f6e74726163742063616c6c00600082015250565b600061243f601f836122fa565b915061244a82612409565b602082019050919050565b6000602082019050818103600083015261246e81612432565b9050919050565b600081905092915050565b600061248b82612066565b6124958185612475565b93506124a5818560208601612082565b80840191505092915050565b60006124bd8284612480565b915081905092915050565b7f466c69676874206e6f7420616c72656164792072656769737465726564000000600082015250565b60006124fe601d836122fa565b9150612509826124c8565b602082019050919050565b6000602082019050818103600083015261252d816124f1565b9050919050565b7f496e737572616e63652073686f756c6420626520757020746f2031206574686560008201527f7200000000000000000000000000000000000000000000000000000000000000602082015250565b60006125906021836122fa565b915061259b82612534565b604082019050919050565b600060208201905081810360008301526125bf81612583565b9050919050565b7f4169726c696e6573206973206e6f742072656769737465726564000000000000600082015250565b60006125fc601a836122fa565b9150612607826125c6565b602082019050919050565b6000602082019050818103600083015261262b816125ef565b9050919050565b7f4f6e6c79206669727374206169726c696e652063616e2062652072656769737460008201527f6572656420686572650000000000000000000000000000000000000000000000602082015250565b600061268e6029836122fa565b915061269982612632565b604082019050919050565b600060208201905081810360008301526126bd81612681565b9050919050565b7f4e487b7100000000000000000000000000000000000000000000000000000000600052602260045260246000fd5b6000600282049050600182168061270b57607f821691505b60208210810361271e5761271d6126c4565b5b50919050565b7f4169726c696e65206e6f74207965742061636365707465640000000000000000600082015250565b600061275a6018836122fa565b915061276582612724565b602082019050919050565b600060208201905081810360008301526127898161274d565b9050919050565b7f4169726c696e6520616c72656164792070726f76696465642066756e64696e67600082015250565b60006127c66020836122fa565b91506127d182612790565b602082019050919050565b600060208201905081810360008301526127f5816127b9565b9050919050565b7f4169726c696e6520616c72656164792072656769737465726564000000000000600082015250565b6000612832601a836122fa565b915061283d826127fc565b602082019050919050565b6000602082019050818103600083015261286181612825565b9050919050565b7f4169726c696e652073686f756c6420626520726567697374657265642066697260008201527f7374000000000000000000000000000000000000000000000000000000000000602082015250565b60006128c46022836122fa565b91506128cf82612868565b604082019050919050565b600060208201905081810360008301526128f3816128b7565b9050919050565b7f466c6967687420616c7265616479207265676973746572656400000000000000600082015250565b60006129306019836122fa565b915061293b826128fa565b602082019050919050565b6000602082019050818103600083015261295f81612923565b9050919050565b60008190508160005260206000209050919050565b60006020601f8301049050919050565b600082821b905092915050565b6000600883026129c87fffffffffffffffffffffffffffffffffffffffffffffffffffffffffffffffff8261298b565b6129d2868361298b565b95508019841693508086168417925050509392505050565b6000819050919050565b6000612a0f612a0a612a0584611fc1565b6129ea565b611fc1565b9050919050565b6000819050919050565b612a29836129f4565b612a3d612a3582612a16565b848454612998565b825550505050565b600090565b612a52612a45565b612a5d818484612a20565b505050565b5b81811015612a8157612a76600082612a4a565b600181019050612a63565b5050565b601f821115612ac657612a9781612966565b612aa08461297b565b81016020851015612aaf578190505b612ac3612abb8561297b565b830182612a62565b50505b505050565b600082821c905092915050565b6000612ae960001984600802612acb565b1980831691505092915050565b6000612b028383612ad8565b9150826002028217905092915050565b612b1b82612066565b67ffffffffffffffff811115612b3457612b33611dca565b5b612b3e82546126f3565b612b49828285612a85565b600060209050601f831160018114612b7c5760008415612b6a578287015190505b612b748582612af6565b865550612bdc565b601f198416612b8a86612966565b60005b82811015612bb257848901518255600182019150602085019450602081019050612b8d565b86831015612bcf5784890151612bcb601f891682612ad8565b8355505b6001600288020188555050505b50505050505056fea26469706673582212203d5e42b52aa02cdfdf17c7dde32fa543765f3d2c370834cd1c149ca26ca9c35064736f6c63430008100033",
  "immutableReferences": {},
  "source": "// SPDX-License-Identifier: MIT\npragma solidity ^0.8.16;\n\nimport \"@openzeppelin/contracts/utils/math/SafeMath.sol\";\n\ncontract FlightSuretyData {\n\n    using SafeMath for uint256;\n\n    /********************************************************************************************/\n    /*                                       DATA VARIABLES                                     */\n    /********************************************************************************************/\n    // Account used to deploy contract\n    address private contractOwner;                                      \n\n    // Blocks all state changes throughout the contract if false\n    bool private operational = true;                                    \n\n    // Only authorized contracts can perform write transactions\n    mapping(address => bool) private authorized;\n     \n    // Airlines information\n    struct Airline {\n        bool isRegistered;\n        bool isAccepted;\n        bool isMember;\n        uint256 balance;\n    }\n    mapping(address => Airline) private airlines;\n    address[] private airlinesArray = new address[](0);\n    \n    // Flights information\n    struct Flight {\n        bool isRegistered;\n        uint8 statusCode;\n        uint256 updatedTimestamp;        \n        address airline;\n    }\n    mapping(string => Flight) private flights;\n    string[] private flightsArray = new string[](0);\n    \n    // Insurances information\n    struct Insurance {\n        address passenger;\n        uint256 amount;\n    }\n    mapping(string => Insurance[]) private insurances;\n    string[] private insurancesArray = new string[](0);\n\n    /********************************************************************************************/\n    /*                                       EVENT DEFINITIONS                                  */\n    /********************************************************************************************/\n    constructor () {\n        contractOwner = msg.sender;\n    }\n\n    /********************************************************************************************/\n    /*                                       FUNCTION MODIFIERS                                 */\n    /********************************************************************************************/\n    modifier requireIsOperational() {\n        require(operational, \"Contract is currently not operational\");\n        _;\n    }\n\n    modifier requireContractOwner() {\n        require(tx.origin == contractOwner, \"Caller is not contract owner\");\n        _;\n    }\n\n    modifier requireAuthorizedContract() {\n        require(authorized[msg.sender] == true, \"Not an authorized contract call\");\n        _;\n    }\n\n    modifier requireAcceptedAirline(){\n        require(airlines[msg.sender].isAccepted, \"Airline not yet accepted\");\n        _;\n    }\n\n    modifier requireMemberAirline(){\n        require(airlines[msg.sender].isMember, \"Airline not yet provided funding\");\n        _;\n    }\n\n\n    /********************************************************************************************/\n    /*                                       UTILITY FUNCTIONS                                  */\n    /********************************************************************************************/\n    function isOperational() public view returns(bool)  {\n        return operational;\n    }\n\n    function setOperatingStatus (bool status) external requireContractOwner {\n        operational = status;\n    }\n\n    function isAuthorizedContract(address contractAddress) external view returns(bool) {\n        return authorized[contractAddress];\n    }\n\n    function setAuthorizedContract(address contractAddress, bool status) external requireContractOwner {\n        authorized[contractAddress] = status;\n    }\n\n    function getFirstAirline() external view returns(address) {\n        return airlinesArray[0];\n    }\n\n    function getNumAirlines () external view returns (uint256) {\n        return airlinesArray.length;\n    }\n\n    function isRegisteredAirline(address account) external view returns(bool){\n        return airlines[account].isRegistered;\n    }\n\n    function isAcceptedAirline(address account) external view returns(bool){\n        return airlines[account].isAccepted;\n    }\n\n\n    function isMemberAirline(address account) external view returns(bool){\n        return airlines[account].isMember;\n    }\n\n    function getAirlineBalance(address account) external view returns (uint256) {\n        require(airlines[account].isRegistered, \"Airlines is not registered\");\n        return (airlines[account].balance);\n    }\n\n    function getAirlineInfo(address account) external view returns (bool, bool, bool, uint256) {\n        require(airlines[account].isRegistered, \"Airlines is not registered\");\n        Airline memory aux = airlines[account];\n        return (aux.isRegistered, aux.isAccepted, aux.isMember, aux.balance);\n    }\n\n    function getAirlines() external view returns (address[] memory) {\n        return airlinesArray;\n    }\n\n    function getFlightInfo(string memory flight) external view returns (uint8 statusCode, uint256 updatedTimestamp, address airline) {\n        //require(flights[flight].isRegistered == true, \"Flight not registered\");\n        Flight memory aux = flights[flight];\n        return (aux.statusCode, aux.updatedTimestamp, aux.airline);\n    }\n\n    function getFlights() external view returns (string[] memory) {\n        return flightsArray;\n    }\n\n    /********************************************************************************************/\n    /*          SMART CONTRACT FUNCTIONS CAN BE CALLED ONLY FROM APP CONTRACT                   */\n    /********************************************************************************************/\n    function registerFirstAirline (address account) external requireIsOperational requireContractOwner {\n        require(airlinesArray.length == 0, \"Only first airline can be registered here\");\n        airlines[account] = Airline(true, true, false, 0);\n        airlinesArray.push(account);\n    }\n\n    function registerAirline (address account) external requireIsOperational requireAuthorizedContract {\n        require(!airlines[account].isRegistered, \"Airline already registered\");\n        airlines[account] = Airline(true, false, false, 0);\n    }\n\n    function acceptAirline (address account) external requireIsOperational requireAuthorizedContract {\n        require(airlines[account].isRegistered, \"Airline should be registered first\");\n        airlines[account].isAccepted = true;\n        airlinesArray.push(account);\n    }\n\n    function registerFlight (address account, string memory flight, uint8 status) external requireIsOperational requireAuthorizedContract {\n        require(flights[flight].isRegistered == false, \"Flight already registered\");\n        flights[flight] = Flight(true, status, block.timestamp, account);\n        flightsArray.push(flight);\n    }\n\n    /********************************************************************************************/\n    /*               SMART CONTRACT FUNCTIONS THAT CAN BE CALLED DIRECTLY FROM EOA              */\n    /********************************************************************************************/\n   /**\n    * @dev Buy insurance for a flight\n    */   \n    function buy (string memory flight) external payable requireIsOperational {\n        require(flights[flight].isRegistered == true, \"Flight not already registered\");\n        require(msg.value < 1 ether, \"Insurance should be up to 1 ether\");\n        insurances[flight].push(Insurance(msg.sender, msg.value));\n    }\n\n   /**\n    *  @dev Credits payouts to insurees\n    */\n    function creditInsurees () external requireIsOperational requireAuthorizedContract {\n    }\n\n   /**\n    *  @dev Transfers eligible payout funds to insuree\n    */\n    function pay () external requireIsOperational requireAuthorizedContract {\n    }\n\n   /**\n    * @dev Initial funding for the insurance. Unless there are too many delayed flights resulting in insurance payouts, the contract should be self-sustaining\n    */   \n    function fund () public payable requireIsOperational requireAcceptedAirline {\n        require(airlines[msg.sender].balance == 0, \"Airline already provided funding\");\n        airlines[msg.sender].balance = msg.value;\n        airlines[msg.sender].isMember = true;\n    }\n\n    function getFlightKey (address airline, string memory flight, uint256 timestamp) pure internal returns(bytes32) {\n        return keccak256(abi.encodePacked(airline, flight, timestamp));\n    }\n}",
  "sourcePath": "/home/isma/Desktop/code/blockchain/FlightSurety/contracts/FlightSuretyData.sol",
  "compiler": {
    "name": "solc",
    "version": "0.8.16+commit.07a7930e.Emscripten.clang"
  },
  "schemaVersion": "3.4.9",
  "updatedAt": "2022-09-16T16:56:09.675Z",
  "devdoc": {
    "kind": "dev",
    "methods": {
      "buy(string)": {
        "details": "Buy insurance for a flight"
      },
      "creditInsurees()": {
        "details": "Credits payouts to insurees"
      },
      "fund()": {
        "details": "Initial funding for the insurance. Unless there are too many delayed flights resulting in insurance payouts, the contract should be self-sustaining"
      },
      "pay()": {
        "details": "Transfers eligible payout funds to insuree"
      }
    },
    "version": 1
  },
  "userdoc": {
    "kind": "user",
    "methods": {},
    "version": 1
  }
}